{
	"contracts/escrowcontract.sol": {
		"Escrow": {
			"abi": [
				{
					"inputs": [
						{
							"internalType": "uint256",
							"name": "_escFee",
							"type": "uint256"
						}
					],
					"stateMutability": "nonpayable",
					"type": "constructor"
				},
				{
					"anonymous": false,
					"inputs": [
						{
							"indexed": false,
							"internalType": "uint256",
							"name": "itemId",
							"type": "uint256"
						},
						{
							"indexed": false,
							"internalType": "string",
							"name": "actionType",
							"type": "string"
						},
						{
							"indexed": false,
							"internalType": "enum Escrow.Status",
							"name": "status",
							"type": "uint8"
						},
						{
							"indexed": true,
							"internalType": "address",
							"name": "executor",
							"type": "address"
						}
					],
					"name": "Action",
					"type": "event"
				},
				{
					"inputs": [
						{
							"internalType": "uint256",
							"name": "itemId",
							"type": "uint256"
						},
						{
							"internalType": "address",
							"name": "provider",
							"type": "address"
						}
					],
					"name": "approveRequest",
					"outputs": [
						{
							"internalType": "bool",
							"name": "",
							"type": "bool"
						}
					],
					"stateMutability": "nonpayable",
					"type": "function"
				},
				{
					"inputs": [
						{
							"internalType": "uint256",
							"name": "itemId",
							"type": "uint256"
						},
						{
							"internalType": "bool",
							"name": "provided",
							"type": "bool"
						}
					],
					"name": "confirmDelivery",
					"outputs": [
						{
							"internalType": "bool",
							"name": "",
							"type": "bool"
						}
					],
					"stateMutability": "nonpayable",
					"type": "function"
				},
				{
					"inputs": [
						{
							"internalType": "string",
							"name": "purpose",
							"type": "string"
						},
						{
							"internalType": "uint256",
							"name": "amount",
							"type": "uint256"
						}
					],
					"name": "createItem",
					"outputs": [
						{
							"internalType": "bool",
							"name": "",
							"type": "bool"
						}
					],
					"stateMutability": "payable",
					"type": "function"
				},
				{
					"inputs": [],
					"name": "escAcc",
					"outputs": [
						{
							"internalType": "address payable",
							"name": "",
							"type": "address"
						}
					],
					"stateMutability": "view",
					"type": "function"
				},
				{
					"inputs": [],
					"name": "escAvailBal",
					"outputs": [
						{
							"internalType": "uint256",
							"name": "",
							"type": "uint256"
						}
					],
					"stateMutability": "view",
					"type": "function"
				},
				{
					"inputs": [],
					"name": "escBal",
					"outputs": [
						{
							"internalType": "uint256",
							"name": "",
							"type": "uint256"
						}
					],
					"stateMutability": "view",
					"type": "function"
				},
				{
					"inputs": [],
					"name": "escFee",
					"outputs": [
						{
							"internalType": "uint256",
							"name": "",
							"type": "uint256"
						}
					],
					"stateMutability": "view",
					"type": "function"
				},
				{
					"inputs": [
						{
							"internalType": "uint256",
							"name": "itemId",
							"type": "uint256"
						}
					],
					"name": "getItem",
					"outputs": [
						{
							"components": [
								{
									"internalType": "uint256",
									"name": "itemId",
									"type": "uint256"
								},
								{
									"internalType": "string",
									"name": "purpose",
									"type": "string"
								},
								{
									"internalType": "uint256",
									"name": "amount",
									"type": "uint256"
								},
								{
									"internalType": "uint256",
									"name": "timestamp",
									"type": "uint256"
								},
								{
									"internalType": "address",
									"name": "owner",
									"type": "address"
								},
								{
									"internalType": "address",
									"name": "provider",
									"type": "address"
								},
								{
									"internalType": "enum Escrow.Status",
									"name": "status",
									"type": "uint8"
								},
								{
									"internalType": "bool",
									"name": "provided",
									"type": "bool"
								},
								{
									"internalType": "bool",
									"name": "confirmed",
									"type": "bool"
								}
							],
							"internalType": "struct Escrow.ItemStruct",
							"name": "",
							"type": "tuple"
						}
					],
					"stateMutability": "view",
					"type": "function"
				},
				{
					"inputs": [],
					"name": "getItems",
					"outputs": [
						{
							"components": [
								{
									"internalType": "uint256",
									"name": "itemId",
									"type": "uint256"
								},
								{
									"internalType": "string",
									"name": "purpose",
									"type": "string"
								},
								{
									"internalType": "uint256",
									"name": "amount",
									"type": "uint256"
								},
								{
									"internalType": "uint256",
									"name": "timestamp",
									"type": "uint256"
								},
								{
									"internalType": "address",
									"name": "owner",
									"type": "address"
								},
								{
									"internalType": "address",
									"name": "provider",
									"type": "address"
								},
								{
									"internalType": "enum Escrow.Status",
									"name": "status",
									"type": "uint8"
								},
								{
									"internalType": "bool",
									"name": "provided",
									"type": "bool"
								},
								{
									"internalType": "bool",
									"name": "confirmed",
									"type": "bool"
								}
							],
							"internalType": "struct Escrow.ItemStruct[]",
							"name": "props",
							"type": "tuple[]"
						}
					],
					"stateMutability": "view",
					"type": "function"
				},
				{
					"inputs": [
						{
							"internalType": "uint256",
							"name": "",
							"type": "uint256"
						}
					],
					"name": "isAvailable",
					"outputs": [
						{
							"internalType": "enum Escrow.Available",
							"name": "",
							"type": "uint8"
						}
					],
					"stateMutability": "view",
					"type": "function"
				},
				{
					"inputs": [],
					"name": "myItems",
					"outputs": [
						{
							"components": [
								{
									"internalType": "uint256",
									"name": "itemId",
									"type": "uint256"
								},
								{
									"internalType": "string",
									"name": "purpose",
									"type": "string"
								},
								{
									"internalType": "uint256",
									"name": "amount",
									"type": "uint256"
								},
								{
									"internalType": "uint256",
									"name": "timestamp",
									"type": "uint256"
								},
								{
									"internalType": "address",
									"name": "owner",
									"type": "address"
								},
								{
									"internalType": "address",
									"name": "provider",
									"type": "address"
								},
								{
									"internalType": "enum Escrow.Status",
									"name": "status",
									"type": "uint8"
								},
								{
									"internalType": "bool",
									"name": "provided",
									"type": "bool"
								},
								{
									"internalType": "bool",
									"name": "confirmed",
									"type": "bool"
								}
							],
							"internalType": "struct Escrow.ItemStruct[]",
							"name": "",
							"type": "tuple[]"
						}
					],
					"stateMutability": "view",
					"type": "function"
				},
				{
					"inputs": [
						{
							"internalType": "uint256",
							"name": "",
							"type": "uint256"
						}
					],
					"name": "ownerOf",
					"outputs": [
						{
							"internalType": "address",
							"name": "",
							"type": "address"
						}
					],
					"stateMutability": "view",
					"type": "function"
				},
				{
					"inputs": [
						{
							"internalType": "uint256",
							"name": "itemId",
							"type": "uint256"
						}
					],
					"name": "performDelievery",
					"outputs": [
						{
							"internalType": "bool",
							"name": "",
							"type": "bool"
						}
					],
					"stateMutability": "nonpayable",
					"type": "function"
				},
				{
					"inputs": [
						{
							"internalType": "uint256",
							"name": "itemId",
							"type": "uint256"
						}
					],
					"name": "refundItem",
					"outputs": [
						{
							"internalType": "bool",
							"name": "",
							"type": "bool"
						}
					],
					"stateMutability": "nonpayable",
					"type": "function"
				},
				{
					"inputs": [
						{
							"internalType": "uint256",
							"name": "itemId",
							"type": "uint256"
						}
					],
					"name": "requestItem",
					"outputs": [
						{
							"internalType": "bool",
							"name": "",
							"type": "bool"
						}
					],
					"stateMutability": "nonpayable",
					"type": "function"
				},
				{
					"inputs": [
						{
							"internalType": "address",
							"name": "",
							"type": "address"
						},
						{
							"internalType": "uint256",
							"name": "",
							"type": "uint256"
						}
					],
					"name": "requested",
					"outputs": [
						{
							"internalType": "bool",
							"name": "",
							"type": "bool"
						}
					],
					"stateMutability": "view",
					"type": "function"
				},
				{
					"inputs": [],
					"name": "totalConfirmed",
					"outputs": [
						{
							"internalType": "uint256",
							"name": "",
							"type": "uint256"
						}
					],
					"stateMutability": "view",
					"type": "function"
				},
				{
					"inputs": [],
					"name": "totalDisputed",
					"outputs": [
						{
							"internalType": "uint256",
							"name": "",
							"type": "uint256"
						}
					],
					"stateMutability": "view",
					"type": "function"
				},
				{
					"inputs": [],
					"name": "totalItems",
					"outputs": [
						{
							"internalType": "uint256",
							"name": "",
							"type": "uint256"
						}
					],
					"stateMutability": "view",
					"type": "function"
				},
				{
					"inputs": [
						{
							"internalType": "address",
							"name": "to",
							"type": "address"
						},
						{
							"internalType": "uint256",
							"name": "amount",
							"type": "uint256"
						}
					],
					"name": "withdrawFund",
					"outputs": [
						{
							"internalType": "bool",
							"name": "",
							"type": "bool"
						}
					],
					"stateMutability": "nonpayable",
					"type": "function"
				}
			],
			"devdoc": {
				"kind": "dev",
				"methods": {},
				"version": 1
			},
			"evm": {
				"assembly": "    /* \"contracts/escrowcontract.sol\":122:6597  contract Escrow is ReentrancyGuard {... */\n  mstore(0x40, 0x80)\n    /* \"contracts/escrowcontract.sol\":313:314  0 */\n  0x00\n    /* \"contracts/escrowcontract.sol\":285:314  uint256 public totalItems = 0 */\n  0x05\n  sstore\n    /* \"contracts/escrowcontract.sol\":352:353  0 */\n  0x00\n    /* \"contracts/escrowcontract.sol\":320:353  uint256 public totalConfirmed = 0 */\n  0x06\n  sstore\n    /* \"contracts/escrowcontract.sol\":390:391  0 */\n  0x00\n    /* \"contracts/escrowcontract.sol\":359:391  uint256 public totalDisputed = 0 */\n  0x07\n  sstore\n    /* \"contracts/escrowcontract.sol\":1236:1381  constructor(uint256 _escFee) {... */\n  callvalue\n  dup1\n  iszero\n  tag_1\n  jumpi\n  0x00\n  dup1\n  revert\ntag_1:\n  pop\n  mload(0x40)\n  sub(codesize, bytecodeSize)\n  dup1\n  bytecodeSize\n  dup4\n  codecopy\n  dup2\n  dup2\n  add\n  0x40\n  mstore\n  dup2\n  add\n  swap1\n  tag_2\n  swap2\n  swap1\n  tag_3\n  jump\t// in\ntag_2:\n    /* \"@openzeppelin/contracts/security/ReentrancyGuard.sol\":1716:1717  1 */\n  0x01\n    /* \"@openzeppelin/contracts/security/ReentrancyGuard.sol\":1821:1828  _status */\n  0x00\n    /* \"@openzeppelin/contracts/security/ReentrancyGuard.sol\":1821:1843  _status = _NOT_ENTERED */\n  dup2\n  swap1\n  sstore\n  pop\n    /* \"contracts/escrowcontract.sol\":1292:1302  msg.sender */\n  caller\n    /* \"contracts/escrowcontract.sol\":1275:1281  escAcc */\n  0x01\n  0x00\n    /* \"contracts/escrowcontract.sol\":1275:1303  escAcc = payable(msg.sender) */\n  0x0100\n  exp\n  dup2\n  sload\n  dup2\n  0xffffffffffffffffffffffffffffffffffffffff\n  mul\n  not\n  and\n  swap1\n  dup4\n  0xffffffffffffffffffffffffffffffffffffffff\n  and\n  mul\n  or\n  swap1\n  sstore\n  pop\n    /* \"contracts/escrowcontract.sol\":1322:1323  0 */\n  0x00\n    /* \"contracts/escrowcontract.sol\":1313:1319  escBal */\n  0x02\n    /* \"contracts/escrowcontract.sol\":1313:1323  escBal = 0 */\n  dup2\n  swap1\n  sstore\n  pop\n    /* \"contracts/escrowcontract.sol\":1347:1348  0 */\n  0x00\n    /* \"contracts/escrowcontract.sol\":1333:1344  escAvailBal */\n  0x03\n    /* \"contracts/escrowcontract.sol\":1333:1348  escAvailBal = 0 */\n  dup2\n  swap1\n  sstore\n  pop\n    /* \"contracts/escrowcontract.sol\":1367:1374  _escFee */\n  dup1\n    /* \"contracts/escrowcontract.sol\":1358:1364  escFee */\n  0x04\n    /* \"contracts/escrowcontract.sol\":1358:1374  escFee = _escFee */\n  dup2\n  swap1\n  sstore\n  pop\n    /* \"contracts/escrowcontract.sol\":1236:1381  constructor(uint256 _escFee) {... */\n  pop\n    /* \"contracts/escrowcontract.sol\":122:6597  contract Escrow is ReentrancyGuard {... */\n  jump(tag_8)\n    /* \"#utility.yul\":88:205   */\ntag_10:\n    /* \"#utility.yul\":197:198   */\n  0x00\n    /* \"#utility.yul\":194:195   */\n  dup1\n    /* \"#utility.yul\":187:199   */\n  revert\n    /* \"#utility.yul\":334:411   */\ntag_12:\n    /* \"#utility.yul\":371:378   */\n  0x00\n    /* \"#utility.yul\":400:405   */\n  dup2\n    /* \"#utility.yul\":389:405   */\n  swap1\n  pop\n    /* \"#utility.yul\":334:411   */\n  swap2\n  swap1\n  pop\n  jump\t// out\n    /* \"#utility.yul\":417:539   */\ntag_13:\n    /* \"#utility.yul\":490:514   */\n  tag_21\n    /* \"#utility.yul\":508:513   */\n  dup2\n    /* \"#utility.yul\":490:514   */\n  tag_12\n  jump\t// in\ntag_21:\n    /* \"#utility.yul\":483:488   */\n  dup2\n    /* \"#utility.yul\":480:515   */\n  eq\n    /* \"#utility.yul\":470:533   */\n  tag_22\n  jumpi\n    /* \"#utility.yul\":529:530   */\n  0x00\n    /* \"#utility.yul\":526:527   */\n  dup1\n    /* \"#utility.yul\":519:531   */\n  revert\n    /* \"#utility.yul\":470:533   */\ntag_22:\n    /* \"#utility.yul\":417:539   */\n  pop\n  jump\t// out\n    /* \"#utility.yul\":545:688   */\ntag_14:\n    /* \"#utility.yul\":602:607   */\n  0x00\n    /* \"#utility.yul\":633:639   */\n  dup2\n    /* \"#utility.yul\":627:640   */\n  mload\n    /* \"#utility.yul\":618:640   */\n  swap1\n  pop\n    /* \"#utility.yul\":649:682   */\n  tag_24\n    /* \"#utility.yul\":676:681   */\n  dup2\n    /* \"#utility.yul\":649:682   */\n  tag_13\n  jump\t// in\ntag_24:\n    /* \"#utility.yul\":545:688   */\n  swap3\n  swap2\n  pop\n  pop\n  jump\t// out\n    /* \"#utility.yul\":694:1045   */\ntag_3:\n    /* \"#utility.yul\":764:770   */\n  0x00\n    /* \"#utility.yul\":813:815   */\n  0x20\n    /* \"#utility.yul\":801:810   */\n  dup3\n    /* \"#utility.yul\":792:799   */\n  dup5\n    /* \"#utility.yul\":788:811   */\n  sub\n    /* \"#utility.yul\":784:816   */\n  slt\n    /* \"#utility.yul\":781:900   */\n  iszero\n  tag_26\n  jumpi\n    /* \"#utility.yul\":819:898   */\n  tag_27\n  tag_10\n  jump\t// in\ntag_27:\n    /* \"#utility.yul\":781:900   */\ntag_26:\n    /* \"#utility.yul\":939:940   */\n  0x00\n    /* \"#utility.yul\":964:1028   */\n  tag_28\n    /* \"#utility.yul\":1020:1027   */\n  dup5\n    /* \"#utility.yul\":1011:1017   */\n  dup3\n    /* \"#utility.yul\":1000:1009   */\n  dup6\n    /* \"#utility.yul\":996:1018   */\n  add\n    /* \"#utility.yul\":964:1028   */\n  tag_14\n  jump\t// in\ntag_28:\n    /* \"#utility.yul\":954:1028   */\n  swap2\n  pop\n    /* \"#utility.yul\":910:1038   */\n  pop\n    /* \"#utility.yul\":694:1045   */\n  swap3\n  swap2\n  pop\n  pop\n  jump\t// out\n    /* \"contracts/escrowcontract.sol\":122:6597  contract Escrow is ReentrancyGuard {... */\ntag_8:\n  dataSize(sub_0)\n  dup1\n  dataOffset(sub_0)\n  0x00\n  codecopy\n  0x00\n  return\nstop\n\nsub_0: assembly {\n        /* \"contracts/escrowcontract.sol\":122:6597  contract Escrow is ReentrancyGuard {... */\n      mstore(0x40, 0x80)\n      jumpi(tag_1, lt(calldatasize, 0x04))\n      shr(0xe0, calldataload(0x00))\n      dup1\n      0x618f0ea7\n      gt\n      tag_22\n      jumpi\n      dup1\n      0xbc045df8\n      gt\n      tag_23\n      jumpi\n      dup1\n      0xbc045df8\n      eq\n      tag_17\n      jumpi\n      dup1\n      0xc86d9da2\n      eq\n      tag_18\n      jumpi\n      dup1\n      0xc9958c4d\n      eq\n      tag_19\n      jumpi\n      dup1\n      0xd62a4887\n      eq\n      tag_20\n      jumpi\n      dup1\n      0xf7c8d221\n      eq\n      tag_21\n      jumpi\n      jump(tag_1)\n    tag_23:\n      dup1\n      0x618f0ea7\n      eq\n      tag_12\n      jumpi\n      dup1\n      0x6352211e\n      eq\n      tag_13\n      jumpi\n      dup1\n      0x6754cc28\n      eq\n      tag_14\n      jumpi\n      dup1\n      0x7216f123\n      eq\n      tag_15\n      jumpi\n      dup1\n      0x8c551742\n      eq\n      tag_16\n      jumpi\n      jump(tag_1)\n    tag_22:\n      dup1\n      0x3a178d99\n      gt\n      tag_24\n      jumpi\n      dup1\n      0x3a178d99\n      eq\n      tag_7\n      jumpi\n      dup1\n      0x4028a0f1\n      eq\n      tag_8\n      jumpi\n      dup1\n      0x410d59cc\n      eq\n      tag_9\n      jumpi\n      dup1\n      0x4e47368b\n      eq\n      tag_10\n      jumpi\n      dup1\n      0x50f18cb7\n      eq\n      tag_11\n      jumpi\n      jump(tag_1)\n    tag_24:\n      dup1\n      0x04ef0781\n      eq\n      tag_2\n      jumpi\n      dup1\n      0x10dd7a4c\n      eq\n      tag_3\n      jumpi\n      dup1\n      0x18059aad\n      eq\n      tag_4\n      jumpi\n      dup1\n      0x2799276d\n      eq\n      tag_5\n      jumpi\n      dup1\n      0x3129e773\n      eq\n      tag_6\n      jumpi\n    tag_1:\n      0x00\n      dup1\n      revert\n        /* \"contracts/escrowcontract.sol\":4437:5348  function confirmDelivery(... */\n    tag_2:\n      callvalue\n      dup1\n      iszero\n      tag_25\n      jumpi\n      0x00\n      dup1\n      revert\n    tag_25:\n      pop\n      tag_26\n      0x04\n      dup1\n      calldatasize\n      sub\n      dup2\n      add\n      swap1\n      tag_27\n      swap2\n      swap1\n      tag_28\n      jump\t// in\n    tag_27:\n      tag_29\n      jump\t// in\n    tag_26:\n      mload(0x40)\n      tag_30\n      swap2\n      swap1\n      tag_31\n      jump\t// in\n    tag_30:\n      mload(0x40)\n      dup1\n      swap2\n      sub\n      swap1\n      return\n        /* \"contracts/escrowcontract.sol\":2705:2835  function myItems()... */\n    tag_3:\n      callvalue\n      dup1\n      iszero\n      tag_32\n      jumpi\n      0x00\n      dup1\n      revert\n    tag_32:\n      pop\n      tag_33\n      tag_34\n      jump\t// in\n    tag_33:\n      mload(0x40)\n      tag_35\n      swap2\n      swap1\n      tag_36\n      jump\t// in\n    tag_35:\n      mload(0x40)\n      dup1\n      swap2\n      sub\n      swap1\n      return\n        /* \"contracts/escrowcontract.sol\":5354:5878  function refundItem(uint256 itemId) external returns (bool) {... */\n    tag_4:\n      callvalue\n      dup1\n      iszero\n      tag_37\n      jumpi\n      0x00\n      dup1\n      revert\n    tag_37:\n      pop\n      tag_38\n      0x04\n      dup1\n      calldatasize\n      sub\n      dup2\n      add\n      swap1\n      tag_39\n      swap2\n      swap1\n      tag_40\n      jump\t// in\n    tag_39:\n      tag_41\n      jump\t// in\n    tag_38:\n      mload(0x40)\n      tag_42\n      swap2\n      swap1\n      tag_31\n      jump\t// in\n    tag_42:\n      mload(0x40)\n      dup1\n      swap2\n      sub\n      swap1\n      return\n        /* \"contracts/escrowcontract.sol\":285:314  uint256 public totalItems = 0 */\n    tag_5:\n      callvalue\n      dup1\n      iszero\n      tag_43\n      jumpi\n      0x00\n      dup1\n      revert\n    tag_43:\n      pop\n      tag_44\n      tag_45\n      jump\t// in\n    tag_44:\n      mload(0x40)\n      tag_46\n      swap2\n      swap1\n      tag_47\n      jump\t// in\n    tag_46:\n      mload(0x40)\n      dup1\n      swap2\n      sub\n      swap1\n      return\n        /* \"contracts/escrowcontract.sol\":2563:2699  function getItem(uint256 itemId)... */\n    tag_6:\n      callvalue\n      dup1\n      iszero\n      tag_48\n      jumpi\n      0x00\n      dup1\n      revert\n    tag_48:\n      pop\n      tag_49\n      0x04\n      dup1\n      calldatasize\n      sub\n      dup2\n      add\n      swap1\n      tag_50\n      swap2\n      swap1\n      tag_40\n      jump\t// in\n    tag_50:\n      tag_51\n      jump\t// in\n    tag_49:\n      mload(0x40)\n      tag_52\n      swap2\n      swap1\n      tag_53\n      jump\t// in\n    tag_52:\n      mload(0x40)\n      dup1\n      swap2\n      sub\n      swap1\n      return\n        /* \"contracts/escrowcontract.sol\":617:665  mapping(uint256 => Available) public isAvailable */\n    tag_7:\n      callvalue\n      dup1\n      iszero\n      tag_54\n      jumpi\n      0x00\n      dup1\n      revert\n    tag_54:\n      pop\n      tag_55\n      0x04\n      dup1\n      calldatasize\n      sub\n      dup2\n      add\n      swap1\n      tag_56\n      swap2\n      swap1\n      tag_40\n      jump\t// in\n    tag_56:\n      tag_57\n      jump\t// in\n    tag_55:\n      mload(0x40)\n      tag_58\n      swap2\n      swap1\n      tag_59\n      jump\t// in\n    tag_58:\n      mload(0x40)\n      dup1\n      swap2\n      sub\n      swap1\n      return\n        /* \"contracts/escrowcontract.sol\":320:353  uint256 public totalConfirmed = 0 */\n    tag_8:\n      callvalue\n      dup1\n      iszero\n      tag_60\n      jumpi\n      0x00\n      dup1\n      revert\n    tag_60:\n      pop\n      tag_61\n      tag_62\n      jump\t// in\n    tag_61:\n      mload(0x40)\n      tag_63\n      swap2\n      swap1\n      tag_47\n      jump\t// in\n    tag_63:\n      mload(0x40)\n      dup1\n      swap2\n      sub\n      swap1\n      return\n        /* \"contracts/escrowcontract.sol\":2315:2557  function getItems()... */\n    tag_9:\n      callvalue\n      dup1\n      iszero\n      tag_64\n      jumpi\n      0x00\n      dup1\n      revert\n    tag_64:\n      pop\n      tag_65\n      tag_66\n      jump\t// in\n    tag_65:\n      mload(0x40)\n      tag_67\n      swap2\n      swap1\n      tag_36\n      jump\t// in\n    tag_67:\n      mload(0x40)\n      dup1\n      swap2\n      sub\n      swap1\n      return\n        /* \"contracts/escrowcontract.sol\":258:279  uint256 public escFee */\n    tag_10:\n      callvalue\n      dup1\n      iszero\n      tag_68\n      jumpi\n      0x00\n      dup1\n      revert\n    tag_68:\n      pop\n      tag_69\n      tag_70\n      jump\t// in\n    tag_69:\n      mload(0x40)\n      tag_71\n      swap2\n      swap1\n      tag_47\n      jump\t// in\n    tag_71:\n      mload(0x40)\n      dup1\n      swap2\n      sub\n      swap1\n      return\n        /* \"contracts/escrowcontract.sol\":226:252  uint256 public escAvailBal */\n    tag_11:\n      callvalue\n      dup1\n      iszero\n      tag_72\n      jumpi\n      0x00\n      dup1\n      revert\n    tag_72:\n      pop\n      tag_73\n      tag_74\n      jump\t// in\n    tag_73:\n      mload(0x40)\n      tag_75\n      swap2\n      swap1\n      tag_47\n      jump\t// in\n    tag_75:\n      mload(0x40)\n      dup1\n      swap2\n      sub\n      swap1\n      return\n        /* \"contracts/escrowcontract.sol\":163:193  address payable  public escAcc */\n    tag_12:\n      callvalue\n      dup1\n      iszero\n      tag_76\n      jumpi\n      0x00\n      dup1\n      revert\n    tag_76:\n      pop\n      tag_77\n      tag_78\n      jump\t// in\n    tag_77:\n      mload(0x40)\n      tag_79\n      swap2\n      swap1\n      tag_80\n      jump\t// in\n    tag_79:\n      mload(0x40)\n      dup1\n      swap2\n      sub\n      swap1\n      return\n        /* \"contracts/escrowcontract.sol\":569:611  mapping(uint256 => address) public ownerOf */\n    tag_13:\n      callvalue\n      dup1\n      iszero\n      tag_81\n      jumpi\n      0x00\n      dup1\n      revert\n    tag_81:\n      pop\n      tag_82\n      0x04\n      dup1\n      calldatasize\n      sub\n      dup2\n      add\n      swap1\n      tag_83\n      swap2\n      swap1\n      tag_40\n      jump\t// in\n    tag_83:\n      tag_84\n      jump\t// in\n    tag_82:\n      mload(0x40)\n      tag_85\n      swap2\n      swap1\n      tag_86\n      jump\t// in\n    tag_85:\n      mload(0x40)\n      dup1\n      swap2\n      sub\n      swap1\n      return\n        /* \"contracts/escrowcontract.sol\":502:563  mapping(address => mapping(uint256 => bool)) public requested */\n    tag_14:\n      callvalue\n      dup1\n      iszero\n      tag_87\n      jumpi\n      0x00\n      dup1\n      revert\n    tag_87:\n      pop\n      tag_88\n      0x04\n      dup1\n      calldatasize\n      sub\n      dup2\n      add\n      swap1\n      tag_89\n      swap2\n      swap1\n      tag_90\n      jump\t// in\n    tag_89:\n      tag_91\n      jump\t// in\n    tag_88:\n      mload(0x40)\n      tag_92\n      swap2\n      swap1\n      tag_31\n      jump\t// in\n    tag_92:\n      mload(0x40)\n      dup1\n      swap2\n      sub\n      swap1\n      return\n        /* \"contracts/escrowcontract.sol\":3882:4431  function performDelievery(uint256 itemId) external returns (bool) {... */\n    tag_15:\n      callvalue\n      dup1\n      iszero\n      tag_93\n      jumpi\n      0x00\n      dup1\n      revert\n    tag_93:\n      pop\n      tag_94\n      0x04\n      dup1\n      calldatasize\n      sub\n      dup2\n      add\n      swap1\n      tag_95\n      swap2\n      swap1\n      tag_40\n      jump\t// in\n    tag_95:\n      tag_96\n      jump\t// in\n    tag_94:\n      mload(0x40)\n      tag_97\n      swap2\n      swap1\n      tag_31\n      jump\t// in\n    tag_97:\n      mload(0x40)\n      dup1\n      swap2\n      sub\n      swap1\n      return\n        /* \"contracts/escrowcontract.sol\":1387:2309  function createItem(... */\n    tag_16:\n      tag_98\n      0x04\n      dup1\n      calldatasize\n      sub\n      dup2\n      add\n      swap1\n      tag_99\n      swap2\n      swap1\n      tag_100\n      jump\t// in\n    tag_99:\n      tag_101\n      jump\t// in\n    tag_98:\n      mload(0x40)\n      tag_102\n      swap2\n      swap1\n      tag_31\n      jump\t// in\n    tag_102:\n      mload(0x40)\n      dup1\n      swap2\n      sub\n      swap1\n      return\n        /* \"contracts/escrowcontract.sol\":3257:3876  function approveRequest(... */\n    tag_17:\n      callvalue\n      dup1\n      iszero\n      tag_103\n      jumpi\n      0x00\n      dup1\n      revert\n    tag_103:\n      pop\n      tag_104\n      0x04\n      dup1\n      calldatasize\n      sub\n      dup2\n      add\n      swap1\n      tag_105\n      swap2\n      swap1\n      tag_106\n      jump\t// in\n    tag_105:\n      tag_107\n      jump\t// in\n    tag_104:\n      mload(0x40)\n      tag_108\n      swap2\n      swap1\n      tag_31\n      jump\t// in\n    tag_108:\n      mload(0x40)\n      dup1\n      swap2\n      sub\n      swap1\n      return\n        /* \"contracts/escrowcontract.sol\":199:220  uint256 public escBal */\n    tag_18:\n      callvalue\n      dup1\n      iszero\n      tag_109\n      jumpi\n      0x00\n      dup1\n      revert\n    tag_109:\n      pop\n      tag_110\n      tag_111\n      jump\t// in\n    tag_110:\n      mload(0x40)\n      tag_112\n      swap2\n      swap1\n      tag_47\n      jump\t// in\n    tag_112:\n      mload(0x40)\n      dup1\n      swap2\n      sub\n      swap1\n      return\n        /* \"contracts/escrowcontract.sol\":359:391  uint256 public totalDisputed = 0 */\n    tag_19:\n      callvalue\n      dup1\n      iszero\n      tag_113\n      jumpi\n      0x00\n      dup1\n      revert\n    tag_113:\n      pop\n      tag_114\n      tag_115\n      jump\t// in\n    tag_114:\n      mload(0x40)\n      tag_116\n      swap2\n      swap1\n      tag_47\n      jump\t// in\n    tag_116:\n      mload(0x40)\n      dup1\n      swap2\n      sub\n      swap1\n      return\n        /* \"contracts/escrowcontract.sol\":2841:3251  function requestItem(uint256 itemId) external returns (bool) {... */\n    tag_20:\n      callvalue\n      dup1\n      iszero\n      tag_117\n      jumpi\n      0x00\n      dup1\n      revert\n    tag_117:\n      pop\n      tag_118\n      0x04\n      dup1\n      calldatasize\n      sub\n      dup2\n      add\n      swap1\n      tag_119\n      swap2\n      swap1\n      tag_40\n      jump\t// in\n    tag_119:\n      tag_120\n      jump\t// in\n    tag_118:\n      mload(0x40)\n      tag_121\n      swap2\n      swap1\n      tag_31\n      jump\t// in\n    tag_121:\n      mload(0x40)\n      dup1\n      swap2\n      sub\n      swap1\n      return\n        /* \"contracts/escrowcontract.sol\":5884:6364  function withdrawFund(... */\n    tag_21:\n      callvalue\n      dup1\n      iszero\n      tag_122\n      jumpi\n      0x00\n      dup1\n      revert\n    tag_122:\n      pop\n      tag_123\n      0x04\n      dup1\n      calldatasize\n      sub\n      dup2\n      add\n      swap1\n      tag_124\n      swap2\n      swap1\n      tag_90\n      jump\t// in\n    tag_124:\n      tag_125\n      jump\t// in\n    tag_123:\n      mload(0x40)\n      tag_126\n      swap2\n      swap1\n      tag_31\n      jump\t// in\n    tag_126:\n      mload(0x40)\n      dup1\n      swap2\n      sub\n      swap1\n      return\n        /* \"contracts/escrowcontract.sol\":4437:5348  function confirmDelivery(... */\n    tag_29:\n        /* \"contracts/escrowcontract.sol\":4533:4537  bool */\n      0x00\n        /* \"contracts/escrowcontract.sol\":4571:4578  ownerOf */\n      0x0b\n        /* \"contracts/escrowcontract.sol\":4571:4586  ownerOf[itemId] */\n      0x00\n        /* \"contracts/escrowcontract.sol\":4579:4585  itemId */\n      dup5\n        /* \"contracts/escrowcontract.sol\":4571:4586  ownerOf[itemId] */\n      dup2\n      mstore\n      0x20\n      add\n      swap1\n      dup2\n      mstore\n      0x20\n      add\n      0x00\n      keccak256\n      0x00\n      swap1\n      sload\n      swap1\n      0x0100\n      exp\n      swap1\n      div\n      0xffffffffffffffffffffffffffffffffffffffff\n      and\n        /* \"contracts/escrowcontract.sol\":4557:4586  msg.sender == ownerOf[itemId] */\n      0xffffffffffffffffffffffffffffffffffffffff\n      and\n        /* \"contracts/escrowcontract.sol\":4557:4567  msg.sender */\n      caller\n        /* \"contracts/escrowcontract.sol\":4557:4586  msg.sender == ownerOf[itemId] */\n      0xffffffffffffffffffffffffffffffffffffffff\n      and\n      eq\n        /* \"contracts/escrowcontract.sol\":4549:4609  require(msg.sender == ownerOf[itemId], \"Only owner allowed\") */\n      tag_128\n      jumpi\n      mload(0x40)\n      0x08c379a000000000000000000000000000000000000000000000000000000000\n      dup2\n      mstore\n      0x04\n      add\n      tag_129\n      swap1\n      tag_130\n      jump\t// in\n    tag_129:\n      mload(0x40)\n      dup1\n      swap2\n      sub\n      swap1\n      revert\n    tag_128:\n        /* \"contracts/escrowcontract.sol\":4627:4632  items */\n      0x08\n        /* \"contracts/escrowcontract.sol\":4627:4640  items[itemId] */\n      0x00\n        /* \"contracts/escrowcontract.sol\":4633:4639  itemId */\n      dup5\n        /* \"contracts/escrowcontract.sol\":4627:4640  items[itemId] */\n      dup2\n      mstore\n      0x20\n      add\n      swap1\n      dup2\n      mstore\n      0x20\n      add\n      0x00\n      keccak256\n        /* \"contracts/escrowcontract.sol\":4627:4649  items[itemId].provided */\n      0x05\n      add\n      0x15\n      swap1\n      sload\n      swap1\n      0x0100\n      exp\n      swap1\n      div\n      0xff\n      and\n        /* \"contracts/escrowcontract.sol\":4619:4674  require(items[itemId].provided, \"Service not provided\") */\n      tag_131\n      jumpi\n      mload(0x40)\n      0x08c379a000000000000000000000000000000000000000000000000000000000\n      dup2\n      mstore\n      0x04\n      add\n      tag_132\n      swap1\n      tag_133\n      jump\t// in\n    tag_132:\n      mload(0x40)\n      dup1\n      swap2\n      sub\n      swap1\n      revert\n    tag_131:\n        /* \"contracts/escrowcontract.sol\":4716:4731  Status.REFUNDED */\n      0x05\n        /* \"contracts/escrowcontract.sol\":4692:4731  items[itemId].status != Status.REFUNDED */\n      0x06\n      dup2\n      gt\n      iszero\n      tag_134\n      jumpi\n      tag_135\n      tag_136\n      jump\t// in\n    tag_135:\n    tag_134:\n        /* \"contracts/escrowcontract.sol\":4692:4697  items */\n      0x08\n        /* \"contracts/escrowcontract.sol\":4692:4705  items[itemId] */\n      0x00\n        /* \"contracts/escrowcontract.sol\":4698:4704  itemId */\n      dup6\n        /* \"contracts/escrowcontract.sol\":4692:4705  items[itemId] */\n      dup2\n      mstore\n      0x20\n      add\n      swap1\n      dup2\n      mstore\n      0x20\n      add\n      0x00\n      keccak256\n        /* \"contracts/escrowcontract.sol\":4692:4712  items[itemId].status */\n      0x05\n      add\n      0x14\n      swap1\n      sload\n      swap1\n      0x0100\n      exp\n      swap1\n      div\n      0xff\n      and\n        /* \"contracts/escrowcontract.sol\":4692:4731  items[itemId].status != Status.REFUNDED */\n      0x06\n      dup2\n      gt\n      iszero\n      tag_137\n      jumpi\n      tag_138\n      tag_136\n      jump\t// in\n    tag_138:\n    tag_137:\n      sub\n        /* \"contracts/escrowcontract.sol\":4684:4771  require(items[itemId].status != Status.REFUNDED, \"Already refunded, create a new Item\") */\n      tag_139\n      jumpi\n      mload(0x40)\n      0x08c379a000000000000000000000000000000000000000000000000000000000\n      dup2\n      mstore\n      0x04\n      add\n      tag_140\n      swap1\n      tag_141\n      jump\t// in\n    tag_140:\n      mload(0x40)\n      dup1\n      swap2\n      sub\n      swap1\n      revert\n    tag_139:\n        /* \"contracts/escrowcontract.sol\":4785:4793  provided */\n      dup2\n        /* \"contracts/escrowcontract.sol\":4782:5188  if(provided) {... */\n      iszero\n      tag_142\n      jumpi\n        /* \"contracts/escrowcontract.sol\":4809:4820  uint256 fee */\n      0x00\n        /* \"contracts/escrowcontract.sol\":4823:4831  10000000 */\n      0x989680\n        /* \"contracts/escrowcontract.sol\":4809:4831  uint256 fee = 10000000 */\n      swap1\n      pop\n        /* \"contracts/escrowcontract.sol\":4845:4904  payTo(items[itemId].provider, (items[itemId].amount - fee)) */\n      tag_143\n        /* \"contracts/escrowcontract.sol\":4851:4856  items */\n      0x08\n        /* \"contracts/escrowcontract.sol\":4851:4864  items[itemId] */\n      0x00\n        /* \"contracts/escrowcontract.sol\":4857:4863  itemId */\n      dup7\n        /* \"contracts/escrowcontract.sol\":4851:4864  items[itemId] */\n      dup2\n      mstore\n      0x20\n      add\n      swap1\n      dup2\n      mstore\n      0x20\n      add\n      0x00\n      keccak256\n        /* \"contracts/escrowcontract.sol\":4851:4873  items[itemId].provider */\n      0x05\n      add\n      0x00\n      swap1\n      sload\n      swap1\n      0x0100\n      exp\n      swap1\n      div\n      0xffffffffffffffffffffffffffffffffffffffff\n      and\n        /* \"contracts/escrowcontract.sol\":4899:4902  fee */\n      dup3\n        /* \"contracts/escrowcontract.sol\":4876:4881  items */\n      0x08\n        /* \"contracts/escrowcontract.sol\":4876:4889  items[itemId] */\n      0x00\n        /* \"contracts/escrowcontract.sol\":4882:4888  itemId */\n      dup9\n        /* \"contracts/escrowcontract.sol\":4876:4889  items[itemId] */\n      dup2\n      mstore\n      0x20\n      add\n      swap1\n      dup2\n      mstore\n      0x20\n      add\n      0x00\n      keccak256\n        /* \"contracts/escrowcontract.sol\":4876:4896  items[itemId].amount */\n      0x02\n      add\n      sload\n        /* \"contracts/escrowcontract.sol\":4876:4902  items[itemId].amount - fee */\n      tag_144\n      swap2\n      swap1\n      tag_145\n      jump\t// in\n    tag_144:\n        /* \"contracts/escrowcontract.sol\":4845:4850  payTo */\n      tag_146\n        /* \"contracts/escrowcontract.sol\":4845:4904  payTo(items[itemId].provider, (items[itemId].amount - fee)) */\n      jump\t// in\n    tag_143:\n      pop\n        /* \"contracts/escrowcontract.sol\":4928:4933  items */\n      0x08\n        /* \"contracts/escrowcontract.sol\":4928:4941  items[itemId] */\n      0x00\n        /* \"contracts/escrowcontract.sol\":4934:4940  itemId */\n      dup6\n        /* \"contracts/escrowcontract.sol\":4928:4941  items[itemId] */\n      dup2\n      mstore\n      0x20\n      add\n      swap1\n      dup2\n      mstore\n      0x20\n      add\n      0x00\n      keccak256\n        /* \"contracts/escrowcontract.sol\":4928:4948  items[itemId].amount */\n      0x02\n      add\n      sload\n        /* \"contracts/escrowcontract.sol\":4918:4924  escBal */\n      0x02\n      0x00\n        /* \"contracts/escrowcontract.sol\":4918:4948  escBal -= items[itemId].amount */\n      dup3\n      dup3\n      sload\n      tag_147\n      swap2\n      swap1\n      tag_145\n      jump\t// in\n    tag_147:\n      swap3\n      pop\n      pop\n      dup2\n      swap1\n      sstore\n      pop\n        /* \"contracts/escrowcontract.sol\":4977:4980  fee */\n      dup1\n        /* \"contracts/escrowcontract.sol\":4962:4973  escAvailBal */\n      0x03\n      0x00\n        /* \"contracts/escrowcontract.sol\":4962:4980  escAvailBal += fee */\n      dup3\n      dup3\n      sload\n      tag_148\n      swap2\n      swap1\n      tag_149\n      jump\t// in\n    tag_148:\n      swap3\n      pop\n      pop\n      dup2\n      swap1\n      sstore\n      pop\n        /* \"contracts/escrowcontract.sol\":5021:5025  true */\n      0x01\n        /* \"contracts/escrowcontract.sol\":4995:5000  items */\n      0x08\n        /* \"contracts/escrowcontract.sol\":4995:5008  items[itemId] */\n      0x00\n        /* \"contracts/escrowcontract.sol\":5001:5007  itemId */\n      dup7\n        /* \"contracts/escrowcontract.sol\":4995:5008  items[itemId] */\n      dup2\n      mstore\n      0x20\n      add\n      swap1\n      dup2\n      mstore\n      0x20\n      add\n      0x00\n      keccak256\n        /* \"contracts/escrowcontract.sol\":4995:5018  items[itemId].confirmed */\n      0x05\n      add\n      0x16\n        /* \"contracts/escrowcontract.sol\":4995:5025  items[itemId].confirmed = true */\n      0x0100\n      exp\n      dup2\n      sload\n      dup2\n      0xff\n      mul\n      not\n      and\n      swap1\n      dup4\n      iszero\n      iszero\n      mul\n      or\n      swap1\n      sstore\n      pop\n        /* \"contracts/escrowcontract.sol\":5062:5078  Status.CONFIRMED */\n      0x03\n        /* \"contracts/escrowcontract.sol\":5039:5044  items */\n      0x08\n        /* \"contracts/escrowcontract.sol\":5039:5052  items[itemId] */\n      0x00\n        /* \"contracts/escrowcontract.sol\":5045:5051  itemId */\n      dup7\n        /* \"contracts/escrowcontract.sol\":5039:5052  items[itemId] */\n      dup2\n      mstore\n      0x20\n      add\n      swap1\n      dup2\n      mstore\n      0x20\n      add\n      0x00\n      keccak256\n        /* \"contracts/escrowcontract.sol\":5039:5059  items[itemId].status */\n      0x05\n      add\n      0x14\n        /* \"contracts/escrowcontract.sol\":5039:5078  items[itemId].status = Status.CONFIRMED */\n      0x0100\n      exp\n      dup2\n      sload\n      dup2\n      0xff\n      mul\n      not\n      and\n      swap1\n      dup4\n      0x06\n      dup2\n      gt\n      iszero\n      tag_150\n      jumpi\n      tag_151\n      tag_136\n      jump\t// in\n    tag_151:\n    tag_150:\n      mul\n      or\n      swap1\n      sstore\n      pop\n        /* \"contracts/escrowcontract.sol\":5092:5106  totalConfirmed */\n      0x06\n      0x00\n        /* \"contracts/escrowcontract.sol\":5092:5108  totalConfirmed++ */\n      dup2\n      sload\n      dup1\n      swap3\n      swap2\n      swap1\n      tag_152\n      swap1\n      tag_153\n      jump\t// in\n    tag_152:\n      swap2\n      swap1\n      pop\n      sstore\n      pop\n        /* \"contracts/escrowcontract.sol\":4795:5119  {... */\n      pop\n        /* \"contracts/escrowcontract.sol\":4782:5188  if(provided) {... */\n      jump(tag_154)\n    tag_142:\n        /* \"contracts/escrowcontract.sol\":5160:5176  Status.DISPUTTED */\n      0x04\n        /* \"contracts/escrowcontract.sol\":5137:5142  items */\n      0x08\n        /* \"contracts/escrowcontract.sol\":5137:5150  items[itemId] */\n      0x00\n        /* \"contracts/escrowcontract.sol\":5143:5149  itemId */\n      dup6\n        /* \"contracts/escrowcontract.sol\":5137:5150  items[itemId] */\n      dup2\n      mstore\n      0x20\n      add\n      swap1\n      dup2\n      mstore\n      0x20\n      add\n      0x00\n      keccak256\n        /* \"contracts/escrowcontract.sol\":5137:5157  items[itemId].status */\n      0x05\n      add\n      0x14\n        /* \"contracts/escrowcontract.sol\":5137:5176  items[itemId].status = Status.DISPUTTED */\n      0x0100\n      exp\n      dup2\n      sload\n      dup2\n      0xff\n      mul\n      not\n      and\n      swap1\n      dup4\n      0x06\n      dup2\n      gt\n      iszero\n      tag_155\n      jumpi\n      tag_156\n      tag_136\n      jump\t// in\n    tag_156:\n    tag_155:\n      mul\n      or\n      swap1\n      sstore\n      pop\n        /* \"contracts/escrowcontract.sol\":4782:5188  if(provided) {... */\n    tag_154:\n        /* \"contracts/escrowcontract.sol\":5299:5309  msg.sender */\n      caller\n        /* \"contracts/escrowcontract.sol\":5203:5319  Action (... */\n      0xffffffffffffffffffffffffffffffffffffffff\n      and\n      0x23ad0062ad47da0f27f5c07751751e4b60afc16bf6fe03a24266a01ec4897931\n        /* \"contracts/escrowcontract.sol\":5224:5230  itemId */\n      dup5\n        /* \"contracts/escrowcontract.sol\":5269:5285  Status.DISPUTTED */\n      0x04\n        /* \"contracts/escrowcontract.sol\":5203:5319  Action (... */\n      mload(0x40)\n      tag_157\n      swap3\n      swap2\n      swap1\n      tag_158\n      jump\t// in\n    tag_157:\n      mload(0x40)\n      dup1\n      swap2\n      sub\n      swap1\n      log2\n        /* \"contracts/escrowcontract.sol\":5337:5341  true */\n      0x01\n        /* \"contracts/escrowcontract.sol\":5330:5341  return true */\n      swap1\n      pop\n        /* \"contracts/escrowcontract.sol\":4437:5348  function confirmDelivery(... */\n      swap3\n      swap2\n      pop\n      pop\n      jump\t// out\n        /* \"contracts/escrowcontract.sol\":2705:2835  function myItems()... */\n    tag_34:\n        /* \"contracts/escrowcontract.sol\":2771:2790  ItemStruct[] memory */\n      0x60\n        /* \"contracts/escrowcontract.sol\":2809:2816  itemsOf */\n      0x09\n        /* \"contracts/escrowcontract.sol\":2809:2828  itemsOf[msg.sender] */\n      0x00\n        /* \"contracts/escrowcontract.sol\":2817:2827  msg.sender */\n      caller\n        /* \"contracts/escrowcontract.sol\":2809:2828  itemsOf[msg.sender] */\n      0xffffffffffffffffffffffffffffffffffffffff\n      and\n      0xffffffffffffffffffffffffffffffffffffffff\n      and\n      dup2\n      mstore\n      0x20\n      add\n      swap1\n      dup2\n      mstore\n      0x20\n      add\n      0x00\n      keccak256\n        /* \"contracts/escrowcontract.sol\":2802:2828  return itemsOf[msg.sender] */\n      dup1\n      sload\n      dup1\n      0x20\n      mul\n      0x20\n      add\n      mload(0x40)\n      swap1\n      dup2\n      add\n      0x40\n      mstore\n      dup1\n      swap3\n      swap2\n      swap1\n      dup2\n      dup2\n      mstore\n      0x20\n      add\n      0x00\n      swap1\n    tag_160:\n      dup3\n      dup3\n      lt\n      iszero\n      tag_161\n      jumpi\n      dup4\n      dup3\n      swap1\n      0x00\n      mstore\n      keccak256(0x00, 0x20)\n      swap1\n      0x06\n      mul\n      add\n      mload(0x40)\n      dup1\n      0x0120\n      add\n      0x40\n      mstore\n      swap1\n      dup2\n      0x00\n      dup3\n      add\n      sload\n      dup2\n      mstore\n      0x20\n      add\n      0x01\n      dup3\n      add\n      dup1\n      sload\n      tag_163\n      swap1\n      tag_164\n      jump\t// in\n    tag_163:\n      dup1\n      0x1f\n      add\n      0x20\n      dup1\n      swap2\n      div\n      mul\n      0x20\n      add\n      mload(0x40)\n      swap1\n      dup2\n      add\n      0x40\n      mstore\n      dup1\n      swap3\n      swap2\n      swap1\n      dup2\n      dup2\n      mstore\n      0x20\n      add\n      dup3\n      dup1\n      sload\n      tag_165\n      swap1\n      tag_164\n      jump\t// in\n    tag_165:\n      dup1\n      iszero\n      tag_166\n      jumpi\n      dup1\n      0x1f\n      lt\n      tag_167\n      jumpi\n      0x0100\n      dup1\n      dup4\n      sload\n      div\n      mul\n      dup4\n      mstore\n      swap2\n      0x20\n      add\n      swap2\n      jump(tag_166)\n    tag_167:\n      dup3\n      add\n      swap2\n      swap1\n      0x00\n      mstore\n      keccak256(0x00, 0x20)\n      swap1\n    tag_168:\n      dup2\n      sload\n      dup2\n      mstore\n      swap1\n      0x01\n      add\n      swap1\n      0x20\n      add\n      dup1\n      dup4\n      gt\n      tag_168\n      jumpi\n      dup3\n      swap1\n      sub\n      0x1f\n      and\n      dup3\n      add\n      swap2\n    tag_166:\n      pop\n      pop\n      pop\n      pop\n      pop\n      dup2\n      mstore\n      0x20\n      add\n      0x02\n      dup3\n      add\n      sload\n      dup2\n      mstore\n      0x20\n      add\n      0x03\n      dup3\n      add\n      sload\n      dup2\n      mstore\n      0x20\n      add\n      0x04\n      dup3\n      add\n      0x00\n      swap1\n      sload\n      swap1\n      0x0100\n      exp\n      swap1\n      div\n      0xffffffffffffffffffffffffffffffffffffffff\n      and\n      0xffffffffffffffffffffffffffffffffffffffff\n      and\n      0xffffffffffffffffffffffffffffffffffffffff\n      and\n      dup2\n      mstore\n      0x20\n      add\n      0x05\n      dup3\n      add\n      0x00\n      swap1\n      sload\n      swap1\n      0x0100\n      exp\n      swap1\n      div\n      0xffffffffffffffffffffffffffffffffffffffff\n      and\n      0xffffffffffffffffffffffffffffffffffffffff\n      and\n      0xffffffffffffffffffffffffffffffffffffffff\n      and\n      dup2\n      mstore\n      0x20\n      add\n      0x05\n      dup3\n      add\n      0x14\n      swap1\n      sload\n      swap1\n      0x0100\n      exp\n      swap1\n      div\n      0xff\n      and\n      0x06\n      dup2\n      gt\n      iszero\n      tag_169\n      jumpi\n      tag_170\n      tag_136\n      jump\t// in\n    tag_170:\n    tag_169:\n      0x06\n      dup2\n      gt\n      iszero\n      tag_171\n      jumpi\n      tag_172\n      tag_136\n      jump\t// in\n    tag_172:\n    tag_171:\n      dup2\n      mstore\n      0x20\n      add\n      0x05\n      dup3\n      add\n      0x15\n      swap1\n      sload\n      swap1\n      0x0100\n      exp\n      swap1\n      div\n      0xff\n      and\n      iszero\n      iszero\n      iszero\n      iszero\n      dup2\n      mstore\n      0x20\n      add\n      0x05\n      dup3\n      add\n      0x16\n      swap1\n      sload\n      swap1\n      0x0100\n      exp\n      swap1\n      div\n      0xff\n      and\n      iszero\n      iszero\n      iszero\n      iszero\n      dup2\n      mstore\n      pop\n      pop\n      dup2\n      mstore\n      0x20\n      add\n      swap1\n      0x01\n      add\n      swap1\n      jump(tag_160)\n    tag_161:\n      pop\n      pop\n      pop\n      pop\n      swap1\n      pop\n        /* \"contracts/escrowcontract.sol\":2705:2835  function myItems()... */\n      swap1\n      jump\t// out\n        /* \"contracts/escrowcontract.sol\":5354:5878  function refundItem(uint256 itemId) external returns (bool) {... */\n    tag_41:\n        /* \"contracts/escrowcontract.sol\":5408:5412  bool */\n      0x00\n        /* \"contracts/escrowcontract.sol\":5446:5452  escAcc */\n      0x01\n      0x00\n      swap1\n      sload\n      swap1\n      0x0100\n      exp\n      swap1\n      div\n      0xffffffffffffffffffffffffffffffffffffffff\n      and\n        /* \"contracts/escrowcontract.sol\":5432:5452  msg.sender == escAcc */\n      0xffffffffffffffffffffffffffffffffffffffff\n      and\n        /* \"contracts/escrowcontract.sol\":5432:5442  msg.sender */\n      caller\n        /* \"contracts/escrowcontract.sol\":5432:5452  msg.sender == escAcc */\n      0xffffffffffffffffffffffffffffffffffffffff\n      and\n      eq\n        /* \"contracts/escrowcontract.sol\":5424:5476  require(msg.sender == escAcc, \"Only Escrow allowed\") */\n      tag_174\n      jumpi\n      mload(0x40)\n      0x08c379a000000000000000000000000000000000000000000000000000000000\n      dup2\n      mstore\n      0x04\n      add\n      tag_175\n      swap1\n      tag_176\n      jump\t// in\n    tag_175:\n      mload(0x40)\n      dup1\n      swap2\n      sub\n      swap1\n      revert\n    tag_174:\n        /* \"contracts/escrowcontract.sol\":5495:5500  items */\n      0x08\n        /* \"contracts/escrowcontract.sol\":5495:5508  items[itemId] */\n      0x00\n        /* \"contracts/escrowcontract.sol\":5501:5507  itemId */\n      dup4\n        /* \"contracts/escrowcontract.sol\":5495:5508  items[itemId] */\n      dup2\n      mstore\n      0x20\n      add\n      swap1\n      dup2\n      mstore\n      0x20\n      add\n      0x00\n      keccak256\n        /* \"contracts/escrowcontract.sol\":5495:5518  items[itemId].confirmed */\n      0x05\n      add\n      0x16\n      swap1\n      sload\n      swap1\n      0x0100\n      exp\n      swap1\n      div\n      0xff\n      and\n        /* \"contracts/escrowcontract.sol\":5494:5518  !items[itemId].confirmed */\n      iszero\n        /* \"contracts/escrowcontract.sol\":5486:5547  require(!items[itemId].confirmed, \"Service already provided\") */\n      tag_177\n      jumpi\n      mload(0x40)\n      0x08c379a000000000000000000000000000000000000000000000000000000000\n      dup2\n      mstore\n      0x04\n      add\n      tag_178\n      swap1\n      tag_179\n      jump\t// in\n    tag_178:\n      mload(0x40)\n      dup1\n      swap2\n      sub\n      swap1\n      revert\n    tag_177:\n        /* \"contracts/escrowcontract.sol\":5558:5606  payTo(items[itemId].owner, items[itemId].amount) */\n      tag_180\n        /* \"contracts/escrowcontract.sol\":5564:5569  items */\n      0x08\n        /* \"contracts/escrowcontract.sol\":5564:5577  items[itemId] */\n      0x00\n        /* \"contracts/escrowcontract.sol\":5570:5576  itemId */\n      dup5\n        /* \"contracts/escrowcontract.sol\":5564:5577  items[itemId] */\n      dup2\n      mstore\n      0x20\n      add\n      swap1\n      dup2\n      mstore\n      0x20\n      add\n      0x00\n      keccak256\n        /* \"contracts/escrowcontract.sol\":5564:5583  items[itemId].owner */\n      0x04\n      add\n      0x00\n      swap1\n      sload\n      swap1\n      0x0100\n      exp\n      swap1\n      div\n      0xffffffffffffffffffffffffffffffffffffffff\n      and\n        /* \"contracts/escrowcontract.sol\":5585:5590  items */\n      0x08\n        /* \"contracts/escrowcontract.sol\":5585:5598  items[itemId] */\n      0x00\n        /* \"contracts/escrowcontract.sol\":5591:5597  itemId */\n      dup6\n        /* \"contracts/escrowcontract.sol\":5585:5598  items[itemId] */\n      dup2\n      mstore\n      0x20\n      add\n      swap1\n      dup2\n      mstore\n      0x20\n      add\n      0x00\n      keccak256\n        /* \"contracts/escrowcontract.sol\":5585:5605  items[itemId].amount */\n      0x02\n      add\n      sload\n        /* \"contracts/escrowcontract.sol\":5558:5563  payTo */\n      tag_146\n        /* \"contracts/escrowcontract.sol\":5558:5606  payTo(items[itemId].owner, items[itemId].amount) */\n      jump\t// in\n    tag_180:\n      pop\n        /* \"contracts/escrowcontract.sol\":5626:5631  items */\n      0x08\n        /* \"contracts/escrowcontract.sol\":5626:5639  items[itemId] */\n      0x00\n        /* \"contracts/escrowcontract.sol\":5632:5638  itemId */\n      dup4\n        /* \"contracts/escrowcontract.sol\":5626:5639  items[itemId] */\n      dup2\n      mstore\n      0x20\n      add\n      swap1\n      dup2\n      mstore\n      0x20\n      add\n      0x00\n      keccak256\n        /* \"contracts/escrowcontract.sol\":5626:5646  items[itemId].amount */\n      0x02\n      add\n      sload\n        /* \"contracts/escrowcontract.sol\":5616:5622  escBal */\n      0x02\n      0x00\n        /* \"contracts/escrowcontract.sol\":5616:5646  escBal -= items[itemId].amount */\n      dup3\n      dup3\n      sload\n      tag_181\n      swap2\n      swap1\n      tag_145\n      jump\t// in\n    tag_181:\n      swap3\n      pop\n      pop\n      dup2\n      swap1\n      sstore\n      pop\n        /* \"contracts/escrowcontract.sol\":5679:5694  Status.REFUNDED */\n      0x05\n        /* \"contracts/escrowcontract.sol\":5656:5661  items */\n      0x08\n        /* \"contracts/escrowcontract.sol\":5656:5669  items[itemId] */\n      0x00\n        /* \"contracts/escrowcontract.sol\":5662:5668  itemId */\n      dup5\n        /* \"contracts/escrowcontract.sol\":5656:5669  items[itemId] */\n      dup2\n      mstore\n      0x20\n      add\n      swap1\n      dup2\n      mstore\n      0x20\n      add\n      0x00\n      keccak256\n        /* \"contracts/escrowcontract.sol\":5656:5676  items[itemId].status */\n      0x05\n      add\n      0x14\n        /* \"contracts/escrowcontract.sol\":5656:5694  items[itemId].status = Status.REFUNDED */\n      0x0100\n      exp\n      dup2\n      sload\n      dup2\n      0xff\n      mul\n      not\n      and\n      swap1\n      dup4\n      0x06\n      dup2\n      gt\n      iszero\n      tag_182\n      jumpi\n      tag_183\n      tag_136\n      jump\t// in\n    tag_183:\n    tag_182:\n      mul\n      or\n      swap1\n      sstore\n      pop\n        /* \"contracts/escrowcontract.sol\":5704:5717  totalDisputed */\n      0x07\n      0x00\n        /* \"contracts/escrowcontract.sol\":5704:5719  totalDisputed++ */\n      dup2\n      sload\n      dup1\n      swap3\n      swap2\n      swap1\n      tag_184\n      swap1\n      tag_153\n      jump\t// in\n    tag_184:\n      swap2\n      swap1\n      pop\n      sstore\n      pop\n        /* \"contracts/escrowcontract.sol\":5829:5839  msg.sender */\n      caller\n        /* \"contracts/escrowcontract.sol\":5735:5849  Action (... */\n      0xffffffffffffffffffffffffffffffffffffffff\n      and\n      0x23ad0062ad47da0f27f5c07751751e4b60afc16bf6fe03a24266a01ec4897931\n        /* \"contracts/escrowcontract.sol\":5756:5762  itemId */\n      dup4\n        /* \"contracts/escrowcontract.sol\":5800:5815  Status.REFUNDED */\n      0x05\n        /* \"contracts/escrowcontract.sol\":5735:5849  Action (... */\n      mload(0x40)\n      tag_185\n      swap3\n      swap2\n      swap1\n      tag_186\n      jump\t// in\n    tag_185:\n      mload(0x40)\n      dup1\n      swap2\n      sub\n      swap1\n      log2\n        /* \"contracts/escrowcontract.sol\":5867:5871  true */\n      0x01\n        /* \"contracts/escrowcontract.sol\":5860:5871  return true */\n      swap1\n      pop\n        /* \"contracts/escrowcontract.sol\":5354:5878  function refundItem(uint256 itemId) external returns (bool) {... */\n      swap2\n      swap1\n      pop\n      jump\t// out\n        /* \"contracts/escrowcontract.sol\":285:314  uint256 public totalItems = 0 */\n    tag_45:\n      sload(0x05)\n      dup2\n      jump\t// out\n        /* \"contracts/escrowcontract.sol\":2563:2699  function getItem(uint256 itemId)... */\n    tag_51:\n        /* \"contracts/escrowcontract.sol\":2643:2660  ItemStruct memory */\n      tag_187\n      tag_188\n      jump\t// in\n    tag_187:\n        /* \"contracts/escrowcontract.sol\":2679:2684  items */\n      0x08\n        /* \"contracts/escrowcontract.sol\":2679:2692  items[itemId] */\n      0x00\n        /* \"contracts/escrowcontract.sol\":2685:2691  itemId */\n      dup4\n        /* \"contracts/escrowcontract.sol\":2679:2692  items[itemId] */\n      dup2\n      mstore\n      0x20\n      add\n      swap1\n      dup2\n      mstore\n      0x20\n      add\n      0x00\n      keccak256\n        /* \"contracts/escrowcontract.sol\":2672:2692  return items[itemId] */\n      mload(0x40)\n      dup1\n      0x0120\n      add\n      0x40\n      mstore\n      swap1\n      dup2\n      0x00\n      dup3\n      add\n      sload\n      dup2\n      mstore\n      0x20\n      add\n      0x01\n      dup3\n      add\n      dup1\n      sload\n      tag_190\n      swap1\n      tag_164\n      jump\t// in\n    tag_190:\n      dup1\n      0x1f\n      add\n      0x20\n      dup1\n      swap2\n      div\n      mul\n      0x20\n      add\n      mload(0x40)\n      swap1\n      dup2\n      add\n      0x40\n      mstore\n      dup1\n      swap3\n      swap2\n      swap1\n      dup2\n      dup2\n      mstore\n      0x20\n      add\n      dup3\n      dup1\n      sload\n      tag_191\n      swap1\n      tag_164\n      jump\t// in\n    tag_191:\n      dup1\n      iszero\n      tag_192\n      jumpi\n      dup1\n      0x1f\n      lt\n      tag_193\n      jumpi\n      0x0100\n      dup1\n      dup4\n      sload\n      div\n      mul\n      dup4\n      mstore\n      swap2\n      0x20\n      add\n      swap2\n      jump(tag_192)\n    tag_193:\n      dup3\n      add\n      swap2\n      swap1\n      0x00\n      mstore\n      keccak256(0x00, 0x20)\n      swap1\n    tag_194:\n      dup2\n      sload\n      dup2\n      mstore\n      swap1\n      0x01\n      add\n      swap1\n      0x20\n      add\n      dup1\n      dup4\n      gt\n      tag_194\n      jumpi\n      dup3\n      swap1\n      sub\n      0x1f\n      and\n      dup3\n      add\n      swap2\n    tag_192:\n      pop\n      pop\n      pop\n      pop\n      pop\n      dup2\n      mstore\n      0x20\n      add\n      0x02\n      dup3\n      add\n      sload\n      dup2\n      mstore\n      0x20\n      add\n      0x03\n      dup3\n      add\n      sload\n      dup2\n      mstore\n      0x20\n      add\n      0x04\n      dup3\n      add\n      0x00\n      swap1\n      sload\n      swap1\n      0x0100\n      exp\n      swap1\n      div\n      0xffffffffffffffffffffffffffffffffffffffff\n      and\n      0xffffffffffffffffffffffffffffffffffffffff\n      and\n      0xffffffffffffffffffffffffffffffffffffffff\n      and\n      dup2\n      mstore\n      0x20\n      add\n      0x05\n      dup3\n      add\n      0x00\n      swap1\n      sload\n      swap1\n      0x0100\n      exp\n      swap1\n      div\n      0xffffffffffffffffffffffffffffffffffffffff\n      and\n      0xffffffffffffffffffffffffffffffffffffffff\n      and\n      0xffffffffffffffffffffffffffffffffffffffff\n      and\n      dup2\n      mstore\n      0x20\n      add\n      0x05\n      dup3\n      add\n      0x14\n      swap1\n      sload\n      swap1\n      0x0100\n      exp\n      swap1\n      div\n      0xff\n      and\n      0x06\n      dup2\n      gt\n      iszero\n      tag_195\n      jumpi\n      tag_196\n      tag_136\n      jump\t// in\n    tag_196:\n    tag_195:\n      0x06\n      dup2\n      gt\n      iszero\n      tag_197\n      jumpi\n      tag_198\n      tag_136\n      jump\t// in\n    tag_198:\n    tag_197:\n      dup2\n      mstore\n      0x20\n      add\n      0x05\n      dup3\n      add\n      0x15\n      swap1\n      sload\n      swap1\n      0x0100\n      exp\n      swap1\n      div\n      0xff\n      and\n      iszero\n      iszero\n      iszero\n      iszero\n      dup2\n      mstore\n      0x20\n      add\n      0x05\n      dup3\n      add\n      0x16\n      swap1\n      sload\n      swap1\n      0x0100\n      exp\n      swap1\n      div\n      0xff\n      and\n      iszero\n      iszero\n      iszero\n      iszero\n      dup2\n      mstore\n      pop\n      pop\n      swap1\n      pop\n        /* \"contracts/escrowcontract.sol\":2563:2699  function getItem(uint256 itemId)... */\n      swap2\n      swap1\n      pop\n      jump\t// out\n        /* \"contracts/escrowcontract.sol\":617:665  mapping(uint256 => Available) public isAvailable */\n    tag_57:\n      mstore(0x20, 0x0c)\n      dup1\n      0x00\n      mstore\n      keccak256(0x00, 0x40)\n      0x00\n      swap2\n      pop\n      sload\n      swap1\n      0x0100\n      exp\n      swap1\n      div\n      0xff\n      and\n      dup2\n      jump\t// out\n        /* \"contracts/escrowcontract.sol\":320:353  uint256 public totalConfirmed = 0 */\n    tag_62:\n      sload(0x06)\n      dup2\n      jump\t// out\n        /* \"contracts/escrowcontract.sol\":2315:2557  function getItems()... */\n    tag_66:\n        /* \"contracts/escrowcontract.sol\":2382:2407  ItemStruct[] memory props */\n      0x60\n        /* \"contracts/escrowcontract.sol\":2444:2454  totalItems */\n      sload(0x05)\n        /* \"contracts/escrowcontract.sol\":2427:2455  new ItemStruct[](totalItems) */\n      0xffffffffffffffff\n      dup2\n      gt\n      iszero\n      tag_200\n      jumpi\n      tag_201\n      tag_202\n      jump\t// in\n    tag_201:\n    tag_200:\n      mload(0x40)\n      swap1\n      dup1\n      dup3\n      mstore\n      dup1\n      0x20\n      mul\n      0x20\n      add\n      dup3\n      add\n      0x40\n      mstore\n      dup1\n      iszero\n      tag_203\n      jumpi\n      dup2\n      0x20\n      add\n    tag_204:\n      tag_205\n      tag_188\n      jump\t// in\n    tag_205:\n      dup2\n      mstore\n      0x20\n      add\n      swap1\n      0x01\n      swap1\n      sub\n      swap1\n      dup2\n      tag_204\n      jumpi\n      swap1\n      pop\n    tag_203:\n      pop\n        /* \"contracts/escrowcontract.sol\":2419:2455  props = new ItemStruct[](totalItems) */\n      swap1\n      pop\n        /* \"contracts/escrowcontract.sol\":2471:2480  uint256 i */\n      0x00\n        /* \"contracts/escrowcontract.sol\":2466:2551  for (uint256 i = 0; i < totalItems; i++) {... */\n    tag_206:\n        /* \"contracts/escrowcontract.sol\":2490:2500  totalItems */\n      sload(0x05)\n        /* \"contracts/escrowcontract.sol\":2486:2487  i */\n      dup2\n        /* \"contracts/escrowcontract.sol\":2486:2500  i < totalItems */\n      lt\n        /* \"contracts/escrowcontract.sol\":2466:2551  for (uint256 i = 0; i < totalItems; i++) {... */\n      iszero\n      tag_207\n      jumpi\n        /* \"contracts/escrowcontract.sol\":2532:2537  items */\n      0x08\n        /* \"contracts/escrowcontract.sol\":2532:2540  items[i] */\n      0x00\n        /* \"contracts/escrowcontract.sol\":2538:2539  i */\n      dup3\n        /* \"contracts/escrowcontract.sol\":2532:2540  items[i] */\n      dup2\n      mstore\n      0x20\n      add\n      swap1\n      dup2\n      mstore\n      0x20\n      add\n      0x00\n      keccak256\n        /* \"contracts/escrowcontract.sol\":2521:2540  props[i] = items[i] */\n      mload(0x40)\n      dup1\n      0x0120\n      add\n      0x40\n      mstore\n      swap1\n      dup2\n      0x00\n      dup3\n      add\n      sload\n      dup2\n      mstore\n      0x20\n      add\n      0x01\n      dup3\n      add\n      dup1\n      sload\n      tag_209\n      swap1\n      tag_164\n      jump\t// in\n    tag_209:\n      dup1\n      0x1f\n      add\n      0x20\n      dup1\n      swap2\n      div\n      mul\n      0x20\n      add\n      mload(0x40)\n      swap1\n      dup2\n      add\n      0x40\n      mstore\n      dup1\n      swap3\n      swap2\n      swap1\n      dup2\n      dup2\n      mstore\n      0x20\n      add\n      dup3\n      dup1\n      sload\n      tag_210\n      swap1\n      tag_164\n      jump\t// in\n    tag_210:\n      dup1\n      iszero\n      tag_211\n      jumpi\n      dup1\n      0x1f\n      lt\n      tag_212\n      jumpi\n      0x0100\n      dup1\n      dup4\n      sload\n      div\n      mul\n      dup4\n      mstore\n      swap2\n      0x20\n      add\n      swap2\n      jump(tag_211)\n    tag_212:\n      dup3\n      add\n      swap2\n      swap1\n      0x00\n      mstore\n      keccak256(0x00, 0x20)\n      swap1\n    tag_213:\n      dup2\n      sload\n      dup2\n      mstore\n      swap1\n      0x01\n      add\n      swap1\n      0x20\n      add\n      dup1\n      dup4\n      gt\n      tag_213\n      jumpi\n      dup3\n      swap1\n      sub\n      0x1f\n      and\n      dup3\n      add\n      swap2\n    tag_211:\n      pop\n      pop\n      pop\n      pop\n      pop\n      dup2\n      mstore\n      0x20\n      add\n      0x02\n      dup3\n      add\n      sload\n      dup2\n      mstore\n      0x20\n      add\n      0x03\n      dup3\n      add\n      sload\n      dup2\n      mstore\n      0x20\n      add\n      0x04\n      dup3\n      add\n      0x00\n      swap1\n      sload\n      swap1\n      0x0100\n      exp\n      swap1\n      div\n      0xffffffffffffffffffffffffffffffffffffffff\n      and\n      0xffffffffffffffffffffffffffffffffffffffff\n      and\n      0xffffffffffffffffffffffffffffffffffffffff\n      and\n      dup2\n      mstore\n      0x20\n      add\n      0x05\n      dup3\n      add\n      0x00\n      swap1\n      sload\n      swap1\n      0x0100\n      exp\n      swap1\n      div\n      0xffffffffffffffffffffffffffffffffffffffff\n      and\n      0xffffffffffffffffffffffffffffffffffffffff\n      and\n      0xffffffffffffffffffffffffffffffffffffffff\n      and\n      dup2\n      mstore\n      0x20\n      add\n      0x05\n      dup3\n      add\n      0x14\n      swap1\n      sload\n      swap1\n      0x0100\n      exp\n      swap1\n      div\n      0xff\n      and\n      0x06\n      dup2\n      gt\n      iszero\n      tag_214\n      jumpi\n      tag_215\n      tag_136\n      jump\t// in\n    tag_215:\n    tag_214:\n      0x06\n      dup2\n      gt\n      iszero\n      tag_216\n      jumpi\n      tag_217\n      tag_136\n      jump\t// in\n    tag_217:\n    tag_216:\n      dup2\n      mstore\n      0x20\n      add\n      0x05\n      dup3\n      add\n      0x15\n      swap1\n      sload\n      swap1\n      0x0100\n      exp\n      swap1\n      div\n      0xff\n      and\n      iszero\n      iszero\n      iszero\n      iszero\n      dup2\n      mstore\n      0x20\n      add\n      0x05\n      dup3\n      add\n      0x16\n      swap1\n      sload\n      swap1\n      0x0100\n      exp\n      swap1\n      div\n      0xff\n      and\n      iszero\n      iszero\n      iszero\n      iszero\n      dup2\n      mstore\n      pop\n      pop\n        /* \"contracts/escrowcontract.sol\":2521:2526  props */\n      dup3\n        /* \"contracts/escrowcontract.sol\":2527:2528  i */\n      dup3\n        /* \"contracts/escrowcontract.sol\":2521:2529  props[i] */\n      dup2\n      mload\n      dup2\n      lt\n      tag_218\n      jumpi\n      tag_219\n      tag_220\n      jump\t// in\n    tag_219:\n    tag_218:\n      0x20\n      mul\n      0x20\n      add\n      add\n        /* \"contracts/escrowcontract.sol\":2521:2540  props[i] = items[i] */\n      dup2\n      swap1\n      mstore\n      pop\n        /* \"contracts/escrowcontract.sol\":2502:2505  i++ */\n      dup1\n      dup1\n      0x01\n      add\n      swap2\n      pop\n      pop\n        /* \"contracts/escrowcontract.sol\":2466:2551  for (uint256 i = 0; i < totalItems; i++) {... */\n      jump(tag_206)\n    tag_207:\n      pop\n        /* \"contracts/escrowcontract.sol\":2315:2557  function getItems()... */\n      swap1\n      jump\t// out\n        /* \"contracts/escrowcontract.sol\":258:279  uint256 public escFee */\n    tag_70:\n      sload(0x04)\n      dup2\n      jump\t// out\n        /* \"contracts/escrowcontract.sol\":226:252  uint256 public escAvailBal */\n    tag_74:\n      sload(0x03)\n      dup2\n      jump\t// out\n        /* \"contracts/escrowcontract.sol\":163:193  address payable  public escAcc */\n    tag_78:\n      0x01\n      0x00\n      swap1\n      sload\n      swap1\n      0x0100\n      exp\n      swap1\n      div\n      0xffffffffffffffffffffffffffffffffffffffff\n      and\n      dup2\n      jump\t// out\n        /* \"contracts/escrowcontract.sol\":569:611  mapping(uint256 => address) public ownerOf */\n    tag_84:\n      mstore(0x20, 0x0b)\n      dup1\n      0x00\n      mstore\n      keccak256(0x00, 0x40)\n      0x00\n      swap2\n      pop\n      sload\n      swap1\n      0x0100\n      exp\n      swap1\n      div\n      0xffffffffffffffffffffffffffffffffffffffff\n      and\n      dup2\n      jump\t// out\n        /* \"contracts/escrowcontract.sol\":502:563  mapping(address => mapping(uint256 => bool)) public requested */\n    tag_91:\n      mstore(0x20, 0x0a)\n      dup2\n      0x00\n      mstore\n      mstore(0x20, keccak256(0x00, 0x40))\n      dup1\n      0x00\n      mstore\n      keccak256(0x00, 0x40)\n      0x00\n      swap2\n      pop\n      swap2\n      pop\n      swap1\n      sload\n      swap1\n      0x0100\n      exp\n      swap1\n      div\n      0xff\n      and\n      dup2\n      jump\t// out\n        /* \"contracts/escrowcontract.sol\":3882:4431  function performDelievery(uint256 itemId) external returns (bool) {... */\n    tag_96:\n        /* \"contracts/escrowcontract.sol\":3942:3946  bool */\n      0x00\n        /* \"contracts/escrowcontract.sol\":3980:3985  items */\n      0x08\n        /* \"contracts/escrowcontract.sol\":3980:3993  items[itemId] */\n      0x00\n        /* \"contracts/escrowcontract.sol\":3986:3992  itemId */\n      dup4\n        /* \"contracts/escrowcontract.sol\":3980:3993  items[itemId] */\n      dup2\n      mstore\n      0x20\n      add\n      swap1\n      dup2\n      mstore\n      0x20\n      add\n      0x00\n      keccak256\n        /* \"contracts/escrowcontract.sol\":3980:4002  items[itemId].provider */\n      0x05\n      add\n      0x00\n      swap1\n      sload\n      swap1\n      0x0100\n      exp\n      swap1\n      div\n      0xffffffffffffffffffffffffffffffffffffffff\n      and\n        /* \"contracts/escrowcontract.sol\":3966:4002  msg.sender == items[itemId].provider */\n      0xffffffffffffffffffffffffffffffffffffffff\n      and\n        /* \"contracts/escrowcontract.sol\":3966:3976  msg.sender */\n      caller\n        /* \"contracts/escrowcontract.sol\":3966:4002  msg.sender == items[itemId].provider */\n      0xffffffffffffffffffffffffffffffffffffffff\n      and\n      eq\n        /* \"contracts/escrowcontract.sol\":3958:4033  require(msg.sender == items[itemId].provider, \"Service not awarded to you\") */\n      tag_222\n      jumpi\n      mload(0x40)\n      0x08c379a000000000000000000000000000000000000000000000000000000000\n      dup2\n      mstore\n      0x04\n      add\n      tag_223\n      swap1\n      tag_224\n      jump\t// in\n    tag_223:\n      mload(0x40)\n      dup1\n      swap2\n      sub\n      swap1\n      revert\n    tag_222:\n        /* \"contracts/escrowcontract.sol\":4052:4057  items */\n      0x08\n        /* \"contracts/escrowcontract.sol\":4052:4065  items[itemId] */\n      0x00\n        /* \"contracts/escrowcontract.sol\":4058:4064  itemId */\n      dup4\n        /* \"contracts/escrowcontract.sol\":4052:4065  items[itemId] */\n      dup2\n      mstore\n      0x20\n      add\n      swap1\n      dup2\n      mstore\n      0x20\n      add\n      0x00\n      keccak256\n        /* \"contracts/escrowcontract.sol\":4052:4074  items[itemId].provided */\n      0x05\n      add\n      0x15\n      swap1\n      sload\n      swap1\n      0x0100\n      exp\n      swap1\n      div\n      0xff\n      and\n        /* \"contracts/escrowcontract.sol\":4051:4074  !items[itemId].provided */\n      iszero\n        /* \"contracts/escrowcontract.sol\":4043:4103  require(!items[itemId].provided, \"Service already provided\") */\n      tag_225\n      jumpi\n      mload(0x40)\n      0x08c379a000000000000000000000000000000000000000000000000000000000\n      dup2\n      mstore\n      0x04\n      add\n      tag_226\n      swap1\n      tag_179\n      jump\t// in\n    tag_226:\n      mload(0x40)\n      dup1\n      swap2\n      sub\n      swap1\n      revert\n    tag_225:\n        /* \"contracts/escrowcontract.sol\":4122:4127  items */\n      0x08\n        /* \"contracts/escrowcontract.sol\":4122:4135  items[itemId] */\n      0x00\n        /* \"contracts/escrowcontract.sol\":4128:4134  itemId */\n      dup4\n        /* \"contracts/escrowcontract.sol\":4122:4135  items[itemId] */\n      dup2\n      mstore\n      0x20\n      add\n      swap1\n      dup2\n      mstore\n      0x20\n      add\n      0x00\n      keccak256\n        /* \"contracts/escrowcontract.sol\":4122:4145  items[itemId].confirmed */\n      0x05\n      add\n      0x16\n      swap1\n      sload\n      swap1\n      0x0100\n      exp\n      swap1\n      div\n      0xff\n      and\n        /* \"contracts/escrowcontract.sol\":4121:4145  !items[itemId].confirmed */\n      iszero\n        /* \"contracts/escrowcontract.sol\":4113:4175  require(!items[itemId].confirmed, \"Service already confirmed\") */\n      tag_227\n      jumpi\n      mload(0x40)\n      0x08c379a000000000000000000000000000000000000000000000000000000000\n      dup2\n      mstore\n      0x04\n      add\n      tag_228\n      swap1\n      tag_229\n      jump\t// in\n    tag_228:\n      mload(0x40)\n      dup1\n      swap2\n      sub\n      swap1\n      revert\n    tag_227:\n        /* \"contracts/escrowcontract.sol\":4211:4215  true */\n      0x01\n        /* \"contracts/escrowcontract.sol\":4186:4191  items */\n      0x08\n        /* \"contracts/escrowcontract.sol\":4186:4199  items[itemId] */\n      0x00\n        /* \"contracts/escrowcontract.sol\":4192:4198  itemId */\n      dup5\n        /* \"contracts/escrowcontract.sol\":4186:4199  items[itemId] */\n      dup2\n      mstore\n      0x20\n      add\n      swap1\n      dup2\n      mstore\n      0x20\n      add\n      0x00\n      keccak256\n        /* \"contracts/escrowcontract.sol\":4186:4208  items[itemId].provided */\n      0x05\n      add\n      0x15\n        /* \"contracts/escrowcontract.sol\":4186:4215  items[itemId].provided = true */\n      0x0100\n      exp\n      dup2\n      sload\n      dup2\n      0xff\n      mul\n      not\n      and\n      swap1\n      dup4\n      iszero\n      iszero\n      mul\n      or\n      swap1\n      sstore\n      pop\n        /* \"contracts/escrowcontract.sol\":4248:4263  Status.DELIVERY */\n      0x02\n        /* \"contracts/escrowcontract.sol\":4225:4230  items */\n      0x08\n        /* \"contracts/escrowcontract.sol\":4225:4238  items[itemId] */\n      0x00\n        /* \"contracts/escrowcontract.sol\":4231:4237  itemId */\n      dup5\n        /* \"contracts/escrowcontract.sol\":4225:4238  items[itemId] */\n      dup2\n      mstore\n      0x20\n      add\n      swap1\n      dup2\n      mstore\n      0x20\n      add\n      0x00\n      keccak256\n        /* \"contracts/escrowcontract.sol\":4225:4245  items[itemId].status */\n      0x05\n      add\n      0x14\n        /* \"contracts/escrowcontract.sol\":4225:4263  items[itemId].status = Status.DELIVERY */\n      0x0100\n      exp\n      dup2\n      sload\n      dup2\n      0xff\n      mul\n      not\n      and\n      swap1\n      dup4\n      0x06\n      dup2\n      gt\n      iszero\n      tag_230\n      jumpi\n      tag_231\n      tag_136\n      jump\t// in\n    tag_231:\n    tag_230:\n      mul\n      or\n      swap1\n      sstore\n      pop\n        /* \"contracts/escrowcontract.sol\":4382:4392  msg.sender */\n      caller\n        /* \"contracts/escrowcontract.sol\":4279:4402  Action (... */\n      0xffffffffffffffffffffffffffffffffffffffff\n      and\n      0x23ad0062ad47da0f27f5c07751751e4b60afc16bf6fe03a24266a01ec4897931\n        /* \"contracts/escrowcontract.sol\":4300:4306  itemId */\n      dup4\n        /* \"contracts/escrowcontract.sol\":4353:4368  Status.DELIVERY */\n      0x02\n        /* \"contracts/escrowcontract.sol\":4279:4402  Action (... */\n      mload(0x40)\n      tag_232\n      swap3\n      swap2\n      swap1\n      tag_233\n      jump\t// in\n    tag_232:\n      mload(0x40)\n      dup1\n      swap2\n      sub\n      swap1\n      log2\n        /* \"contracts/escrowcontract.sol\":4420:4424  true */\n      0x01\n        /* \"contracts/escrowcontract.sol\":4413:4424  return true */\n      swap1\n      pop\n        /* \"contracts/escrowcontract.sol\":3882:4431  function performDelievery(uint256 itemId) external returns (bool) {... */\n      swap2\n      swap1\n      pop\n      jump\t// out\n        /* \"contracts/escrowcontract.sol\":1387:2309  function createItem(... */\n    tag_101:\n        /* \"contracts/escrowcontract.sol\":1504:1508  bool */\n      0x00\n        /* \"contracts/escrowcontract.sol\":1552:1553  0 */\n      dup1\n        /* \"contracts/escrowcontract.sol\":1534:1541  purpose */\n      dup5\n      dup5\n        /* \"contracts/escrowcontract.sol\":1528:1549  bytes(purpose).length */\n      swap1\n      pop\n        /* \"contracts/escrowcontract.sol\":1528:1553  bytes(purpose).length > 0 */\n      gt\n        /* \"contracts/escrowcontract.sol\":1520:1581  require(bytes(purpose).length > 0, \"Purpose cannot be empty\") */\n      tag_235\n      jumpi\n      mload(0x40)\n      0x08c379a000000000000000000000000000000000000000000000000000000000\n      dup2\n      mstore\n      0x04\n      add\n      tag_236\n      swap1\n      tag_237\n      jump\t// in\n    tag_236:\n      mload(0x40)\n      dup1\n      swap2\n      sub\n      swap1\n      revert\n    tag_235:\n        /* \"contracts/escrowcontract.sol\":1608:1609  0 */\n      0x00\n        /* \"contracts/escrowcontract.sol\":1599:1605  amount */\n      dup3\n        /* \"contracts/escrowcontract.sol\":1599:1609  amount > 0 */\n      gt\n        /* \"contracts/escrowcontract.sol\":1591:1643  require(amount > 0, \"Amount must be greater than 0\") */\n      tag_238\n      jumpi\n      mload(0x40)\n      0x08c379a000000000000000000000000000000000000000000000000000000000\n      dup2\n      mstore\n      0x04\n      add\n      tag_239\n      swap1\n      tag_240\n      jump\t// in\n    tag_239:\n      mload(0x40)\n      dup1\n      swap2\n      sub\n      swap1\n      revert\n    tag_238:\n        /* \"contracts/escrowcontract.sol\":1674:1680  amount */\n      dup2\n        /* \"contracts/escrowcontract.sol\":1661:1670  msg.value */\n      callvalue\n        /* \"contracts/escrowcontract.sol\":1661:1680  msg.value >= amount */\n      lt\n      iszero\n        /* \"contracts/escrowcontract.sol\":1653:1708  require(msg.value >= amount, \"Insufficient Ether sent\") */\n      tag_241\n      jumpi\n      mload(0x40)\n      0x08c379a000000000000000000000000000000000000000000000000000000000\n      dup2\n      mstore\n      0x04\n      add\n      tag_242\n      swap1\n      tag_243\n      jump\t// in\n    tag_242:\n      mload(0x40)\n      dup1\n      swap2\n      sub\n      swap1\n      revert\n    tag_241:\n        /* \"contracts/escrowcontract.sol\":1719:1733  uint256 itemId */\n      0x00\n        /* \"contracts/escrowcontract.sol\":1736:1746  totalItems */\n      0x05\n      0x00\n        /* \"contracts/escrowcontract.sol\":1736:1748  totalItems++ */\n      dup2\n      sload\n      dup1\n      swap3\n      swap2\n      swap1\n      tag_244\n      swap1\n      tag_153\n      jump\t// in\n    tag_244:\n      swap2\n      swap1\n      pop\n      sstore\n        /* \"contracts/escrowcontract.sol\":1719:1748  uint256 itemId = totalItems++ */\n      swap1\n      pop\n        /* \"contracts/escrowcontract.sol\":1758:1781  ItemStruct storage item */\n      0x00\n        /* \"contracts/escrowcontract.sol\":1784:1789  items */\n      0x08\n        /* \"contracts/escrowcontract.sol\":1784:1797  items[itemId] */\n      0x00\n        /* \"contracts/escrowcontract.sol\":1790:1796  itemId */\n      dup4\n        /* \"contracts/escrowcontract.sol\":1784:1797  items[itemId] */\n      dup2\n      mstore\n      0x20\n      add\n      swap1\n      dup2\n      mstore\n      0x20\n      add\n      0x00\n      keccak256\n        /* \"contracts/escrowcontract.sol\":1758:1797  ItemStruct storage item = items[itemId] */\n      swap1\n      pop\n        /* \"contracts/escrowcontract.sol\":1822:1828  itemId */\n      dup2\n        /* \"contracts/escrowcontract.sol\":1808:1812  item */\n      dup2\n        /* \"contracts/escrowcontract.sol\":1808:1819  item.itemId */\n      0x00\n      add\n        /* \"contracts/escrowcontract.sol\":1808:1828  item.itemId = itemId */\n      dup2\n      swap1\n      sstore\n      pop\n        /* \"contracts/escrowcontract.sol\":1853:1860  purpose */\n      dup6\n      dup6\n        /* \"contracts/escrowcontract.sol\":1838:1842  item */\n      dup3\n        /* \"contracts/escrowcontract.sol\":1838:1850  item.purpose */\n      0x01\n      add\n        /* \"contracts/escrowcontract.sol\":1838:1860  item.purpose = purpose */\n      swap2\n      dup3\n      tag_245\n      swap3\n      swap2\n      swap1\n      tag_246\n      jump\t// in\n    tag_245:\n      pop\n        /* \"contracts/escrowcontract.sol\":1884:1890  amount */\n      dup4\n        /* \"contracts/escrowcontract.sol\":1870:1874  item */\n      dup2\n        /* \"contracts/escrowcontract.sol\":1870:1881  item.amount */\n      0x02\n      add\n        /* \"contracts/escrowcontract.sol\":1870:1890  item.amount = amount */\n      dup2\n      swap1\n      sstore\n      pop\n        /* \"contracts/escrowcontract.sol\":1917:1932  block.timestamp */\n      timestamp\n        /* \"contracts/escrowcontract.sol\":1900:1904  item */\n      dup2\n        /* \"contracts/escrowcontract.sol\":1900:1914  item.timestamp */\n      0x03\n      add\n        /* \"contracts/escrowcontract.sol\":1900:1932  item.timestamp = block.timestamp */\n      dup2\n      swap1\n      sstore\n      pop\n        /* \"contracts/escrowcontract.sol\":1955:1965  msg.sender */\n      caller\n        /* \"contracts/escrowcontract.sol\":1942:1946  item */\n      dup2\n        /* \"contracts/escrowcontract.sol\":1942:1952  item.owner */\n      0x04\n      add\n      0x00\n        /* \"contracts/escrowcontract.sol\":1942:1965  item.owner = msg.sender */\n      0x0100\n      exp\n      dup2\n      sload\n      dup2\n      0xffffffffffffffffffffffffffffffffffffffff\n      mul\n      not\n      and\n      swap1\n      dup4\n      0xffffffffffffffffffffffffffffffffffffffff\n      and\n      mul\n      or\n      swap1\n      sstore\n      pop\n        /* \"contracts/escrowcontract.sol\":1989:2000  Status.OPEN */\n      0x00\n        /* \"contracts/escrowcontract.sol\":1975:1979  item */\n      dup2\n        /* \"contracts/escrowcontract.sol\":1975:1986  item.status */\n      0x05\n      add\n      0x14\n        /* \"contracts/escrowcontract.sol\":1975:2000  item.status = Status.OPEN */\n      0x0100\n      exp\n      dup2\n      sload\n      dup2\n      0xff\n      mul\n      not\n      and\n      swap1\n      dup4\n      0x06\n      dup2\n      gt\n      iszero\n      tag_247\n      jumpi\n      tag_248\n      tag_136\n      jump\t// in\n    tag_248:\n    tag_247:\n      mul\n      or\n      swap1\n      sstore\n      pop\n        /* \"contracts/escrowcontract.sol\":2011:2018  itemsOf */\n      0x09\n        /* \"contracts/escrowcontract.sol\":2011:2030  itemsOf[msg.sender] */\n      0x00\n        /* \"contracts/escrowcontract.sol\":2019:2029  msg.sender */\n      caller\n        /* \"contracts/escrowcontract.sol\":2011:2030  itemsOf[msg.sender] */\n      0xffffffffffffffffffffffffffffffffffffffff\n      and\n      0xffffffffffffffffffffffffffffffffffffffff\n      and\n      dup2\n      mstore\n      0x20\n      add\n      swap1\n      dup2\n      mstore\n      0x20\n      add\n      0x00\n      keccak256\n        /* \"contracts/escrowcontract.sol\":2036:2040  item */\n      dup2\n        /* \"contracts/escrowcontract.sol\":2011:2041  itemsOf[msg.sender].push(item) */\n      swap1\n      dup1\n      0x01\n      dup2\n      sload\n      add\n      dup1\n      dup3\n      sstore\n      dup1\n      swap2\n      pop\n      pop\n      0x01\n      swap1\n      sub\n      swap1\n      0x00\n      mstore\n      keccak256(0x00, 0x20)\n      swap1\n      0x06\n      mul\n      add\n      0x00\n      swap1\n      swap2\n      swap1\n      swap2\n      swap1\n      swap2\n      pop\n      0x00\n      dup3\n      add\n      sload\n      dup2\n      0x00\n      add\n      sstore\n      0x01\n      dup3\n      add\n      dup2\n      0x01\n      add\n      swap1\n      dup2\n      tag_250\n      swap2\n      swap1\n      tag_251\n      jump\t// in\n    tag_250:\n      pop\n      0x02\n      dup3\n      add\n      sload\n      dup2\n      0x02\n      add\n      sstore\n      0x03\n      dup3\n      add\n      sload\n      dup2\n      0x03\n      add\n      sstore\n      0x04\n      dup3\n      add\n      0x00\n      swap1\n      sload\n      swap1\n      0x0100\n      exp\n      swap1\n      div\n      0xffffffffffffffffffffffffffffffffffffffff\n      and\n      dup2\n      0x04\n      add\n      exp(0x0100, 0x00)\n      dup2\n      sload\n      dup2\n      0xffffffffffffffffffffffffffffffffffffffff\n      mul\n      not\n      and\n      swap1\n      dup4\n      0xffffffffffffffffffffffffffffffffffffffff\n      and\n      mul\n      or\n      swap1\n      sstore\n      pop\n      0x05\n      dup3\n      add\n      0x00\n      swap1\n      sload\n      swap1\n      0x0100\n      exp\n      swap1\n      div\n      0xffffffffffffffffffffffffffffffffffffffff\n      and\n      dup2\n      0x05\n      add\n      exp(0x0100, 0x00)\n      dup2\n      sload\n      dup2\n      0xffffffffffffffffffffffffffffffffffffffff\n      mul\n      not\n      and\n      swap1\n      dup4\n      0xffffffffffffffffffffffffffffffffffffffff\n      and\n      mul\n      or\n      swap1\n      sstore\n      pop\n      0x05\n      dup3\n      add\n      0x14\n      swap1\n      sload\n      swap1\n      0x0100\n      exp\n      swap1\n      div\n      0xff\n      and\n      dup2\n      0x05\n      add\n      exp(0x0100, 0x14)\n      dup2\n      sload\n      dup2\n      0xff\n      mul\n      not\n      and\n      swap1\n      dup4\n      0x06\n      dup2\n      gt\n      iszero\n      tag_252\n      jumpi\n      tag_253\n      tag_136\n      jump\t// in\n    tag_253:\n    tag_252:\n      mul\n      or\n      swap1\n      sstore\n      pop\n      0x05\n      dup3\n      add\n      0x15\n      swap1\n      sload\n      swap1\n      0x0100\n      exp\n      swap1\n      div\n      0xff\n      and\n      dup2\n      0x05\n      add\n      exp(0x0100, 0x15)\n      dup2\n      sload\n      dup2\n      0xff\n      mul\n      not\n      and\n      swap1\n      dup4\n      iszero\n      iszero\n      mul\n      or\n      swap1\n      sstore\n      pop\n      0x05\n      dup3\n      add\n      0x16\n      swap1\n      sload\n      swap1\n      0x0100\n      exp\n      swap1\n      div\n      0xff\n      and\n      dup2\n      0x05\n      add\n      exp(0x0100, 0x16)\n      dup2\n      sload\n      dup2\n      0xff\n      mul\n      not\n      and\n      swap1\n      dup4\n      iszero\n      iszero\n      mul\n      or\n      swap1\n      sstore\n      pop\n      pop\n      pop\n        /* \"contracts/escrowcontract.sol\":2069:2079  msg.sender */\n      caller\n        /* \"contracts/escrowcontract.sol\":2051:2058  ownerOf */\n      0x0b\n        /* \"contracts/escrowcontract.sol\":2051:2066  ownerOf[itemId] */\n      0x00\n        /* \"contracts/escrowcontract.sol\":2059:2065  itemId */\n      dup5\n        /* \"contracts/escrowcontract.sol\":2051:2066  ownerOf[itemId] */\n      dup2\n      mstore\n      0x20\n      add\n      swap1\n      dup2\n      mstore\n      0x20\n      add\n      0x00\n      keccak256\n      0x00\n        /* \"contracts/escrowcontract.sol\":2051:2079  ownerOf[itemId] = msg.sender */\n      0x0100\n      exp\n      dup2\n      sload\n      dup2\n      0xffffffffffffffffffffffffffffffffffffffff\n      mul\n      not\n      and\n      swap1\n      dup4\n      0xffffffffffffffffffffffffffffffffffffffff\n      and\n      mul\n      or\n      swap1\n      sstore\n      pop\n        /* \"contracts/escrowcontract.sol\":2111:2124  Available.YES */\n      0x01\n        /* \"contracts/escrowcontract.sol\":2089:2100  isAvailable */\n      0x0c\n        /* \"contracts/escrowcontract.sol\":2089:2108  isAvailable[itemId] */\n      0x00\n        /* \"contracts/escrowcontract.sol\":2101:2107  itemId */\n      dup5\n        /* \"contracts/escrowcontract.sol\":2089:2108  isAvailable[itemId] */\n      dup2\n      mstore\n      0x20\n      add\n      swap1\n      dup2\n      mstore\n      0x20\n      add\n      0x00\n      keccak256\n      0x00\n        /* \"contracts/escrowcontract.sol\":2089:2124  isAvailable[itemId] = Available.YES */\n      0x0100\n      exp\n      dup2\n      sload\n      dup2\n      0xff\n      mul\n      not\n      and\n      swap1\n      dup4\n      0x01\n      dup2\n      gt\n      iszero\n      tag_254\n      jumpi\n      tag_255\n      tag_136\n      jump\t// in\n    tag_255:\n    tag_254:\n      mul\n      or\n      swap1\n      sstore\n      pop\n        /* \"contracts/escrowcontract.sol\":2145:2151  amount */\n      dup4\n        /* \"contracts/escrowcontract.sol\":2135:2141  escBal */\n      0x02\n      0x00\n        /* \"contracts/escrowcontract.sol\":2135:2151  escBal += amount */\n      dup3\n      dup3\n      sload\n      tag_256\n      swap2\n      swap1\n      tag_149\n      jump\t// in\n    tag_256:\n      swap3\n      pop\n      pop\n      dup2\n      swap1\n      sstore\n      pop\n        /* \"contracts/escrowcontract.sol\":2261:2271  msg.sender */\n      caller\n        /* \"contracts/escrowcontract.sol\":2167:2281  Action (... */\n      0xffffffffffffffffffffffffffffffffffffffff\n      and\n      0x23ad0062ad47da0f27f5c07751751e4b60afc16bf6fe03a24266a01ec4897931\n        /* \"contracts/escrowcontract.sol\":2188:2194  itemId */\n      dup4\n        /* \"contracts/escrowcontract.sol\":2236:2247  Status.OPEN */\n      0x00\n        /* \"contracts/escrowcontract.sol\":2167:2281  Action (... */\n      mload(0x40)\n      tag_257\n      swap3\n      swap2\n      swap1\n      tag_258\n      jump\t// in\n    tag_257:\n      mload(0x40)\n      dup1\n      swap2\n      sub\n      swap1\n      log2\n        /* \"contracts/escrowcontract.sol\":2298:2302  true */\n      0x01\n        /* \"contracts/escrowcontract.sol\":2291:2302  return true */\n      swap3\n      pop\n      pop\n      pop\n        /* \"contracts/escrowcontract.sol\":1387:2309  function createItem(... */\n      swap4\n      swap3\n      pop\n      pop\n      pop\n      jump\t// out\n        /* \"contracts/escrowcontract.sol\":3257:3876  function approveRequest(... */\n    tag_107:\n        /* \"contracts/escrowcontract.sol\":3355:3359  bool */\n      0x00\n        /* \"contracts/escrowcontract.sol\":3393:3400  ownerOf */\n      0x0b\n        /* \"contracts/escrowcontract.sol\":3393:3408  ownerOf[itemId] */\n      0x00\n        /* \"contracts/escrowcontract.sol\":3401:3407  itemId */\n      dup5\n        /* \"contracts/escrowcontract.sol\":3393:3408  ownerOf[itemId] */\n      dup2\n      mstore\n      0x20\n      add\n      swap1\n      dup2\n      mstore\n      0x20\n      add\n      0x00\n      keccak256\n      0x00\n      swap1\n      sload\n      swap1\n      0x0100\n      exp\n      swap1\n      div\n      0xffffffffffffffffffffffffffffffffffffffff\n      and\n        /* \"contracts/escrowcontract.sol\":3379:3408  msg.sender == ownerOf[itemId] */\n      0xffffffffffffffffffffffffffffffffffffffff\n      and\n        /* \"contracts/escrowcontract.sol\":3379:3389  msg.sender */\n      caller\n        /* \"contracts/escrowcontract.sol\":3379:3408  msg.sender == ownerOf[itemId] */\n      0xffffffffffffffffffffffffffffffffffffffff\n      and\n      eq\n        /* \"contracts/escrowcontract.sol\":3371:3431  require(msg.sender == ownerOf[itemId], \"Only owner allowed\") */\n      tag_260\n      jumpi\n      mload(0x40)\n      0x08c379a000000000000000000000000000000000000000000000000000000000\n      dup2\n      mstore\n      0x04\n      add\n      tag_261\n      swap1\n      tag_130\n      jump\t// in\n    tag_261:\n      mload(0x40)\n      dup1\n      swap2\n      sub\n      swap1\n      revert\n    tag_260:\n        /* \"contracts/escrowcontract.sol\":3472:3485  Available.YES */\n      0x01\n        /* \"contracts/escrowcontract.sol\":3449:3485  isAvailable[itemId] == Available.YES */\n      dup1\n      dup2\n      gt\n      iszero\n      tag_262\n      jumpi\n      tag_263\n      tag_136\n      jump\t// in\n    tag_263:\n    tag_262:\n        /* \"contracts/escrowcontract.sol\":3449:3460  isAvailable */\n      0x0c\n        /* \"contracts/escrowcontract.sol\":3449:3468  isAvailable[itemId] */\n      0x00\n        /* \"contracts/escrowcontract.sol\":3461:3467  itemId */\n      dup6\n        /* \"contracts/escrowcontract.sol\":3449:3468  isAvailable[itemId] */\n      dup2\n      mstore\n      0x20\n      add\n      swap1\n      dup2\n      mstore\n      0x20\n      add\n      0x00\n      keccak256\n      0x00\n      swap1\n      sload\n      swap1\n      0x0100\n      exp\n      swap1\n      div\n      0xff\n      and\n        /* \"contracts/escrowcontract.sol\":3449:3485  isAvailable[itemId] == Available.YES */\n      0x01\n      dup2\n      gt\n      iszero\n      tag_264\n      jumpi\n      tag_265\n      tag_136\n      jump\t// in\n    tag_265:\n    tag_264:\n      eq\n        /* \"contracts/escrowcontract.sol\":3441:3508  require(isAvailable[itemId] == Available.YES, \"Item not available\") */\n      tag_266\n      jumpi\n      mload(0x40)\n      0x08c379a000000000000000000000000000000000000000000000000000000000\n      dup2\n      mstore\n      0x04\n      add\n      tag_267\n      swap1\n      tag_268\n      jump\t// in\n    tag_267:\n      mload(0x40)\n      dup1\n      swap2\n      sub\n      swap1\n      revert\n    tag_266:\n        /* \"contracts/escrowcontract.sol\":3526:3535  requested */\n      0x0a\n        /* \"contracts/escrowcontract.sol\":3526:3545  requested[provider] */\n      0x00\n        /* \"contracts/escrowcontract.sol\":3536:3544  provider */\n      dup4\n        /* \"contracts/escrowcontract.sol\":3526:3545  requested[provider] */\n      0xffffffffffffffffffffffffffffffffffffffff\n      and\n      0xffffffffffffffffffffffffffffffffffffffff\n      and\n      dup2\n      mstore\n      0x20\n      add\n      swap1\n      dup2\n      mstore\n      0x20\n      add\n      0x00\n      keccak256\n        /* \"contracts/escrowcontract.sol\":3526:3553  requested[provider][itemId] */\n      0x00\n        /* \"contracts/escrowcontract.sol\":3546:3552  itemId */\n      dup5\n        /* \"contracts/escrowcontract.sol\":3526:3553  requested[provider][itemId] */\n      dup2\n      mstore\n      0x20\n      add\n      swap1\n      dup2\n      mstore\n      0x20\n      add\n      0x00\n      keccak256\n      0x00\n      swap1\n      sload\n      swap1\n      0x0100\n      exp\n      swap1\n      div\n      0xff\n      and\n        /* \"contracts/escrowcontract.sol\":3518:3582  require(requested[provider][itemId], \"Provider not on the list\") */\n      tag_269\n      jumpi\n      mload(0x40)\n      0x08c379a000000000000000000000000000000000000000000000000000000000\n      dup2\n      mstore\n      0x04\n      add\n      tag_270\n      swap1\n      tag_271\n      jump\t// in\n    tag_270:\n      mload(0x40)\n      dup1\n      swap2\n      sub\n      swap1\n      revert\n    tag_269:\n        /* \"contracts/escrowcontract.sol\":3616:3628  Available.NO */\n      0x00\n        /* \"contracts/escrowcontract.sol\":3593:3628  isAvailable[itemId] == Available.NO */\n      0x01\n      dup2\n      gt\n      iszero\n      tag_272\n      jumpi\n      tag_273\n      tag_136\n      jump\t// in\n    tag_273:\n    tag_272:\n        /* \"contracts/escrowcontract.sol\":3593:3604  isAvailable */\n      0x0c\n        /* \"contracts/escrowcontract.sol\":3593:3612  isAvailable[itemId] */\n      0x00\n        /* \"contracts/escrowcontract.sol\":3605:3611  itemId */\n      dup6\n        /* \"contracts/escrowcontract.sol\":3593:3612  isAvailable[itemId] */\n      dup2\n      mstore\n      0x20\n      add\n      swap1\n      dup2\n      mstore\n      0x20\n      add\n      0x00\n      keccak256\n      0x00\n      swap1\n      sload\n      swap1\n      0x0100\n      exp\n      swap1\n      div\n      0xff\n      and\n        /* \"contracts/escrowcontract.sol\":3593:3628  isAvailable[itemId] == Available.NO */\n      0x01\n      dup2\n      gt\n      iszero\n      tag_274\n      jumpi\n      tag_275\n      tag_136\n      jump\t// in\n    tag_275:\n    tag_274:\n      pop\n      pop\n        /* \"contracts/escrowcontract.sol\":3661:3675  Status.PENDING */\n      0x01\n        /* \"contracts/escrowcontract.sol\":3638:3643  items */\n      0x08\n        /* \"contracts/escrowcontract.sol\":3638:3651  items[itemId] */\n      0x00\n        /* \"contracts/escrowcontract.sol\":3644:3650  itemId */\n      dup6\n        /* \"contracts/escrowcontract.sol\":3638:3651  items[itemId] */\n      dup2\n      mstore\n      0x20\n      add\n      swap1\n      dup2\n      mstore\n      0x20\n      add\n      0x00\n      keccak256\n        /* \"contracts/escrowcontract.sol\":3638:3658  items[itemId].status */\n      0x05\n      add\n      0x14\n        /* \"contracts/escrowcontract.sol\":3638:3675  items[itemId].status = Status.PENDING */\n      0x0100\n      exp\n      dup2\n      sload\n      dup2\n      0xff\n      mul\n      not\n      and\n      swap1\n      dup4\n      0x06\n      dup2\n      gt\n      iszero\n      tag_276\n      jumpi\n      tag_277\n      tag_136\n      jump\t// in\n    tag_277:\n    tag_276:\n      mul\n      or\n      swap1\n      sstore\n      pop\n        /* \"contracts/escrowcontract.sol\":3710:3718  provider */\n      dup2\n        /* \"contracts/escrowcontract.sol\":3685:3690  items */\n      0x08\n        /* \"contracts/escrowcontract.sol\":3685:3698  items[itemId] */\n      0x00\n        /* \"contracts/escrowcontract.sol\":3691:3697  itemId */\n      dup6\n        /* \"contracts/escrowcontract.sol\":3685:3698  items[itemId] */\n      dup2\n      mstore\n      0x20\n      add\n      swap1\n      dup2\n      mstore\n      0x20\n      add\n      0x00\n      keccak256\n        /* \"contracts/escrowcontract.sol\":3685:3707  items[itemId].provider */\n      0x05\n      add\n      0x00\n        /* \"contracts/escrowcontract.sol\":3685:3718  items[itemId].provider = provider */\n      0x0100\n      exp\n      dup2\n      sload\n      dup2\n      0xffffffffffffffffffffffffffffffffffffffff\n      mul\n      not\n      and\n      swap1\n      dup4\n      0xffffffffffffffffffffffffffffffffffffffff\n      and\n      mul\n      or\n      swap1\n      sstore\n      pop\n        /* \"contracts/escrowcontract.sol\":3827:3837  msg.sender */\n      caller\n        /* \"contracts/escrowcontract.sol\":3734:3847  Action (... */\n      0xffffffffffffffffffffffffffffffffffffffff\n      and\n      0x23ad0062ad47da0f27f5c07751751e4b60afc16bf6fe03a24266a01ec4897931\n        /* \"contracts/escrowcontract.sol\":3755:3761  itemId */\n      dup5\n        /* \"contracts/escrowcontract.sol\":3799:3813  Status.PENDING */\n      0x01\n        /* \"contracts/escrowcontract.sol\":3734:3847  Action (... */\n      mload(0x40)\n      tag_278\n      swap3\n      swap2\n      swap1\n      tag_279\n      jump\t// in\n    tag_278:\n      mload(0x40)\n      dup1\n      swap2\n      sub\n      swap1\n      log2\n        /* \"contracts/escrowcontract.sol\":3865:3869  true */\n      0x01\n        /* \"contracts/escrowcontract.sol\":3858:3869  return true */\n      swap1\n      pop\n        /* \"contracts/escrowcontract.sol\":3257:3876  function approveRequest(... */\n      swap3\n      swap2\n      pop\n      pop\n      jump\t// out\n        /* \"contracts/escrowcontract.sol\":199:220  uint256 public escBal */\n    tag_111:\n      sload(0x02)\n      dup2\n      jump\t// out\n        /* \"contracts/escrowcontract.sol\":359:391  uint256 public totalDisputed = 0 */\n    tag_115:\n      sload(0x07)\n      dup2\n      jump\t// out\n        /* \"contracts/escrowcontract.sol\":2841:3251  function requestItem(uint256 itemId) external returns (bool) {... */\n    tag_120:\n        /* \"contracts/escrowcontract.sol\":2896:2900  bool */\n      0x00\n        /* \"contracts/escrowcontract.sol\":2934:2941  ownerOf */\n      0x0b\n        /* \"contracts/escrowcontract.sol\":2934:2949  ownerOf[itemId] */\n      0x00\n        /* \"contracts/escrowcontract.sol\":2942:2948  itemId */\n      dup4\n        /* \"contracts/escrowcontract.sol\":2934:2949  ownerOf[itemId] */\n      dup2\n      mstore\n      0x20\n      add\n      swap1\n      dup2\n      mstore\n      0x20\n      add\n      0x00\n      keccak256\n      0x00\n      swap1\n      sload\n      swap1\n      0x0100\n      exp\n      swap1\n      div\n      0xffffffffffffffffffffffffffffffffffffffff\n      and\n        /* \"contracts/escrowcontract.sol\":2920:2949  msg.sender != ownerOf[itemId] */\n      0xffffffffffffffffffffffffffffffffffffffff\n      and\n        /* \"contracts/escrowcontract.sol\":2920:2930  msg.sender */\n      caller\n        /* \"contracts/escrowcontract.sol\":2920:2949  msg.sender != ownerOf[itemId] */\n      0xffffffffffffffffffffffffffffffffffffffff\n      and\n      sub\n        /* \"contracts/escrowcontract.sol\":2912:2971  require(msg.sender != ownerOf[itemId], \"Owner not allowed\") */\n      tag_281\n      jumpi\n      mload(0x40)\n      0x08c379a000000000000000000000000000000000000000000000000000000000\n      dup2\n      mstore\n      0x04\n      add\n      tag_282\n      swap1\n      tag_283\n      jump\t// in\n    tag_282:\n      mload(0x40)\n      dup1\n      swap2\n      sub\n      swap1\n      revert\n    tag_281:\n        /* \"contracts/escrowcontract.sol\":3012:3025  Available.YES */\n      0x01\n        /* \"contracts/escrowcontract.sol\":2989:3025  isAvailable[itemId] == Available.YES */\n      dup1\n      dup2\n      gt\n      iszero\n      tag_284\n      jumpi\n      tag_285\n      tag_136\n      jump\t// in\n    tag_285:\n    tag_284:\n        /* \"contracts/escrowcontract.sol\":2989:3000  isAvailable */\n      0x0c\n        /* \"contracts/escrowcontract.sol\":2989:3008  isAvailable[itemId] */\n      0x00\n        /* \"contracts/escrowcontract.sol\":3001:3007  itemId */\n      dup5\n        /* \"contracts/escrowcontract.sol\":2989:3008  isAvailable[itemId] */\n      dup2\n      mstore\n      0x20\n      add\n      swap1\n      dup2\n      mstore\n      0x20\n      add\n      0x00\n      keccak256\n      0x00\n      swap1\n      sload\n      swap1\n      0x0100\n      exp\n      swap1\n      div\n      0xff\n      and\n        /* \"contracts/escrowcontract.sol\":2989:3025  isAvailable[itemId] == Available.YES */\n      0x01\n      dup2\n      gt\n      iszero\n      tag_286\n      jumpi\n      tag_287\n      tag_136\n      jump\t// in\n    tag_287:\n    tag_286:\n      eq\n        /* \"contracts/escrowcontract.sol\":2981:3048  require(isAvailable[itemId] == Available.YES, \"Item not available\") */\n      tag_288\n      jumpi\n      mload(0x40)\n      0x08c379a000000000000000000000000000000000000000000000000000000000\n      dup2\n      mstore\n      0x04\n      add\n      tag_289\n      swap1\n      tag_268\n      jump\t// in\n    tag_289:\n      mload(0x40)\n      dup1\n      swap2\n      sub\n      swap1\n      revert\n    tag_288:\n        /* \"contracts/escrowcontract.sol\":3091:3095  true */\n      0x01\n        /* \"contracts/escrowcontract.sol\":3059:3068  requested */\n      0x0a\n        /* \"contracts/escrowcontract.sol\":3059:3080  requested[msg.sender] */\n      0x00\n        /* \"contracts/escrowcontract.sol\":3069:3079  msg.sender */\n      caller\n        /* \"contracts/escrowcontract.sol\":3059:3080  requested[msg.sender] */\n      0xffffffffffffffffffffffffffffffffffffffff\n      and\n      0xffffffffffffffffffffffffffffffffffffffff\n      and\n      dup2\n      mstore\n      0x20\n      add\n      swap1\n      dup2\n      mstore\n      0x20\n      add\n      0x00\n      keccak256\n        /* \"contracts/escrowcontract.sol\":3059:3088  requested[msg.sender][itemId] */\n      0x00\n        /* \"contracts/escrowcontract.sol\":3081:3087  itemId */\n      dup5\n        /* \"contracts/escrowcontract.sol\":3059:3088  requested[msg.sender][itemId] */\n      dup2\n      mstore\n      0x20\n      add\n      swap1\n      dup2\n      mstore\n      0x20\n      add\n      0x00\n      keccak256\n      0x00\n        /* \"contracts/escrowcontract.sol\":3059:3095  requested[msg.sender][itemId] = true */\n      0x0100\n      exp\n      dup2\n      sload\n      dup2\n      0xff\n      mul\n      not\n      and\n      swap1\n      dup4\n      iszero\n      iszero\n      mul\n      or\n      swap1\n      sstore\n      pop\n        /* \"contracts/escrowcontract.sol\":3202:3212  msg.sender */\n      caller\n        /* \"contracts/escrowcontract.sol\":3111:3222  Action (... */\n      0xffffffffffffffffffffffffffffffffffffffff\n      and\n      0x23ad0062ad47da0f27f5c07751751e4b60afc16bf6fe03a24266a01ec4897931\n        /* \"contracts/escrowcontract.sol\":3132:3138  itemId */\n      dup4\n        /* \"contracts/escrowcontract.sol\":3177:3188  Status.OPEN */\n      0x00\n        /* \"contracts/escrowcontract.sol\":3111:3222  Action (... */\n      mload(0x40)\n      tag_290\n      swap3\n      swap2\n      swap1\n      tag_291\n      jump\t// in\n    tag_290:\n      mload(0x40)\n      dup1\n      swap2\n      sub\n      swap1\n      log2\n        /* \"contracts/escrowcontract.sol\":3240:3244  true */\n      0x01\n        /* \"contracts/escrowcontract.sol\":3233:3244  return true */\n      swap1\n      pop\n        /* \"contracts/escrowcontract.sol\":2841:3251  function requestItem(uint256 itemId) external returns (bool) {... */\n      swap2\n      swap1\n      pop\n      jump\t// out\n        /* \"contracts/escrowcontract.sol\":5884:6364  function withdrawFund(... */\n    tag_125:\n        /* \"contracts/escrowcontract.sol\":5974:5978  bool */\n      0x00\n        /* \"contracts/escrowcontract.sol\":6012:6018  escAcc */\n      0x01\n      0x00\n      swap1\n      sload\n      swap1\n      0x0100\n      exp\n      swap1\n      div\n      0xffffffffffffffffffffffffffffffffffffffff\n      and\n        /* \"contracts/escrowcontract.sol\":5998:6018  msg.sender == escAcc */\n      0xffffffffffffffffffffffffffffffffffffffff\n      and\n        /* \"contracts/escrowcontract.sol\":5998:6008  msg.sender */\n      caller\n        /* \"contracts/escrowcontract.sol\":5998:6018  msg.sender == escAcc */\n      0xffffffffffffffffffffffffffffffffffffffff\n      and\n      eq\n        /* \"contracts/escrowcontract.sol\":5990:6042  require(msg.sender == escAcc, \"Only Escrow allowed\") */\n      tag_293\n      jumpi\n      mload(0x40)\n      0x08c379a000000000000000000000000000000000000000000000000000000000\n      dup2\n      mstore\n      0x04\n      add\n      tag_294\n      swap1\n      tag_176\n      jump\t// in\n    tag_294:\n      mload(0x40)\n      dup1\n      swap2\n      sub\n      swap1\n      revert\n    tag_293:\n        /* \"contracts/escrowcontract.sol\":6069:6076  0 ether */\n      0x00\n        /* \"contracts/escrowcontract.sol\":6060:6066  amount */\n      dup3\n        /* \"contracts/escrowcontract.sol\":6060:6076  amount > 0 ether */\n      gt\n        /* \"contracts/escrowcontract.sol\":6060:6101  amount > 0 ether && amount <= escAvailBal */\n      dup1\n      iszero\n      tag_295\n      jumpi\n      pop\n        /* \"contracts/escrowcontract.sol\":6090:6101  escAvailBal */\n      sload(0x03)\n        /* \"contracts/escrowcontract.sol\":6080:6086  amount */\n      dup3\n        /* \"contracts/escrowcontract.sol\":6080:6101  amount <= escAvailBal */\n      gt\n      iszero\n        /* \"contracts/escrowcontract.sol\":6060:6101  amount > 0 ether && amount <= escAvailBal */\n    tag_295:\n        /* \"contracts/escrowcontract.sol\":6052:6133  require(amount > 0 ether && amount <= escAvailBal, \"Zero withdrawal not allowed\") */\n      tag_296\n      jumpi\n      mload(0x40)\n      0x08c379a000000000000000000000000000000000000000000000000000000000\n      dup2\n      mstore\n      0x04\n      add\n      tag_297\n      swap1\n      tag_298\n      jump\t// in\n    tag_297:\n      mload(0x40)\n      dup1\n      swap2\n      sub\n      swap1\n      revert\n    tag_296:\n        /* \"contracts/escrowcontract.sol\":6144:6161  payTo(to, amount) */\n      tag_299\n        /* \"contracts/escrowcontract.sol\":6150:6152  to */\n      dup4\n        /* \"contracts/escrowcontract.sol\":6154:6160  amount */\n      dup4\n        /* \"contracts/escrowcontract.sol\":6144:6149  payTo */\n      tag_146\n        /* \"contracts/escrowcontract.sol\":6144:6161  payTo(to, amount) */\n      jump\t// in\n    tag_299:\n      pop\n        /* \"contracts/escrowcontract.sol\":6186:6192  amount */\n      dup2\n        /* \"contracts/escrowcontract.sol\":6171:6182  escAvailBal */\n      0x03\n      0x00\n        /* \"contracts/escrowcontract.sol\":6171:6192  escAvailBal -= amount */\n      dup3\n      dup3\n      sload\n      tag_300\n      swap2\n      swap1\n      tag_145\n      jump\t// in\n    tag_300:\n      swap3\n      pop\n      pop\n      dup2\n      swap1\n      sstore\n      pop\n        /* \"contracts/escrowcontract.sol\":6315:6325  msg.sender */\n      caller\n        /* \"contracts/escrowcontract.sol\":6208:6335  Action (... */\n      0xffffffffffffffffffffffffffffffffffffffff\n      and\n      0x23ad0062ad47da0f27f5c07751751e4b60afc16bf6fe03a24266a01ec4897931\n        /* \"contracts/escrowcontract.sol\":6229:6244  block.timestamp */\n      timestamp\n        /* \"contracts/escrowcontract.sol\":6284:6301  Status.WITHDRAWED */\n      0x06\n        /* \"contracts/escrowcontract.sol\":6208:6335  Action (... */\n      mload(0x40)\n      tag_301\n      swap3\n      swap2\n      swap1\n      tag_302\n      jump\t// in\n    tag_301:\n      mload(0x40)\n      dup1\n      swap2\n      sub\n      swap1\n      log2\n        /* \"contracts/escrowcontract.sol\":6353:6357  true */\n      0x01\n        /* \"contracts/escrowcontract.sol\":6346:6357  return true */\n      swap1\n      pop\n        /* \"contracts/escrowcontract.sol\":5884:6364  function withdrawFund(... */\n      swap3\n      swap2\n      pop\n      pop\n      jump\t// out\n        /* \"contracts/escrowcontract.sol\":6370:6595  function payTo(... */\n    tag_146:\n        /* \"contracts/escrowcontract.sol\":6454:6458  bool */\n      0x00\n        /* \"contracts/escrowcontract.sol\":6471:6483  bool success */\n      dup1\n        /* \"contracts/escrowcontract.sol\":6496:6498  to */\n      dup4\n        /* \"contracts/escrowcontract.sol\":6488:6504  payable(to).call */\n      0xffffffffffffffffffffffffffffffffffffffff\n      and\n        /* \"contracts/escrowcontract.sol\":6512:6518  amount */\n      dup4\n        /* \"contracts/escrowcontract.sol\":6488:6523  payable(to).call{value: amount}(\"\") */\n      mload(0x40)\n      tag_304\n      swap1\n      tag_305\n      jump\t// in\n    tag_304:\n      0x00\n      mload(0x40)\n      dup1\n      dup4\n      sub\n      dup2\n      dup6\n      dup8\n      gas\n      call\n      swap3\n      pop\n      pop\n      pop\n      returndatasize\n      dup1\n      0x00\n      dup2\n      eq\n      tag_308\n      jumpi\n      mload(0x40)\n      swap2\n      pop\n      and(add(returndatasize, 0x3f), not(0x1f))\n      dup3\n      add\n      0x40\n      mstore\n      returndatasize\n      dup3\n      mstore\n      returndatasize\n      0x00\n      0x20\n      dup5\n      add\n      returndatacopy\n      jump(tag_307)\n    tag_308:\n      0x60\n      swap2\n      pop\n    tag_307:\n      pop\n        /* \"contracts/escrowcontract.sol\":6470:6523  (bool success,) = payable(to).call{value: amount}(\"\") */\n      pop\n      swap1\n      pop\n        /* \"contracts/escrowcontract.sol\":6541:6548  success */\n      dup1\n        /* \"contracts/escrowcontract.sol\":6533:6567  require(success, \"Payment failed\") */\n      tag_309\n      jumpi\n      mload(0x40)\n      0x08c379a000000000000000000000000000000000000000000000000000000000\n      dup2\n      mstore\n      0x04\n      add\n      tag_310\n      swap1\n      tag_311\n      jump\t// in\n    tag_310:\n      mload(0x40)\n      dup1\n      swap2\n      sub\n      swap1\n      revert\n    tag_309:\n        /* \"contracts/escrowcontract.sol\":6584:6588  true */\n      0x01\n        /* \"contracts/escrowcontract.sol\":6577:6588  return true */\n      swap2\n      pop\n      pop\n        /* \"contracts/escrowcontract.sol\":6370:6595  function payTo(... */\n      swap3\n      swap2\n      pop\n      pop\n      jump\t// out\n    tag_188:\n      mload(0x40)\n      dup1\n      0x0120\n      add\n      0x40\n      mstore\n      dup1\n      0x00\n      dup2\n      mstore\n      0x20\n      add\n      0x60\n      dup2\n      mstore\n      0x20\n      add\n      0x00\n      dup2\n      mstore\n      0x20\n      add\n      0x00\n      dup2\n      mstore\n      0x20\n      add\n      and(0xffffffffffffffffffffffffffffffffffffffff, 0x00)\n      dup2\n      mstore\n      0x20\n      add\n      and(0xffffffffffffffffffffffffffffffffffffffff, 0x00)\n      dup2\n      mstore\n      0x20\n      add\n      0x00\n      0x06\n      dup2\n      gt\n      iszero\n      tag_312\n      jumpi\n      tag_313\n      tag_136\n      jump\t// in\n    tag_313:\n    tag_312:\n      dup2\n      mstore\n      0x20\n      add\n      iszero(iszero(0x00))\n      dup2\n      mstore\n      0x20\n      add\n      iszero(iszero(0x00))\n      dup2\n      mstore\n      pop\n      swap1\n      jump\t// out\n        /* \"#utility.yul\":88:205   */\n    tag_315:\n        /* \"#utility.yul\":197:198   */\n      0x00\n        /* \"#utility.yul\":194:195   */\n      dup1\n        /* \"#utility.yul\":187:199   */\n      revert\n        /* \"#utility.yul\":211:328   */\n    tag_316:\n        /* \"#utility.yul\":320:321   */\n      0x00\n        /* \"#utility.yul\":317:318   */\n      dup1\n        /* \"#utility.yul\":310:322   */\n      revert\n        /* \"#utility.yul\":334:411   */\n    tag_317:\n        /* \"#utility.yul\":371:378   */\n      0x00\n        /* \"#utility.yul\":400:405   */\n      dup2\n        /* \"#utility.yul\":389:405   */\n      swap1\n      pop\n        /* \"#utility.yul\":334:411   */\n      swap2\n      swap1\n      pop\n      jump\t// out\n        /* \"#utility.yul\":417:539   */\n    tag_318:\n        /* \"#utility.yul\":490:514   */\n      tag_434\n        /* \"#utility.yul\":508:513   */\n      dup2\n        /* \"#utility.yul\":490:514   */\n      tag_317\n      jump\t// in\n    tag_434:\n        /* \"#utility.yul\":483:488   */\n      dup2\n        /* \"#utility.yul\":480:515   */\n      eq\n        /* \"#utility.yul\":470:533   */\n      tag_435\n      jumpi\n        /* \"#utility.yul\":529:530   */\n      0x00\n        /* \"#utility.yul\":526:527   */\n      dup1\n        /* \"#utility.yul\":519:531   */\n      revert\n        /* \"#utility.yul\":470:533   */\n    tag_435:\n        /* \"#utility.yul\":417:539   */\n      pop\n      jump\t// out\n        /* \"#utility.yul\":545:684   */\n    tag_319:\n        /* \"#utility.yul\":591:596   */\n      0x00\n        /* \"#utility.yul\":629:635   */\n      dup2\n        /* \"#utility.yul\":616:636   */\n      calldataload\n        /* \"#utility.yul\":607:636   */\n      swap1\n      pop\n        /* \"#utility.yul\":645:678   */\n      tag_437\n        /* \"#utility.yul\":672:677   */\n      dup2\n        /* \"#utility.yul\":645:678   */\n      tag_318\n      jump\t// in\n    tag_437:\n        /* \"#utility.yul\":545:684   */\n      swap3\n      swap2\n      pop\n      pop\n      jump\t// out\n        /* \"#utility.yul\":690:780   */\n    tag_320:\n        /* \"#utility.yul\":724:731   */\n      0x00\n        /* \"#utility.yul\":767:772   */\n      dup2\n        /* \"#utility.yul\":760:773   */\n      iszero\n        /* \"#utility.yul\":753:774   */\n      iszero\n        /* \"#utility.yul\":742:774   */\n      swap1\n      pop\n        /* \"#utility.yul\":690:780   */\n      swap2\n      swap1\n      pop\n      jump\t// out\n        /* \"#utility.yul\":786:902   */\n    tag_321:\n        /* \"#utility.yul\":856:877   */\n      tag_440\n        /* \"#utility.yul\":871:876   */\n      dup2\n        /* \"#utility.yul\":856:877   */\n      tag_320\n      jump\t// in\n    tag_440:\n        /* \"#utility.yul\":849:854   */\n      dup2\n        /* \"#utility.yul\":846:878   */\n      eq\n        /* \"#utility.yul\":836:896   */\n      tag_441\n      jumpi\n        /* \"#utility.yul\":892:893   */\n      0x00\n        /* \"#utility.yul\":889:890   */\n      dup1\n        /* \"#utility.yul\":882:894   */\n      revert\n        /* \"#utility.yul\":836:896   */\n    tag_441:\n        /* \"#utility.yul\":786:902   */\n      pop\n      jump\t// out\n        /* \"#utility.yul\":908:1041   */\n    tag_322:\n        /* \"#utility.yul\":951:956   */\n      0x00\n        /* \"#utility.yul\":989:995   */\n      dup2\n        /* \"#utility.yul\":976:996   */\n      calldataload\n        /* \"#utility.yul\":967:996   */\n      swap1\n      pop\n        /* \"#utility.yul\":1005:1035   */\n      tag_443\n        /* \"#utility.yul\":1029:1034   */\n      dup2\n        /* \"#utility.yul\":1005:1035   */\n      tag_321\n      jump\t// in\n    tag_443:\n        /* \"#utility.yul\":908:1041   */\n      swap3\n      swap2\n      pop\n      pop\n      jump\t// out\n        /* \"#utility.yul\":1047:1515   */\n    tag_28:\n        /* \"#utility.yul\":1112:1118   */\n      0x00\n        /* \"#utility.yul\":1120:1126   */\n      dup1\n        /* \"#utility.yul\":1169:1171   */\n      0x40\n        /* \"#utility.yul\":1157:1166   */\n      dup4\n        /* \"#utility.yul\":1148:1155   */\n      dup6\n        /* \"#utility.yul\":1144:1167   */\n      sub\n        /* \"#utility.yul\":1140:1172   */\n      slt\n        /* \"#utility.yul\":1137:1256   */\n      iszero\n      tag_445\n      jumpi\n        /* \"#utility.yul\":1175:1254   */\n      tag_446\n      tag_315\n      jump\t// in\n    tag_446:\n        /* \"#utility.yul\":1137:1256   */\n    tag_445:\n        /* \"#utility.yul\":1295:1296   */\n      0x00\n        /* \"#utility.yul\":1320:1373   */\n      tag_447\n        /* \"#utility.yul\":1365:1372   */\n      dup6\n        /* \"#utility.yul\":1356:1362   */\n      dup3\n        /* \"#utility.yul\":1345:1354   */\n      dup7\n        /* \"#utility.yul\":1341:1363   */\n      add\n        /* \"#utility.yul\":1320:1373   */\n      tag_319\n      jump\t// in\n    tag_447:\n        /* \"#utility.yul\":1310:1373   */\n      swap3\n      pop\n        /* \"#utility.yul\":1266:1383   */\n      pop\n        /* \"#utility.yul\":1422:1424   */\n      0x20\n        /* \"#utility.yul\":1448:1498   */\n      tag_448\n        /* \"#utility.yul\":1490:1497   */\n      dup6\n        /* \"#utility.yul\":1481:1487   */\n      dup3\n        /* \"#utility.yul\":1470:1479   */\n      dup7\n        /* \"#utility.yul\":1466:1488   */\n      add\n        /* \"#utility.yul\":1448:1498   */\n      tag_322\n      jump\t// in\n    tag_448:\n        /* \"#utility.yul\":1438:1498   */\n      swap2\n      pop\n        /* \"#utility.yul\":1393:1508   */\n      pop\n        /* \"#utility.yul\":1047:1515   */\n      swap3\n      pop\n      swap3\n      swap1\n      pop\n      jump\t// out\n        /* \"#utility.yul\":1521:1630   */\n    tag_323:\n        /* \"#utility.yul\":1602:1623   */\n      tag_450\n        /* \"#utility.yul\":1617:1622   */\n      dup2\n        /* \"#utility.yul\":1602:1623   */\n      tag_320\n      jump\t// in\n    tag_450:\n        /* \"#utility.yul\":1597:1600   */\n      dup3\n        /* \"#utility.yul\":1590:1624   */\n      mstore\n        /* \"#utility.yul\":1521:1630   */\n      pop\n      pop\n      jump\t// out\n        /* \"#utility.yul\":1636:1846   */\n    tag_31:\n        /* \"#utility.yul\":1723:1727   */\n      0x00\n        /* \"#utility.yul\":1761:1763   */\n      0x20\n        /* \"#utility.yul\":1750:1759   */\n      dup3\n        /* \"#utility.yul\":1746:1764   */\n      add\n        /* \"#utility.yul\":1738:1764   */\n      swap1\n      pop\n        /* \"#utility.yul\":1774:1839   */\n      tag_452\n        /* \"#utility.yul\":1836:1837   */\n      0x00\n        /* \"#utility.yul\":1825:1834   */\n      dup4\n        /* \"#utility.yul\":1821:1838   */\n      add\n        /* \"#utility.yul\":1812:1818   */\n      dup5\n        /* \"#utility.yul\":1774:1839   */\n      tag_323\n      jump\t// in\n    tag_452:\n        /* \"#utility.yul\":1636:1846   */\n      swap3\n      swap2\n      pop\n      pop\n      jump\t// out\n        /* \"#utility.yul\":1852:1993   */\n    tag_324:\n        /* \"#utility.yul\":1946:1952   */\n      0x00\n        /* \"#utility.yul\":1980:1985   */\n      dup2\n        /* \"#utility.yul\":1974:1986   */\n      mload\n        /* \"#utility.yul\":1964:1986   */\n      swap1\n      pop\n        /* \"#utility.yul\":1852:1993   */\n      swap2\n      swap1\n      pop\n      jump\t// out\n        /* \"#utility.yul\":1999:2210   */\n    tag_325:\n        /* \"#utility.yul\":2125:2136   */\n      0x00\n        /* \"#utility.yul\":2159:2165   */\n      dup3\n        /* \"#utility.yul\":2154:2157   */\n      dup3\n        /* \"#utility.yul\":2147:2166   */\n      mstore\n        /* \"#utility.yul\":2199:2203   */\n      0x20\n        /* \"#utility.yul\":2194:2197   */\n      dup3\n        /* \"#utility.yul\":2190:2204   */\n      add\n        /* \"#utility.yul\":2175:2204   */\n      swap1\n      pop\n        /* \"#utility.yul\":1999:2210   */\n      swap3\n      swap2\n      pop\n      pop\n      jump\t// out\n        /* \"#utility.yul\":2216:2375   */\n    tag_326:\n        /* \"#utility.yul\":2310:2314   */\n      0x00\n        /* \"#utility.yul\":2333:2336   */\n      dup2\n        /* \"#utility.yul\":2325:2336   */\n      swap1\n      pop\n        /* \"#utility.yul\":2363:2367   */\n      0x20\n        /* \"#utility.yul\":2358:2361   */\n      dup3\n        /* \"#utility.yul\":2354:2368   */\n      add\n        /* \"#utility.yul\":2346:2368   */\n      swap1\n      pop\n        /* \"#utility.yul\":2216:2375   */\n      swap2\n      swap1\n      pop\n      jump\t// out\n        /* \"#utility.yul\":2381:2489   */\n    tag_327:\n        /* \"#utility.yul\":2458:2482   */\n      tag_457\n        /* \"#utility.yul\":2476:2481   */\n      dup2\n        /* \"#utility.yul\":2458:2482   */\n      tag_317\n      jump\t// in\n    tag_457:\n        /* \"#utility.yul\":2453:2456   */\n      dup3\n        /* \"#utility.yul\":2446:2483   */\n      mstore\n        /* \"#utility.yul\":2381:2489   */\n      pop\n      pop\n      jump\t// out\n        /* \"#utility.yul\":2495:2594   */\n    tag_328:\n        /* \"#utility.yul\":2547:2553   */\n      0x00\n        /* \"#utility.yul\":2581:2586   */\n      dup2\n        /* \"#utility.yul\":2575:2587   */\n      mload\n        /* \"#utility.yul\":2565:2587   */\n      swap1\n      pop\n        /* \"#utility.yul\":2495:2594   */\n      swap2\n      swap1\n      pop\n      jump\t// out\n        /* \"#utility.yul\":2600:2759   */\n    tag_329:\n        /* \"#utility.yul\":2674:2685   */\n      0x00\n        /* \"#utility.yul\":2708:2714   */\n      dup3\n        /* \"#utility.yul\":2703:2706   */\n      dup3\n        /* \"#utility.yul\":2696:2715   */\n      mstore\n        /* \"#utility.yul\":2748:2752   */\n      0x20\n        /* \"#utility.yul\":2743:2746   */\n      dup3\n        /* \"#utility.yul\":2739:2753   */\n      add\n        /* \"#utility.yul\":2724:2753   */\n      swap1\n      pop\n        /* \"#utility.yul\":2600:2759   */\n      swap3\n      swap2\n      pop\n      pop\n      jump\t// out\n        /* \"#utility.yul\":2765:3011   */\n    tag_330:\n        /* \"#utility.yul\":2846:2847   */\n      0x00\n        /* \"#utility.yul\":2856:2969   */\n    tag_461:\n        /* \"#utility.yul\":2870:2876   */\n      dup4\n        /* \"#utility.yul\":2867:2868   */\n      dup2\n        /* \"#utility.yul\":2864:2877   */\n      lt\n        /* \"#utility.yul\":2856:2969   */\n      iszero\n      tag_463\n      jumpi\n        /* \"#utility.yul\":2955:2956   */\n      dup1\n        /* \"#utility.yul\":2950:2953   */\n      dup3\n        /* \"#utility.yul\":2946:2957   */\n      add\n        /* \"#utility.yul\":2940:2958   */\n      mload\n        /* \"#utility.yul\":2936:2937   */\n      dup2\n        /* \"#utility.yul\":2931:2934   */\n      dup5\n        /* \"#utility.yul\":2927:2938   */\n      add\n        /* \"#utility.yul\":2920:2959   */\n      mstore\n        /* \"#utility.yul\":2892:2894   */\n      0x20\n        /* \"#utility.yul\":2889:2890   */\n      dup2\n        /* \"#utility.yul\":2885:2895   */\n      add\n        /* \"#utility.yul\":2880:2895   */\n      swap1\n      pop\n        /* \"#utility.yul\":2856:2969   */\n      jump(tag_461)\n    tag_463:\n        /* \"#utility.yul\":3003:3004   */\n      0x00\n        /* \"#utility.yul\":2994:3000   */\n      dup5\n        /* \"#utility.yul\":2989:2992   */\n      dup5\n        /* \"#utility.yul\":2985:3001   */\n      add\n        /* \"#utility.yul\":2978:3005   */\n      mstore\n        /* \"#utility.yul\":2827:3011   */\n      pop\n        /* \"#utility.yul\":2765:3011   */\n      pop\n      pop\n      pop\n      jump\t// out\n        /* \"#utility.yul\":3017:3119   */\n    tag_331:\n        /* \"#utility.yul\":3058:3064   */\n      0x00\n        /* \"#utility.yul\":3109:3111   */\n      0x1f\n        /* \"#utility.yul\":3105:3112   */\n      not\n        /* \"#utility.yul\":3100:3102   */\n      0x1f\n        /* \"#utility.yul\":3093:3098   */\n      dup4\n        /* \"#utility.yul\":3089:3103   */\n      add\n        /* \"#utility.yul\":3085:3113   */\n      and\n        /* \"#utility.yul\":3075:3113   */\n      swap1\n      pop\n        /* \"#utility.yul\":3017:3119   */\n      swap2\n      swap1\n      pop\n      jump\t// out\n        /* \"#utility.yul\":3125:3482   */\n    tag_332:\n        /* \"#utility.yul\":3203:3206   */\n      0x00\n        /* \"#utility.yul\":3231:3270   */\n      tag_466\n        /* \"#utility.yul\":3264:3269   */\n      dup3\n        /* \"#utility.yul\":3231:3270   */\n      tag_328\n      jump\t// in\n    tag_466:\n        /* \"#utility.yul\":3286:3347   */\n      tag_467\n        /* \"#utility.yul\":3340:3346   */\n      dup2\n        /* \"#utility.yul\":3335:3338   */\n      dup6\n        /* \"#utility.yul\":3286:3347   */\n      tag_329\n      jump\t// in\n    tag_467:\n        /* \"#utility.yul\":3279:3347   */\n      swap4\n      pop\n        /* \"#utility.yul\":3356:3421   */\n      tag_468\n        /* \"#utility.yul\":3414:3420   */\n      dup2\n        /* \"#utility.yul\":3409:3412   */\n      dup6\n        /* \"#utility.yul\":3402:3406   */\n      0x20\n        /* \"#utility.yul\":3395:3400   */\n      dup7\n        /* \"#utility.yul\":3391:3407   */\n      add\n        /* \"#utility.yul\":3356:3421   */\n      tag_330\n      jump\t// in\n    tag_468:\n        /* \"#utility.yul\":3446:3475   */\n      tag_469\n        /* \"#utility.yul\":3468:3474   */\n      dup2\n        /* \"#utility.yul\":3446:3475   */\n      tag_331\n      jump\t// in\n    tag_469:\n        /* \"#utility.yul\":3441:3444   */\n      dup5\n        /* \"#utility.yul\":3437:3476   */\n      add\n        /* \"#utility.yul\":3430:3476   */\n      swap2\n      pop\n        /* \"#utility.yul\":3207:3482   */\n      pop\n        /* \"#utility.yul\":3125:3482   */\n      swap3\n      swap2\n      pop\n      pop\n      jump\t// out\n        /* \"#utility.yul\":3488:3614   */\n    tag_333:\n        /* \"#utility.yul\":3525:3532   */\n      0x00\n        /* \"#utility.yul\":3565:3607   */\n      0xffffffffffffffffffffffffffffffffffffffff\n        /* \"#utility.yul\":3558:3563   */\n      dup3\n        /* \"#utility.yul\":3554:3608   */\n      and\n        /* \"#utility.yul\":3543:3608   */\n      swap1\n      pop\n        /* \"#utility.yul\":3488:3614   */\n      swap2\n      swap1\n      pop\n      jump\t// out\n        /* \"#utility.yul\":3620:3716   */\n    tag_334:\n        /* \"#utility.yul\":3657:3664   */\n      0x00\n        /* \"#utility.yul\":3686:3710   */\n      tag_472\n        /* \"#utility.yul\":3704:3709   */\n      dup3\n        /* \"#utility.yul\":3686:3710   */\n      tag_333\n      jump\t// in\n    tag_472:\n        /* \"#utility.yul\":3675:3710   */\n      swap1\n      pop\n        /* \"#utility.yul\":3620:3716   */\n      swap2\n      swap1\n      pop\n      jump\t// out\n        /* \"#utility.yul\":3722:3830   */\n    tag_335:\n        /* \"#utility.yul\":3799:3823   */\n      tag_474\n        /* \"#utility.yul\":3817:3822   */\n      dup2\n        /* \"#utility.yul\":3799:3823   */\n      tag_334\n      jump\t// in\n    tag_474:\n        /* \"#utility.yul\":3794:3797   */\n      dup3\n        /* \"#utility.yul\":3787:3824   */\n      mstore\n        /* \"#utility.yul\":3722:3830   */\n      pop\n      pop\n      jump\t// out\n        /* \"#utility.yul\":3836:4016   */\n    tag_136:\n        /* \"#utility.yul\":3884:3961   */\n      0x4e487b7100000000000000000000000000000000000000000000000000000000\n        /* \"#utility.yul\":3881:3882   */\n      0x00\n        /* \"#utility.yul\":3874:3962   */\n      mstore\n        /* \"#utility.yul\":3981:3985   */\n      0x21\n        /* \"#utility.yul\":3978:3979   */\n      0x04\n        /* \"#utility.yul\":3971:3986   */\n      mstore\n        /* \"#utility.yul\":4005:4009   */\n      0x24\n        /* \"#utility.yul\":4002:4003   */\n      0x00\n        /* \"#utility.yul\":3995:4010   */\n      revert\n        /* \"#utility.yul\":4022:4137   */\n    tag_336:\n        /* \"#utility.yul\":4105:4106   */\n      0x07\n        /* \"#utility.yul\":4098:4103   */\n      dup2\n        /* \"#utility.yul\":4095:4107   */\n      lt\n        /* \"#utility.yul\":4085:4131   */\n      tag_477\n      jumpi\n        /* \"#utility.yul\":4111:4129   */\n      tag_478\n      tag_136\n      jump\t// in\n    tag_478:\n        /* \"#utility.yul\":4085:4131   */\n    tag_477:\n        /* \"#utility.yul\":4022:4137   */\n      pop\n      jump\t// out\n        /* \"#utility.yul\":4143:4274   */\n    tag_337:\n        /* \"#utility.yul\":4190:4197   */\n      0x00\n        /* \"#utility.yul\":4219:4224   */\n      dup2\n        /* \"#utility.yul\":4208:4224   */\n      swap1\n      pop\n        /* \"#utility.yul\":4225:4268   */\n      tag_480\n        /* \"#utility.yul\":4262:4267   */\n      dup3\n        /* \"#utility.yul\":4225:4268   */\n      tag_336\n      jump\t// in\n    tag_480:\n        /* \"#utility.yul\":4143:4274   */\n      swap2\n      swap1\n      pop\n      jump\t// out\n        /* \"#utility.yul\":4280:4411   */\n    tag_338:\n        /* \"#utility.yul\":4338:4347   */\n      0x00\n        /* \"#utility.yul\":4371:4405   */\n      tag_482\n        /* \"#utility.yul\":4399:4404   */\n      dup3\n        /* \"#utility.yul\":4371:4405   */\n      tag_337\n      jump\t// in\n    tag_482:\n        /* \"#utility.yul\":4358:4405   */\n      swap1\n      pop\n        /* \"#utility.yul\":4280:4411   */\n      swap2\n      swap1\n      pop\n      jump\t// out\n        /* \"#utility.yul\":4417:4554   */\n    tag_339:\n        /* \"#utility.yul\":4502:4547   */\n      tag_484\n        /* \"#utility.yul\":4541:4546   */\n      dup2\n        /* \"#utility.yul\":4502:4547   */\n      tag_338\n      jump\t// in\n    tag_484:\n        /* \"#utility.yul\":4497:4500   */\n      dup3\n        /* \"#utility.yul\":4490:4548   */\n      mstore\n        /* \"#utility.yul\":4417:4554   */\n      pop\n      pop\n      jump\t// out\n        /* \"#utility.yul\":4560:4659   */\n    tag_340:\n        /* \"#utility.yul\":4631:4652   */\n      tag_486\n        /* \"#utility.yul\":4646:4651   */\n      dup2\n        /* \"#utility.yul\":4631:4652   */\n      tag_320\n      jump\t// in\n    tag_486:\n        /* \"#utility.yul\":4626:4629   */\n      dup3\n        /* \"#utility.yul\":4619:4653   */\n      mstore\n        /* \"#utility.yul\":4560:4659   */\n      pop\n      pop\n      jump\t// out\n        /* \"#utility.yul\":4725:6573   */\n    tag_341:\n        /* \"#utility.yul\":4838:4841   */\n      0x00\n        /* \"#utility.yul\":4874:4880   */\n      0x0120\n        /* \"#utility.yul\":4869:4872   */\n      dup4\n        /* \"#utility.yul\":4865:4881   */\n      add\n        /* \"#utility.yul\":4965:4969   */\n      0x00\n        /* \"#utility.yul\":4958:4963   */\n      dup4\n        /* \"#utility.yul\":4954:4970   */\n      add\n        /* \"#utility.yul\":4948:4971   */\n      mload\n        /* \"#utility.yul\":4984:5047   */\n      tag_488\n        /* \"#utility.yul\":5041:5045   */\n      0x00\n        /* \"#utility.yul\":5036:5039   */\n      dup7\n        /* \"#utility.yul\":5032:5046   */\n      add\n        /* \"#utility.yul\":5018:5030   */\n      dup3\n        /* \"#utility.yul\":4984:5047   */\n      tag_327\n      jump\t// in\n    tag_488:\n        /* \"#utility.yul\":4891:5057   */\n      pop\n        /* \"#utility.yul\":5142:5146   */\n      0x20\n        /* \"#utility.yul\":5135:5140   */\n      dup4\n        /* \"#utility.yul\":5131:5147   */\n      add\n        /* \"#utility.yul\":5125:5148   */\n      mload\n        /* \"#utility.yul\":5195:5198   */\n      dup5\n        /* \"#utility.yul\":5189:5193   */\n      dup3\n        /* \"#utility.yul\":5185:5199   */\n      sub\n        /* \"#utility.yul\":5178:5182   */\n      0x20\n        /* \"#utility.yul\":5173:5176   */\n      dup7\n        /* \"#utility.yul\":5169:5183   */\n      add\n        /* \"#utility.yul\":5162:5200   */\n      mstore\n        /* \"#utility.yul\":5221:5294   */\n      tag_489\n        /* \"#utility.yul\":5289:5293   */\n      dup3\n        /* \"#utility.yul\":5275:5287   */\n      dup3\n        /* \"#utility.yul\":5221:5294   */\n      tag_332\n      jump\t// in\n    tag_489:\n        /* \"#utility.yul\":5213:5294   */\n      swap2\n      pop\n        /* \"#utility.yul\":5067:5305   */\n      pop\n        /* \"#utility.yul\":5389:5393   */\n      0x40\n        /* \"#utility.yul\":5382:5387   */\n      dup4\n        /* \"#utility.yul\":5378:5394   */\n      add\n        /* \"#utility.yul\":5372:5395   */\n      mload\n        /* \"#utility.yul\":5408:5471   */\n      tag_490\n        /* \"#utility.yul\":5465:5469   */\n      0x40\n        /* \"#utility.yul\":5460:5463   */\n      dup7\n        /* \"#utility.yul\":5456:5470   */\n      add\n        /* \"#utility.yul\":5442:5454   */\n      dup3\n        /* \"#utility.yul\":5408:5471   */\n      tag_327\n      jump\t// in\n    tag_490:\n        /* \"#utility.yul\":5315:5481   */\n      pop\n        /* \"#utility.yul\":5568:5572   */\n      0x60\n        /* \"#utility.yul\":5561:5566   */\n      dup4\n        /* \"#utility.yul\":5557:5573   */\n      add\n        /* \"#utility.yul\":5551:5574   */\n      mload\n        /* \"#utility.yul\":5587:5650   */\n      tag_491\n        /* \"#utility.yul\":5644:5648   */\n      0x60\n        /* \"#utility.yul\":5639:5642   */\n      dup7\n        /* \"#utility.yul\":5635:5649   */\n      add\n        /* \"#utility.yul\":5621:5633   */\n      dup3\n        /* \"#utility.yul\":5587:5650   */\n      tag_327\n      jump\t// in\n    tag_491:\n        /* \"#utility.yul\":5491:5660   */\n      pop\n        /* \"#utility.yul\":5743:5747   */\n      0x80\n        /* \"#utility.yul\":5736:5741   */\n      dup4\n        /* \"#utility.yul\":5732:5748   */\n      add\n        /* \"#utility.yul\":5726:5749   */\n      mload\n        /* \"#utility.yul\":5762:5825   */\n      tag_492\n        /* \"#utility.yul\":5819:5823   */\n      0x80\n        /* \"#utility.yul\":5814:5817   */\n      dup7\n        /* \"#utility.yul\":5810:5824   */\n      add\n        /* \"#utility.yul\":5796:5808   */\n      dup3\n        /* \"#utility.yul\":5762:5825   */\n      tag_335\n      jump\t// in\n    tag_492:\n        /* \"#utility.yul\":5670:5835   */\n      pop\n        /* \"#utility.yul\":5921:5925   */\n      0xa0\n        /* \"#utility.yul\":5914:5919   */\n      dup4\n        /* \"#utility.yul\":5910:5926   */\n      add\n        /* \"#utility.yul\":5904:5927   */\n      mload\n        /* \"#utility.yul\":5940:6003   */\n      tag_493\n        /* \"#utility.yul\":5997:6001   */\n      0xa0\n        /* \"#utility.yul\":5992:5995   */\n      dup7\n        /* \"#utility.yul\":5988:6002   */\n      add\n        /* \"#utility.yul\":5974:5986   */\n      dup3\n        /* \"#utility.yul\":5940:6003   */\n      tag_335\n      jump\t// in\n    tag_493:\n        /* \"#utility.yul\":5845:6013   */\n      pop\n        /* \"#utility.yul\":6097:6101   */\n      0xc0\n        /* \"#utility.yul\":6090:6095   */\n      dup4\n        /* \"#utility.yul\":6086:6102   */\n      add\n        /* \"#utility.yul\":6080:6103   */\n      mload\n        /* \"#utility.yul\":6116:6187   */\n      tag_494\n        /* \"#utility.yul\":6181:6185   */\n      0xc0\n        /* \"#utility.yul\":6176:6179   */\n      dup7\n        /* \"#utility.yul\":6172:6186   */\n      add\n        /* \"#utility.yul\":6158:6170   */\n      dup3\n        /* \"#utility.yul\":6116:6187   */\n      tag_339\n      jump\t// in\n    tag_494:\n        /* \"#utility.yul\":6023:6197   */\n      pop\n        /* \"#utility.yul\":6283:6287   */\n      0xe0\n        /* \"#utility.yul\":6276:6281   */\n      dup4\n        /* \"#utility.yul\":6272:6288   */\n      add\n        /* \"#utility.yul\":6266:6289   */\n      mload\n        /* \"#utility.yul\":6302:6359   */\n      tag_495\n        /* \"#utility.yul\":6353:6357   */\n      0xe0\n        /* \"#utility.yul\":6348:6351   */\n      dup7\n        /* \"#utility.yul\":6344:6358   */\n      add\n        /* \"#utility.yul\":6330:6342   */\n      dup3\n        /* \"#utility.yul\":6302:6359   */\n      tag_340\n      jump\t// in\n    tag_495:\n        /* \"#utility.yul\":6207:6369   */\n      pop\n        /* \"#utility.yul\":6456:6462   */\n      0x0100\n        /* \"#utility.yul\":6449:6454   */\n      dup4\n        /* \"#utility.yul\":6445:6463   */\n      add\n        /* \"#utility.yul\":6439:6464   */\n      mload\n        /* \"#utility.yul\":6477:6536   */\n      tag_496\n        /* \"#utility.yul\":6528:6534   */\n      0x0100\n        /* \"#utility.yul\":6523:6526   */\n      dup7\n        /* \"#utility.yul\":6519:6535   */\n      add\n        /* \"#utility.yul\":6505:6517   */\n      dup3\n        /* \"#utility.yul\":6477:6536   */\n      tag_340\n      jump\t// in\n    tag_496:\n        /* \"#utility.yul\":6379:6546   */\n      pop\n        /* \"#utility.yul\":6563:6567   */\n      dup1\n        /* \"#utility.yul\":6556:6567   */\n      swap2\n      pop\n        /* \"#utility.yul\":4843:6573   */\n      pop\n        /* \"#utility.yul\":4725:6573   */\n      swap3\n      swap2\n      pop\n      pop\n      jump\t// out\n        /* \"#utility.yul\":6579:6843   */\n    tag_342:\n        /* \"#utility.yul\":6702:6712   */\n      0x00\n        /* \"#utility.yul\":6737:6837   */\n      tag_498\n        /* \"#utility.yul\":6833:6836   */\n      dup4\n        /* \"#utility.yul\":6825:6831   */\n      dup4\n        /* \"#utility.yul\":6737:6837   */\n      tag_341\n      jump\t// in\n    tag_498:\n        /* \"#utility.yul\":6723:6837   */\n      swap1\n      pop\n        /* \"#utility.yul\":6579:6843   */\n      swap3\n      swap2\n      pop\n      pop\n      jump\t// out\n        /* \"#utility.yul\":6849:6989   */\n    tag_343:\n        /* \"#utility.yul\":6946:6950   */\n      0x00\n        /* \"#utility.yul\":6978:6982   */\n      0x20\n        /* \"#utility.yul\":6973:6976   */\n      dup3\n        /* \"#utility.yul\":6969:6983   */\n      add\n        /* \"#utility.yul\":6961:6983   */\n      swap1\n      pop\n        /* \"#utility.yul\":6849:6989   */\n      swap2\n      swap1\n      pop\n      jump\t// out\n        /* \"#utility.yul\":7059:8186   */\n    tag_344:\n        /* \"#utility.yul\":7232:7235   */\n      0x00\n        /* \"#utility.yul\":7261:7342   */\n      tag_501\n        /* \"#utility.yul\":7336:7341   */\n      dup3\n        /* \"#utility.yul\":7261:7342   */\n      tag_324\n      jump\t// in\n    tag_501:\n        /* \"#utility.yul\":7358:7471   */\n      tag_502\n        /* \"#utility.yul\":7464:7470   */\n      dup2\n        /* \"#utility.yul\":7459:7462   */\n      dup6\n        /* \"#utility.yul\":7358:7471   */\n      tag_325\n      jump\t// in\n    tag_502:\n        /* \"#utility.yul\":7351:7471   */\n      swap4\n      pop\n        /* \"#utility.yul\":7497:7500   */\n      dup4\n        /* \"#utility.yul\":7542:7546   */\n      0x20\n        /* \"#utility.yul\":7534:7540   */\n      dup3\n        /* \"#utility.yul\":7530:7547   */\n      mul\n        /* \"#utility.yul\":7525:7528   */\n      dup6\n        /* \"#utility.yul\":7521:7548   */\n      add\n        /* \"#utility.yul\":7572:7655   */\n      tag_503\n        /* \"#utility.yul\":7649:7654   */\n      dup6\n        /* \"#utility.yul\":7572:7655   */\n      tag_326\n      jump\t// in\n    tag_503:\n        /* \"#utility.yul\":7678:7685   */\n      dup1\n        /* \"#utility.yul\":7709:7710   */\n      0x00\n        /* \"#utility.yul\":7694:8141   */\n    tag_504:\n        /* \"#utility.yul\":7719:7725   */\n      dup6\n        /* \"#utility.yul\":7716:7717   */\n      dup2\n        /* \"#utility.yul\":7713:7726   */\n      lt\n        /* \"#utility.yul\":7694:8141   */\n      iszero\n      tag_506\n      jumpi\n        /* \"#utility.yul\":7790:7799   */\n      dup5\n        /* \"#utility.yul\":7784:7788   */\n      dup5\n        /* \"#utility.yul\":7780:7800   */\n      sub\n        /* \"#utility.yul\":7775:7778   */\n      dup10\n        /* \"#utility.yul\":7768:7801   */\n      mstore\n        /* \"#utility.yul\":7841:7847   */\n      dup2\n        /* \"#utility.yul\":7835:7848   */\n      mload\n        /* \"#utility.yul\":7869:7987   */\n      tag_507\n        /* \"#utility.yul\":7982:7986   */\n      dup6\n        /* \"#utility.yul\":7967:7980   */\n      dup3\n        /* \"#utility.yul\":7869:7987   */\n      tag_342\n      jump\t// in\n    tag_507:\n        /* \"#utility.yul\":7861:7987   */\n      swap5\n      pop\n        /* \"#utility.yul\":8010:8097   */\n      tag_508\n        /* \"#utility.yul\":8090:8096   */\n      dup4\n        /* \"#utility.yul\":8010:8097   */\n      tag_343\n      jump\t// in\n    tag_508:\n        /* \"#utility.yul\":8000:8097   */\n      swap3\n      pop\n        /* \"#utility.yul\":8126:8130   */\n      0x20\n        /* \"#utility.yul\":8121:8124   */\n      dup11\n        /* \"#utility.yul\":8117:8131   */\n      add\n        /* \"#utility.yul\":8110:8131   */\n      swap10\n      pop\n        /* \"#utility.yul\":7754:8141   */\n      pop\n        /* \"#utility.yul\":7741:7742   */\n      0x01\n        /* \"#utility.yul\":7738:7739   */\n      dup2\n        /* \"#utility.yul\":7734:7743   */\n      add\n        /* \"#utility.yul\":7729:7743   */\n      swap1\n      pop\n        /* \"#utility.yul\":7694:8141   */\n      jump(tag_504)\n    tag_506:\n        /* \"#utility.yul\":7698:7712   */\n      pop\n        /* \"#utility.yul\":8157:8161   */\n      dup3\n        /* \"#utility.yul\":8150:8161   */\n      swap8\n      pop\n        /* \"#utility.yul\":8177:8180   */\n      dup8\n        /* \"#utility.yul\":8170:8180   */\n      swap6\n      pop\n        /* \"#utility.yul\":7237:8186   */\n      pop\n      pop\n      pop\n      pop\n      pop\n        /* \"#utility.yul\":7059:8186   */\n      swap3\n      swap2\n      pop\n      pop\n      jump\t// out\n        /* \"#utility.yul\":8192:8673   */\n    tag_36:\n        /* \"#utility.yul\":8389:8393   */\n      0x00\n        /* \"#utility.yul\":8427:8429   */\n      0x20\n        /* \"#utility.yul\":8416:8425   */\n      dup3\n        /* \"#utility.yul\":8412:8430   */\n      add\n        /* \"#utility.yul\":8404:8430   */\n      swap1\n      pop\n        /* \"#utility.yul\":8476:8485   */\n      dup2\n        /* \"#utility.yul\":8470:8474   */\n      dup2\n        /* \"#utility.yul\":8466:8486   */\n      sub\n        /* \"#utility.yul\":8462:8463   */\n      0x00\n        /* \"#utility.yul\":8451:8460   */\n      dup4\n        /* \"#utility.yul\":8447:8464   */\n      add\n        /* \"#utility.yul\":8440:8487   */\n      mstore\n        /* \"#utility.yul\":8504:8666   */\n      tag_510\n        /* \"#utility.yul\":8661:8665   */\n      dup2\n        /* \"#utility.yul\":8652:8658   */\n      dup5\n        /* \"#utility.yul\":8504:8666   */\n      tag_344\n      jump\t// in\n    tag_510:\n        /* \"#utility.yul\":8496:8666   */\n      swap1\n      pop\n        /* \"#utility.yul\":8192:8673   */\n      swap3\n      swap2\n      pop\n      pop\n      jump\t// out\n        /* \"#utility.yul\":8679:9008   */\n    tag_40:\n        /* \"#utility.yul\":8738:8744   */\n      0x00\n        /* \"#utility.yul\":8787:8789   */\n      0x20\n        /* \"#utility.yul\":8775:8784   */\n      dup3\n        /* \"#utility.yul\":8766:8773   */\n      dup5\n        /* \"#utility.yul\":8762:8785   */\n      sub\n        /* \"#utility.yul\":8758:8790   */\n      slt\n        /* \"#utility.yul\":8755:8874   */\n      iszero\n      tag_512\n      jumpi\n        /* \"#utility.yul\":8793:8872   */\n      tag_513\n      tag_315\n      jump\t// in\n    tag_513:\n        /* \"#utility.yul\":8755:8874   */\n    tag_512:\n        /* \"#utility.yul\":8913:8914   */\n      0x00\n        /* \"#utility.yul\":8938:8991   */\n      tag_514\n        /* \"#utility.yul\":8983:8990   */\n      dup5\n        /* \"#utility.yul\":8974:8980   */\n      dup3\n        /* \"#utility.yul\":8963:8972   */\n      dup6\n        /* \"#utility.yul\":8959:8981   */\n      add\n        /* \"#utility.yul\":8938:8991   */\n      tag_319\n      jump\t// in\n    tag_514:\n        /* \"#utility.yul\":8928:8991   */\n      swap2\n      pop\n        /* \"#utility.yul\":8884:9001   */\n      pop\n        /* \"#utility.yul\":8679:9008   */\n      swap3\n      swap2\n      pop\n      pop\n      jump\t// out\n        /* \"#utility.yul\":9014:9132   */\n    tag_345:\n        /* \"#utility.yul\":9101:9125   */\n      tag_516\n        /* \"#utility.yul\":9119:9124   */\n      dup2\n        /* \"#utility.yul\":9101:9125   */\n      tag_317\n      jump\t// in\n    tag_516:\n        /* \"#utility.yul\":9096:9099   */\n      dup3\n        /* \"#utility.yul\":9089:9126   */\n      mstore\n        /* \"#utility.yul\":9014:9132   */\n      pop\n      pop\n      jump\t// out\n        /* \"#utility.yul\":9138:9360   */\n    tag_47:\n        /* \"#utility.yul\":9231:9235   */\n      0x00\n        /* \"#utility.yul\":9269:9271   */\n      0x20\n        /* \"#utility.yul\":9258:9267   */\n      dup3\n        /* \"#utility.yul\":9254:9272   */\n      add\n        /* \"#utility.yul\":9246:9272   */\n      swap1\n      pop\n        /* \"#utility.yul\":9282:9353   */\n      tag_518\n        /* \"#utility.yul\":9350:9351   */\n      0x00\n        /* \"#utility.yul\":9339:9348   */\n      dup4\n        /* \"#utility.yul\":9335:9352   */\n      add\n        /* \"#utility.yul\":9326:9332   */\n      dup5\n        /* \"#utility.yul\":9282:9353   */\n      tag_345\n      jump\t// in\n    tag_518:\n        /* \"#utility.yul\":9138:9360   */\n      swap3\n      swap2\n      pop\n      pop\n      jump\t// out\n        /* \"#utility.yul\":9426:11284   */\n    tag_346:\n        /* \"#utility.yul\":9549:9552   */\n      0x00\n        /* \"#utility.yul\":9585:9591   */\n      0x0120\n        /* \"#utility.yul\":9580:9583   */\n      dup4\n        /* \"#utility.yul\":9576:9592   */\n      add\n        /* \"#utility.yul\":9676:9680   */\n      0x00\n        /* \"#utility.yul\":9669:9674   */\n      dup4\n        /* \"#utility.yul\":9665:9681   */\n      add\n        /* \"#utility.yul\":9659:9682   */\n      mload\n        /* \"#utility.yul\":9695:9758   */\n      tag_520\n        /* \"#utility.yul\":9752:9756   */\n      0x00\n        /* \"#utility.yul\":9747:9750   */\n      dup7\n        /* \"#utility.yul\":9743:9757   */\n      add\n        /* \"#utility.yul\":9729:9741   */\n      dup3\n        /* \"#utility.yul\":9695:9758   */\n      tag_327\n      jump\t// in\n    tag_520:\n        /* \"#utility.yul\":9602:9768   */\n      pop\n        /* \"#utility.yul\":9853:9857   */\n      0x20\n        /* \"#utility.yul\":9846:9851   */\n      dup4\n        /* \"#utility.yul\":9842:9858   */\n      add\n        /* \"#utility.yul\":9836:9859   */\n      mload\n        /* \"#utility.yul\":9906:9909   */\n      dup5\n        /* \"#utility.yul\":9900:9904   */\n      dup3\n        /* \"#utility.yul\":9896:9910   */\n      sub\n        /* \"#utility.yul\":9889:9893   */\n      0x20\n        /* \"#utility.yul\":9884:9887   */\n      dup7\n        /* \"#utility.yul\":9880:9894   */\n      add\n        /* \"#utility.yul\":9873:9911   */\n      mstore\n        /* \"#utility.yul\":9932:10005   */\n      tag_521\n        /* \"#utility.yul\":10000:10004   */\n      dup3\n        /* \"#utility.yul\":9986:9998   */\n      dup3\n        /* \"#utility.yul\":9932:10005   */\n      tag_332\n      jump\t// in\n    tag_521:\n        /* \"#utility.yul\":9924:10005   */\n      swap2\n      pop\n        /* \"#utility.yul\":9778:10016   */\n      pop\n        /* \"#utility.yul\":10100:10104   */\n      0x40\n        /* \"#utility.yul\":10093:10098   */\n      dup4\n        /* \"#utility.yul\":10089:10105   */\n      add\n        /* \"#utility.yul\":10083:10106   */\n      mload\n        /* \"#utility.yul\":10119:10182   */\n      tag_522\n        /* \"#utility.yul\":10176:10180   */\n      0x40\n        /* \"#utility.yul\":10171:10174   */\n      dup7\n        /* \"#utility.yul\":10167:10181   */\n      add\n        /* \"#utility.yul\":10153:10165   */\n      dup3\n        /* \"#utility.yul\":10119:10182   */\n      tag_327\n      jump\t// in\n    tag_522:\n        /* \"#utility.yul\":10026:10192   */\n      pop\n        /* \"#utility.yul\":10279:10283   */\n      0x60\n        /* \"#utility.yul\":10272:10277   */\n      dup4\n        /* \"#utility.yul\":10268:10284   */\n      add\n        /* \"#utility.yul\":10262:10285   */\n      mload\n        /* \"#utility.yul\":10298:10361   */\n      tag_523\n        /* \"#utility.yul\":10355:10359   */\n      0x60\n        /* \"#utility.yul\":10350:10353   */\n      dup7\n        /* \"#utility.yul\":10346:10360   */\n      add\n        /* \"#utility.yul\":10332:10344   */\n      dup3\n        /* \"#utility.yul\":10298:10361   */\n      tag_327\n      jump\t// in\n    tag_523:\n        /* \"#utility.yul\":10202:10371   */\n      pop\n        /* \"#utility.yul\":10454:10458   */\n      0x80\n        /* \"#utility.yul\":10447:10452   */\n      dup4\n        /* \"#utility.yul\":10443:10459   */\n      add\n        /* \"#utility.yul\":10437:10460   */\n      mload\n        /* \"#utility.yul\":10473:10536   */\n      tag_524\n        /* \"#utility.yul\":10530:10534   */\n      0x80\n        /* \"#utility.yul\":10525:10528   */\n      dup7\n        /* \"#utility.yul\":10521:10535   */\n      add\n        /* \"#utility.yul\":10507:10519   */\n      dup3\n        /* \"#utility.yul\":10473:10536   */\n      tag_335\n      jump\t// in\n    tag_524:\n        /* \"#utility.yul\":10381:10546   */\n      pop\n        /* \"#utility.yul\":10632:10636   */\n      0xa0\n        /* \"#utility.yul\":10625:10630   */\n      dup4\n        /* \"#utility.yul\":10621:10637   */\n      add\n        /* \"#utility.yul\":10615:10638   */\n      mload\n        /* \"#utility.yul\":10651:10714   */\n      tag_525\n        /* \"#utility.yul\":10708:10712   */\n      0xa0\n        /* \"#utility.yul\":10703:10706   */\n      dup7\n        /* \"#utility.yul\":10699:10713   */\n      add\n        /* \"#utility.yul\":10685:10697   */\n      dup3\n        /* \"#utility.yul\":10651:10714   */\n      tag_335\n      jump\t// in\n    tag_525:\n        /* \"#utility.yul\":10556:10724   */\n      pop\n        /* \"#utility.yul\":10808:10812   */\n      0xc0\n        /* \"#utility.yul\":10801:10806   */\n      dup4\n        /* \"#utility.yul\":10797:10813   */\n      add\n        /* \"#utility.yul\":10791:10814   */\n      mload\n        /* \"#utility.yul\":10827:10898   */\n      tag_526\n        /* \"#utility.yul\":10892:10896   */\n      0xc0\n        /* \"#utility.yul\":10887:10890   */\n      dup7\n        /* \"#utility.yul\":10883:10897   */\n      add\n        /* \"#utility.yul\":10869:10881   */\n      dup3\n        /* \"#utility.yul\":10827:10898   */\n      tag_339\n      jump\t// in\n    tag_526:\n        /* \"#utility.yul\":10734:10908   */\n      pop\n        /* \"#utility.yul\":10994:10998   */\n      0xe0\n        /* \"#utility.yul\":10987:10992   */\n      dup4\n        /* \"#utility.yul\":10983:10999   */\n      add\n        /* \"#utility.yul\":10977:11000   */\n      mload\n        /* \"#utility.yul\":11013:11070   */\n      tag_527\n        /* \"#utility.yul\":11064:11068   */\n      0xe0\n        /* \"#utility.yul\":11059:11062   */\n      dup7\n        /* \"#utility.yul\":11055:11069   */\n      add\n        /* \"#utility.yul\":11041:11053   */\n      dup3\n        /* \"#utility.yul\":11013:11070   */\n      tag_340\n      jump\t// in\n    tag_527:\n        /* \"#utility.yul\":10918:11080   */\n      pop\n        /* \"#utility.yul\":11167:11173   */\n      0x0100\n        /* \"#utility.yul\":11160:11165   */\n      dup4\n        /* \"#utility.yul\":11156:11174   */\n      add\n        /* \"#utility.yul\":11150:11175   */\n      mload\n        /* \"#utility.yul\":11188:11247   */\n      tag_528\n        /* \"#utility.yul\":11239:11245   */\n      0x0100\n        /* \"#utility.yul\":11234:11237   */\n      dup7\n        /* \"#utility.yul\":11230:11246   */\n      add\n        /* \"#utility.yul\":11216:11228   */\n      dup3\n        /* \"#utility.yul\":11188:11247   */\n      tag_340\n      jump\t// in\n    tag_528:\n        /* \"#utility.yul\":11090:11257   */\n      pop\n        /* \"#utility.yul\":11274:11278   */\n      dup1\n        /* \"#utility.yul\":11267:11278   */\n      swap2\n      pop\n        /* \"#utility.yul\":9554:11284   */\n      pop\n        /* \"#utility.yul\":9426:11284   */\n      swap3\n      swap2\n      pop\n      pop\n      jump\t// out\n        /* \"#utility.yul\":11290:11671   */\n    tag_53:\n        /* \"#utility.yul\":11437:11441   */\n      0x00\n        /* \"#utility.yul\":11475:11477   */\n      0x20\n        /* \"#utility.yul\":11464:11473   */\n      dup3\n        /* \"#utility.yul\":11460:11478   */\n      add\n        /* \"#utility.yul\":11452:11478   */\n      swap1\n      pop\n        /* \"#utility.yul\":11524:11533   */\n      dup2\n        /* \"#utility.yul\":11518:11522   */\n      dup2\n        /* \"#utility.yul\":11514:11534   */\n      sub\n        /* \"#utility.yul\":11510:11511   */\n      0x00\n        /* \"#utility.yul\":11499:11508   */\n      dup4\n        /* \"#utility.yul\":11495:11512   */\n      add\n        /* \"#utility.yul\":11488:11535   */\n      mstore\n        /* \"#utility.yul\":11552:11664   */\n      tag_530\n        /* \"#utility.yul\":11659:11663   */\n      dup2\n        /* \"#utility.yul\":11650:11656   */\n      dup5\n        /* \"#utility.yul\":11552:11664   */\n      tag_346\n      jump\t// in\n    tag_530:\n        /* \"#utility.yul\":11544:11664   */\n      swap1\n      pop\n        /* \"#utility.yul\":11290:11671   */\n      swap3\n      swap2\n      pop\n      pop\n      jump\t// out\n        /* \"#utility.yul\":11677:11795   */\n    tag_347:\n        /* \"#utility.yul\":11763:11764   */\n      0x02\n        /* \"#utility.yul\":11756:11761   */\n      dup2\n        /* \"#utility.yul\":11753:11765   */\n      lt\n        /* \"#utility.yul\":11743:11789   */\n      tag_532\n      jumpi\n        /* \"#utility.yul\":11769:11787   */\n      tag_533\n      tag_136\n      jump\t// in\n    tag_533:\n        /* \"#utility.yul\":11743:11789   */\n    tag_532:\n        /* \"#utility.yul\":11677:11795   */\n      pop\n      jump\t// out\n        /* \"#utility.yul\":11801:11938   */\n    tag_348:\n        /* \"#utility.yul\":11851:11858   */\n      0x00\n        /* \"#utility.yul\":11880:11885   */\n      dup2\n        /* \"#utility.yul\":11869:11885   */\n      swap1\n      pop\n        /* \"#utility.yul\":11886:11932   */\n      tag_535\n        /* \"#utility.yul\":11926:11931   */\n      dup3\n        /* \"#utility.yul\":11886:11932   */\n      tag_347\n      jump\t// in\n    tag_535:\n        /* \"#utility.yul\":11801:11938   */\n      swap2\n      swap1\n      pop\n      jump\t// out\n        /* \"#utility.yul\":11944:12081   */\n    tag_349:\n        /* \"#utility.yul\":12005:12014   */\n      0x00\n        /* \"#utility.yul\":12038:12075   */\n      tag_537\n        /* \"#utility.yul\":12069:12074   */\n      dup3\n        /* \"#utility.yul\":12038:12075   */\n      tag_348\n      jump\t// in\n    tag_537:\n        /* \"#utility.yul\":12025:12075   */\n      swap1\n      pop\n        /* \"#utility.yul\":11944:12081   */\n      swap2\n      swap1\n      pop\n      jump\t// out\n        /* \"#utility.yul\":12087:12240   */\n    tag_350:\n        /* \"#utility.yul\":12185:12233   */\n      tag_539\n        /* \"#utility.yul\":12227:12232   */\n      dup2\n        /* \"#utility.yul\":12185:12233   */\n      tag_349\n      jump\t// in\n    tag_539:\n        /* \"#utility.yul\":12180:12183   */\n      dup3\n        /* \"#utility.yul\":12173:12234   */\n      mstore\n        /* \"#utility.yul\":12087:12240   */\n      pop\n      pop\n      jump\t// out\n        /* \"#utility.yul\":12246:12490   */\n    tag_59:\n        /* \"#utility.yul\":12350:12354   */\n      0x00\n        /* \"#utility.yul\":12388:12390   */\n      0x20\n        /* \"#utility.yul\":12377:12386   */\n      dup3\n        /* \"#utility.yul\":12373:12391   */\n      add\n        /* \"#utility.yul\":12365:12391   */\n      swap1\n      pop\n        /* \"#utility.yul\":12401:12483   */\n      tag_541\n        /* \"#utility.yul\":12480:12481   */\n      0x00\n        /* \"#utility.yul\":12469:12478   */\n      dup4\n        /* \"#utility.yul\":12465:12482   */\n      add\n        /* \"#utility.yul\":12456:12462   */\n      dup5\n        /* \"#utility.yul\":12401:12483   */\n      tag_350\n      jump\t// in\n    tag_541:\n        /* \"#utility.yul\":12246:12490   */\n      swap3\n      swap2\n      pop\n      pop\n      jump\t// out\n        /* \"#utility.yul\":12496:12600   */\n    tag_351:\n        /* \"#utility.yul\":12541:12548   */\n      0x00\n        /* \"#utility.yul\":12570:12594   */\n      tag_543\n        /* \"#utility.yul\":12588:12593   */\n      dup3\n        /* \"#utility.yul\":12570:12594   */\n      tag_333\n      jump\t// in\n    tag_543:\n        /* \"#utility.yul\":12559:12594   */\n      swap1\n      pop\n        /* \"#utility.yul\":12496:12600   */\n      swap2\n      swap1\n      pop\n      jump\t// out\n        /* \"#utility.yul\":12606:12748   */\n    tag_352:\n        /* \"#utility.yul\":12709:12741   */\n      tag_545\n        /* \"#utility.yul\":12735:12740   */\n      dup2\n        /* \"#utility.yul\":12709:12741   */\n      tag_351\n      jump\t// in\n    tag_545:\n        /* \"#utility.yul\":12704:12707   */\n      dup3\n        /* \"#utility.yul\":12697:12742   */\n      mstore\n        /* \"#utility.yul\":12606:12748   */\n      pop\n      pop\n      jump\t// out\n        /* \"#utility.yul\":12754:13008   */\n    tag_80:\n        /* \"#utility.yul\":12863:12867   */\n      0x00\n        /* \"#utility.yul\":12901:12903   */\n      0x20\n        /* \"#utility.yul\":12890:12899   */\n      dup3\n        /* \"#utility.yul\":12886:12904   */\n      add\n        /* \"#utility.yul\":12878:12904   */\n      swap1\n      pop\n        /* \"#utility.yul\":12914:13001   */\n      tag_547\n        /* \"#utility.yul\":12998:12999   */\n      0x00\n        /* \"#utility.yul\":12987:12996   */\n      dup4\n        /* \"#utility.yul\":12983:13000   */\n      add\n        /* \"#utility.yul\":12974:12980   */\n      dup5\n        /* \"#utility.yul\":12914:13001   */\n      tag_352\n      jump\t// in\n    tag_547:\n        /* \"#utility.yul\":12754:13008   */\n      swap3\n      swap2\n      pop\n      pop\n      jump\t// out\n        /* \"#utility.yul\":13014:13132   */\n    tag_353:\n        /* \"#utility.yul\":13101:13125   */\n      tag_549\n        /* \"#utility.yul\":13119:13124   */\n      dup2\n        /* \"#utility.yul\":13101:13125   */\n      tag_334\n      jump\t// in\n    tag_549:\n        /* \"#utility.yul\":13096:13099   */\n      dup3\n        /* \"#utility.yul\":13089:13126   */\n      mstore\n        /* \"#utility.yul\":13014:13132   */\n      pop\n      pop\n      jump\t// out\n        /* \"#utility.yul\":13138:13360   */\n    tag_86:\n        /* \"#utility.yul\":13231:13235   */\n      0x00\n        /* \"#utility.yul\":13269:13271   */\n      0x20\n        /* \"#utility.yul\":13258:13267   */\n      dup3\n        /* \"#utility.yul\":13254:13272   */\n      add\n        /* \"#utility.yul\":13246:13272   */\n      swap1\n      pop\n        /* \"#utility.yul\":13282:13353   */\n      tag_551\n        /* \"#utility.yul\":13350:13351   */\n      0x00\n        /* \"#utility.yul\":13339:13348   */\n      dup4\n        /* \"#utility.yul\":13335:13352   */\n      add\n        /* \"#utility.yul\":13326:13332   */\n      dup5\n        /* \"#utility.yul\":13282:13353   */\n      tag_353\n      jump\t// in\n    tag_551:\n        /* \"#utility.yul\":13138:13360   */\n      swap3\n      swap2\n      pop\n      pop\n      jump\t// out\n        /* \"#utility.yul\":13366:13488   */\n    tag_354:\n        /* \"#utility.yul\":13439:13463   */\n      tag_553\n        /* \"#utility.yul\":13457:13462   */\n      dup2\n        /* \"#utility.yul\":13439:13463   */\n      tag_334\n      jump\t// in\n    tag_553:\n        /* \"#utility.yul\":13432:13437   */\n      dup2\n        /* \"#utility.yul\":13429:13464   */\n      eq\n        /* \"#utility.yul\":13419:13482   */\n      tag_554\n      jumpi\n        /* \"#utility.yul\":13478:13479   */\n      0x00\n        /* \"#utility.yul\":13475:13476   */\n      dup1\n        /* \"#utility.yul\":13468:13480   */\n      revert\n        /* \"#utility.yul\":13419:13482   */\n    tag_554:\n        /* \"#utility.yul\":13366:13488   */\n      pop\n      jump\t// out\n        /* \"#utility.yul\":13494:13633   */\n    tag_355:\n        /* \"#utility.yul\":13540:13545   */\n      0x00\n        /* \"#utility.yul\":13578:13584   */\n      dup2\n        /* \"#utility.yul\":13565:13585   */\n      calldataload\n        /* \"#utility.yul\":13556:13585   */\n      swap1\n      pop\n        /* \"#utility.yul\":13594:13627   */\n      tag_556\n        /* \"#utility.yul\":13621:13626   */\n      dup2\n        /* \"#utility.yul\":13594:13627   */\n      tag_354\n      jump\t// in\n    tag_556:\n        /* \"#utility.yul\":13494:13633   */\n      swap3\n      swap2\n      pop\n      pop\n      jump\t// out\n        /* \"#utility.yul\":13639:14113   */\n    tag_90:\n        /* \"#utility.yul\":13707:13713   */\n      0x00\n        /* \"#utility.yul\":13715:13721   */\n      dup1\n        /* \"#utility.yul\":13764:13766   */\n      0x40\n        /* \"#utility.yul\":13752:13761   */\n      dup4\n        /* \"#utility.yul\":13743:13750   */\n      dup6\n        /* \"#utility.yul\":13739:13762   */\n      sub\n        /* \"#utility.yul\":13735:13767   */\n      slt\n        /* \"#utility.yul\":13732:13851   */\n      iszero\n      tag_558\n      jumpi\n        /* \"#utility.yul\":13770:13849   */\n      tag_559\n      tag_315\n      jump\t// in\n    tag_559:\n        /* \"#utility.yul\":13732:13851   */\n    tag_558:\n        /* \"#utility.yul\":13890:13891   */\n      0x00\n        /* \"#utility.yul\":13915:13968   */\n      tag_560\n        /* \"#utility.yul\":13960:13967   */\n      dup6\n        /* \"#utility.yul\":13951:13957   */\n      dup3\n        /* \"#utility.yul\":13940:13949   */\n      dup7\n        /* \"#utility.yul\":13936:13958   */\n      add\n        /* \"#utility.yul\":13915:13968   */\n      tag_355\n      jump\t// in\n    tag_560:\n        /* \"#utility.yul\":13905:13968   */\n      swap3\n      pop\n        /* \"#utility.yul\":13861:13978   */\n      pop\n        /* \"#utility.yul\":14017:14019   */\n      0x20\n        /* \"#utility.yul\":14043:14096   */\n      tag_561\n        /* \"#utility.yul\":14088:14095   */\n      dup6\n        /* \"#utility.yul\":14079:14085   */\n      dup3\n        /* \"#utility.yul\":14068:14077   */\n      dup7\n        /* \"#utility.yul\":14064:14086   */\n      add\n        /* \"#utility.yul\":14043:14096   */\n      tag_319\n      jump\t// in\n    tag_561:\n        /* \"#utility.yul\":14033:14096   */\n      swap2\n      pop\n        /* \"#utility.yul\":13988:14106   */\n      pop\n        /* \"#utility.yul\":13639:14113   */\n      swap3\n      pop\n      swap3\n      swap1\n      pop\n      jump\t// out\n        /* \"#utility.yul\":14119:14236   */\n    tag_356:\n        /* \"#utility.yul\":14228:14229   */\n      0x00\n        /* \"#utility.yul\":14225:14226   */\n      dup1\n        /* \"#utility.yul\":14218:14230   */\n      revert\n        /* \"#utility.yul\":14242:14359   */\n    tag_357:\n        /* \"#utility.yul\":14351:14352   */\n      0x00\n        /* \"#utility.yul\":14348:14349   */\n      dup1\n        /* \"#utility.yul\":14341:14353   */\n      revert\n        /* \"#utility.yul\":14365:14482   */\n    tag_358:\n        /* \"#utility.yul\":14474:14475   */\n      0x00\n        /* \"#utility.yul\":14471:14472   */\n      dup1\n        /* \"#utility.yul\":14464:14476   */\n      revert\n        /* \"#utility.yul\":14502:15055   */\n    tag_359:\n        /* \"#utility.yul\":14560:14568   */\n      0x00\n        /* \"#utility.yul\":14570:14576   */\n      dup1\n        /* \"#utility.yul\":14620:14623   */\n      dup4\n        /* \"#utility.yul\":14613:14617   */\n      0x1f\n        /* \"#utility.yul\":14605:14611   */\n      dup5\n        /* \"#utility.yul\":14601:14618   */\n      add\n        /* \"#utility.yul\":14597:14624   */\n      slt\n        /* \"#utility.yul\":14587:14709   */\n      tag_566\n      jumpi\n        /* \"#utility.yul\":14628:14707   */\n      tag_567\n      tag_356\n      jump\t// in\n    tag_567:\n        /* \"#utility.yul\":14587:14709   */\n    tag_566:\n        /* \"#utility.yul\":14741:14747   */\n      dup3\n        /* \"#utility.yul\":14728:14748   */\n      calldataload\n        /* \"#utility.yul\":14718:14748   */\n      swap1\n      pop\n        /* \"#utility.yul\":14771:14789   */\n      0xffffffffffffffff\n        /* \"#utility.yul\":14763:14769   */\n      dup2\n        /* \"#utility.yul\":14760:14790   */\n      gt\n        /* \"#utility.yul\":14757:14874   */\n      iszero\n      tag_568\n      jumpi\n        /* \"#utility.yul\":14793:14872   */\n      tag_569\n      tag_357\n      jump\t// in\n    tag_569:\n        /* \"#utility.yul\":14757:14874   */\n    tag_568:\n        /* \"#utility.yul\":14907:14911   */\n      0x20\n        /* \"#utility.yul\":14899:14905   */\n      dup4\n        /* \"#utility.yul\":14895:14912   */\n      add\n        /* \"#utility.yul\":14883:14912   */\n      swap2\n      pop\n        /* \"#utility.yul\":14961:14964   */\n      dup4\n        /* \"#utility.yul\":14953:14957   */\n      0x01\n        /* \"#utility.yul\":14945:14951   */\n      dup3\n        /* \"#utility.yul\":14941:14958   */\n      mul\n        /* \"#utility.yul\":14931:14939   */\n      dup4\n        /* \"#utility.yul\":14927:14959   */\n      add\n        /* \"#utility.yul\":14924:14965   */\n      gt\n        /* \"#utility.yul\":14921:15049   */\n      iszero\n      tag_570\n      jumpi\n        /* \"#utility.yul\":14968:15047   */\n      tag_571\n      tag_358\n      jump\t// in\n    tag_571:\n        /* \"#utility.yul\":14921:15049   */\n    tag_570:\n        /* \"#utility.yul\":14502:15055   */\n      swap3\n      pop\n      swap3\n      swap1\n      pop\n      jump\t// out\n        /* \"#utility.yul\":15061:15735   */\n    tag_100:\n        /* \"#utility.yul\":15141:15147   */\n      0x00\n        /* \"#utility.yul\":15149:15155   */\n      dup1\n        /* \"#utility.yul\":15157:15163   */\n      0x00\n        /* \"#utility.yul\":15206:15208   */\n      0x40\n        /* \"#utility.yul\":15194:15203   */\n      dup5\n        /* \"#utility.yul\":15185:15192   */\n      dup7\n        /* \"#utility.yul\":15181:15204   */\n      sub\n        /* \"#utility.yul\":15177:15209   */\n      slt\n        /* \"#utility.yul\":15174:15293   */\n      iszero\n      tag_573\n      jumpi\n        /* \"#utility.yul\":15212:15291   */\n      tag_574\n      tag_315\n      jump\t// in\n    tag_574:\n        /* \"#utility.yul\":15174:15293   */\n    tag_573:\n        /* \"#utility.yul\":15360:15361   */\n      0x00\n        /* \"#utility.yul\":15349:15358   */\n      dup5\n        /* \"#utility.yul\":15345:15362   */\n      add\n        /* \"#utility.yul\":15332:15363   */\n      calldataload\n        /* \"#utility.yul\":15390:15408   */\n      0xffffffffffffffff\n        /* \"#utility.yul\":15382:15388   */\n      dup2\n        /* \"#utility.yul\":15379:15409   */\n      gt\n        /* \"#utility.yul\":15376:15493   */\n      iszero\n      tag_575\n      jumpi\n        /* \"#utility.yul\":15412:15491   */\n      tag_576\n      tag_316\n      jump\t// in\n    tag_576:\n        /* \"#utility.yul\":15376:15493   */\n    tag_575:\n        /* \"#utility.yul\":15525:15590   */\n      tag_577\n        /* \"#utility.yul\":15582:15589   */\n      dup7\n        /* \"#utility.yul\":15573:15579   */\n      dup3\n        /* \"#utility.yul\":15562:15571   */\n      dup8\n        /* \"#utility.yul\":15558:15580   */\n      add\n        /* \"#utility.yul\":15525:15590   */\n      tag_359\n      jump\t// in\n    tag_577:\n        /* \"#utility.yul\":15507:15590   */\n      swap4\n      pop\n      swap4\n      pop\n        /* \"#utility.yul\":15303:15600   */\n      pop\n        /* \"#utility.yul\":15639:15641   */\n      0x20\n        /* \"#utility.yul\":15665:15718   */\n      tag_578\n        /* \"#utility.yul\":15710:15717   */\n      dup7\n        /* \"#utility.yul\":15701:15707   */\n      dup3\n        /* \"#utility.yul\":15690:15699   */\n      dup8\n        /* \"#utility.yul\":15686:15708   */\n      add\n        /* \"#utility.yul\":15665:15718   */\n      tag_319\n      jump\t// in\n    tag_578:\n        /* \"#utility.yul\":15655:15718   */\n      swap2\n      pop\n        /* \"#utility.yul\":15610:15728   */\n      pop\n        /* \"#utility.yul\":15061:15735   */\n      swap3\n      pop\n      swap3\n      pop\n      swap3\n      jump\t// out\n        /* \"#utility.yul\":15741:16215   */\n    tag_106:\n        /* \"#utility.yul\":15809:15815   */\n      0x00\n        /* \"#utility.yul\":15817:15823   */\n      dup1\n        /* \"#utility.yul\":15866:15868   */\n      0x40\n        /* \"#utility.yul\":15854:15863   */\n      dup4\n        /* \"#utility.yul\":15845:15852   */\n      dup6\n        /* \"#utility.yul\":15841:15864   */\n      sub\n        /* \"#utility.yul\":15837:15869   */\n      slt\n        /* \"#utility.yul\":15834:15953   */\n      iszero\n      tag_580\n      jumpi\n        /* \"#utility.yul\":15872:15951   */\n      tag_581\n      tag_315\n      jump\t// in\n    tag_581:\n        /* \"#utility.yul\":15834:15953   */\n    tag_580:\n        /* \"#utility.yul\":15992:15993   */\n      0x00\n        /* \"#utility.yul\":16017:16070   */\n      tag_582\n        /* \"#utility.yul\":16062:16069   */\n      dup6\n        /* \"#utility.yul\":16053:16059   */\n      dup3\n        /* \"#utility.yul\":16042:16051   */\n      dup7\n        /* \"#utility.yul\":16038:16060   */\n      add\n        /* \"#utility.yul\":16017:16070   */\n      tag_319\n      jump\t// in\n    tag_582:\n        /* \"#utility.yul\":16007:16070   */\n      swap3\n      pop\n        /* \"#utility.yul\":15963:16080   */\n      pop\n        /* \"#utility.yul\":16119:16121   */\n      0x20\n        /* \"#utility.yul\":16145:16198   */\n      tag_583\n        /* \"#utility.yul\":16190:16197   */\n      dup6\n        /* \"#utility.yul\":16181:16187   */\n      dup3\n        /* \"#utility.yul\":16170:16179   */\n      dup7\n        /* \"#utility.yul\":16166:16188   */\n      add\n        /* \"#utility.yul\":16145:16198   */\n      tag_355\n      jump\t// in\n    tag_583:\n        /* \"#utility.yul\":16135:16198   */\n      swap2\n      pop\n        /* \"#utility.yul\":16090:16208   */\n      pop\n        /* \"#utility.yul\":15741:16215   */\n      swap3\n      pop\n      swap3\n      swap1\n      pop\n      jump\t// out\n        /* \"#utility.yul\":16221:16390   */\n    tag_360:\n        /* \"#utility.yul\":16305:16316   */\n      0x00\n        /* \"#utility.yul\":16339:16345   */\n      dup3\n        /* \"#utility.yul\":16334:16337   */\n      dup3\n        /* \"#utility.yul\":16327:16346   */\n      mstore\n        /* \"#utility.yul\":16379:16383   */\n      0x20\n        /* \"#utility.yul\":16374:16377   */\n      dup3\n        /* \"#utility.yul\":16370:16384   */\n      add\n        /* \"#utility.yul\":16355:16384   */\n      swap1\n      pop\n        /* \"#utility.yul\":16221:16390   */\n      swap3\n      swap2\n      pop\n      pop\n      jump\t// out\n        /* \"#utility.yul\":16396:16564   */\n    tag_361:\n        /* \"#utility.yul\":16536:16556   */\n      0x4f6e6c79206f776e657220616c6c6f7765640000000000000000000000000000\n        /* \"#utility.yul\":16532:16533   */\n      0x00\n        /* \"#utility.yul\":16524:16530   */\n      dup3\n        /* \"#utility.yul\":16520:16534   */\n      add\n        /* \"#utility.yul\":16513:16557   */\n      mstore\n        /* \"#utility.yul\":16396:16564   */\n      pop\n      jump\t// out\n        /* \"#utility.yul\":16570:16936   */\n    tag_362:\n        /* \"#utility.yul\":16712:16715   */\n      0x00\n        /* \"#utility.yul\":16733:16800   */\n      tag_587\n        /* \"#utility.yul\":16797:16799   */\n      0x12\n        /* \"#utility.yul\":16792:16795   */\n      dup4\n        /* \"#utility.yul\":16733:16800   */\n      tag_360\n      jump\t// in\n    tag_587:\n        /* \"#utility.yul\":16726:16800   */\n      swap2\n      pop\n        /* \"#utility.yul\":16809:16902   */\n      tag_588\n        /* \"#utility.yul\":16898:16901   */\n      dup3\n        /* \"#utility.yul\":16809:16902   */\n      tag_361\n      jump\t// in\n    tag_588:\n        /* \"#utility.yul\":16927:16929   */\n      0x20\n        /* \"#utility.yul\":16922:16925   */\n      dup3\n        /* \"#utility.yul\":16918:16930   */\n      add\n        /* \"#utility.yul\":16911:16930   */\n      swap1\n      pop\n        /* \"#utility.yul\":16570:16936   */\n      swap2\n      swap1\n      pop\n      jump\t// out\n        /* \"#utility.yul\":16942:17361   */\n    tag_130:\n        /* \"#utility.yul\":17108:17112   */\n      0x00\n        /* \"#utility.yul\":17146:17148   */\n      0x20\n        /* \"#utility.yul\":17135:17144   */\n      dup3\n        /* \"#utility.yul\":17131:17149   */\n      add\n        /* \"#utility.yul\":17123:17149   */\n      swap1\n      pop\n        /* \"#utility.yul\":17195:17204   */\n      dup2\n        /* \"#utility.yul\":17189:17193   */\n      dup2\n        /* \"#utility.yul\":17185:17205   */\n      sub\n        /* \"#utility.yul\":17181:17182   */\n      0x00\n        /* \"#utility.yul\":17170:17179   */\n      dup4\n        /* \"#utility.yul\":17166:17183   */\n      add\n        /* \"#utility.yul\":17159:17206   */\n      mstore\n        /* \"#utility.yul\":17223:17354   */\n      tag_590\n        /* \"#utility.yul\":17349:17353   */\n      dup2\n        /* \"#utility.yul\":17223:17354   */\n      tag_362\n      jump\t// in\n    tag_590:\n        /* \"#utility.yul\":17215:17354   */\n      swap1\n      pop\n        /* \"#utility.yul\":16942:17361   */\n      swap2\n      swap1\n      pop\n      jump\t// out\n        /* \"#utility.yul\":17367:17537   */\n    tag_363:\n        /* \"#utility.yul\":17507:17529   */\n      0x53657276696365206e6f742070726f7669646564000000000000000000000000\n        /* \"#utility.yul\":17503:17504   */\n      0x00\n        /* \"#utility.yul\":17495:17501   */\n      dup3\n        /* \"#utility.yul\":17491:17505   */\n      add\n        /* \"#utility.yul\":17484:17530   */\n      mstore\n        /* \"#utility.yul\":17367:17537   */\n      pop\n      jump\t// out\n        /* \"#utility.yul\":17543:17909   */\n    tag_364:\n        /* \"#utility.yul\":17685:17688   */\n      0x00\n        /* \"#utility.yul\":17706:17773   */\n      tag_593\n        /* \"#utility.yul\":17770:17772   */\n      0x14\n        /* \"#utility.yul\":17765:17768   */\n      dup4\n        /* \"#utility.yul\":17706:17773   */\n      tag_360\n      jump\t// in\n    tag_593:\n        /* \"#utility.yul\":17699:17773   */\n      swap2\n      pop\n        /* \"#utility.yul\":17782:17875   */\n      tag_594\n        /* \"#utility.yul\":17871:17874   */\n      dup3\n        /* \"#utility.yul\":17782:17875   */\n      tag_363\n      jump\t// in\n    tag_594:\n        /* \"#utility.yul\":17900:17902   */\n      0x20\n        /* \"#utility.yul\":17895:17898   */\n      dup3\n        /* \"#utility.yul\":17891:17903   */\n      add\n        /* \"#utility.yul\":17884:17903   */\n      swap1\n      pop\n        /* \"#utility.yul\":17543:17909   */\n      swap2\n      swap1\n      pop\n      jump\t// out\n        /* \"#utility.yul\":17915:18334   */\n    tag_133:\n        /* \"#utility.yul\":18081:18085   */\n      0x00\n        /* \"#utility.yul\":18119:18121   */\n      0x20\n        /* \"#utility.yul\":18108:18117   */\n      dup3\n        /* \"#utility.yul\":18104:18122   */\n      add\n        /* \"#utility.yul\":18096:18122   */\n      swap1\n      pop\n        /* \"#utility.yul\":18168:18177   */\n      dup2\n        /* \"#utility.yul\":18162:18166   */\n      dup2\n        /* \"#utility.yul\":18158:18178   */\n      sub\n        /* \"#utility.yul\":18154:18155   */\n      0x00\n        /* \"#utility.yul\":18143:18152   */\n      dup4\n        /* \"#utility.yul\":18139:18156   */\n      add\n        /* \"#utility.yul\":18132:18179   */\n      mstore\n        /* \"#utility.yul\":18196:18327   */\n      tag_596\n        /* \"#utility.yul\":18322:18326   */\n      dup2\n        /* \"#utility.yul\":18196:18327   */\n      tag_364\n      jump\t// in\n    tag_596:\n        /* \"#utility.yul\":18188:18327   */\n      swap1\n      pop\n        /* \"#utility.yul\":17915:18334   */\n      swap2\n      swap1\n      pop\n      jump\t// out\n        /* \"#utility.yul\":18340:18562   */\n    tag_365:\n        /* \"#utility.yul\":18480:18514   */\n      0x416c726561647920726566756e6465642c206372656174652061206e65772049\n        /* \"#utility.yul\":18476:18477   */\n      0x00\n        /* \"#utility.yul\":18468:18474   */\n      dup3\n        /* \"#utility.yul\":18464:18478   */\n      add\n        /* \"#utility.yul\":18457:18515   */\n      mstore\n        /* \"#utility.yul\":18549:18554   */\n      0x74656d0000000000000000000000000000000000000000000000000000000000\n        /* \"#utility.yul\":18544:18546   */\n      0x20\n        /* \"#utility.yul\":18536:18542   */\n      dup3\n        /* \"#utility.yul\":18532:18547   */\n      add\n        /* \"#utility.yul\":18525:18555   */\n      mstore\n        /* \"#utility.yul\":18340:18562   */\n      pop\n      jump\t// out\n        /* \"#utility.yul\":18568:18934   */\n    tag_366:\n        /* \"#utility.yul\":18710:18713   */\n      0x00\n        /* \"#utility.yul\":18731:18798   */\n      tag_599\n        /* \"#utility.yul\":18795:18797   */\n      0x23\n        /* \"#utility.yul\":18790:18793   */\n      dup4\n        /* \"#utility.yul\":18731:18798   */\n      tag_360\n      jump\t// in\n    tag_599:\n        /* \"#utility.yul\":18724:18798   */\n      swap2\n      pop\n        /* \"#utility.yul\":18807:18900   */\n      tag_600\n        /* \"#utility.yul\":18896:18899   */\n      dup3\n        /* \"#utility.yul\":18807:18900   */\n      tag_365\n      jump\t// in\n    tag_600:\n        /* \"#utility.yul\":18925:18927   */\n      0x40\n        /* \"#utility.yul\":18920:18923   */\n      dup3\n        /* \"#utility.yul\":18916:18928   */\n      add\n        /* \"#utility.yul\":18909:18928   */\n      swap1\n      pop\n        /* \"#utility.yul\":18568:18934   */\n      swap2\n      swap1\n      pop\n      jump\t// out\n        /* \"#utility.yul\":18940:19359   */\n    tag_141:\n        /* \"#utility.yul\":19106:19110   */\n      0x00\n        /* \"#utility.yul\":19144:19146   */\n      0x20\n        /* \"#utility.yul\":19133:19142   */\n      dup3\n        /* \"#utility.yul\":19129:19147   */\n      add\n        /* \"#utility.yul\":19121:19147   */\n      swap1\n      pop\n        /* \"#utility.yul\":19193:19202   */\n      dup2\n        /* \"#utility.yul\":19187:19191   */\n      dup2\n        /* \"#utility.yul\":19183:19203   */\n      sub\n        /* \"#utility.yul\":19179:19180   */\n      0x00\n        /* \"#utility.yul\":19168:19177   */\n      dup4\n        /* \"#utility.yul\":19164:19181   */\n      add\n        /* \"#utility.yul\":19157:19204   */\n      mstore\n        /* \"#utility.yul\":19221:19352   */\n      tag_602\n        /* \"#utility.yul\":19347:19351   */\n      dup2\n        /* \"#utility.yul\":19221:19352   */\n      tag_366\n      jump\t// in\n    tag_602:\n        /* \"#utility.yul\":19213:19352   */\n      swap1\n      pop\n        /* \"#utility.yul\":18940:19359   */\n      swap2\n      swap1\n      pop\n      jump\t// out\n        /* \"#utility.yul\":19365:19545   */\n    tag_367:\n        /* \"#utility.yul\":19413:19490   */\n      0x4e487b7100000000000000000000000000000000000000000000000000000000\n        /* \"#utility.yul\":19410:19411   */\n      0x00\n        /* \"#utility.yul\":19403:19491   */\n      mstore\n        /* \"#utility.yul\":19510:19514   */\n      0x11\n        /* \"#utility.yul\":19507:19508   */\n      0x04\n        /* \"#utility.yul\":19500:19515   */\n      mstore\n        /* \"#utility.yul\":19534:19538   */\n      0x24\n        /* \"#utility.yul\":19531:19532   */\n      0x00\n        /* \"#utility.yul\":19524:19539   */\n      revert\n        /* \"#utility.yul\":19551:19745   */\n    tag_145:\n        /* \"#utility.yul\":19591:19595   */\n      0x00\n        /* \"#utility.yul\":19611:19631   */\n      tag_605\n        /* \"#utility.yul\":19629:19630   */\n      dup3\n        /* \"#utility.yul\":19611:19631   */\n      tag_317\n      jump\t// in\n    tag_605:\n        /* \"#utility.yul\":19606:19631   */\n      swap2\n      pop\n        /* \"#utility.yul\":19645:19665   */\n      tag_606\n        /* \"#utility.yul\":19663:19664   */\n      dup4\n        /* \"#utility.yul\":19645:19665   */\n      tag_317\n      jump\t// in\n    tag_606:\n        /* \"#utility.yul\":19640:19665   */\n      swap3\n      pop\n        /* \"#utility.yul\":19689:19690   */\n      dup3\n        /* \"#utility.yul\":19686:19687   */\n      dup3\n        /* \"#utility.yul\":19682:19691   */\n      sub\n        /* \"#utility.yul\":19674:19691   */\n      swap1\n      pop\n        /* \"#utility.yul\":19713:19714   */\n      dup2\n        /* \"#utility.yul\":19707:19711   */\n      dup2\n        /* \"#utility.yul\":19704:19715   */\n      gt\n        /* \"#utility.yul\":19701:19738   */\n      iszero\n      tag_607\n      jumpi\n        /* \"#utility.yul\":19718:19736   */\n      tag_608\n      tag_367\n      jump\t// in\n    tag_608:\n        /* \"#utility.yul\":19701:19738   */\n    tag_607:\n        /* \"#utility.yul\":19551:19745   */\n      swap3\n      swap2\n      pop\n      pop\n      jump\t// out\n        /* \"#utility.yul\":19751:19942   */\n    tag_149:\n        /* \"#utility.yul\":19791:19794   */\n      0x00\n        /* \"#utility.yul\":19810:19830   */\n      tag_610\n        /* \"#utility.yul\":19828:19829   */\n      dup3\n        /* \"#utility.yul\":19810:19830   */\n      tag_317\n      jump\t// in\n    tag_610:\n        /* \"#utility.yul\":19805:19830   */\n      swap2\n      pop\n        /* \"#utility.yul\":19844:19864   */\n      tag_611\n        /* \"#utility.yul\":19862:19863   */\n      dup4\n        /* \"#utility.yul\":19844:19864   */\n      tag_317\n      jump\t// in\n    tag_611:\n        /* \"#utility.yul\":19839:19864   */\n      swap3\n      pop\n        /* \"#utility.yul\":19887:19888   */\n      dup3\n        /* \"#utility.yul\":19884:19885   */\n      dup3\n        /* \"#utility.yul\":19880:19889   */\n      add\n        /* \"#utility.yul\":19873:19889   */\n      swap1\n      pop\n        /* \"#utility.yul\":19908:19911   */\n      dup1\n        /* \"#utility.yul\":19905:19906   */\n      dup3\n        /* \"#utility.yul\":19902:19912   */\n      gt\n        /* \"#utility.yul\":19899:19935   */\n      iszero\n      tag_612\n      jumpi\n        /* \"#utility.yul\":19915:19933   */\n      tag_613\n      tag_367\n      jump\t// in\n    tag_613:\n        /* \"#utility.yul\":19899:19935   */\n    tag_612:\n        /* \"#utility.yul\":19751:19942   */\n      swap3\n      swap2\n      pop\n      pop\n      jump\t// out\n        /* \"#utility.yul\":19948:20181   */\n    tag_153:\n        /* \"#utility.yul\":19987:19990   */\n      0x00\n        /* \"#utility.yul\":20010:20034   */\n      tag_615\n        /* \"#utility.yul\":20028:20033   */\n      dup3\n        /* \"#utility.yul\":20010:20034   */\n      tag_317\n      jump\t// in\n    tag_615:\n        /* \"#utility.yul\":20001:20034   */\n      swap2\n      pop\n        /* \"#utility.yul\":20056:20122   */\n      0xffffffffffffffffffffffffffffffffffffffffffffffffffffffffffffffff\n        /* \"#utility.yul\":20049:20054   */\n      dup3\n        /* \"#utility.yul\":20046:20123   */\n      sub\n        /* \"#utility.yul\":20043:20146   */\n      tag_616\n      jumpi\n        /* \"#utility.yul\":20126:20144   */\n      tag_617\n      tag_367\n      jump\t// in\n    tag_617:\n        /* \"#utility.yul\":20043:20146   */\n    tag_616:\n        /* \"#utility.yul\":20173:20174   */\n      0x01\n        /* \"#utility.yul\":20166:20171   */\n      dup3\n        /* \"#utility.yul\":20162:20175   */\n      add\n        /* \"#utility.yul\":20155:20175   */\n      swap1\n      pop\n        /* \"#utility.yul\":19948:20181   */\n      swap2\n      swap1\n      pop\n      jump\t// out\n        /* \"#utility.yul\":20187:20346   */\n    tag_368:\n        /* \"#utility.yul\":20327:20338   */\n      0x4449535055545445440000000000000000000000000000000000000000000000\n        /* \"#utility.yul\":20323:20324   */\n      0x00\n        /* \"#utility.yul\":20315:20321   */\n      dup3\n        /* \"#utility.yul\":20311:20325   */\n      add\n        /* \"#utility.yul\":20304:20339   */\n      mstore\n        /* \"#utility.yul\":20187:20346   */\n      pop\n      jump\t// out\n        /* \"#utility.yul\":20352:20717   */\n    tag_369:\n        /* \"#utility.yul\":20494:20497   */\n      0x00\n        /* \"#utility.yul\":20515:20581   */\n      tag_620\n        /* \"#utility.yul\":20579:20580   */\n      0x09\n        /* \"#utility.yul\":20574:20577   */\n      dup4\n        /* \"#utility.yul\":20515:20581   */\n      tag_360\n      jump\t// in\n    tag_620:\n        /* \"#utility.yul\":20508:20581   */\n      swap2\n      pop\n        /* \"#utility.yul\":20590:20683   */\n      tag_621\n        /* \"#utility.yul\":20679:20682   */\n      dup3\n        /* \"#utility.yul\":20590:20683   */\n      tag_368\n      jump\t// in\n    tag_621:\n        /* \"#utility.yul\":20708:20710   */\n      0x20\n        /* \"#utility.yul\":20703:20706   */\n      dup3\n        /* \"#utility.yul\":20699:20711   */\n      add\n        /* \"#utility.yul\":20692:20711   */\n      swap1\n      pop\n        /* \"#utility.yul\":20352:20717   */\n      swap2\n      swap1\n      pop\n      jump\t// out\n        /* \"#utility.yul\":20723:20870   */\n    tag_370:\n        /* \"#utility.yul\":20818:20863   */\n      tag_623\n        /* \"#utility.yul\":20857:20862   */\n      dup2\n        /* \"#utility.yul\":20818:20863   */\n      tag_338\n      jump\t// in\n    tag_623:\n        /* \"#utility.yul\":20813:20816   */\n      dup3\n        /* \"#utility.yul\":20806:20864   */\n      mstore\n        /* \"#utility.yul\":20723:20870   */\n      pop\n      pop\n      jump\t// out\n        /* \"#utility.yul\":20876:21531   */\n    tag_158:\n        /* \"#utility.yul\":21106:21110   */\n      0x00\n        /* \"#utility.yul\":21144:21146   */\n      0x60\n        /* \"#utility.yul\":21133:21142   */\n      dup3\n        /* \"#utility.yul\":21129:21147   */\n      add\n        /* \"#utility.yul\":21121:21147   */\n      swap1\n      pop\n        /* \"#utility.yul\":21157:21228   */\n      tag_625\n        /* \"#utility.yul\":21225:21226   */\n      0x00\n        /* \"#utility.yul\":21214:21223   */\n      dup4\n        /* \"#utility.yul\":21210:21227   */\n      add\n        /* \"#utility.yul\":21201:21207   */\n      dup6\n        /* \"#utility.yul\":21157:21228   */\n      tag_345\n      jump\t// in\n    tag_625:\n        /* \"#utility.yul\":21275:21284   */\n      dup2\n        /* \"#utility.yul\":21269:21273   */\n      dup2\n        /* \"#utility.yul\":21265:21285   */\n      sub\n        /* \"#utility.yul\":21260:21262   */\n      0x20\n        /* \"#utility.yul\":21249:21258   */\n      dup4\n        /* \"#utility.yul\":21245:21263   */\n      add\n        /* \"#utility.yul\":21238:21286   */\n      mstore\n        /* \"#utility.yul\":21303:21434   */\n      tag_626\n        /* \"#utility.yul\":21429:21433   */\n      dup2\n        /* \"#utility.yul\":21303:21434   */\n      tag_369\n      jump\t// in\n    tag_626:\n        /* \"#utility.yul\":21295:21434   */\n      swap1\n      pop\n        /* \"#utility.yul\":21444:21524   */\n      tag_627\n        /* \"#utility.yul\":21520:21522   */\n      0x40\n        /* \"#utility.yul\":21509:21518   */\n      dup4\n        /* \"#utility.yul\":21505:21523   */\n      add\n        /* \"#utility.yul\":21496:21502   */\n      dup5\n        /* \"#utility.yul\":21444:21524   */\n      tag_370\n      jump\t// in\n    tag_627:\n        /* \"#utility.yul\":20876:21531   */\n      swap4\n      swap3\n      pop\n      pop\n      pop\n      jump\t// out\n        /* \"#utility.yul\":21537:21717   */\n    tag_371:\n        /* \"#utility.yul\":21585:21662   */\n      0x4e487b7100000000000000000000000000000000000000000000000000000000\n        /* \"#utility.yul\":21582:21583   */\n      0x00\n        /* \"#utility.yul\":21575:21663   */\n      mstore\n        /* \"#utility.yul\":21682:21686   */\n      0x22\n        /* \"#utility.yul\":21679:21680   */\n      0x04\n        /* \"#utility.yul\":21672:21687   */\n      mstore\n        /* \"#utility.yul\":21706:21710   */\n      0x24\n        /* \"#utility.yul\":21703:21704   */\n      0x00\n        /* \"#utility.yul\":21696:21711   */\n      revert\n        /* \"#utility.yul\":21723:22043   */\n    tag_164:\n        /* \"#utility.yul\":21767:21773   */\n      0x00\n        /* \"#utility.yul\":21804:21805   */\n      0x02\n        /* \"#utility.yul\":21798:21802   */\n      dup3\n        /* \"#utility.yul\":21794:21806   */\n      div\n        /* \"#utility.yul\":21784:21806   */\n      swap1\n      pop\n        /* \"#utility.yul\":21851:21852   */\n      0x01\n        /* \"#utility.yul\":21845:21849   */\n      dup3\n        /* \"#utility.yul\":21841:21853   */\n      and\n        /* \"#utility.yul\":21872:21890   */\n      dup1\n        /* \"#utility.yul\":21862:21943   */\n      tag_630\n      jumpi\n        /* \"#utility.yul\":21928:21932   */\n      0x7f\n        /* \"#utility.yul\":21920:21926   */\n      dup3\n        /* \"#utility.yul\":21916:21933   */\n      and\n        /* \"#utility.yul\":21906:21933   */\n      swap2\n      pop\n        /* \"#utility.yul\":21862:21943   */\n    tag_630:\n        /* \"#utility.yul\":21990:21992   */\n      0x20\n        /* \"#utility.yul\":21982:21988   */\n      dup3\n        /* \"#utility.yul\":21979:21993   */\n      lt\n        /* \"#utility.yul\":21959:21977   */\n      dup2\n        /* \"#utility.yul\":21956:21994   */\n      sub\n        /* \"#utility.yul\":21953:22037   */\n      tag_631\n      jumpi\n        /* \"#utility.yul\":22009:22027   */\n      tag_632\n      tag_371\n      jump\t// in\n    tag_632:\n        /* \"#utility.yul\":21953:22037   */\n    tag_631:\n        /* \"#utility.yul\":21774:22043   */\n      pop\n        /* \"#utility.yul\":21723:22043   */\n      swap2\n      swap1\n      pop\n      jump\t// out\n        /* \"#utility.yul\":22049:22218   */\n    tag_372:\n        /* \"#utility.yul\":22189:22210   */\n      0x4f6e6c7920457363726f7720616c6c6f77656400000000000000000000000000\n        /* \"#utility.yul\":22185:22186   */\n      0x00\n        /* \"#utility.yul\":22177:22183   */\n      dup3\n        /* \"#utility.yul\":22173:22187   */\n      add\n        /* \"#utility.yul\":22166:22211   */\n      mstore\n        /* \"#utility.yul\":22049:22218   */\n      pop\n      jump\t// out\n        /* \"#utility.yul\":22224:22590   */\n    tag_373:\n        /* \"#utility.yul\":22366:22369   */\n      0x00\n        /* \"#utility.yul\":22387:22454   */\n      tag_635\n        /* \"#utility.yul\":22451:22453   */\n      0x13\n        /* \"#utility.yul\":22446:22449   */\n      dup4\n        /* \"#utility.yul\":22387:22454   */\n      tag_360\n      jump\t// in\n    tag_635:\n        /* \"#utility.yul\":22380:22454   */\n      swap2\n      pop\n        /* \"#utility.yul\":22463:22556   */\n      tag_636\n        /* \"#utility.yul\":22552:22555   */\n      dup3\n        /* \"#utility.yul\":22463:22556   */\n      tag_372\n      jump\t// in\n    tag_636:\n        /* \"#utility.yul\":22581:22583   */\n      0x20\n        /* \"#utility.yul\":22576:22579   */\n      dup3\n        /* \"#utility.yul\":22572:22584   */\n      add\n        /* \"#utility.yul\":22565:22584   */\n      swap1\n      pop\n        /* \"#utility.yul\":22224:22590   */\n      swap2\n      swap1\n      pop\n      jump\t// out\n        /* \"#utility.yul\":22596:23015   */\n    tag_176:\n        /* \"#utility.yul\":22762:22766   */\n      0x00\n        /* \"#utility.yul\":22800:22802   */\n      0x20\n        /* \"#utility.yul\":22789:22798   */\n      dup3\n        /* \"#utility.yul\":22785:22803   */\n      add\n        /* \"#utility.yul\":22777:22803   */\n      swap1\n      pop\n        /* \"#utility.yul\":22849:22858   */\n      dup2\n        /* \"#utility.yul\":22843:22847   */\n      dup2\n        /* \"#utility.yul\":22839:22859   */\n      sub\n        /* \"#utility.yul\":22835:22836   */\n      0x00\n        /* \"#utility.yul\":22824:22833   */\n      dup4\n        /* \"#utility.yul\":22820:22837   */\n      add\n        /* \"#utility.yul\":22813:22860   */\n      mstore\n        /* \"#utility.yul\":22877:23008   */\n      tag_638\n        /* \"#utility.yul\":23003:23007   */\n      dup2\n        /* \"#utility.yul\":22877:23008   */\n      tag_373\n      jump\t// in\n    tag_638:\n        /* \"#utility.yul\":22869:23008   */\n      swap1\n      pop\n        /* \"#utility.yul\":22596:23015   */\n      swap2\n      swap1\n      pop\n      jump\t// out\n        /* \"#utility.yul\":23021:23195   */\n    tag_374:\n        /* \"#utility.yul\":23161:23187   */\n      0x5365727669636520616c72656164792070726f76696465640000000000000000\n        /* \"#utility.yul\":23157:23158   */\n      0x00\n        /* \"#utility.yul\":23149:23155   */\n      dup3\n        /* \"#utility.yul\":23145:23159   */\n      add\n        /* \"#utility.yul\":23138:23188   */\n      mstore\n        /* \"#utility.yul\":23021:23195   */\n      pop\n      jump\t// out\n        /* \"#utility.yul\":23201:23567   */\n    tag_375:\n        /* \"#utility.yul\":23343:23346   */\n      0x00\n        /* \"#utility.yul\":23364:23431   */\n      tag_641\n        /* \"#utility.yul\":23428:23430   */\n      0x18\n        /* \"#utility.yul\":23423:23426   */\n      dup4\n        /* \"#utility.yul\":23364:23431   */\n      tag_360\n      jump\t// in\n    tag_641:\n        /* \"#utility.yul\":23357:23431   */\n      swap2\n      pop\n        /* \"#utility.yul\":23440:23533   */\n      tag_642\n        /* \"#utility.yul\":23529:23532   */\n      dup3\n        /* \"#utility.yul\":23440:23533   */\n      tag_374\n      jump\t// in\n    tag_642:\n        /* \"#utility.yul\":23558:23560   */\n      0x20\n        /* \"#utility.yul\":23553:23556   */\n      dup3\n        /* \"#utility.yul\":23549:23561   */\n      add\n        /* \"#utility.yul\":23542:23561   */\n      swap1\n      pop\n        /* \"#utility.yul\":23201:23567   */\n      swap2\n      swap1\n      pop\n      jump\t// out\n        /* \"#utility.yul\":23573:23992   */\n    tag_179:\n        /* \"#utility.yul\":23739:23743   */\n      0x00\n        /* \"#utility.yul\":23777:23779   */\n      0x20\n        /* \"#utility.yul\":23766:23775   */\n      dup3\n        /* \"#utility.yul\":23762:23780   */\n      add\n        /* \"#utility.yul\":23754:23780   */\n      swap1\n      pop\n        /* \"#utility.yul\":23826:23835   */\n      dup2\n        /* \"#utility.yul\":23820:23824   */\n      dup2\n        /* \"#utility.yul\":23816:23836   */\n      sub\n        /* \"#utility.yul\":23812:23813   */\n      0x00\n        /* \"#utility.yul\":23801:23810   */\n      dup4\n        /* \"#utility.yul\":23797:23814   */\n      add\n        /* \"#utility.yul\":23790:23837   */\n      mstore\n        /* \"#utility.yul\":23854:23985   */\n      tag_644\n        /* \"#utility.yul\":23980:23984   */\n      dup2\n        /* \"#utility.yul\":23854:23985   */\n      tag_375\n      jump\t// in\n    tag_644:\n        /* \"#utility.yul\":23846:23985   */\n      swap1\n      pop\n        /* \"#utility.yul\":23573:23992   */\n      swap2\n      swap1\n      pop\n      jump\t// out\n        /* \"#utility.yul\":23998:24156   */\n    tag_376:\n        /* \"#utility.yul\":24138:24148   */\n      0x524546554e444544000000000000000000000000000000000000000000000000\n        /* \"#utility.yul\":24134:24135   */\n      0x00\n        /* \"#utility.yul\":24126:24132   */\n      dup3\n        /* \"#utility.yul\":24122:24136   */\n      add\n        /* \"#utility.yul\":24115:24149   */\n      mstore\n        /* \"#utility.yul\":23998:24156   */\n      pop\n      jump\t// out\n        /* \"#utility.yul\":24162:24527   */\n    tag_377:\n        /* \"#utility.yul\":24304:24307   */\n      0x00\n        /* \"#utility.yul\":24325:24391   */\n      tag_647\n        /* \"#utility.yul\":24389:24390   */\n      0x08\n        /* \"#utility.yul\":24384:24387   */\n      dup4\n        /* \"#utility.yul\":24325:24391   */\n      tag_360\n      jump\t// in\n    tag_647:\n        /* \"#utility.yul\":24318:24391   */\n      swap2\n      pop\n        /* \"#utility.yul\":24400:24493   */\n      tag_648\n        /* \"#utility.yul\":24489:24492   */\n      dup3\n        /* \"#utility.yul\":24400:24493   */\n      tag_376\n      jump\t// in\n    tag_648:\n        /* \"#utility.yul\":24518:24520   */\n      0x20\n        /* \"#utility.yul\":24513:24516   */\n      dup3\n        /* \"#utility.yul\":24509:24521   */\n      add\n        /* \"#utility.yul\":24502:24521   */\n      swap1\n      pop\n        /* \"#utility.yul\":24162:24527   */\n      swap2\n      swap1\n      pop\n      jump\t// out\n        /* \"#utility.yul\":24533:25188   */\n    tag_186:\n        /* \"#utility.yul\":24763:24767   */\n      0x00\n        /* \"#utility.yul\":24801:24803   */\n      0x60\n        /* \"#utility.yul\":24790:24799   */\n      dup3\n        /* \"#utility.yul\":24786:24804   */\n      add\n        /* \"#utility.yul\":24778:24804   */\n      swap1\n      pop\n        /* \"#utility.yul\":24814:24885   */\n      tag_650\n        /* \"#utility.yul\":24882:24883   */\n      0x00\n        /* \"#utility.yul\":24871:24880   */\n      dup4\n        /* \"#utility.yul\":24867:24884   */\n      add\n        /* \"#utility.yul\":24858:24864   */\n      dup6\n        /* \"#utility.yul\":24814:24885   */\n      tag_345\n      jump\t// in\n    tag_650:\n        /* \"#utility.yul\":24932:24941   */\n      dup2\n        /* \"#utility.yul\":24926:24930   */\n      dup2\n        /* \"#utility.yul\":24922:24942   */\n      sub\n        /* \"#utility.yul\":24917:24919   */\n      0x20\n        /* \"#utility.yul\":24906:24915   */\n      dup4\n        /* \"#utility.yul\":24902:24920   */\n      add\n        /* \"#utility.yul\":24895:24943   */\n      mstore\n        /* \"#utility.yul\":24960:25091   */\n      tag_651\n        /* \"#utility.yul\":25086:25090   */\n      dup2\n        /* \"#utility.yul\":24960:25091   */\n      tag_377\n      jump\t// in\n    tag_651:\n        /* \"#utility.yul\":24952:25091   */\n      swap1\n      pop\n        /* \"#utility.yul\":25101:25181   */\n      tag_652\n        /* \"#utility.yul\":25177:25179   */\n      0x40\n        /* \"#utility.yul\":25166:25175   */\n      dup4\n        /* \"#utility.yul\":25162:25180   */\n      add\n        /* \"#utility.yul\":25153:25159   */\n      dup5\n        /* \"#utility.yul\":25101:25181   */\n      tag_370\n      jump\t// in\n    tag_652:\n        /* \"#utility.yul\":24533:25188   */\n      swap4\n      swap3\n      pop\n      pop\n      pop\n      jump\t// out\n        /* \"#utility.yul\":25194:25374   */\n    tag_202:\n        /* \"#utility.yul\":25242:25319   */\n      0x4e487b7100000000000000000000000000000000000000000000000000000000\n        /* \"#utility.yul\":25239:25240   */\n      0x00\n        /* \"#utility.yul\":25232:25320   */\n      mstore\n        /* \"#utility.yul\":25339:25343   */\n      0x41\n        /* \"#utility.yul\":25336:25337   */\n      0x04\n        /* \"#utility.yul\":25329:25344   */\n      mstore\n        /* \"#utility.yul\":25363:25367   */\n      0x24\n        /* \"#utility.yul\":25360:25361   */\n      0x00\n        /* \"#utility.yul\":25353:25368   */\n      revert\n        /* \"#utility.yul\":25380:25560   */\n    tag_220:\n        /* \"#utility.yul\":25428:25505   */\n      0x4e487b7100000000000000000000000000000000000000000000000000000000\n        /* \"#utility.yul\":25425:25426   */\n      0x00\n        /* \"#utility.yul\":25418:25506   */\n      mstore\n        /* \"#utility.yul\":25525:25529   */\n      0x32\n        /* \"#utility.yul\":25522:25523   */\n      0x04\n        /* \"#utility.yul\":25515:25530   */\n      mstore\n        /* \"#utility.yul\":25549:25553   */\n      0x24\n        /* \"#utility.yul\":25546:25547   */\n      0x00\n        /* \"#utility.yul\":25539:25554   */\n      revert\n        /* \"#utility.yul\":25566:25742   */\n    tag_378:\n        /* \"#utility.yul\":25706:25734   */\n      0x53657276696365206e6f74206177617264656420746f20796f75000000000000\n        /* \"#utility.yul\":25702:25703   */\n      0x00\n        /* \"#utility.yul\":25694:25700   */\n      dup3\n        /* \"#utility.yul\":25690:25704   */\n      add\n        /* \"#utility.yul\":25683:25735   */\n      mstore\n        /* \"#utility.yul\":25566:25742   */\n      pop\n      jump\t// out\n        /* \"#utility.yul\":25748:26114   */\n    tag_379:\n        /* \"#utility.yul\":25890:25893   */\n      0x00\n        /* \"#utility.yul\":25911:25978   */\n      tag_657\n        /* \"#utility.yul\":25975:25977   */\n      0x1a\n        /* \"#utility.yul\":25970:25973   */\n      dup4\n        /* \"#utility.yul\":25911:25978   */\n      tag_360\n      jump\t// in\n    tag_657:\n        /* \"#utility.yul\":25904:25978   */\n      swap2\n      pop\n        /* \"#utility.yul\":25987:26080   */\n      tag_658\n        /* \"#utility.yul\":26076:26079   */\n      dup3\n        /* \"#utility.yul\":25987:26080   */\n      tag_378\n      jump\t// in\n    tag_658:\n        /* \"#utility.yul\":26105:26107   */\n      0x20\n        /* \"#utility.yul\":26100:26103   */\n      dup3\n        /* \"#utility.yul\":26096:26108   */\n      add\n        /* \"#utility.yul\":26089:26108   */\n      swap1\n      pop\n        /* \"#utility.yul\":25748:26114   */\n      swap2\n      swap1\n      pop\n      jump\t// out\n        /* \"#utility.yul\":26120:26539   */\n    tag_224:\n        /* \"#utility.yul\":26286:26290   */\n      0x00\n        /* \"#utility.yul\":26324:26326   */\n      0x20\n        /* \"#utility.yul\":26313:26322   */\n      dup3\n        /* \"#utility.yul\":26309:26327   */\n      add\n        /* \"#utility.yul\":26301:26327   */\n      swap1\n      pop\n        /* \"#utility.yul\":26373:26382   */\n      dup2\n        /* \"#utility.yul\":26367:26371   */\n      dup2\n        /* \"#utility.yul\":26363:26383   */\n      sub\n        /* \"#utility.yul\":26359:26360   */\n      0x00\n        /* \"#utility.yul\":26348:26357   */\n      dup4\n        /* \"#utility.yul\":26344:26361   */\n      add\n        /* \"#utility.yul\":26337:26384   */\n      mstore\n        /* \"#utility.yul\":26401:26532   */\n      tag_660\n        /* \"#utility.yul\":26527:26531   */\n      dup2\n        /* \"#utility.yul\":26401:26532   */\n      tag_379\n      jump\t// in\n    tag_660:\n        /* \"#utility.yul\":26393:26532   */\n      swap1\n      pop\n        /* \"#utility.yul\":26120:26539   */\n      swap2\n      swap1\n      pop\n      jump\t// out\n        /* \"#utility.yul\":26545:26720   */\n    tag_380:\n        /* \"#utility.yul\":26685:26712   */\n      0x5365727669636520616c726561647920636f6e6669726d656400000000000000\n        /* \"#utility.yul\":26681:26682   */\n      0x00\n        /* \"#utility.yul\":26673:26679   */\n      dup3\n        /* \"#utility.yul\":26669:26683   */\n      add\n        /* \"#utility.yul\":26662:26713   */\n      mstore\n        /* \"#utility.yul\":26545:26720   */\n      pop\n      jump\t// out\n        /* \"#utility.yul\":26726:27092   */\n    tag_381:\n        /* \"#utility.yul\":26868:26871   */\n      0x00\n        /* \"#utility.yul\":26889:26956   */\n      tag_663\n        /* \"#utility.yul\":26953:26955   */\n      0x19\n        /* \"#utility.yul\":26948:26951   */\n      dup4\n        /* \"#utility.yul\":26889:26956   */\n      tag_360\n      jump\t// in\n    tag_663:\n        /* \"#utility.yul\":26882:26956   */\n      swap2\n      pop\n        /* \"#utility.yul\":26965:27058   */\n      tag_664\n        /* \"#utility.yul\":27054:27057   */\n      dup3\n        /* \"#utility.yul\":26965:27058   */\n      tag_380\n      jump\t// in\n    tag_664:\n        /* \"#utility.yul\":27083:27085   */\n      0x20\n        /* \"#utility.yul\":27078:27081   */\n      dup3\n        /* \"#utility.yul\":27074:27086   */\n      add\n        /* \"#utility.yul\":27067:27086   */\n      swap1\n      pop\n        /* \"#utility.yul\":26726:27092   */\n      swap2\n      swap1\n      pop\n      jump\t// out\n        /* \"#utility.yul\":27098:27517   */\n    tag_229:\n        /* \"#utility.yul\":27264:27268   */\n      0x00\n        /* \"#utility.yul\":27302:27304   */\n      0x20\n        /* \"#utility.yul\":27291:27300   */\n      dup3\n        /* \"#utility.yul\":27287:27305   */\n      add\n        /* \"#utility.yul\":27279:27305   */\n      swap1\n      pop\n        /* \"#utility.yul\":27351:27360   */\n      dup2\n        /* \"#utility.yul\":27345:27349   */\n      dup2\n        /* \"#utility.yul\":27341:27361   */\n      sub\n        /* \"#utility.yul\":27337:27338   */\n      0x00\n        /* \"#utility.yul\":27326:27335   */\n      dup4\n        /* \"#utility.yul\":27322:27339   */\n      add\n        /* \"#utility.yul\":27315:27362   */\n      mstore\n        /* \"#utility.yul\":27379:27510   */\n      tag_666\n        /* \"#utility.yul\":27505:27509   */\n      dup2\n        /* \"#utility.yul\":27379:27510   */\n      tag_381\n      jump\t// in\n    tag_666:\n        /* \"#utility.yul\":27371:27510   */\n      swap1\n      pop\n        /* \"#utility.yul\":27098:27517   */\n      swap2\n      swap1\n      pop\n      jump\t// out\n        /* \"#utility.yul\":27523:27690   */\n    tag_382:\n        /* \"#utility.yul\":27663:27682   */\n      0x44454c495645525920494e544941544544000000000000000000000000000000\n        /* \"#utility.yul\":27659:27660   */\n      0x00\n        /* \"#utility.yul\":27651:27657   */\n      dup3\n        /* \"#utility.yul\":27647:27661   */\n      add\n        /* \"#utility.yul\":27640:27683   */\n      mstore\n        /* \"#utility.yul\":27523:27690   */\n      pop\n      jump\t// out\n        /* \"#utility.yul\":27696:28062   */\n    tag_383:\n        /* \"#utility.yul\":27838:27841   */\n      0x00\n        /* \"#utility.yul\":27859:27926   */\n      tag_669\n        /* \"#utility.yul\":27923:27925   */\n      0x11\n        /* \"#utility.yul\":27918:27921   */\n      dup4\n        /* \"#utility.yul\":27859:27926   */\n      tag_360\n      jump\t// in\n    tag_669:\n        /* \"#utility.yul\":27852:27926   */\n      swap2\n      pop\n        /* \"#utility.yul\":27935:28028   */\n      tag_670\n        /* \"#utility.yul\":28024:28027   */\n      dup3\n        /* \"#utility.yul\":27935:28028   */\n      tag_382\n      jump\t// in\n    tag_670:\n        /* \"#utility.yul\":28053:28055   */\n      0x20\n        /* \"#utility.yul\":28048:28051   */\n      dup3\n        /* \"#utility.yul\":28044:28056   */\n      add\n        /* \"#utility.yul\":28037:28056   */\n      swap1\n      pop\n        /* \"#utility.yul\":27696:28062   */\n      swap2\n      swap1\n      pop\n      jump\t// out\n        /* \"#utility.yul\":28068:28723   */\n    tag_233:\n        /* \"#utility.yul\":28298:28302   */\n      0x00\n        /* \"#utility.yul\":28336:28338   */\n      0x60\n        /* \"#utility.yul\":28325:28334   */\n      dup3\n        /* \"#utility.yul\":28321:28339   */\n      add\n        /* \"#utility.yul\":28313:28339   */\n      swap1\n      pop\n        /* \"#utility.yul\":28349:28420   */\n      tag_672\n        /* \"#utility.yul\":28417:28418   */\n      0x00\n        /* \"#utility.yul\":28406:28415   */\n      dup4\n        /* \"#utility.yul\":28402:28419   */\n      add\n        /* \"#utility.yul\":28393:28399   */\n      dup6\n        /* \"#utility.yul\":28349:28420   */\n      tag_345\n      jump\t// in\n    tag_672:\n        /* \"#utility.yul\":28467:28476   */\n      dup2\n        /* \"#utility.yul\":28461:28465   */\n      dup2\n        /* \"#utility.yul\":28457:28477   */\n      sub\n        /* \"#utility.yul\":28452:28454   */\n      0x20\n        /* \"#utility.yul\":28441:28450   */\n      dup4\n        /* \"#utility.yul\":28437:28455   */\n      add\n        /* \"#utility.yul\":28430:28478   */\n      mstore\n        /* \"#utility.yul\":28495:28626   */\n      tag_673\n        /* \"#utility.yul\":28621:28625   */\n      dup2\n        /* \"#utility.yul\":28495:28626   */\n      tag_383\n      jump\t// in\n    tag_673:\n        /* \"#utility.yul\":28487:28626   */\n      swap1\n      pop\n        /* \"#utility.yul\":28636:28716   */\n      tag_674\n        /* \"#utility.yul\":28712:28714   */\n      0x40\n        /* \"#utility.yul\":28701:28710   */\n      dup4\n        /* \"#utility.yul\":28697:28715   */\n      add\n        /* \"#utility.yul\":28688:28694   */\n      dup5\n        /* \"#utility.yul\":28636:28716   */\n      tag_370\n      jump\t// in\n    tag_674:\n        /* \"#utility.yul\":28068:28723   */\n      swap4\n      swap3\n      pop\n      pop\n      pop\n      jump\t// out\n        /* \"#utility.yul\":28729:28902   */\n    tag_384:\n        /* \"#utility.yul\":28869:28894   */\n      0x507572706f73652063616e6e6f7420626520656d707479000000000000000000\n        /* \"#utility.yul\":28865:28866   */\n      0x00\n        /* \"#utility.yul\":28857:28863   */\n      dup3\n        /* \"#utility.yul\":28853:28867   */\n      add\n        /* \"#utility.yul\":28846:28895   */\n      mstore\n        /* \"#utility.yul\":28729:28902   */\n      pop\n      jump\t// out\n        /* \"#utility.yul\":28908:29274   */\n    tag_385:\n        /* \"#utility.yul\":29050:29053   */\n      0x00\n        /* \"#utility.yul\":29071:29138   */\n      tag_677\n        /* \"#utility.yul\":29135:29137   */\n      0x17\n        /* \"#utility.yul\":29130:29133   */\n      dup4\n        /* \"#utility.yul\":29071:29138   */\n      tag_360\n      jump\t// in\n    tag_677:\n        /* \"#utility.yul\":29064:29138   */\n      swap2\n      pop\n        /* \"#utility.yul\":29147:29240   */\n      tag_678\n        /* \"#utility.yul\":29236:29239   */\n      dup3\n        /* \"#utility.yul\":29147:29240   */\n      tag_384\n      jump\t// in\n    tag_678:\n        /* \"#utility.yul\":29265:29267   */\n      0x20\n        /* \"#utility.yul\":29260:29263   */\n      dup3\n        /* \"#utility.yul\":29256:29268   */\n      add\n        /* \"#utility.yul\":29249:29268   */\n      swap1\n      pop\n        /* \"#utility.yul\":28908:29274   */\n      swap2\n      swap1\n      pop\n      jump\t// out\n        /* \"#utility.yul\":29280:29699   */\n    tag_237:\n        /* \"#utility.yul\":29446:29450   */\n      0x00\n        /* \"#utility.yul\":29484:29486   */\n      0x20\n        /* \"#utility.yul\":29473:29482   */\n      dup3\n        /* \"#utility.yul\":29469:29487   */\n      add\n        /* \"#utility.yul\":29461:29487   */\n      swap1\n      pop\n        /* \"#utility.yul\":29533:29542   */\n      dup2\n        /* \"#utility.yul\":29527:29531   */\n      dup2\n        /* \"#utility.yul\":29523:29543   */\n      sub\n        /* \"#utility.yul\":29519:29520   */\n      0x00\n        /* \"#utility.yul\":29508:29517   */\n      dup4\n        /* \"#utility.yul\":29504:29521   */\n      add\n        /* \"#utility.yul\":29497:29544   */\n      mstore\n        /* \"#utility.yul\":29561:29692   */\n      tag_680\n        /* \"#utility.yul\":29687:29691   */\n      dup2\n        /* \"#utility.yul\":29561:29692   */\n      tag_385\n      jump\t// in\n    tag_680:\n        /* \"#utility.yul\":29553:29692   */\n      swap1\n      pop\n        /* \"#utility.yul\":29280:29699   */\n      swap2\n      swap1\n      pop\n      jump\t// out\n        /* \"#utility.yul\":29705:29884   */\n    tag_386:\n        /* \"#utility.yul\":29845:29876   */\n      0x416d6f756e74206d7573742062652067726561746572207468616e2030000000\n        /* \"#utility.yul\":29841:29842   */\n      0x00\n        /* \"#utility.yul\":29833:29839   */\n      dup3\n        /* \"#utility.yul\":29829:29843   */\n      add\n        /* \"#utility.yul\":29822:29877   */\n      mstore\n        /* \"#utility.yul\":29705:29884   */\n      pop\n      jump\t// out\n        /* \"#utility.yul\":29890:30256   */\n    tag_387:\n        /* \"#utility.yul\":30032:30035   */\n      0x00\n        /* \"#utility.yul\":30053:30120   */\n      tag_683\n        /* \"#utility.yul\":30117:30119   */\n      0x1d\n        /* \"#utility.yul\":30112:30115   */\n      dup4\n        /* \"#utility.yul\":30053:30120   */\n      tag_360\n      jump\t// in\n    tag_683:\n        /* \"#utility.yul\":30046:30120   */\n      swap2\n      pop\n        /* \"#utility.yul\":30129:30222   */\n      tag_684\n        /* \"#utility.yul\":30218:30221   */\n      dup3\n        /* \"#utility.yul\":30129:30222   */\n      tag_386\n      jump\t// in\n    tag_684:\n        /* \"#utility.yul\":30247:30249   */\n      0x20\n        /* \"#utility.yul\":30242:30245   */\n      dup3\n        /* \"#utility.yul\":30238:30250   */\n      add\n        /* \"#utility.yul\":30231:30250   */\n      swap1\n      pop\n        /* \"#utility.yul\":29890:30256   */\n      swap2\n      swap1\n      pop\n      jump\t// out\n        /* \"#utility.yul\":30262:30681   */\n    tag_240:\n        /* \"#utility.yul\":30428:30432   */\n      0x00\n        /* \"#utility.yul\":30466:30468   */\n      0x20\n        /* \"#utility.yul\":30455:30464   */\n      dup3\n        /* \"#utility.yul\":30451:30469   */\n      add\n        /* \"#utility.yul\":30443:30469   */\n      swap1\n      pop\n        /* \"#utility.yul\":30515:30524   */\n      dup2\n        /* \"#utility.yul\":30509:30513   */\n      dup2\n        /* \"#utility.yul\":30505:30525   */\n      sub\n        /* \"#utility.yul\":30501:30502   */\n      0x00\n        /* \"#utility.yul\":30490:30499   */\n      dup4\n        /* \"#utility.yul\":30486:30503   */\n      add\n        /* \"#utility.yul\":30479:30526   */\n      mstore\n        /* \"#utility.yul\":30543:30674   */\n      tag_686\n        /* \"#utility.yul\":30669:30673   */\n      dup2\n        /* \"#utility.yul\":30543:30674   */\n      tag_387\n      jump\t// in\n    tag_686:\n        /* \"#utility.yul\":30535:30674   */\n      swap1\n      pop\n        /* \"#utility.yul\":30262:30681   */\n      swap2\n      swap1\n      pop\n      jump\t// out\n        /* \"#utility.yul\":30687:30860   */\n    tag_388:\n        /* \"#utility.yul\":30827:30852   */\n      0x496e73756666696369656e742045746865722073656e74000000000000000000\n        /* \"#utility.yul\":30823:30824   */\n      0x00\n        /* \"#utility.yul\":30815:30821   */\n      dup3\n        /* \"#utility.yul\":30811:30825   */\n      add\n        /* \"#utility.yul\":30804:30853   */\n      mstore\n        /* \"#utility.yul\":30687:30860   */\n      pop\n      jump\t// out\n        /* \"#utility.yul\":30866:31232   */\n    tag_389:\n        /* \"#utility.yul\":31008:31011   */\n      0x00\n        /* \"#utility.yul\":31029:31096   */\n      tag_689\n        /* \"#utility.yul\":31093:31095   */\n      0x17\n        /* \"#utility.yul\":31088:31091   */\n      dup4\n        /* \"#utility.yul\":31029:31096   */\n      tag_360\n      jump\t// in\n    tag_689:\n        /* \"#utility.yul\":31022:31096   */\n      swap2\n      pop\n        /* \"#utility.yul\":31105:31198   */\n      tag_690\n        /* \"#utility.yul\":31194:31197   */\n      dup3\n        /* \"#utility.yul\":31105:31198   */\n      tag_388\n      jump\t// in\n    tag_690:\n        /* \"#utility.yul\":31223:31225   */\n      0x20\n        /* \"#utility.yul\":31218:31221   */\n      dup3\n        /* \"#utility.yul\":31214:31226   */\n      add\n        /* \"#utility.yul\":31207:31226   */\n      swap1\n      pop\n        /* \"#utility.yul\":30866:31232   */\n      swap2\n      swap1\n      pop\n      jump\t// out\n        /* \"#utility.yul\":31238:31657   */\n    tag_243:\n        /* \"#utility.yul\":31404:31408   */\n      0x00\n        /* \"#utility.yul\":31442:31444   */\n      0x20\n        /* \"#utility.yul\":31431:31440   */\n      dup3\n        /* \"#utility.yul\":31427:31445   */\n      add\n        /* \"#utility.yul\":31419:31445   */\n      swap1\n      pop\n        /* \"#utility.yul\":31491:31500   */\n      dup2\n        /* \"#utility.yul\":31485:31489   */\n      dup2\n        /* \"#utility.yul\":31481:31501   */\n      sub\n        /* \"#utility.yul\":31477:31478   */\n      0x00\n        /* \"#utility.yul\":31466:31475   */\n      dup4\n        /* \"#utility.yul\":31462:31479   */\n      add\n        /* \"#utility.yul\":31455:31502   */\n      mstore\n        /* \"#utility.yul\":31519:31650   */\n      tag_692\n        /* \"#utility.yul\":31645:31649   */\n      dup2\n        /* \"#utility.yul\":31519:31650   */\n      tag_389\n      jump\t// in\n    tag_692:\n        /* \"#utility.yul\":31511:31650   */\n      swap1\n      pop\n        /* \"#utility.yul\":31238:31657   */\n      swap2\n      swap1\n      pop\n      jump\t// out\n        /* \"#utility.yul\":31663:31760   */\n    tag_390:\n        /* \"#utility.yul\":31722:31728   */\n      0x00\n        /* \"#utility.yul\":31750:31753   */\n      dup3\n        /* \"#utility.yul\":31740:31753   */\n      swap1\n      pop\n        /* \"#utility.yul\":31663:31760   */\n      swap3\n      swap2\n      pop\n      pop\n      jump\t// out\n        /* \"#utility.yul\":31766:31907   */\n    tag_391:\n        /* \"#utility.yul\":31815:31819   */\n      0x00\n        /* \"#utility.yul\":31838:31841   */\n      dup2\n        /* \"#utility.yul\":31830:31841   */\n      swap1\n      pop\n        /* \"#utility.yul\":31861:31864   */\n      dup2\n        /* \"#utility.yul\":31858:31859   */\n      0x00\n        /* \"#utility.yul\":31851:31865   */\n      mstore\n        /* \"#utility.yul\":31895:31899   */\n      0x20\n        /* \"#utility.yul\":31892:31893   */\n      0x00\n        /* \"#utility.yul\":31882:31900   */\n      keccak256\n        /* \"#utility.yul\":31874:31900   */\n      swap1\n      pop\n        /* \"#utility.yul\":31766:31907   */\n      swap2\n      swap1\n      pop\n      jump\t// out\n        /* \"#utility.yul\":31913:32006   */\n    tag_392:\n        /* \"#utility.yul\":31950:31956   */\n      0x00\n        /* \"#utility.yul\":31997:31999   */\n      0x20\n        /* \"#utility.yul\":31992:31994   */\n      0x1f\n        /* \"#utility.yul\":31985:31990   */\n      dup4\n        /* \"#utility.yul\":31981:31995   */\n      add\n        /* \"#utility.yul\":31977:32000   */\n      div\n        /* \"#utility.yul\":31967:32000   */\n      swap1\n      pop\n        /* \"#utility.yul\":31913:32006   */\n      swap2\n      swap1\n      pop\n      jump\t// out\n        /* \"#utility.yul\":32012:32119   */\n    tag_393:\n        /* \"#utility.yul\":32056:32064   */\n      0x00\n        /* \"#utility.yul\":32106:32111   */\n      dup3\n        /* \"#utility.yul\":32100:32104   */\n      dup3\n        /* \"#utility.yul\":32096:32112   */\n      shl\n        /* \"#utility.yul\":32075:32112   */\n      swap1\n      pop\n        /* \"#utility.yul\":32012:32119   */\n      swap3\n      swap2\n      pop\n      pop\n      jump\t// out\n        /* \"#utility.yul\":32125:32518   */\n    tag_394:\n        /* \"#utility.yul\":32194:32200   */\n      0x00\n        /* \"#utility.yul\":32244:32245   */\n      0x08\n        /* \"#utility.yul\":32232:32242   */\n      dup4\n        /* \"#utility.yul\":32228:32246   */\n      mul\n        /* \"#utility.yul\":32267:32364   */\n      tag_698\n        /* \"#utility.yul\":32297:32363   */\n      0xffffffffffffffffffffffffffffffffffffffffffffffffffffffffffffffff\n        /* \"#utility.yul\":32286:32295   */\n      dup3\n        /* \"#utility.yul\":32267:32364   */\n      tag_393\n      jump\t// in\n    tag_698:\n        /* \"#utility.yul\":32385:32424   */\n      tag_699\n        /* \"#utility.yul\":32415:32423   */\n      dup7\n        /* \"#utility.yul\":32404:32413   */\n      dup4\n        /* \"#utility.yul\":32385:32424   */\n      tag_393\n      jump\t// in\n    tag_699:\n        /* \"#utility.yul\":32373:32424   */\n      swap6\n      pop\n        /* \"#utility.yul\":32457:32461   */\n      dup1\n        /* \"#utility.yul\":32453:32462   */\n      not\n        /* \"#utility.yul\":32446:32451   */\n      dup5\n        /* \"#utility.yul\":32442:32463   */\n      and\n        /* \"#utility.yul\":32433:32463   */\n      swap4\n      pop\n        /* \"#utility.yul\":32506:32510   */\n      dup1\n        /* \"#utility.yul\":32496:32504   */\n      dup7\n        /* \"#utility.yul\":32492:32511   */\n      and\n        /* \"#utility.yul\":32485:32490   */\n      dup5\n        /* \"#utility.yul\":32482:32512   */\n      or\n        /* \"#utility.yul\":32472:32512   */\n      swap3\n      pop\n        /* \"#utility.yul\":32201:32518   */\n      pop\n      pop\n        /* \"#utility.yul\":32125:32518   */\n      swap4\n      swap3\n      pop\n      pop\n      pop\n      jump\t// out\n        /* \"#utility.yul\":32524:32584   */\n    tag_395:\n        /* \"#utility.yul\":32552:32555   */\n      0x00\n        /* \"#utility.yul\":32573:32578   */\n      dup2\n        /* \"#utility.yul\":32566:32578   */\n      swap1\n      pop\n        /* \"#utility.yul\":32524:32584   */\n      swap2\n      swap1\n      pop\n      jump\t// out\n        /* \"#utility.yul\":32590:32732   */\n    tag_396:\n        /* \"#utility.yul\":32640:32649   */\n      0x00\n        /* \"#utility.yul\":32673:32726   */\n      tag_702\n        /* \"#utility.yul\":32691:32725   */\n      tag_703\n        /* \"#utility.yul\":32700:32724   */\n      tag_704\n        /* \"#utility.yul\":32718:32723   */\n      dup5\n        /* \"#utility.yul\":32700:32724   */\n      tag_317\n      jump\t// in\n    tag_704:\n        /* \"#utility.yul\":32691:32725   */\n      tag_395\n      jump\t// in\n    tag_703:\n        /* \"#utility.yul\":32673:32726   */\n      tag_317\n      jump\t// in\n    tag_702:\n        /* \"#utility.yul\":32660:32726   */\n      swap1\n      pop\n        /* \"#utility.yul\":32590:32732   */\n      swap2\n      swap1\n      pop\n      jump\t// out\n        /* \"#utility.yul\":32738:32813   */\n    tag_397:\n        /* \"#utility.yul\":32781:32784   */\n      0x00\n        /* \"#utility.yul\":32802:32807   */\n      dup2\n        /* \"#utility.yul\":32795:32807   */\n      swap1\n      pop\n        /* \"#utility.yul\":32738:32813   */\n      swap2\n      swap1\n      pop\n      jump\t// out\n        /* \"#utility.yul\":32819:33088   */\n    tag_398:\n        /* \"#utility.yul\":32929:32968   */\n      tag_707\n        /* \"#utility.yul\":32960:32967   */\n      dup4\n        /* \"#utility.yul\":32929:32968   */\n      tag_396\n      jump\t// in\n    tag_707:\n        /* \"#utility.yul\":32990:33081   */\n      tag_708\n        /* \"#utility.yul\":33039:33080   */\n      tag_709\n        /* \"#utility.yul\":33063:33079   */\n      dup3\n        /* \"#utility.yul\":33039:33080   */\n      tag_397\n      jump\t// in\n    tag_709:\n        /* \"#utility.yul\":33031:33037   */\n      dup5\n        /* \"#utility.yul\":33024:33028   */\n      dup5\n        /* \"#utility.yul\":33018:33029   */\n      sload\n        /* \"#utility.yul\":32990:33081   */\n      tag_394\n      jump\t// in\n    tag_708:\n        /* \"#utility.yul\":32984:32988   */\n      dup3\n        /* \"#utility.yul\":32977:33082   */\n      sstore\n        /* \"#utility.yul\":32895:33088   */\n      pop\n        /* \"#utility.yul\":32819:33088   */\n      pop\n      pop\n      pop\n      jump\t// out\n        /* \"#utility.yul\":33094:33167   */\n    tag_399:\n        /* \"#utility.yul\":33139:33142   */\n      0x00\n        /* \"#utility.yul\":33094:33167   */\n      swap1\n      jump\t// out\n        /* \"#utility.yul\":33173:33362   */\n    tag_400:\n        /* \"#utility.yul\":33250:33282   */\n      tag_712\n      tag_399\n      jump\t// in\n    tag_712:\n        /* \"#utility.yul\":33291:33356   */\n      tag_713\n        /* \"#utility.yul\":33349:33355   */\n      dup2\n        /* \"#utility.yul\":33341:33347   */\n      dup5\n        /* \"#utility.yul\":33335:33339   */\n      dup5\n        /* \"#utility.yul\":33291:33356   */\n      tag_398\n      jump\t// in\n    tag_713:\n        /* \"#utility.yul\":33226:33362   */\n      pop\n        /* \"#utility.yul\":33173:33362   */\n      pop\n      pop\n      jump\t// out\n        /* \"#utility.yul\":33368:33554   */\n    tag_401:\n        /* \"#utility.yul\":33428:33548   */\n    tag_715:\n        /* \"#utility.yul\":33445:33448   */\n      dup2\n        /* \"#utility.yul\":33438:33443   */\n      dup2\n        /* \"#utility.yul\":33435:33449   */\n      lt\n        /* \"#utility.yul\":33428:33548   */\n      iszero\n      tag_717\n      jumpi\n        /* \"#utility.yul\":33499:33538   */\n      tag_718\n        /* \"#utility.yul\":33536:33537   */\n      0x00\n        /* \"#utility.yul\":33529:33534   */\n      dup3\n        /* \"#utility.yul\":33499:33538   */\n      tag_400\n      jump\t// in\n    tag_718:\n        /* \"#utility.yul\":33472:33473   */\n      0x01\n        /* \"#utility.yul\":33465:33470   */\n      dup2\n        /* \"#utility.yul\":33461:33474   */\n      add\n        /* \"#utility.yul\":33452:33474   */\n      swap1\n      pop\n        /* \"#utility.yul\":33428:33548   */\n      jump(tag_715)\n    tag_717:\n        /* \"#utility.yul\":33368:33554   */\n      pop\n      pop\n      jump\t// out\n        /* \"#utility.yul\":33560:34103   */\n    tag_402:\n        /* \"#utility.yul\":33661:33663   */\n      0x1f\n        /* \"#utility.yul\":33656:33659   */\n      dup3\n        /* \"#utility.yul\":33653:33664   */\n      gt\n        /* \"#utility.yul\":33650:34096   */\n      iszero\n      tag_720\n      jumpi\n        /* \"#utility.yul\":33695:33733   */\n      tag_721\n        /* \"#utility.yul\":33727:33732   */\n      dup2\n        /* \"#utility.yul\":33695:33733   */\n      tag_391\n      jump\t// in\n    tag_721:\n        /* \"#utility.yul\":33779:33808   */\n      tag_722\n        /* \"#utility.yul\":33797:33807   */\n      dup5\n        /* \"#utility.yul\":33779:33808   */\n      tag_392\n      jump\t// in\n    tag_722:\n        /* \"#utility.yul\":33769:33777   */\n      dup2\n        /* \"#utility.yul\":33765:33809   */\n      add\n        /* \"#utility.yul\":33962:33964   */\n      0x20\n        /* \"#utility.yul\":33950:33960   */\n      dup6\n        /* \"#utility.yul\":33947:33965   */\n      lt\n        /* \"#utility.yul\":33944:33993   */\n      iszero\n      tag_723\n      jumpi\n        /* \"#utility.yul\":33983:33991   */\n      dup2\n        /* \"#utility.yul\":33968:33991   */\n      swap1\n      pop\n        /* \"#utility.yul\":33944:33993   */\n    tag_723:\n        /* \"#utility.yul\":34006:34086   */\n      tag_724\n        /* \"#utility.yul\":34062:34084   */\n      tag_725\n        /* \"#utility.yul\":34080:34083   */\n      dup6\n        /* \"#utility.yul\":34062:34084   */\n      tag_392\n      jump\t// in\n    tag_725:\n        /* \"#utility.yul\":34052:34060   */\n      dup4\n        /* \"#utility.yul\":34048:34085   */\n      add\n        /* \"#utility.yul\":34035:34046   */\n      dup3\n        /* \"#utility.yul\":34006:34086   */\n      tag_401\n      jump\t// in\n    tag_724:\n        /* \"#utility.yul\":33665:34096   */\n      pop\n      pop\n        /* \"#utility.yul\":33650:34096   */\n    tag_720:\n        /* \"#utility.yul\":33560:34103   */\n      pop\n      pop\n      pop\n      jump\t// out\n        /* \"#utility.yul\":34109:34226   */\n    tag_403:\n        /* \"#utility.yul\":34163:34171   */\n      0x00\n        /* \"#utility.yul\":34213:34218   */\n      dup3\n        /* \"#utility.yul\":34207:34211   */\n      dup3\n        /* \"#utility.yul\":34203:34219   */\n      shr\n        /* \"#utility.yul\":34182:34219   */\n      swap1\n      pop\n        /* \"#utility.yul\":34109:34226   */\n      swap3\n      swap2\n      pop\n      pop\n      jump\t// out\n        /* \"#utility.yul\":34232:34401   */\n    tag_404:\n        /* \"#utility.yul\":34276:34282   */\n      0x00\n        /* \"#utility.yul\":34309:34360   */\n      tag_728\n        /* \"#utility.yul\":34357:34358   */\n      0x00\n        /* \"#utility.yul\":34353:34359   */\n      not\n        /* \"#utility.yul\":34345:34350   */\n      dup5\n        /* \"#utility.yul\":34342:34343   */\n      0x08\n        /* \"#utility.yul\":34338:34351   */\n      mul\n        /* \"#utility.yul\":34309:34360   */\n      tag_403\n      jump\t// in\n    tag_728:\n        /* \"#utility.yul\":34305:34361   */\n      not\n        /* \"#utility.yul\":34390:34394   */\n      dup1\n        /* \"#utility.yul\":34384:34388   */\n      dup4\n        /* \"#utility.yul\":34380:34395   */\n      and\n        /* \"#utility.yul\":34370:34395   */\n      swap2\n      pop\n        /* \"#utility.yul\":34283:34401   */\n      pop\n        /* \"#utility.yul\":34232:34401   */\n      swap3\n      swap2\n      pop\n      pop\n      jump\t// out\n        /* \"#utility.yul\":34406:34701   */\n    tag_405:\n        /* \"#utility.yul\":34482:34486   */\n      0x00\n        /* \"#utility.yul\":34628:34657   */\n      tag_730\n        /* \"#utility.yul\":34653:34656   */\n      dup4\n        /* \"#utility.yul\":34647:34651   */\n      dup4\n        /* \"#utility.yul\":34628:34657   */\n      tag_404\n      jump\t// in\n    tag_730:\n        /* \"#utility.yul\":34620:34657   */\n      swap2\n      pop\n        /* \"#utility.yul\":34690:34693   */\n      dup3\n        /* \"#utility.yul\":34687:34688   */\n      0x02\n        /* \"#utility.yul\":34683:34694   */\n      mul\n        /* \"#utility.yul\":34677:34681   */\n      dup3\n        /* \"#utility.yul\":34674:34695   */\n      or\n        /* \"#utility.yul\":34666:34695   */\n      swap1\n      pop\n        /* \"#utility.yul\":34406:34701   */\n      swap3\n      swap2\n      pop\n      pop\n      jump\t// out\n        /* \"#utility.yul\":34706:36109   */\n    tag_246:\n        /* \"#utility.yul\":34830:34874   */\n      tag_732\n        /* \"#utility.yul\":34870:34873   */\n      dup4\n        /* \"#utility.yul\":34865:34868   */\n      dup4\n        /* \"#utility.yul\":34830:34874   */\n      tag_390\n      jump\t// in\n    tag_732:\n        /* \"#utility.yul\":34939:34957   */\n      0xffffffffffffffff\n        /* \"#utility.yul\":34931:34937   */\n      dup2\n        /* \"#utility.yul\":34928:34958   */\n      gt\n        /* \"#utility.yul\":34925:34981   */\n      iszero\n      tag_733\n      jumpi\n        /* \"#utility.yul\":34961:34979   */\n      tag_734\n      tag_202\n      jump\t// in\n    tag_734:\n        /* \"#utility.yul\":34925:34981   */\n    tag_733:\n        /* \"#utility.yul\":35005:35043   */\n      tag_735\n        /* \"#utility.yul\":35037:35041   */\n      dup3\n        /* \"#utility.yul\":35031:35042   */\n      sload\n        /* \"#utility.yul\":35005:35043   */\n      tag_164\n      jump\t// in\n    tag_735:\n        /* \"#utility.yul\":35090:35157   */\n      tag_736\n        /* \"#utility.yul\":35150:35156   */\n      dup3\n        /* \"#utility.yul\":35142:35148   */\n      dup3\n        /* \"#utility.yul\":35136:35140   */\n      dup6\n        /* \"#utility.yul\":35090:35157   */\n      tag_402\n      jump\t// in\n    tag_736:\n        /* \"#utility.yul\":35184:35185   */\n      0x00\n        /* \"#utility.yul\":35213:35215   */\n      0x1f\n        /* \"#utility.yul\":35205:35211   */\n      dup4\n        /* \"#utility.yul\":35202:35216   */\n      gt\n        /* \"#utility.yul\":35230:35231   */\n      0x01\n        /* \"#utility.yul\":35225:35857   */\n      dup2\n      eq\n      tag_738\n      jumpi\n        /* \"#utility.yul\":35901:35902   */\n      0x00\n        /* \"#utility.yul\":35918:35924   */\n      dup5\n        /* \"#utility.yul\":35915:35999   */\n      iszero\n      tag_739\n      jumpi\n        /* \"#utility.yul\":35974:35983   */\n      dup3\n        /* \"#utility.yul\":35969:35972   */\n      dup8\n        /* \"#utility.yul\":35965:35984   */\n      add\n        /* \"#utility.yul\":35952:35985   */\n      calldataload\n        /* \"#utility.yul\":35943:35985   */\n      swap1\n      pop\n        /* \"#utility.yul\":35915:35999   */\n    tag_739:\n        /* \"#utility.yul\":36025:36092   */\n      tag_740\n        /* \"#utility.yul\":36085:36091   */\n      dup6\n        /* \"#utility.yul\":36078:36083   */\n      dup3\n        /* \"#utility.yul\":36025:36092   */\n      tag_405\n      jump\t// in\n    tag_740:\n        /* \"#utility.yul\":36019:36023   */\n      dup7\n        /* \"#utility.yul\":36012:36093   */\n      sstore\n        /* \"#utility.yul\":35874:36103   */\n      pop\n        /* \"#utility.yul\":35195:36103   */\n      jump(tag_737)\n        /* \"#utility.yul\":35225:35857   */\n    tag_738:\n        /* \"#utility.yul\":35277:35281   */\n      0x1f\n        /* \"#utility.yul\":35273:35282   */\n      not\n        /* \"#utility.yul\":35265:35271   */\n      dup5\n        /* \"#utility.yul\":35261:35283   */\n      and\n        /* \"#utility.yul\":35311:35348   */\n      tag_741\n        /* \"#utility.yul\":35343:35347   */\n      dup7\n        /* \"#utility.yul\":35311:35348   */\n      tag_391\n      jump\t// in\n    tag_741:\n        /* \"#utility.yul\":35370:35371   */\n      0x00\n        /* \"#utility.yul\":35384:35599   */\n    tag_742:\n        /* \"#utility.yul\":35398:35405   */\n      dup3\n        /* \"#utility.yul\":35395:35396   */\n      dup2\n        /* \"#utility.yul\":35392:35406   */\n      lt\n        /* \"#utility.yul\":35384:35599   */\n      iszero\n      tag_744\n      jumpi\n        /* \"#utility.yul\":35484:35493   */\n      dup5\n        /* \"#utility.yul\":35479:35482   */\n      dup10\n        /* \"#utility.yul\":35475:35494   */\n      add\n        /* \"#utility.yul\":35462:35495   */\n      calldataload\n        /* \"#utility.yul\":35454:35460   */\n      dup3\n        /* \"#utility.yul\":35447:35496   */\n      sstore\n        /* \"#utility.yul\":35535:35536   */\n      0x01\n        /* \"#utility.yul\":35527:35533   */\n      dup3\n        /* \"#utility.yul\":35523:35537   */\n      add\n        /* \"#utility.yul\":35513:35537   */\n      swap2\n      pop\n        /* \"#utility.yul\":35582:35584   */\n      0x20\n        /* \"#utility.yul\":35571:35580   */\n      dup6\n        /* \"#utility.yul\":35567:35585   */\n      add\n        /* \"#utility.yul\":35554:35585   */\n      swap5\n      pop\n        /* \"#utility.yul\":35421:35425   */\n      0x20\n        /* \"#utility.yul\":35418:35419   */\n      dup2\n        /* \"#utility.yul\":35414:35426   */\n      add\n        /* \"#utility.yul\":35409:35426   */\n      swap1\n      pop\n        /* \"#utility.yul\":35384:35599   */\n      jump(tag_742)\n    tag_744:\n        /* \"#utility.yul\":35627:35633   */\n      dup7\n        /* \"#utility.yul\":35618:35625   */\n      dup4\n        /* \"#utility.yul\":35615:35634   */\n      lt\n        /* \"#utility.yul\":35612:35798   */\n      iszero\n      tag_745\n      jumpi\n        /* \"#utility.yul\":35692:35701   */\n      dup5\n        /* \"#utility.yul\":35687:35690   */\n      dup10\n        /* \"#utility.yul\":35683:35702   */\n      add\n        /* \"#utility.yul\":35670:35703   */\n      calldataload\n        /* \"#utility.yul\":35735:35783   */\n      tag_746\n        /* \"#utility.yul\":35777:35781   */\n      0x1f\n        /* \"#utility.yul\":35769:35775   */\n      dup10\n        /* \"#utility.yul\":35765:35782   */\n      and\n        /* \"#utility.yul\":35754:35763   */\n      dup3\n        /* \"#utility.yul\":35735:35783   */\n      tag_404\n      jump\t// in\n    tag_746:\n        /* \"#utility.yul\":35727:35733   */\n      dup4\n        /* \"#utility.yul\":35720:35784   */\n      sstore\n        /* \"#utility.yul\":35635:35798   */\n      pop\n        /* \"#utility.yul\":35612:35798   */\n    tag_745:\n        /* \"#utility.yul\":35844:35845   */\n      0x01\n        /* \"#utility.yul\":35840:35841   */\n      0x02\n        /* \"#utility.yul\":35832:35838   */\n      dup9\n        /* \"#utility.yul\":35828:35842   */\n      mul\n        /* \"#utility.yul\":35824:35846   */\n      add\n        /* \"#utility.yul\":35818:35822   */\n      dup9\n        /* \"#utility.yul\":35811:35847   */\n      sstore\n        /* \"#utility.yul\":35232:35857   */\n      pop\n      pop\n      pop\n        /* \"#utility.yul\":35195:36103   */\n    tag_737:\n      pop\n        /* \"#utility.yul\":34805:36109   */\n      pop\n      pop\n      pop\n        /* \"#utility.yul\":34706:36109   */\n      pop\n      pop\n      pop\n      jump\t// out\n        /* \"#utility.yul\":36115:36264   */\n    tag_406:\n        /* \"#utility.yul\":36164:36170   */\n      0x00\n        /* \"#utility.yul\":36198:36203   */\n      dup2\n        /* \"#utility.yul\":36192:36204   */\n      sload\n        /* \"#utility.yul\":36182:36204   */\n      swap1\n      pop\n        /* \"#utility.yul\":36224:36257   */\n      tag_748\n        /* \"#utility.yul\":36250:36256   */\n      dup2\n        /* \"#utility.yul\":36224:36257   */\n      tag_164\n      jump\t// in\n    tag_748:\n        /* \"#utility.yul\":36214:36257   */\n      swap1\n      pop\n        /* \"#utility.yul\":36115:36264   */\n      swap2\n      swap1\n      pop\n      jump\t// out\n        /* \"#utility.yul\":36270:37721   */\n    tag_251:\n        /* \"#utility.yul\":36381:36384   */\n      dup2\n        /* \"#utility.yul\":36375:36379   */\n      dup2\n        /* \"#utility.yul\":36372:36385   */\n      sub\n        /* \"#utility.yul\":36369:36395   */\n      tag_750\n      jumpi\n        /* \"#utility.yul\":36388:36393   */\n      pop\n      pop\n      jump(tag_749)\n        /* \"#utility.yul\":36369:36395   */\n    tag_750:\n        /* \"#utility.yul\":36419:36453   */\n      tag_751\n        /* \"#utility.yul\":36449:36452   */\n      dup3\n        /* \"#utility.yul\":36419:36453   */\n      tag_406\n      jump\t// in\n    tag_751:\n        /* \"#utility.yul\":36518:36536   */\n      0xffffffffffffffff\n        /* \"#utility.yul\":36510:36516   */\n      dup2\n        /* \"#utility.yul\":36507:36537   */\n      gt\n        /* \"#utility.yul\":36504:36560   */\n      iszero\n      tag_752\n      jumpi\n        /* \"#utility.yul\":36540:36558   */\n      tag_753\n      tag_202\n      jump\t// in\n    tag_753:\n        /* \"#utility.yul\":36504:36560   */\n    tag_752:\n        /* \"#utility.yul\":36584:36622   */\n      tag_754\n        /* \"#utility.yul\":36616:36620   */\n      dup3\n        /* \"#utility.yul\":36610:36621   */\n      sload\n        /* \"#utility.yul\":36584:36622   */\n      tag_164\n      jump\t// in\n    tag_754:\n        /* \"#utility.yul\":36669:36736   */\n      tag_755\n        /* \"#utility.yul\":36729:36735   */\n      dup3\n        /* \"#utility.yul\":36721:36727   */\n      dup3\n        /* \"#utility.yul\":36715:36719   */\n      dup6\n        /* \"#utility.yul\":36669:36736   */\n      tag_402\n      jump\t// in\n    tag_755:\n        /* \"#utility.yul\":36763:36764   */\n      0x00\n        /* \"#utility.yul\":36792:36794   */\n      0x1f\n        /* \"#utility.yul\":36784:36790   */\n      dup4\n        /* \"#utility.yul\":36781:36795   */\n      gt\n        /* \"#utility.yul\":36809:36810   */\n      0x01\n        /* \"#utility.yul\":36804:37476   */\n      dup2\n      eq\n      tag_757\n      jumpi\n        /* \"#utility.yul\":37520:37521   */\n      0x00\n        /* \"#utility.yul\":37537:37543   */\n      dup5\n        /* \"#utility.yul\":37534:37611   */\n      iszero\n      tag_758\n      jumpi\n        /* \"#utility.yul\":37586:37595   */\n      dup3\n        /* \"#utility.yul\":37581:37584   */\n      dup8\n        /* \"#utility.yul\":37577:37596   */\n      add\n        /* \"#utility.yul\":37571:37597   */\n      sload\n        /* \"#utility.yul\":37562:37597   */\n      swap1\n      pop\n        /* \"#utility.yul\":37534:37611   */\n    tag_758:\n        /* \"#utility.yul\":37637:37704   */\n      tag_759\n        /* \"#utility.yul\":37697:37703   */\n      dup6\n        /* \"#utility.yul\":37690:37695   */\n      dup3\n        /* \"#utility.yul\":37637:37704   */\n      tag_405\n      jump\t// in\n    tag_759:\n        /* \"#utility.yul\":37631:37635   */\n      dup7\n        /* \"#utility.yul\":37624:37705   */\n      sstore\n        /* \"#utility.yul\":37493:37715   */\n      pop\n        /* \"#utility.yul\":36774:37715   */\n      jump(tag_756)\n        /* \"#utility.yul\":36804:37476   */\n    tag_757:\n        /* \"#utility.yul\":36856:36860   */\n      0x1f\n        /* \"#utility.yul\":36852:36861   */\n      not\n        /* \"#utility.yul\":36844:36850   */\n      dup5\n        /* \"#utility.yul\":36840:36862   */\n      and\n        /* \"#utility.yul\":36882:36918   */\n      tag_760\n        /* \"#utility.yul\":36914:36917   */\n      dup8\n        /* \"#utility.yul\":36882:36918   */\n      tag_391\n      jump\t// in\n    tag_760:\n        /* \"#utility.yul\":36875:36918   */\n      swap7\n      pop\n        /* \"#utility.yul\":36945:36982   */\n      tag_761\n        /* \"#utility.yul\":36977:36981   */\n      dup7\n        /* \"#utility.yul\":36945:36982   */\n      tag_391\n      jump\t// in\n    tag_761:\n        /* \"#utility.yul\":37004:37005   */\n      0x00\n        /* \"#utility.yul\":37018:37225   */\n    tag_762:\n        /* \"#utility.yul\":37032:37039   */\n      dup3\n        /* \"#utility.yul\":37029:37030   */\n      dup2\n        /* \"#utility.yul\":37026:37040   */\n      lt\n        /* \"#utility.yul\":37018:37225   */\n      iszero\n      tag_764\n      jumpi\n        /* \"#utility.yul\":37111:37120   */\n      dup5\n        /* \"#utility.yul\":37106:37109   */\n      dup10\n        /* \"#utility.yul\":37102:37121   */\n      add\n        /* \"#utility.yul\":37096:37122   */\n      sload\n        /* \"#utility.yul\":37088:37094   */\n      dup3\n        /* \"#utility.yul\":37081:37123   */\n      sstore\n        /* \"#utility.yul\":37162:37163   */\n      0x01\n        /* \"#utility.yul\":37154:37160   */\n      dup3\n        /* \"#utility.yul\":37150:37164   */\n      add\n        /* \"#utility.yul\":37140:37164   */\n      swap2\n      pop\n        /* \"#utility.yul\":37209:37210   */\n      0x01\n        /* \"#utility.yul\":37198:37207   */\n      dup6\n        /* \"#utility.yul\":37194:37211   */\n      add\n        /* \"#utility.yul\":37181:37211   */\n      swap5\n      pop\n        /* \"#utility.yul\":37055:37059   */\n      0x20\n        /* \"#utility.yul\":37052:37053   */\n      dup2\n        /* \"#utility.yul\":37048:37060   */\n      add\n        /* \"#utility.yul\":37043:37060   */\n      swap1\n      pop\n        /* \"#utility.yul\":37018:37225   */\n      jump(tag_762)\n    tag_764:\n        /* \"#utility.yul\":37253:37259   */\n      dup7\n        /* \"#utility.yul\":37244:37251   */\n      dup4\n        /* \"#utility.yul\":37241:37260   */\n      lt\n        /* \"#utility.yul\":37238:37417   */\n      iszero\n      tag_765\n      jumpi\n        /* \"#utility.yul\":37311:37320   */\n      dup5\n        /* \"#utility.yul\":37306:37309   */\n      dup10\n        /* \"#utility.yul\":37302:37321   */\n      add\n        /* \"#utility.yul\":37296:37322   */\n      sload\n        /* \"#utility.yul\":37354:37402   */\n      tag_766\n        /* \"#utility.yul\":37396:37400   */\n      0x1f\n        /* \"#utility.yul\":37388:37394   */\n      dup10\n        /* \"#utility.yul\":37384:37401   */\n      and\n        /* \"#utility.yul\":37373:37382   */\n      dup3\n        /* \"#utility.yul\":37354:37402   */\n      tag_404\n      jump\t// in\n    tag_766:\n        /* \"#utility.yul\":37346:37352   */\n      dup4\n        /* \"#utility.yul\":37339:37403   */\n      sstore\n        /* \"#utility.yul\":37261:37417   */\n      pop\n        /* \"#utility.yul\":37238:37417   */\n    tag_765:\n        /* \"#utility.yul\":37463:37464   */\n      0x01\n        /* \"#utility.yul\":37459:37460   */\n      0x02\n        /* \"#utility.yul\":37451:37457   */\n      dup9\n        /* \"#utility.yul\":37447:37461   */\n      mul\n        /* \"#utility.yul\":37443:37465   */\n      add\n        /* \"#utility.yul\":37437:37441   */\n      dup9\n        /* \"#utility.yul\":37430:37466   */\n      sstore\n        /* \"#utility.yul\":36811:37476   */\n      pop\n      pop\n      pop\n        /* \"#utility.yul\":36774:37715   */\n    tag_756:\n      pop\n        /* \"#utility.yul\":36359:37721   */\n      pop\n      pop\n      pop\n        /* \"#utility.yul\":36270:37721   */\n      pop\n      pop\n    tag_749:\n      jump\t// out\n        /* \"#utility.yul\":37727:37889   */\n    tag_407:\n        /* \"#utility.yul\":37867:37881   */\n      0x4954454d20435245415445440000000000000000000000000000000000000000\n        /* \"#utility.yul\":37863:37864   */\n      0x00\n        /* \"#utility.yul\":37855:37861   */\n      dup3\n        /* \"#utility.yul\":37851:37865   */\n      add\n        /* \"#utility.yul\":37844:37882   */\n      mstore\n        /* \"#utility.yul\":37727:37889   */\n      pop\n      jump\t// out\n        /* \"#utility.yul\":37895:38261   */\n    tag_408:\n        /* \"#utility.yul\":38037:38040   */\n      0x00\n        /* \"#utility.yul\":38058:38125   */\n      tag_769\n        /* \"#utility.yul\":38122:38124   */\n      0x0c\n        /* \"#utility.yul\":38117:38120   */\n      dup4\n        /* \"#utility.yul\":38058:38125   */\n      tag_360\n      jump\t// in\n    tag_769:\n        /* \"#utility.yul\":38051:38125   */\n      swap2\n      pop\n        /* \"#utility.yul\":38134:38227   */\n      tag_770\n        /* \"#utility.yul\":38223:38226   */\n      dup3\n        /* \"#utility.yul\":38134:38227   */\n      tag_407\n      jump\t// in\n    tag_770:\n        /* \"#utility.yul\":38252:38254   */\n      0x20\n        /* \"#utility.yul\":38247:38250   */\n      dup3\n        /* \"#utility.yul\":38243:38255   */\n      add\n        /* \"#utility.yul\":38236:38255   */\n      swap1\n      pop\n        /* \"#utility.yul\":37895:38261   */\n      swap2\n      swap1\n      pop\n      jump\t// out\n        /* \"#utility.yul\":38267:38922   */\n    tag_258:\n        /* \"#utility.yul\":38497:38501   */\n      0x00\n        /* \"#utility.yul\":38535:38537   */\n      0x60\n        /* \"#utility.yul\":38524:38533   */\n      dup3\n        /* \"#utility.yul\":38520:38538   */\n      add\n        /* \"#utility.yul\":38512:38538   */\n      swap1\n      pop\n        /* \"#utility.yul\":38548:38619   */\n      tag_772\n        /* \"#utility.yul\":38616:38617   */\n      0x00\n        /* \"#utility.yul\":38605:38614   */\n      dup4\n        /* \"#utility.yul\":38601:38618   */\n      add\n        /* \"#utility.yul\":38592:38598   */\n      dup6\n        /* \"#utility.yul\":38548:38619   */\n      tag_345\n      jump\t// in\n    tag_772:\n        /* \"#utility.yul\":38666:38675   */\n      dup2\n        /* \"#utility.yul\":38660:38664   */\n      dup2\n        /* \"#utility.yul\":38656:38676   */\n      sub\n        /* \"#utility.yul\":38651:38653   */\n      0x20\n        /* \"#utility.yul\":38640:38649   */\n      dup4\n        /* \"#utility.yul\":38636:38654   */\n      add\n        /* \"#utility.yul\":38629:38677   */\n      mstore\n        /* \"#utility.yul\":38694:38825   */\n      tag_773\n        /* \"#utility.yul\":38820:38824   */\n      dup2\n        /* \"#utility.yul\":38694:38825   */\n      tag_408\n      jump\t// in\n    tag_773:\n        /* \"#utility.yul\":38686:38825   */\n      swap1\n      pop\n        /* \"#utility.yul\":38835:38915   */\n      tag_774\n        /* \"#utility.yul\":38911:38913   */\n      0x40\n        /* \"#utility.yul\":38900:38909   */\n      dup4\n        /* \"#utility.yul\":38896:38914   */\n      add\n        /* \"#utility.yul\":38887:38893   */\n      dup5\n        /* \"#utility.yul\":38835:38915   */\n      tag_370\n      jump\t// in\n    tag_774:\n        /* \"#utility.yul\":38267:38922   */\n      swap4\n      swap3\n      pop\n      pop\n      pop\n      jump\t// out\n        /* \"#utility.yul\":38928:39096   */\n    tag_409:\n        /* \"#utility.yul\":39068:39088   */\n      0x4974656d206e6f7420617661696c61626c650000000000000000000000000000\n        /* \"#utility.yul\":39064:39065   */\n      0x00\n        /* \"#utility.yul\":39056:39062   */\n      dup3\n        /* \"#utility.yul\":39052:39066   */\n      add\n        /* \"#utility.yul\":39045:39089   */\n      mstore\n        /* \"#utility.yul\":38928:39096   */\n      pop\n      jump\t// out\n        /* \"#utility.yul\":39102:39468   */\n    tag_410:\n        /* \"#utility.yul\":39244:39247   */\n      0x00\n        /* \"#utility.yul\":39265:39332   */\n      tag_777\n        /* \"#utility.yul\":39329:39331   */\n      0x12\n        /* \"#utility.yul\":39324:39327   */\n      dup4\n        /* \"#utility.yul\":39265:39332   */\n      tag_360\n      jump\t// in\n    tag_777:\n        /* \"#utility.yul\":39258:39332   */\n      swap2\n      pop\n        /* \"#utility.yul\":39341:39434   */\n      tag_778\n        /* \"#utility.yul\":39430:39433   */\n      dup3\n        /* \"#utility.yul\":39341:39434   */\n      tag_409\n      jump\t// in\n    tag_778:\n        /* \"#utility.yul\":39459:39461   */\n      0x20\n        /* \"#utility.yul\":39454:39457   */\n      dup3\n        /* \"#utility.yul\":39450:39462   */\n      add\n        /* \"#utility.yul\":39443:39462   */\n      swap1\n      pop\n        /* \"#utility.yul\":39102:39468   */\n      swap2\n      swap1\n      pop\n      jump\t// out\n        /* \"#utility.yul\":39474:39893   */\n    tag_268:\n        /* \"#utility.yul\":39640:39644   */\n      0x00\n        /* \"#utility.yul\":39678:39680   */\n      0x20\n        /* \"#utility.yul\":39667:39676   */\n      dup3\n        /* \"#utility.yul\":39663:39681   */\n      add\n        /* \"#utility.yul\":39655:39681   */\n      swap1\n      pop\n        /* \"#utility.yul\":39727:39736   */\n      dup2\n        /* \"#utility.yul\":39721:39725   */\n      dup2\n        /* \"#utility.yul\":39717:39737   */\n      sub\n        /* \"#utility.yul\":39713:39714   */\n      0x00\n        /* \"#utility.yul\":39702:39711   */\n      dup4\n        /* \"#utility.yul\":39698:39715   */\n      add\n        /* \"#utility.yul\":39691:39738   */\n      mstore\n        /* \"#utility.yul\":39755:39886   */\n      tag_780\n        /* \"#utility.yul\":39881:39885   */\n      dup2\n        /* \"#utility.yul\":39755:39886   */\n      tag_410\n      jump\t// in\n    tag_780:\n        /* \"#utility.yul\":39747:39886   */\n      swap1\n      pop\n        /* \"#utility.yul\":39474:39893   */\n      swap2\n      swap1\n      pop\n      jump\t// out\n        /* \"#utility.yul\":39899:40073   */\n    tag_411:\n        /* \"#utility.yul\":40039:40065   */\n      0x50726f7669646572206e6f74206f6e20746865206c6973740000000000000000\n        /* \"#utility.yul\":40035:40036   */\n      0x00\n        /* \"#utility.yul\":40027:40033   */\n      dup3\n        /* \"#utility.yul\":40023:40037   */\n      add\n        /* \"#utility.yul\":40016:40066   */\n      mstore\n        /* \"#utility.yul\":39899:40073   */\n      pop\n      jump\t// out\n        /* \"#utility.yul\":40079:40445   */\n    tag_412:\n        /* \"#utility.yul\":40221:40224   */\n      0x00\n        /* \"#utility.yul\":40242:40309   */\n      tag_783\n        /* \"#utility.yul\":40306:40308   */\n      0x18\n        /* \"#utility.yul\":40301:40304   */\n      dup4\n        /* \"#utility.yul\":40242:40309   */\n      tag_360\n      jump\t// in\n    tag_783:\n        /* \"#utility.yul\":40235:40309   */\n      swap2\n      pop\n        /* \"#utility.yul\":40318:40411   */\n      tag_784\n        /* \"#utility.yul\":40407:40410   */\n      dup3\n        /* \"#utility.yul\":40318:40411   */\n      tag_411\n      jump\t// in\n    tag_784:\n        /* \"#utility.yul\":40436:40438   */\n      0x20\n        /* \"#utility.yul\":40431:40434   */\n      dup3\n        /* \"#utility.yul\":40427:40439   */\n      add\n        /* \"#utility.yul\":40420:40439   */\n      swap1\n      pop\n        /* \"#utility.yul\":40079:40445   */\n      swap2\n      swap1\n      pop\n      jump\t// out\n        /* \"#utility.yul\":40451:40870   */\n    tag_271:\n        /* \"#utility.yul\":40617:40621   */\n      0x00\n        /* \"#utility.yul\":40655:40657   */\n      0x20\n        /* \"#utility.yul\":40644:40653   */\n      dup3\n        /* \"#utility.yul\":40640:40658   */\n      add\n        /* \"#utility.yul\":40632:40658   */\n      swap1\n      pop\n        /* \"#utility.yul\":40704:40713   */\n      dup2\n        /* \"#utility.yul\":40698:40702   */\n      dup2\n        /* \"#utility.yul\":40694:40714   */\n      sub\n        /* \"#utility.yul\":40690:40691   */\n      0x00\n        /* \"#utility.yul\":40679:40688   */\n      dup4\n        /* \"#utility.yul\":40675:40692   */\n      add\n        /* \"#utility.yul\":40668:40715   */\n      mstore\n        /* \"#utility.yul\":40732:40863   */\n      tag_786\n        /* \"#utility.yul\":40858:40862   */\n      dup2\n        /* \"#utility.yul\":40732:40863   */\n      tag_412\n      jump\t// in\n    tag_786:\n        /* \"#utility.yul\":40724:40863   */\n      swap1\n      pop\n        /* \"#utility.yul\":40451:40870   */\n      swap2\n      swap1\n      pop\n      jump\t// out\n        /* \"#utility.yul\":40876:41034   */\n    tag_413:\n        /* \"#utility.yul\":41016:41026   */\n      0x415050524f564544000000000000000000000000000000000000000000000000\n        /* \"#utility.yul\":41012:41013   */\n      0x00\n        /* \"#utility.yul\":41004:41010   */\n      dup3\n        /* \"#utility.yul\":41000:41014   */\n      add\n        /* \"#utility.yul\":40993:41027   */\n      mstore\n        /* \"#utility.yul\":40876:41034   */\n      pop\n      jump\t// out\n        /* \"#utility.yul\":41040:41405   */\n    tag_414:\n        /* \"#utility.yul\":41182:41185   */\n      0x00\n        /* \"#utility.yul\":41203:41269   */\n      tag_789\n        /* \"#utility.yul\":41267:41268   */\n      0x08\n        /* \"#utility.yul\":41262:41265   */\n      dup4\n        /* \"#utility.yul\":41203:41269   */\n      tag_360\n      jump\t// in\n    tag_789:\n        /* \"#utility.yul\":41196:41269   */\n      swap2\n      pop\n        /* \"#utility.yul\":41278:41371   */\n      tag_790\n        /* \"#utility.yul\":41367:41370   */\n      dup3\n        /* \"#utility.yul\":41278:41371   */\n      tag_413\n      jump\t// in\n    tag_790:\n        /* \"#utility.yul\":41396:41398   */\n      0x20\n        /* \"#utility.yul\":41391:41394   */\n      dup3\n        /* \"#utility.yul\":41387:41399   */\n      add\n        /* \"#utility.yul\":41380:41399   */\n      swap1\n      pop\n        /* \"#utility.yul\":41040:41405   */\n      swap2\n      swap1\n      pop\n      jump\t// out\n        /* \"#utility.yul\":41411:42066   */\n    tag_279:\n        /* \"#utility.yul\":41641:41645   */\n      0x00\n        /* \"#utility.yul\":41679:41681   */\n      0x60\n        /* \"#utility.yul\":41668:41677   */\n      dup3\n        /* \"#utility.yul\":41664:41682   */\n      add\n        /* \"#utility.yul\":41656:41682   */\n      swap1\n      pop\n        /* \"#utility.yul\":41692:41763   */\n      tag_792\n        /* \"#utility.yul\":41760:41761   */\n      0x00\n        /* \"#utility.yul\":41749:41758   */\n      dup4\n        /* \"#utility.yul\":41745:41762   */\n      add\n        /* \"#utility.yul\":41736:41742   */\n      dup6\n        /* \"#utility.yul\":41692:41763   */\n      tag_345\n      jump\t// in\n    tag_792:\n        /* \"#utility.yul\":41810:41819   */\n      dup2\n        /* \"#utility.yul\":41804:41808   */\n      dup2\n        /* \"#utility.yul\":41800:41820   */\n      sub\n        /* \"#utility.yul\":41795:41797   */\n      0x20\n        /* \"#utility.yul\":41784:41793   */\n      dup4\n        /* \"#utility.yul\":41780:41798   */\n      add\n        /* \"#utility.yul\":41773:41821   */\n      mstore\n        /* \"#utility.yul\":41838:41969   */\n      tag_793\n        /* \"#utility.yul\":41964:41968   */\n      dup2\n        /* \"#utility.yul\":41838:41969   */\n      tag_414\n      jump\t// in\n    tag_793:\n        /* \"#utility.yul\":41830:41969   */\n      swap1\n      pop\n        /* \"#utility.yul\":41979:42059   */\n      tag_794\n        /* \"#utility.yul\":42055:42057   */\n      0x40\n        /* \"#utility.yul\":42044:42053   */\n      dup4\n        /* \"#utility.yul\":42040:42058   */\n      add\n        /* \"#utility.yul\":42031:42037   */\n      dup5\n        /* \"#utility.yul\":41979:42059   */\n      tag_370\n      jump\t// in\n    tag_794:\n        /* \"#utility.yul\":41411:42066   */\n      swap4\n      swap3\n      pop\n      pop\n      pop\n      jump\t// out\n        /* \"#utility.yul\":42072:42239   */\n    tag_415:\n        /* \"#utility.yul\":42212:42231   */\n      0x4f776e6572206e6f7420616c6c6f776564000000000000000000000000000000\n        /* \"#utility.yul\":42208:42209   */\n      0x00\n        /* \"#utility.yul\":42200:42206   */\n      dup3\n        /* \"#utility.yul\":42196:42210   */\n      add\n        /* \"#utility.yul\":42189:42232   */\n      mstore\n        /* \"#utility.yul\":42072:42239   */\n      pop\n      jump\t// out\n        /* \"#utility.yul\":42245:42611   */\n    tag_416:\n        /* \"#utility.yul\":42387:42390   */\n      0x00\n        /* \"#utility.yul\":42408:42475   */\n      tag_797\n        /* \"#utility.yul\":42472:42474   */\n      0x11\n        /* \"#utility.yul\":42467:42470   */\n      dup4\n        /* \"#utility.yul\":42408:42475   */\n      tag_360\n      jump\t// in\n    tag_797:\n        /* \"#utility.yul\":42401:42475   */\n      swap2\n      pop\n        /* \"#utility.yul\":42484:42577   */\n      tag_798\n        /* \"#utility.yul\":42573:42576   */\n      dup3\n        /* \"#utility.yul\":42484:42577   */\n      tag_415\n      jump\t// in\n    tag_798:\n        /* \"#utility.yul\":42602:42604   */\n      0x20\n        /* \"#utility.yul\":42597:42600   */\n      dup3\n        /* \"#utility.yul\":42593:42605   */\n      add\n        /* \"#utility.yul\":42586:42605   */\n      swap1\n      pop\n        /* \"#utility.yul\":42245:42611   */\n      swap2\n      swap1\n      pop\n      jump\t// out\n        /* \"#utility.yul\":42617:43036   */\n    tag_283:\n        /* \"#utility.yul\":42783:42787   */\n      0x00\n        /* \"#utility.yul\":42821:42823   */\n      0x20\n        /* \"#utility.yul\":42810:42819   */\n      dup3\n        /* \"#utility.yul\":42806:42824   */\n      add\n        /* \"#utility.yul\":42798:42824   */\n      swap1\n      pop\n        /* \"#utility.yul\":42870:42879   */\n      dup2\n        /* \"#utility.yul\":42864:42868   */\n      dup2\n        /* \"#utility.yul\":42860:42880   */\n      sub\n        /* \"#utility.yul\":42856:42857   */\n      0x00\n        /* \"#utility.yul\":42845:42854   */\n      dup4\n        /* \"#utility.yul\":42841:42858   */\n      add\n        /* \"#utility.yul\":42834:42881   */\n      mstore\n        /* \"#utility.yul\":42898:43029   */\n      tag_800\n        /* \"#utility.yul\":43024:43028   */\n      dup2\n        /* \"#utility.yul\":42898:43029   */\n      tag_416\n      jump\t// in\n    tag_800:\n        /* \"#utility.yul\":42890:43029   */\n      swap1\n      pop\n        /* \"#utility.yul\":42617:43036   */\n      swap2\n      swap1\n      pop\n      jump\t// out\n        /* \"#utility.yul\":43042:43201   */\n    tag_417:\n        /* \"#utility.yul\":43182:43193   */\n      0x5245515545535445440000000000000000000000000000000000000000000000\n        /* \"#utility.yul\":43178:43179   */\n      0x00\n        /* \"#utility.yul\":43170:43176   */\n      dup3\n        /* \"#utility.yul\":43166:43180   */\n      add\n        /* \"#utility.yul\":43159:43194   */\n      mstore\n        /* \"#utility.yul\":43042:43201   */\n      pop\n      jump\t// out\n        /* \"#utility.yul\":43207:43572   */\n    tag_418:\n        /* \"#utility.yul\":43349:43352   */\n      0x00\n        /* \"#utility.yul\":43370:43436   */\n      tag_803\n        /* \"#utility.yul\":43434:43435   */\n      0x09\n        /* \"#utility.yul\":43429:43432   */\n      dup4\n        /* \"#utility.yul\":43370:43436   */\n      tag_360\n      jump\t// in\n    tag_803:\n        /* \"#utility.yul\":43363:43436   */\n      swap2\n      pop\n        /* \"#utility.yul\":43445:43538   */\n      tag_804\n        /* \"#utility.yul\":43534:43537   */\n      dup3\n        /* \"#utility.yul\":43445:43538   */\n      tag_417\n      jump\t// in\n    tag_804:\n        /* \"#utility.yul\":43563:43565   */\n      0x20\n        /* \"#utility.yul\":43558:43561   */\n      dup3\n        /* \"#utility.yul\":43554:43566   */\n      add\n        /* \"#utility.yul\":43547:43566   */\n      swap1\n      pop\n        /* \"#utility.yul\":43207:43572   */\n      swap2\n      swap1\n      pop\n      jump\t// out\n        /* \"#utility.yul\":43578:44233   */\n    tag_291:\n        /* \"#utility.yul\":43808:43812   */\n      0x00\n        /* \"#utility.yul\":43846:43848   */\n      0x60\n        /* \"#utility.yul\":43835:43844   */\n      dup3\n        /* \"#utility.yul\":43831:43849   */\n      add\n        /* \"#utility.yul\":43823:43849   */\n      swap1\n      pop\n        /* \"#utility.yul\":43859:43930   */\n      tag_806\n        /* \"#utility.yul\":43927:43928   */\n      0x00\n        /* \"#utility.yul\":43916:43925   */\n      dup4\n        /* \"#utility.yul\":43912:43929   */\n      add\n        /* \"#utility.yul\":43903:43909   */\n      dup6\n        /* \"#utility.yul\":43859:43930   */\n      tag_345\n      jump\t// in\n    tag_806:\n        /* \"#utility.yul\":43977:43986   */\n      dup2\n        /* \"#utility.yul\":43971:43975   */\n      dup2\n        /* \"#utility.yul\":43967:43987   */\n      sub\n        /* \"#utility.yul\":43962:43964   */\n      0x20\n        /* \"#utility.yul\":43951:43960   */\n      dup4\n        /* \"#utility.yul\":43947:43965   */\n      add\n        /* \"#utility.yul\":43940:43988   */\n      mstore\n        /* \"#utility.yul\":44005:44136   */\n      tag_807\n        /* \"#utility.yul\":44131:44135   */\n      dup2\n        /* \"#utility.yul\":44005:44136   */\n      tag_418\n      jump\t// in\n    tag_807:\n        /* \"#utility.yul\":43997:44136   */\n      swap1\n      pop\n        /* \"#utility.yul\":44146:44226   */\n      tag_808\n        /* \"#utility.yul\":44222:44224   */\n      0x40\n        /* \"#utility.yul\":44211:44220   */\n      dup4\n        /* \"#utility.yul\":44207:44225   */\n      add\n        /* \"#utility.yul\":44198:44204   */\n      dup5\n        /* \"#utility.yul\":44146:44226   */\n      tag_370\n      jump\t// in\n    tag_808:\n        /* \"#utility.yul\":43578:44233   */\n      swap4\n      swap3\n      pop\n      pop\n      pop\n      jump\t// out\n        /* \"#utility.yul\":44239:44416   */\n    tag_419:\n        /* \"#utility.yul\":44379:44408   */\n      0x5a65726f207769746864726177616c206e6f7420616c6c6f7765640000000000\n        /* \"#utility.yul\":44375:44376   */\n      0x00\n        /* \"#utility.yul\":44367:44373   */\n      dup3\n        /* \"#utility.yul\":44363:44377   */\n      add\n        /* \"#utility.yul\":44356:44409   */\n      mstore\n        /* \"#utility.yul\":44239:44416   */\n      pop\n      jump\t// out\n        /* \"#utility.yul\":44422:44788   */\n    tag_420:\n        /* \"#utility.yul\":44564:44567   */\n      0x00\n        /* \"#utility.yul\":44585:44652   */\n      tag_811\n        /* \"#utility.yul\":44649:44651   */\n      0x1b\n        /* \"#utility.yul\":44644:44647   */\n      dup4\n        /* \"#utility.yul\":44585:44652   */\n      tag_360\n      jump\t// in\n    tag_811:\n        /* \"#utility.yul\":44578:44652   */\n      swap2\n      pop\n        /* \"#utility.yul\":44661:44754   */\n      tag_812\n        /* \"#utility.yul\":44750:44753   */\n      dup3\n        /* \"#utility.yul\":44661:44754   */\n      tag_419\n      jump\t// in\n    tag_812:\n        /* \"#utility.yul\":44779:44781   */\n      0x20\n        /* \"#utility.yul\":44774:44777   */\n      dup3\n        /* \"#utility.yul\":44770:44782   */\n      add\n        /* \"#utility.yul\":44763:44782   */\n      swap1\n      pop\n        /* \"#utility.yul\":44422:44788   */\n      swap2\n      swap1\n      pop\n      jump\t// out\n        /* \"#utility.yul\":44794:45213   */\n    tag_298:\n        /* \"#utility.yul\":44960:44964   */\n      0x00\n        /* \"#utility.yul\":44998:45000   */\n      0x20\n        /* \"#utility.yul\":44987:44996   */\n      dup3\n        /* \"#utility.yul\":44983:45001   */\n      add\n        /* \"#utility.yul\":44975:45001   */\n      swap1\n      pop\n        /* \"#utility.yul\":45047:45056   */\n      dup2\n        /* \"#utility.yul\":45041:45045   */\n      dup2\n        /* \"#utility.yul\":45037:45057   */\n      sub\n        /* \"#utility.yul\":45033:45034   */\n      0x00\n        /* \"#utility.yul\":45022:45031   */\n      dup4\n        /* \"#utility.yul\":45018:45035   */\n      add\n        /* \"#utility.yul\":45011:45058   */\n      mstore\n        /* \"#utility.yul\":45075:45206   */\n      tag_814\n        /* \"#utility.yul\":45201:45205   */\n      dup2\n        /* \"#utility.yul\":45075:45206   */\n      tag_420\n      jump\t// in\n    tag_814:\n        /* \"#utility.yul\":45067:45206   */\n      swap1\n      pop\n        /* \"#utility.yul\":44794:45213   */\n      swap2\n      swap1\n      pop\n      jump\t// out\n        /* \"#utility.yul\":45219:45379   */\n    tag_421:\n        /* \"#utility.yul\":45359:45371   */\n      0x5749544844524157454400000000000000000000000000000000000000000000\n        /* \"#utility.yul\":45355:45356   */\n      0x00\n        /* \"#utility.yul\":45347:45353   */\n      dup3\n        /* \"#utility.yul\":45343:45357   */\n      add\n        /* \"#utility.yul\":45336:45372   */\n      mstore\n        /* \"#utility.yul\":45219:45379   */\n      pop\n      jump\t// out\n        /* \"#utility.yul\":45385:45751   */\n    tag_422:\n        /* \"#utility.yul\":45527:45530   */\n      0x00\n        /* \"#utility.yul\":45548:45615   */\n      tag_817\n        /* \"#utility.yul\":45612:45614   */\n      0x0a\n        /* \"#utility.yul\":45607:45610   */\n      dup4\n        /* \"#utility.yul\":45548:45615   */\n      tag_360\n      jump\t// in\n    tag_817:\n        /* \"#utility.yul\":45541:45615   */\n      swap2\n      pop\n        /* \"#utility.yul\":45624:45717   */\n      tag_818\n        /* \"#utility.yul\":45713:45716   */\n      dup3\n        /* \"#utility.yul\":45624:45717   */\n      tag_421\n      jump\t// in\n    tag_818:\n        /* \"#utility.yul\":45742:45744   */\n      0x20\n        /* \"#utility.yul\":45737:45740   */\n      dup3\n        /* \"#utility.yul\":45733:45745   */\n      add\n        /* \"#utility.yul\":45726:45745   */\n      swap1\n      pop\n        /* \"#utility.yul\":45385:45751   */\n      swap2\n      swap1\n      pop\n      jump\t// out\n        /* \"#utility.yul\":45757:46412   */\n    tag_302:\n        /* \"#utility.yul\":45987:45991   */\n      0x00\n        /* \"#utility.yul\":46025:46027   */\n      0x60\n        /* \"#utility.yul\":46014:46023   */\n      dup3\n        /* \"#utility.yul\":46010:46028   */\n      add\n        /* \"#utility.yul\":46002:46028   */\n      swap1\n      pop\n        /* \"#utility.yul\":46038:46109   */\n      tag_820\n        /* \"#utility.yul\":46106:46107   */\n      0x00\n        /* \"#utility.yul\":46095:46104   */\n      dup4\n        /* \"#utility.yul\":46091:46108   */\n      add\n        /* \"#utility.yul\":46082:46088   */\n      dup6\n        /* \"#utility.yul\":46038:46109   */\n      tag_345\n      jump\t// in\n    tag_820:\n        /* \"#utility.yul\":46156:46165   */\n      dup2\n        /* \"#utility.yul\":46150:46154   */\n      dup2\n        /* \"#utility.yul\":46146:46166   */\n      sub\n        /* \"#utility.yul\":46141:46143   */\n      0x20\n        /* \"#utility.yul\":46130:46139   */\n      dup4\n        /* \"#utility.yul\":46126:46144   */\n      add\n        /* \"#utility.yul\":46119:46167   */\n      mstore\n        /* \"#utility.yul\":46184:46315   */\n      tag_821\n        /* \"#utility.yul\":46310:46314   */\n      dup2\n        /* \"#utility.yul\":46184:46315   */\n      tag_422\n      jump\t// in\n    tag_821:\n        /* \"#utility.yul\":46176:46315   */\n      swap1\n      pop\n        /* \"#utility.yul\":46325:46405   */\n      tag_822\n        /* \"#utility.yul\":46401:46403   */\n      0x40\n        /* \"#utility.yul\":46390:46399   */\n      dup4\n        /* \"#utility.yul\":46386:46404   */\n      add\n        /* \"#utility.yul\":46377:46383   */\n      dup5\n        /* \"#utility.yul\":46325:46405   */\n      tag_370\n      jump\t// in\n    tag_822:\n        /* \"#utility.yul\":45757:46412   */\n      swap4\n      swap3\n      pop\n      pop\n      pop\n      jump\t// out\n        /* \"#utility.yul\":46418:46565   */\n    tag_423:\n        /* \"#utility.yul\":46519:46530   */\n      0x00\n        /* \"#utility.yul\":46556:46559   */\n      dup2\n        /* \"#utility.yul\":46541:46559   */\n      swap1\n      pop\n        /* \"#utility.yul\":46418:46565   */\n      swap3\n      swap2\n      pop\n      pop\n      jump\t// out\n        /* \"#utility.yul\":46571:46685   */\n    tag_424:\n      pop\n      jump\t// out\n        /* \"#utility.yul\":46691:47089   */\n    tag_425:\n        /* \"#utility.yul\":46850:46853   */\n      0x00\n        /* \"#utility.yul\":46871:46954   */\n      tag_826\n        /* \"#utility.yul\":46952:46953   */\n      0x00\n        /* \"#utility.yul\":46947:46950   */\n      dup4\n        /* \"#utility.yul\":46871:46954   */\n      tag_423\n      jump\t// in\n    tag_826:\n        /* \"#utility.yul\":46864:46954   */\n      swap2\n      pop\n        /* \"#utility.yul\":46963:47056   */\n      tag_827\n        /* \"#utility.yul\":47052:47055   */\n      dup3\n        /* \"#utility.yul\":46963:47056   */\n      tag_424\n      jump\t// in\n    tag_827:\n        /* \"#utility.yul\":47081:47082   */\n      0x00\n        /* \"#utility.yul\":47076:47079   */\n      dup3\n        /* \"#utility.yul\":47072:47083   */\n      add\n        /* \"#utility.yul\":47065:47083   */\n      swap1\n      pop\n        /* \"#utility.yul\":46691:47089   */\n      swap2\n      swap1\n      pop\n      jump\t// out\n        /* \"#utility.yul\":47095:47474   */\n    tag_305:\n        /* \"#utility.yul\":47279:47282   */\n      0x00\n        /* \"#utility.yul\":47301:47448   */\n      tag_829\n        /* \"#utility.yul\":47444:47447   */\n      dup3\n        /* \"#utility.yul\":47301:47448   */\n      tag_425\n      jump\t// in\n    tag_829:\n        /* \"#utility.yul\":47294:47448   */\n      swap2\n      pop\n        /* \"#utility.yul\":47465:47468   */\n      dup2\n        /* \"#utility.yul\":47458:47468   */\n      swap1\n      pop\n        /* \"#utility.yul\":47095:47474   */\n      swap2\n      swap1\n      pop\n      jump\t// out\n        /* \"#utility.yul\":47480:47644   */\n    tag_426:\n        /* \"#utility.yul\":47620:47636   */\n      0x5061796d656e74206661696c6564000000000000000000000000000000000000\n        /* \"#utility.yul\":47616:47617   */\n      0x00\n        /* \"#utility.yul\":47608:47614   */\n      dup3\n        /* \"#utility.yul\":47604:47618   */\n      add\n        /* \"#utility.yul\":47597:47637   */\n      mstore\n        /* \"#utility.yul\":47480:47644   */\n      pop\n      jump\t// out\n        /* \"#utility.yul\":47650:48016   */\n    tag_427:\n        /* \"#utility.yul\":47792:47795   */\n      0x00\n        /* \"#utility.yul\":47813:47880   */\n      tag_832\n        /* \"#utility.yul\":47877:47879   */\n      0x0e\n        /* \"#utility.yul\":47872:47875   */\n      dup4\n        /* \"#utility.yul\":47813:47880   */\n      tag_360\n      jump\t// in\n    tag_832:\n        /* \"#utility.yul\":47806:47880   */\n      swap2\n      pop\n        /* \"#utility.yul\":47889:47982   */\n      tag_833\n        /* \"#utility.yul\":47978:47981   */\n      dup3\n        /* \"#utility.yul\":47889:47982   */\n      tag_426\n      jump\t// in\n    tag_833:\n        /* \"#utility.yul\":48007:48009   */\n      0x20\n        /* \"#utility.yul\":48002:48005   */\n      dup3\n        /* \"#utility.yul\":47998:48010   */\n      add\n        /* \"#utility.yul\":47991:48010   */\n      swap1\n      pop\n        /* \"#utility.yul\":47650:48016   */\n      swap2\n      swap1\n      pop\n      jump\t// out\n        /* \"#utility.yul\":48022:48441   */\n    tag_311:\n        /* \"#utility.yul\":48188:48192   */\n      0x00\n        /* \"#utility.yul\":48226:48228   */\n      0x20\n        /* \"#utility.yul\":48215:48224   */\n      dup3\n        /* \"#utility.yul\":48211:48229   */\n      add\n        /* \"#utility.yul\":48203:48229   */\n      swap1\n      pop\n        /* \"#utility.yul\":48275:48284   */\n      dup2\n        /* \"#utility.yul\":48269:48273   */\n      dup2\n        /* \"#utility.yul\":48265:48285   */\n      sub\n        /* \"#utility.yul\":48261:48262   */\n      0x00\n        /* \"#utility.yul\":48250:48259   */\n      dup4\n        /* \"#utility.yul\":48246:48263   */\n      add\n        /* \"#utility.yul\":48239:48286   */\n      mstore\n        /* \"#utility.yul\":48303:48434   */\n      tag_835\n        /* \"#utility.yul\":48429:48433   */\n      dup2\n        /* \"#utility.yul\":48303:48434   */\n      tag_427\n      jump\t// in\n    tag_835:\n        /* \"#utility.yul\":48295:48434   */\n      swap1\n      pop\n        /* \"#utility.yul\":48022:48441   */\n      swap2\n      swap1\n      pop\n      jump\t// out\n\n    auxdata: 0xa26469706673582212202e6e0df6239bd6daa4fbf9ff55d3340076e8adf93d9cf618343fd05258b0cfa764736f6c63430008180033\n}\n",
				"bytecode": {
					"linkReferences": {},
					"object": "60806040525f6005555f6006555f6007553480156200001c575f80fd5b50604051620037ed380380620037ed8339818101604052810190620000429190620000e1565b60015f819055503360015f6101000a81548173ffffffffffffffffffffffffffffffffffffffff021916908373ffffffffffffffffffffffffffffffffffffffff1602179055505f6002819055505f600381905550806004819055505062000111565b5f80fd5b5f819050919050565b620000bd81620000a9565b8114620000c8575f80fd5b50565b5f81519050620000db81620000b2565b92915050565b5f60208284031215620000f957620000f8620000a5565b5b5f6200010884828501620000cb565b91505092915050565b6136ce806200011f5f395ff3fe60806040526004361061011e575f3560e01c8063618f0ea71161009f578063bc045df811610063578063bc045df81461041c578063c86d9da214610458578063c9958c4d14610482578063d62a4887146104ac578063f7c8d221146104e85761011e565b8063618f0ea71461030e5780636352211e146103385780636754cc28146103745780637216f123146103b05780638c551742146103ec5761011e565b80633a178d99116100e65780633a178d991461022a5780634028a0f114610266578063410d59cc146102905780634e47368b146102ba57806350f18cb7146102e45761011e565b806304ef07811461012257806310dd7a4c1461015e57806318059aad146101885780632799276d146101c45780633129e773146101ee575b5f80fd5b34801561012d575f80fd5b50610148600480360381019061014391906120a9565b610524565b60405161015591906120f6565b60405180910390f35b348015610169575f80fd5b5061017261087a565b60405161017f91906123e6565b60405180910390f35b348015610193575f80fd5b506101ae60048036038101906101a99190612406565b610ada565b6040516101bb91906120f6565b60405180910390f35b3480156101cf575f80fd5b506101d8610cf8565b6040516101e59190612440565b60405180910390f35b3480156101f9575f80fd5b50610214600480360381019061020f9190612406565b610cfe565b604051610221919061251b565b60405180910390f35b348015610235575f80fd5b50610250600480360381019061024b9190612406565b610ef2565b60405161025d9190612581565b60405180910390f35b348015610271575f80fd5b5061027a610f0f565b6040516102879190612440565b60405180910390f35b34801561029b575f80fd5b506102a4610f15565b6040516102b191906123e6565b60405180910390f35b3480156102c5575f80fd5b506102ce61118f565b6040516102db9190612440565b60405180910390f35b3480156102ef575f80fd5b506102f8611195565b6040516103059190612440565b60405180910390f35b348015610319575f80fd5b5061032261119b565b60405161032f91906125ba565b60405180910390f35b348015610343575f80fd5b5061035e60048036038101906103599190612406565b6111c0565b60405161036b91906125e2565b60405180910390f35b34801561037f575f80fd5b5061039a60048036038101906103959190612625565b6111f0565b6040516103a791906120f6565b60405180910390f35b3480156103bb575f80fd5b506103d660048036038101906103d19190612406565b61121a565b6040516103e391906120f6565b60405180910390f35b610406600480360381019061040191906126c4565b611444565b60405161041391906120f6565b60405180910390f35b348015610427575f80fd5b50610442600480360381019061043d9190612721565b6118cd565b60405161044f91906120f6565b60405180910390f35b348015610463575f80fd5b5061046c611bb6565b6040516104799190612440565b60405180910390f35b34801561048d575f80fd5b50610496611bbc565b6040516104a39190612440565b60405180910390f35b3480156104b7575f80fd5b506104d260048036038101906104cd9190612406565b611bc2565b6040516104df91906120f6565b60405180910390f35b3480156104f3575f80fd5b5061050e60048036038101906105099190612625565b611da1565b60405161051b91906120f6565b60405180910390f35b5f600b5f8481526020019081526020015f205f9054906101000a900473ffffffffffffffffffffffffffffffffffffffff1673ffffffffffffffffffffffffffffffffffffffff163373ffffffffffffffffffffffffffffffffffffffff16146105c3576040517f08c379a00000000000000000000000000000000000000000000000000000000081526004016105ba906127b9565b60405180910390fd5b60085f8481526020019081526020015f2060050160159054906101000a900460ff16610624576040517f08c379a000000000000000000000000000000000000000000000000000000000815260040161061b90612821565b60405180910390fd5b6005600681111561063857610637612210565b5b60085f8581526020019081526020015f2060050160149054906101000a900460ff16600681111561066c5761066b612210565b5b036106ac576040517f08c379a00000000000000000000000000000000000000000000000000000000081526004016106a3906128af565b60405180910390fd5b81156107e1575f62989680905061071560085f8681526020019081526020015f206005015f9054906101000a900473ffffffffffffffffffffffffffffffffffffffff168260085f8881526020019081526020015f206002015461071091906128fa565b611eff565b5060085f8581526020019081526020015f206002015460025f82825461073b91906128fa565b925050819055508060035f828254610753919061292d565b92505081905550600160085f8681526020019081526020015f2060050160166101000a81548160ff021916908315150217905550600360085f8681526020019081526020015f2060050160146101000a81548160ff021916908360068111156107bf576107be612210565b5b021790555060065f8154809291906107d690612960565b91905055505061081f565b600460085f8581526020019081526020015f2060050160146101000a81548160ff0219169083600681111561081957610818612210565b5b02179055505b3373ffffffffffffffffffffffffffffffffffffffff167f23ad0062ad47da0f27f5c07751751e4b60afc16bf6fe03a24266a01ec4897931846004604051610868929190612a00565b60405180910390a26001905092915050565b606060095f3373ffffffffffffffffffffffffffffffffffffffff1673ffffffffffffffffffffffffffffffffffffffff1681526020019081526020015f20805480602002602001604051908101604052809291908181526020015f905b82821015610ad1578382905f5260205f209060060201604051806101200160405290815f820154815260200160018201805461091390612a67565b80601f016020809104026020016040519081016040528092919081815260200182805461093f90612a67565b801561098a5780601f106109615761010080835404028352916020019161098a565b820191905f5260205f20905b81548152906001019060200180831161096d57829003601f168201915b505050505081526020016002820154815260200160038201548152602001600482015f9054906101000a900473ffffffffffffffffffffffffffffffffffffffff1673ffffffffffffffffffffffffffffffffffffffff1673ffffffffffffffffffffffffffffffffffffffff168152602001600582015f9054906101000a900473ffffffffffffffffffffffffffffffffffffffff1673ffffffffffffffffffffffffffffffffffffffff1673ffffffffffffffffffffffffffffffffffffffff1681526020016005820160149054906101000a900460ff166006811115610a7657610a75612210565b5b6006811115610a8857610a87612210565b5b81526020016005820160159054906101000a900460ff161515151581526020016005820160169054906101000a900460ff161515151581525050815260200190600101906108d8565b50505050905090565b5f60015f9054906101000a900473ffffffffffffffffffffffffffffffffffffffff1673ffffffffffffffffffffffffffffffffffffffff163373ffffffffffffffffffffffffffffffffffffffff1614610b6a576040517f08c379a0000000000000000000000000000000000000000000000000000000008152600401610b6190612ae1565b60405180910390fd5b60085f8381526020019081526020015f2060050160169054906101000a900460ff1615610bcc576040517f08c379a0000000000000000000000000000000000000000000000000000000008152600401610bc390612b49565b60405180910390fd5b610c1d60085f8481526020019081526020015f206004015f9054906101000a900473ffffffffffffffffffffffffffffffffffffffff1660085f8581526020019081526020015f2060020154611eff565b5060085f8381526020019081526020015f206002015460025f828254610c4391906128fa565b92505081905550600560085f8481526020019081526020015f2060050160146101000a81548160ff02191690836006811115610c8257610c81612210565b5b021790555060075f815480929190610c9990612960565b91905055503373ffffffffffffffffffffffffffffffffffffffff167f23ad0062ad47da0f27f5c07751751e4b60afc16bf6fe03a24266a01ec4897931836005604051610ce7929190612bb1565b60405180910390a260019050919050565b60055481565b610d06611fb3565b60085f8381526020019081526020015f20604051806101200160405290815f8201548152602001600182018054610d3c90612a67565b80601f0160208091040260200160405190810160405280929190818152602001828054610d6890612a67565b8015610db35780601f10610d8a57610100808354040283529160200191610db3565b820191905f5260205f20905b815481529060010190602001808311610d9657829003601f168201915b505050505081526020016002820154815260200160038201548152602001600482015f9054906101000a900473ffffffffffffffffffffffffffffffffffffffff1673ffffffffffffffffffffffffffffffffffffffff1673ffffffffffffffffffffffffffffffffffffffff168152602001600582015f9054906101000a900473ffffffffffffffffffffffffffffffffffffffff1673ffffffffffffffffffffffffffffffffffffffff1673ffffffffffffffffffffffffffffffffffffffff1681526020016005820160149054906101000a900460ff166006811115610e9f57610e9e612210565b5b6006811115610eb157610eb0612210565b5b81526020016005820160159054906101000a900460ff161515151581526020016005820160169054906101000a900460ff1615151515815250509050919050565b600c602052805f5260405f205f915054906101000a900460ff1681565b60065481565b606060055467ffffffffffffffff811115610f3357610f32612beb565b5b604051908082528060200260200182016040528015610f6c57816020015b610f59611fb3565b815260200190600190039081610f515790505b5090505f5b60055481101561118b5760085f8281526020019081526020015f20604051806101200160405290815f8201548152602001600182018054610fb190612a67565b80601f0160208091040260200160405190810160405280929190818152602001828054610fdd90612a67565b80156110285780601f10610fff57610100808354040283529160200191611028565b820191905f5260205f20905b81548152906001019060200180831161100b57829003601f168201915b505050505081526020016002820154815260200160038201548152602001600482015f9054906101000a900473ffffffffffffffffffffffffffffffffffffffff1673ffffffffffffffffffffffffffffffffffffffff1673ffffffffffffffffffffffffffffffffffffffff168152602001600582015f9054906101000a900473ffffffffffffffffffffffffffffffffffffffff1673ffffffffffffffffffffffffffffffffffffffff1673ffffffffffffffffffffffffffffffffffffffff1681526020016005820160149054906101000a900460ff16600681111561111457611113612210565b5b600681111561112657611125612210565b5b81526020016005820160159054906101000a900460ff161515151581526020016005820160169054906101000a900460ff16151515158152505082828151811061117357611172612c18565b5b60200260200101819052508080600101915050610f71565b5090565b60045481565b60035481565b60015f9054906101000a900473ffffffffffffffffffffffffffffffffffffffff1681565b600b602052805f5260405f205f915054906101000a900473ffffffffffffffffffffffffffffffffffffffff1681565b600a602052815f5260405f20602052805f5260405f205f915091509054906101000a900460ff1681565b5f60085f8381526020019081526020015f206005015f9054906101000a900473ffffffffffffffffffffffffffffffffffffffff1673ffffffffffffffffffffffffffffffffffffffff163373ffffffffffffffffffffffffffffffffffffffff16146112bc576040517f08c379a00000000000000000000000000000000000000000000000000000000081526004016112b390612c8f565b60405180910390fd5b60085f8381526020019081526020015f2060050160159054906101000a900460ff161561131e576040517f08c379a000000000000000000000000000000000000000000000000000000000815260040161131590612b49565b60405180910390fd5b60085f8381526020019081526020015f2060050160169054906101000a900460ff1615611380576040517f08c379a000000000000000000000000000000000000000000000000000000000815260040161137790612cf7565b60405180910390fd5b600160085f8481526020019081526020015f2060050160156101000a81548160ff021916908315150217905550600260085f8481526020019081526020015f2060050160146101000a81548160ff021916908360068111156113e5576113e4612210565b5b02179055503373ffffffffffffffffffffffffffffffffffffffff167f23ad0062ad47da0f27f5c07751751e4b60afc16bf6fe03a24266a01ec4897931836002604051611433929190612d5f565b60405180910390a260019050919050565b5f80848490501161148a576040517f08c379a000000000000000000000000000000000000000000000000000000000815260040161148190612de3565b60405180910390fd5b5f82116114cc576040517f08c379a00000000000000000000000000000000000000000000000000000000081526004016114c390612e4b565b60405180910390fd5b8134101561150f576040517f08c379a000000000000000000000000000000000000000000000000000000000815260040161150690612eb3565b60405180910390fd5b5f60055f81548092919061152290612960565b9190505590505f60085f8381526020019081526020015f20905081815f01819055508585826001019182611557929190613078565b5083816002018190555042816003018190555033816004015f6101000a81548173ffffffffffffffffffffffffffffffffffffffff021916908373ffffffffffffffffffffffffffffffffffffffff1602179055505f8160050160146101000a81548160ff021916908360068111156115d3576115d2612210565b5b021790555060095f3373ffffffffffffffffffffffffffffffffffffffff1673ffffffffffffffffffffffffffffffffffffffff1681526020019081526020015f2081908060018154018082558091505060019003905f5260205f2090600602015f909190919091505f820154815f015560018201816001019081611658919061315a565b506002820154816002015560038201548160030155600482015f9054906101000a900473ffffffffffffffffffffffffffffffffffffffff16816004015f6101000a81548173ffffffffffffffffffffffffffffffffffffffff021916908373ffffffffffffffffffffffffffffffffffffffff160217905550600582015f9054906101000a900473ffffffffffffffffffffffffffffffffffffffff16816005015f6101000a81548173ffffffffffffffffffffffffffffffffffffffff021916908373ffffffffffffffffffffffffffffffffffffffff1602179055506005820160149054906101000a900460ff168160050160146101000a81548160ff0219169083600681111561176f5761176e612210565b5b02179055506005820160159054906101000a900460ff168160050160156101000a81548160ff0219169083151502179055506005820160169054906101000a900460ff168160050160166101000a81548160ff021916908315150217905550505033600b5f8481526020019081526020015f205f6101000a81548173ffffffffffffffffffffffffffffffffffffffff021916908373ffffffffffffffffffffffffffffffffffffffff1602179055506001600c5f8481526020019081526020015f205f6101000a81548160ff0219169083600181111561185357611852612210565b5b02179055508360025f828254611869919061292d565b925050819055503373ffffffffffffffffffffffffffffffffffffffff167f23ad0062ad47da0f27f5c07751751e4b60afc16bf6fe03a24266a01ec4897931835f6040516118b8929190613289565b60405180910390a26001925050509392505050565b5f600b5f8481526020019081526020015f205f9054906101000a900473ffffffffffffffffffffffffffffffffffffffff1673ffffffffffffffffffffffffffffffffffffffff163373ffffffffffffffffffffffffffffffffffffffff161461196c576040517f08c379a0000000000000000000000000000000000000000000000000000000008152600401611963906127b9565b60405180910390fd5b60018081111561197f5761197e612210565b5b600c5f8581526020019081526020015f205f9054906101000a900460ff1660018111156119af576119ae612210565b5b146119ef576040517f08c379a00000000000000000000000000000000000000000000000000000000081526004016119e69061330d565b60405180910390fd5b600a5f8373ffffffffffffffffffffffffffffffffffffffff1673ffffffffffffffffffffffffffffffffffffffff1681526020019081526020015f205f8481526020019081526020015f205f9054906101000a900460ff16611a87576040517f08c379a0000000000000000000000000000000000000000000000000000000008152600401611a7e90613375565b60405180910390fd5b5f6001811115611a9a57611a99612210565b5b600c5f8581526020019081526020015f205f9054906101000a900460ff166001811115611aca57611ac9612210565b5b5050600160085f8581526020019081526020015f2060050160146101000a81548160ff02191690836006811115611b0457611b03612210565b5b02179055508160085f8581526020019081526020015f206005015f6101000a81548173ffffffffffffffffffffffffffffffffffffffff021916908373ffffffffffffffffffffffffffffffffffffffff1602179055503373ffffffffffffffffffffffffffffffffffffffff167f23ad0062ad47da0f27f5c07751751e4b60afc16bf6fe03a24266a01ec4897931846001604051611ba49291906133dd565b60405180910390a26001905092915050565b60025481565b60075481565b5f600b5f8381526020019081526020015f205f9054906101000a900473ffffffffffffffffffffffffffffffffffffffff1673ffffffffffffffffffffffffffffffffffffffff163373ffffffffffffffffffffffffffffffffffffffff1603611c61576040517f08c379a0000000000000000000000000000000000000000000000000000000008152600401611c5890613461565b60405180910390fd5b600180811115611c7457611c73612210565b5b600c5f8481526020019081526020015f205f9054906101000a900460ff166001811115611ca457611ca3612210565b5b14611ce4576040517f08c379a0000000000000000000000000000000000000000000000000000000008152600401611cdb9061330d565b60405180910390fd5b6001600a5f3373ffffffffffffffffffffffffffffffffffffffff1673ffffffffffffffffffffffffffffffffffffffff1681526020019081526020015f205f8481526020019081526020015f205f6101000a81548160ff0219169083151502179055503373ffffffffffffffffffffffffffffffffffffffff167f23ad0062ad47da0f27f5c07751751e4b60afc16bf6fe03a24266a01ec4897931835f604051611d909291906134c9565b60405180910390a260019050919050565b5f60015f9054906101000a900473ffffffffffffffffffffffffffffffffffffffff1673ffffffffffffffffffffffffffffffffffffffff163373ffffffffffffffffffffffffffffffffffffffff1614611e31576040517f08c379a0000000000000000000000000000000000000000000000000000000008152600401611e2890612ae1565b60405180910390fd5b5f82118015611e4257506003548211155b611e81576040517f08c379a0000000000000000000000000000000000000000000000000000000008152600401611e789061354d565b60405180910390fd5b611e8b8383611eff565b508160035f828254611e9d91906128fa565b925050819055503373ffffffffffffffffffffffffffffffffffffffff167f23ad0062ad47da0f27f5c07751751e4b60afc16bf6fe03a24266a01ec4897931426006604051611eed9291906135b5565b60405180910390a26001905092915050565b5f808373ffffffffffffffffffffffffffffffffffffffff1683604051611f259061361c565b5f6040518083038185875af1925050503d805f8114611f5f576040519150601f19603f3d011682016040523d82523d5f602084013e611f64565b606091505b5050905080611fa8576040517f08c379a0000000000000000000000000000000000000000000000000000000008152600401611f9f9061367a565b60405180910390fd5b600191505092915050565b6040518061012001604052805f8152602001606081526020015f81526020015f81526020015f73ffffffffffffffffffffffffffffffffffffffff1681526020015f73ffffffffffffffffffffffffffffffffffffffff1681526020015f600681111561202357612022612210565b5b81526020015f151581526020015f151581525090565b5f80fd5b5f80fd5b5f819050919050565b61205381612041565b811461205d575f80fd5b50565b5f8135905061206e8161204a565b92915050565b5f8115159050919050565b61208881612074565b8114612092575f80fd5b50565b5f813590506120a38161207f565b92915050565b5f80604083850312156120bf576120be612039565b5b5f6120cc85828601612060565b92505060206120dd85828601612095565b9150509250929050565b6120f081612074565b82525050565b5f6020820190506121095f8301846120e7565b92915050565b5f81519050919050565b5f82825260208201905092915050565b5f819050602082019050919050565b61214181612041565b82525050565b5f81519050919050565b5f82825260208201905092915050565b5f5b8381101561217e578082015181840152602081019050612163565b5f8484015250505050565b5f601f19601f8301169050919050565b5f6121a382612147565b6121ad8185612151565b93506121bd818560208601612161565b6121c681612189565b840191505092915050565b5f73ffffffffffffffffffffffffffffffffffffffff82169050919050565b5f6121fa826121d1565b9050919050565b61220a816121f0565b82525050565b7f4e487b71000000000000000000000000000000000000000000000000000000005f52602160045260245ffd5b6007811061224e5761224d612210565b5b50565b5f81905061225e8261223d565b919050565b5f61226d82612251565b9050919050565b61227d81612263565b82525050565b61228c81612074565b82525050565b5f61012083015f8301516122a85f860182612138565b50602083015184820360208601526122c08282612199565b91505060408301516122d56040860182612138565b5060608301516122e86060860182612138565b5060808301516122fb6080860182612201565b5060a083015161230e60a0860182612201565b5060c083015161232160c0860182612274565b5060e083015161233460e0860182612283565b50610100830151612349610100860182612283565b508091505092915050565b5f61235f8383612292565b905092915050565b5f602082019050919050565b5f61237d8261210f565b6123878185612119565b93508360208202850161239985612129565b805f5b858110156123d457848403895281516123b58582612354565b94506123c083612367565b925060208a0199505060018101905061239c565b50829750879550505050505092915050565b5f6020820190508181035f8301526123fe8184612373565b905092915050565b5f6020828403121561241b5761241a612039565b5b5f61242884828501612060565b91505092915050565b61243a81612041565b82525050565b5f6020820190506124535f830184612431565b92915050565b5f61012083015f83015161246f5f860182612138565b50602083015184820360208601526124878282612199565b915050604083015161249c6040860182612138565b5060608301516124af6060860182612138565b5060808301516124c26080860182612201565b5060a08301516124d560a0860182612201565b5060c08301516124e860c0860182612274565b5060e08301516124fb60e0860182612283565b50610100830151612510610100860182612283565b508091505092915050565b5f6020820190508181035f8301526125338184612459565b905092915050565b6002811061254c5761254b612210565b5b50565b5f81905061255c8261253b565b919050565b5f61256b8261254f565b9050919050565b61257b81612561565b82525050565b5f6020820190506125945f830184612572565b92915050565b5f6125a4826121d1565b9050919050565b6125b48161259a565b82525050565b5f6020820190506125cd5f8301846125ab565b92915050565b6125dc816121f0565b82525050565b5f6020820190506125f55f8301846125d3565b92915050565b612604816121f0565b811461260e575f80fd5b50565b5f8135905061261f816125fb565b92915050565b5f806040838503121561263b5761263a612039565b5b5f61264885828601612611565b925050602061265985828601612060565b9150509250929050565b5f80fd5b5f80fd5b5f80fd5b5f8083601f84011261268457612683612663565b5b8235905067ffffffffffffffff8111156126a1576126a0612667565b5b6020830191508360018202830111156126bd576126bc61266b565b5b9250929050565b5f805f604084860312156126db576126da612039565b5b5f84013567ffffffffffffffff8111156126f8576126f761203d565b5b6127048682870161266f565b9350935050602061271786828701612060565b9150509250925092565b5f806040838503121561273757612736612039565b5b5f61274485828601612060565b925050602061275585828601612611565b9150509250929050565b5f82825260208201905092915050565b7f4f6e6c79206f776e657220616c6c6f77656400000000000000000000000000005f82015250565b5f6127a360128361275f565b91506127ae8261276f565b602082019050919050565b5f6020820190508181035f8301526127d081612797565b9050919050565b7f53657276696365206e6f742070726f76696465640000000000000000000000005f82015250565b5f61280b60148361275f565b9150612816826127d7565b602082019050919050565b5f6020820190508181035f830152612838816127ff565b9050919050565b7f416c726561647920726566756e6465642c206372656174652061206e657720495f8201527f74656d0000000000000000000000000000000000000000000000000000000000602082015250565b5f61289960238361275f565b91506128a48261283f565b604082019050919050565b5f6020820190508181035f8301526128c68161288d565b9050919050565b7f4e487b71000000000000000000000000000000000000000000000000000000005f52601160045260245ffd5b5f61290482612041565b915061290f83612041565b9250828203905081811115612927576129266128cd565b5b92915050565b5f61293782612041565b915061294283612041565b925082820190508082111561295a576129596128cd565b5b92915050565b5f61296a82612041565b91507fffffffffffffffffffffffffffffffffffffffffffffffffffffffffffffffff820361299c5761299b6128cd565b5b600182019050919050565b7f44495350555454454400000000000000000000000000000000000000000000005f82015250565b5f6129db60098361275f565b91506129e6826129a7565b602082019050919050565b6129fa81612263565b82525050565b5f606082019050612a135f830185612431565b8181036020830152612a24816129cf565b9050612a3360408301846129f1565b9392505050565b7f4e487b71000000000000000000000000000000000000000000000000000000005f52602260045260245ffd5b5f6002820490506001821680612a7e57607f821691505b602082108103612a9157612a90612a3a565b5b50919050565b7f4f6e6c7920457363726f7720616c6c6f776564000000000000000000000000005f82015250565b5f612acb60138361275f565b9150612ad682612a97565b602082019050919050565b5f6020820190508181035f830152612af881612abf565b9050919050565b7f5365727669636520616c72656164792070726f766964656400000000000000005f82015250565b5f612b3360188361275f565b9150612b3e82612aff565b602082019050919050565b5f6020820190508181035f830152612b6081612b27565b9050919050565b7f524546554e4445440000000000000000000000000000000000000000000000005f82015250565b5f612b9b60088361275f565b9150612ba682612b67565b602082019050919050565b5f606082019050612bc45f830185612431565b8181036020830152612bd581612b8f565b9050612be460408301846129f1565b9392505050565b7f4e487b71000000000000000000000000000000000000000000000000000000005f52604160045260245ffd5b7f4e487b71000000000000000000000000000000000000000000000000000000005f52603260045260245ffd5b7f53657276696365206e6f74206177617264656420746f20796f750000000000005f82015250565b5f612c79601a8361275f565b9150612c8482612c45565b602082019050919050565b5f6020820190508181035f830152612ca681612c6d565b9050919050565b7f5365727669636520616c726561647920636f6e6669726d6564000000000000005f82015250565b5f612ce160198361275f565b9150612cec82612cad565b602082019050919050565b5f6020820190508181035f830152612d0e81612cd5565b9050919050565b7f44454c495645525920494e5449415445440000000000000000000000000000005f82015250565b5f612d4960118361275f565b9150612d5482612d15565b602082019050919050565b5f606082019050612d725f830185612431565b8181036020830152612d8381612d3d565b9050612d9260408301846129f1565b9392505050565b7f507572706f73652063616e6e6f7420626520656d7074790000000000000000005f82015250565b5f612dcd60178361275f565b9150612dd882612d99565b602082019050919050565b5f6020820190508181035f830152612dfa81612dc1565b9050919050565b7f416d6f756e74206d7573742062652067726561746572207468616e20300000005f82015250565b5f612e35601d8361275f565b9150612e4082612e01565b602082019050919050565b5f6020820190508181035f830152612e6281612e29565b9050919050565b7f496e73756666696369656e742045746865722073656e740000000000000000005f82015250565b5f612e9d60178361275f565b9150612ea882612e69565b602082019050919050565b5f6020820190508181035f830152612eca81612e91565b9050919050565b5f82905092915050565b5f819050815f5260205f209050919050565b5f6020601f8301049050919050565b5f82821b905092915050565b5f60088302612f377fffffffffffffffffffffffffffffffffffffffffffffffffffffffffffffffff82612efc565b612f418683612efc565b95508019841693508086168417925050509392505050565b5f819050919050565b5f612f7c612f77612f7284612041565b612f59565b612041565b9050919050565b5f819050919050565b612f9583612f62565b612fa9612fa182612f83565b848454612f08565b825550505050565b5f90565b612fbd612fb1565b612fc8818484612f8c565b505050565b5b81811015612feb57612fe05f82612fb5565b600181019050612fce565b5050565b601f8211156130305761300181612edb565b61300a84612eed565b81016020851015613019578190505b61302d61302585612eed565b830182612fcd565b50505b505050565b5f82821c905092915050565b5f6130505f1984600802613035565b1980831691505092915050565b5f6130688383613041565b9150826002028217905092915050565b6130828383612ed1565b67ffffffffffffffff81111561309b5761309a612beb565b5b6130a58254612a67565b6130b0828285612fef565b5f601f8311600181146130dd575f84156130cb578287013590505b6130d5858261305d565b86555061313c565b601f1984166130eb86612edb565b5f5b82811015613112578489013582556001820191506020850194506020810190506130ed565b8683101561312f578489013561312b601f891682613041565b8355505b6001600288020188555050505b50505050505050565b5f8154905061315381612a67565b9050919050565b81810361316857505061323d565b61317182613145565b67ffffffffffffffff81111561318a57613189612beb565b5b6131948254612a67565b61319f828285612fef565b5f601f8311600181146131cc575f84156131ba578287015490505b6131c4858261305d565b865550613236565b601f1984166131da87612edb565b96506131e586612edb565b5f5b8281101561320c578489015482556001820191506001850194506020810190506131e7565b868310156132295784890154613225601f891682613041565b8355505b6001600288020188555050505b5050505050505b565b7f4954454d204352454154454400000000000000000000000000000000000000005f82015250565b5f613273600c8361275f565b915061327e8261323f565b602082019050919050565b5f60608201905061329c5f830185612431565b81810360208301526132ad81613267565b90506132bc60408301846129f1565b9392505050565b7f4974656d206e6f7420617661696c61626c6500000000000000000000000000005f82015250565b5f6132f760128361275f565b9150613302826132c3565b602082019050919050565b5f6020820190508181035f830152613324816132eb565b9050919050565b7f50726f7669646572206e6f74206f6e20746865206c69737400000000000000005f82015250565b5f61335f60188361275f565b915061336a8261332b565b602082019050919050565b5f6020820190508181035f83015261338c81613353565b9050919050565b7f415050524f5645440000000000000000000000000000000000000000000000005f82015250565b5f6133c760088361275f565b91506133d282613393565b602082019050919050565b5f6060820190506133f05f830185612431565b8181036020830152613401816133bb565b905061341060408301846129f1565b9392505050565b7f4f776e6572206e6f7420616c6c6f7765640000000000000000000000000000005f82015250565b5f61344b60118361275f565b915061345682613417565b602082019050919050565b5f6020820190508181035f8301526134788161343f565b9050919050565b7f52455155455354454400000000000000000000000000000000000000000000005f82015250565b5f6134b360098361275f565b91506134be8261347f565b602082019050919050565b5f6060820190506134dc5f830185612431565b81810360208301526134ed816134a7565b90506134fc60408301846129f1565b9392505050565b7f5a65726f207769746864726177616c206e6f7420616c6c6f77656400000000005f82015250565b5f613537601b8361275f565b915061354282613503565b602082019050919050565b5f6020820190508181035f8301526135648161352b565b9050919050565b7f57495448445241574544000000000000000000000000000000000000000000005f82015250565b5f61359f600a8361275f565b91506135aa8261356b565b602082019050919050565b5f6060820190506135c85f830185612431565b81810360208301526135d981613593565b90506135e860408301846129f1565b9392505050565b5f81905092915050565b50565b5f6136075f836135ef565b9150613612826135f9565b5f82019050919050565b5f613626826135fc565b9150819050919050565b7f5061796d656e74206661696c65640000000000000000000000000000000000005f82015250565b5f613664600e8361275f565b915061366f82613630565b602082019050919050565b5f6020820190508181035f83015261369181613658565b905091905056fea26469706673582212202e6e0df6239bd6daa4fbf9ff55d3340076e8adf93d9cf618343fd05258b0cfa764736f6c63430008180033",
					"opcodes": "PUSH1 0x80 PUSH1 0x40 MSTORE PUSH0 PUSH1 0x5 SSTORE PUSH0 PUSH1 0x6 SSTORE PUSH0 PUSH1 0x7 SSTORE CALLVALUE DUP1 ISZERO PUSH3 0x1C JUMPI PUSH0 DUP1 REVERT JUMPDEST POP PUSH1 0x40 MLOAD PUSH3 0x37ED CODESIZE SUB DUP1 PUSH3 0x37ED DUP4 CODECOPY DUP2 DUP2 ADD PUSH1 0x40 MSTORE DUP2 ADD SWAP1 PUSH3 0x42 SWAP2 SWAP1 PUSH3 0xE1 JUMP JUMPDEST PUSH1 0x1 PUSH0 DUP2 SWAP1 SSTORE POP CALLER PUSH1 0x1 PUSH0 PUSH2 0x100 EXP DUP2 SLOAD DUP2 PUSH20 0xFFFFFFFFFFFFFFFFFFFFFFFFFFFFFFFFFFFFFFFF MUL NOT AND SWAP1 DUP4 PUSH20 0xFFFFFFFFFFFFFFFFFFFFFFFFFFFFFFFFFFFFFFFF AND MUL OR SWAP1 SSTORE POP PUSH0 PUSH1 0x2 DUP2 SWAP1 SSTORE POP PUSH0 PUSH1 0x3 DUP2 SWAP1 SSTORE POP DUP1 PUSH1 0x4 DUP2 SWAP1 SSTORE POP POP PUSH3 0x111 JUMP JUMPDEST PUSH0 DUP1 REVERT JUMPDEST PUSH0 DUP2 SWAP1 POP SWAP2 SWAP1 POP JUMP JUMPDEST PUSH3 0xBD DUP2 PUSH3 0xA9 JUMP JUMPDEST DUP2 EQ PUSH3 0xC8 JUMPI PUSH0 DUP1 REVERT JUMPDEST POP JUMP JUMPDEST PUSH0 DUP2 MLOAD SWAP1 POP PUSH3 0xDB DUP2 PUSH3 0xB2 JUMP JUMPDEST SWAP3 SWAP2 POP POP JUMP JUMPDEST PUSH0 PUSH1 0x20 DUP3 DUP5 SUB SLT ISZERO PUSH3 0xF9 JUMPI PUSH3 0xF8 PUSH3 0xA5 JUMP JUMPDEST JUMPDEST PUSH0 PUSH3 0x108 DUP5 DUP3 DUP6 ADD PUSH3 0xCB JUMP JUMPDEST SWAP2 POP POP SWAP3 SWAP2 POP POP JUMP JUMPDEST PUSH2 0x36CE DUP1 PUSH3 0x11F PUSH0 CODECOPY PUSH0 RETURN INVALID PUSH1 0x80 PUSH1 0x40 MSTORE PUSH1 0x4 CALLDATASIZE LT PUSH2 0x11E JUMPI PUSH0 CALLDATALOAD PUSH1 0xE0 SHR DUP1 PUSH4 0x618F0EA7 GT PUSH2 0x9F JUMPI DUP1 PUSH4 0xBC045DF8 GT PUSH2 0x63 JUMPI DUP1 PUSH4 0xBC045DF8 EQ PUSH2 0x41C JUMPI DUP1 PUSH4 0xC86D9DA2 EQ PUSH2 0x458 JUMPI DUP1 PUSH4 0xC9958C4D EQ PUSH2 0x482 JUMPI DUP1 PUSH4 0xD62A4887 EQ PUSH2 0x4AC JUMPI DUP1 PUSH4 0xF7C8D221 EQ PUSH2 0x4E8 JUMPI PUSH2 0x11E JUMP JUMPDEST DUP1 PUSH4 0x618F0EA7 EQ PUSH2 0x30E JUMPI DUP1 PUSH4 0x6352211E EQ PUSH2 0x338 JUMPI DUP1 PUSH4 0x6754CC28 EQ PUSH2 0x374 JUMPI DUP1 PUSH4 0x7216F123 EQ PUSH2 0x3B0 JUMPI DUP1 PUSH4 0x8C551742 EQ PUSH2 0x3EC JUMPI PUSH2 0x11E JUMP JUMPDEST DUP1 PUSH4 0x3A178D99 GT PUSH2 0xE6 JUMPI DUP1 PUSH4 0x3A178D99 EQ PUSH2 0x22A JUMPI DUP1 PUSH4 0x4028A0F1 EQ PUSH2 0x266 JUMPI DUP1 PUSH4 0x410D59CC EQ PUSH2 0x290 JUMPI DUP1 PUSH4 0x4E47368B EQ PUSH2 0x2BA JUMPI DUP1 PUSH4 0x50F18CB7 EQ PUSH2 0x2E4 JUMPI PUSH2 0x11E JUMP JUMPDEST DUP1 PUSH4 0x4EF0781 EQ PUSH2 0x122 JUMPI DUP1 PUSH4 0x10DD7A4C EQ PUSH2 0x15E JUMPI DUP1 PUSH4 0x18059AAD EQ PUSH2 0x188 JUMPI DUP1 PUSH4 0x2799276D EQ PUSH2 0x1C4 JUMPI DUP1 PUSH4 0x3129E773 EQ PUSH2 0x1EE JUMPI JUMPDEST PUSH0 DUP1 REVERT JUMPDEST CALLVALUE DUP1 ISZERO PUSH2 0x12D JUMPI PUSH0 DUP1 REVERT JUMPDEST POP PUSH2 0x148 PUSH1 0x4 DUP1 CALLDATASIZE SUB DUP2 ADD SWAP1 PUSH2 0x143 SWAP2 SWAP1 PUSH2 0x20A9 JUMP JUMPDEST PUSH2 0x524 JUMP JUMPDEST PUSH1 0x40 MLOAD PUSH2 0x155 SWAP2 SWAP1 PUSH2 0x20F6 JUMP JUMPDEST PUSH1 0x40 MLOAD DUP1 SWAP2 SUB SWAP1 RETURN JUMPDEST CALLVALUE DUP1 ISZERO PUSH2 0x169 JUMPI PUSH0 DUP1 REVERT JUMPDEST POP PUSH2 0x172 PUSH2 0x87A JUMP JUMPDEST PUSH1 0x40 MLOAD PUSH2 0x17F SWAP2 SWAP1 PUSH2 0x23E6 JUMP JUMPDEST PUSH1 0x40 MLOAD DUP1 SWAP2 SUB SWAP1 RETURN JUMPDEST CALLVALUE DUP1 ISZERO PUSH2 0x193 JUMPI PUSH0 DUP1 REVERT JUMPDEST POP PUSH2 0x1AE PUSH1 0x4 DUP1 CALLDATASIZE SUB DUP2 ADD SWAP1 PUSH2 0x1A9 SWAP2 SWAP1 PUSH2 0x2406 JUMP JUMPDEST PUSH2 0xADA JUMP JUMPDEST PUSH1 0x40 MLOAD PUSH2 0x1BB SWAP2 SWAP1 PUSH2 0x20F6 JUMP JUMPDEST PUSH1 0x40 MLOAD DUP1 SWAP2 SUB SWAP1 RETURN JUMPDEST CALLVALUE DUP1 ISZERO PUSH2 0x1CF JUMPI PUSH0 DUP1 REVERT JUMPDEST POP PUSH2 0x1D8 PUSH2 0xCF8 JUMP JUMPDEST PUSH1 0x40 MLOAD PUSH2 0x1E5 SWAP2 SWAP1 PUSH2 0x2440 JUMP JUMPDEST PUSH1 0x40 MLOAD DUP1 SWAP2 SUB SWAP1 RETURN JUMPDEST CALLVALUE DUP1 ISZERO PUSH2 0x1F9 JUMPI PUSH0 DUP1 REVERT JUMPDEST POP PUSH2 0x214 PUSH1 0x4 DUP1 CALLDATASIZE SUB DUP2 ADD SWAP1 PUSH2 0x20F SWAP2 SWAP1 PUSH2 0x2406 JUMP JUMPDEST PUSH2 0xCFE JUMP JUMPDEST PUSH1 0x40 MLOAD PUSH2 0x221 SWAP2 SWAP1 PUSH2 0x251B JUMP JUMPDEST PUSH1 0x40 MLOAD DUP1 SWAP2 SUB SWAP1 RETURN JUMPDEST CALLVALUE DUP1 ISZERO PUSH2 0x235 JUMPI PUSH0 DUP1 REVERT JUMPDEST POP PUSH2 0x250 PUSH1 0x4 DUP1 CALLDATASIZE SUB DUP2 ADD SWAP1 PUSH2 0x24B SWAP2 SWAP1 PUSH2 0x2406 JUMP JUMPDEST PUSH2 0xEF2 JUMP JUMPDEST PUSH1 0x40 MLOAD PUSH2 0x25D SWAP2 SWAP1 PUSH2 0x2581 JUMP JUMPDEST PUSH1 0x40 MLOAD DUP1 SWAP2 SUB SWAP1 RETURN JUMPDEST CALLVALUE DUP1 ISZERO PUSH2 0x271 JUMPI PUSH0 DUP1 REVERT JUMPDEST POP PUSH2 0x27A PUSH2 0xF0F JUMP JUMPDEST PUSH1 0x40 MLOAD PUSH2 0x287 SWAP2 SWAP1 PUSH2 0x2440 JUMP JUMPDEST PUSH1 0x40 MLOAD DUP1 SWAP2 SUB SWAP1 RETURN JUMPDEST CALLVALUE DUP1 ISZERO PUSH2 0x29B JUMPI PUSH0 DUP1 REVERT JUMPDEST POP PUSH2 0x2A4 PUSH2 0xF15 JUMP JUMPDEST PUSH1 0x40 MLOAD PUSH2 0x2B1 SWAP2 SWAP1 PUSH2 0x23E6 JUMP JUMPDEST PUSH1 0x40 MLOAD DUP1 SWAP2 SUB SWAP1 RETURN JUMPDEST CALLVALUE DUP1 ISZERO PUSH2 0x2C5 JUMPI PUSH0 DUP1 REVERT JUMPDEST POP PUSH2 0x2CE PUSH2 0x118F JUMP JUMPDEST PUSH1 0x40 MLOAD PUSH2 0x2DB SWAP2 SWAP1 PUSH2 0x2440 JUMP JUMPDEST PUSH1 0x40 MLOAD DUP1 SWAP2 SUB SWAP1 RETURN JUMPDEST CALLVALUE DUP1 ISZERO PUSH2 0x2EF JUMPI PUSH0 DUP1 REVERT JUMPDEST POP PUSH2 0x2F8 PUSH2 0x1195 JUMP JUMPDEST PUSH1 0x40 MLOAD PUSH2 0x305 SWAP2 SWAP1 PUSH2 0x2440 JUMP JUMPDEST PUSH1 0x40 MLOAD DUP1 SWAP2 SUB SWAP1 RETURN JUMPDEST CALLVALUE DUP1 ISZERO PUSH2 0x319 JUMPI PUSH0 DUP1 REVERT JUMPDEST POP PUSH2 0x322 PUSH2 0x119B JUMP JUMPDEST PUSH1 0x40 MLOAD PUSH2 0x32F SWAP2 SWAP1 PUSH2 0x25BA JUMP JUMPDEST PUSH1 0x40 MLOAD DUP1 SWAP2 SUB SWAP1 RETURN JUMPDEST CALLVALUE DUP1 ISZERO PUSH2 0x343 JUMPI PUSH0 DUP1 REVERT JUMPDEST POP PUSH2 0x35E PUSH1 0x4 DUP1 CALLDATASIZE SUB DUP2 ADD SWAP1 PUSH2 0x359 SWAP2 SWAP1 PUSH2 0x2406 JUMP JUMPDEST PUSH2 0x11C0 JUMP JUMPDEST PUSH1 0x40 MLOAD PUSH2 0x36B SWAP2 SWAP1 PUSH2 0x25E2 JUMP JUMPDEST PUSH1 0x40 MLOAD DUP1 SWAP2 SUB SWAP1 RETURN JUMPDEST CALLVALUE DUP1 ISZERO PUSH2 0x37F JUMPI PUSH0 DUP1 REVERT JUMPDEST POP PUSH2 0x39A PUSH1 0x4 DUP1 CALLDATASIZE SUB DUP2 ADD SWAP1 PUSH2 0x395 SWAP2 SWAP1 PUSH2 0x2625 JUMP JUMPDEST PUSH2 0x11F0 JUMP JUMPDEST PUSH1 0x40 MLOAD PUSH2 0x3A7 SWAP2 SWAP1 PUSH2 0x20F6 JUMP JUMPDEST PUSH1 0x40 MLOAD DUP1 SWAP2 SUB SWAP1 RETURN JUMPDEST CALLVALUE DUP1 ISZERO PUSH2 0x3BB JUMPI PUSH0 DUP1 REVERT JUMPDEST POP PUSH2 0x3D6 PUSH1 0x4 DUP1 CALLDATASIZE SUB DUP2 ADD SWAP1 PUSH2 0x3D1 SWAP2 SWAP1 PUSH2 0x2406 JUMP JUMPDEST PUSH2 0x121A JUMP JUMPDEST PUSH1 0x40 MLOAD PUSH2 0x3E3 SWAP2 SWAP1 PUSH2 0x20F6 JUMP JUMPDEST PUSH1 0x40 MLOAD DUP1 SWAP2 SUB SWAP1 RETURN JUMPDEST PUSH2 0x406 PUSH1 0x4 DUP1 CALLDATASIZE SUB DUP2 ADD SWAP1 PUSH2 0x401 SWAP2 SWAP1 PUSH2 0x26C4 JUMP JUMPDEST PUSH2 0x1444 JUMP JUMPDEST PUSH1 0x40 MLOAD PUSH2 0x413 SWAP2 SWAP1 PUSH2 0x20F6 JUMP JUMPDEST PUSH1 0x40 MLOAD DUP1 SWAP2 SUB SWAP1 RETURN JUMPDEST CALLVALUE DUP1 ISZERO PUSH2 0x427 JUMPI PUSH0 DUP1 REVERT JUMPDEST POP PUSH2 0x442 PUSH1 0x4 DUP1 CALLDATASIZE SUB DUP2 ADD SWAP1 PUSH2 0x43D SWAP2 SWAP1 PUSH2 0x2721 JUMP JUMPDEST PUSH2 0x18CD JUMP JUMPDEST PUSH1 0x40 MLOAD PUSH2 0x44F SWAP2 SWAP1 PUSH2 0x20F6 JUMP JUMPDEST PUSH1 0x40 MLOAD DUP1 SWAP2 SUB SWAP1 RETURN JUMPDEST CALLVALUE DUP1 ISZERO PUSH2 0x463 JUMPI PUSH0 DUP1 REVERT JUMPDEST POP PUSH2 0x46C PUSH2 0x1BB6 JUMP JUMPDEST PUSH1 0x40 MLOAD PUSH2 0x479 SWAP2 SWAP1 PUSH2 0x2440 JUMP JUMPDEST PUSH1 0x40 MLOAD DUP1 SWAP2 SUB SWAP1 RETURN JUMPDEST CALLVALUE DUP1 ISZERO PUSH2 0x48D JUMPI PUSH0 DUP1 REVERT JUMPDEST POP PUSH2 0x496 PUSH2 0x1BBC JUMP JUMPDEST PUSH1 0x40 MLOAD PUSH2 0x4A3 SWAP2 SWAP1 PUSH2 0x2440 JUMP JUMPDEST PUSH1 0x40 MLOAD DUP1 SWAP2 SUB SWAP1 RETURN JUMPDEST CALLVALUE DUP1 ISZERO PUSH2 0x4B7 JUMPI PUSH0 DUP1 REVERT JUMPDEST POP PUSH2 0x4D2 PUSH1 0x4 DUP1 CALLDATASIZE SUB DUP2 ADD SWAP1 PUSH2 0x4CD SWAP2 SWAP1 PUSH2 0x2406 JUMP JUMPDEST PUSH2 0x1BC2 JUMP JUMPDEST PUSH1 0x40 MLOAD PUSH2 0x4DF SWAP2 SWAP1 PUSH2 0x20F6 JUMP JUMPDEST PUSH1 0x40 MLOAD DUP1 SWAP2 SUB SWAP1 RETURN JUMPDEST CALLVALUE DUP1 ISZERO PUSH2 0x4F3 JUMPI PUSH0 DUP1 REVERT JUMPDEST POP PUSH2 0x50E PUSH1 0x4 DUP1 CALLDATASIZE SUB DUP2 ADD SWAP1 PUSH2 0x509 SWAP2 SWAP1 PUSH2 0x2625 JUMP JUMPDEST PUSH2 0x1DA1 JUMP JUMPDEST PUSH1 0x40 MLOAD PUSH2 0x51B SWAP2 SWAP1 PUSH2 0x20F6 JUMP JUMPDEST PUSH1 0x40 MLOAD DUP1 SWAP2 SUB SWAP1 RETURN JUMPDEST PUSH0 PUSH1 0xB PUSH0 DUP5 DUP2 MSTORE PUSH1 0x20 ADD SWAP1 DUP2 MSTORE PUSH1 0x20 ADD PUSH0 KECCAK256 PUSH0 SWAP1 SLOAD SWAP1 PUSH2 0x100 EXP SWAP1 DIV PUSH20 0xFFFFFFFFFFFFFFFFFFFFFFFFFFFFFFFFFFFFFFFF AND PUSH20 0xFFFFFFFFFFFFFFFFFFFFFFFFFFFFFFFFFFFFFFFF AND CALLER PUSH20 0xFFFFFFFFFFFFFFFFFFFFFFFFFFFFFFFFFFFFFFFF AND EQ PUSH2 0x5C3 JUMPI PUSH1 0x40 MLOAD PUSH32 0x8C379A000000000000000000000000000000000000000000000000000000000 DUP2 MSTORE PUSH1 0x4 ADD PUSH2 0x5BA SWAP1 PUSH2 0x27B9 JUMP JUMPDEST PUSH1 0x40 MLOAD DUP1 SWAP2 SUB SWAP1 REVERT JUMPDEST PUSH1 0x8 PUSH0 DUP5 DUP2 MSTORE PUSH1 0x20 ADD SWAP1 DUP2 MSTORE PUSH1 0x20 ADD PUSH0 KECCAK256 PUSH1 0x5 ADD PUSH1 0x15 SWAP1 SLOAD SWAP1 PUSH2 0x100 EXP SWAP1 DIV PUSH1 0xFF AND PUSH2 0x624 JUMPI PUSH1 0x40 MLOAD PUSH32 0x8C379A000000000000000000000000000000000000000000000000000000000 DUP2 MSTORE PUSH1 0x4 ADD PUSH2 0x61B SWAP1 PUSH2 0x2821 JUMP JUMPDEST PUSH1 0x40 MLOAD DUP1 SWAP2 SUB SWAP1 REVERT JUMPDEST PUSH1 0x5 PUSH1 0x6 DUP2 GT ISZERO PUSH2 0x638 JUMPI PUSH2 0x637 PUSH2 0x2210 JUMP JUMPDEST JUMPDEST PUSH1 0x8 PUSH0 DUP6 DUP2 MSTORE PUSH1 0x20 ADD SWAP1 DUP2 MSTORE PUSH1 0x20 ADD PUSH0 KECCAK256 PUSH1 0x5 ADD PUSH1 0x14 SWAP1 SLOAD SWAP1 PUSH2 0x100 EXP SWAP1 DIV PUSH1 0xFF AND PUSH1 0x6 DUP2 GT ISZERO PUSH2 0x66C JUMPI PUSH2 0x66B PUSH2 0x2210 JUMP JUMPDEST JUMPDEST SUB PUSH2 0x6AC JUMPI PUSH1 0x40 MLOAD PUSH32 0x8C379A000000000000000000000000000000000000000000000000000000000 DUP2 MSTORE PUSH1 0x4 ADD PUSH2 0x6A3 SWAP1 PUSH2 0x28AF JUMP JUMPDEST PUSH1 0x40 MLOAD DUP1 SWAP2 SUB SWAP1 REVERT JUMPDEST DUP2 ISZERO PUSH2 0x7E1 JUMPI PUSH0 PUSH3 0x989680 SWAP1 POP PUSH2 0x715 PUSH1 0x8 PUSH0 DUP7 DUP2 MSTORE PUSH1 0x20 ADD SWAP1 DUP2 MSTORE PUSH1 0x20 ADD PUSH0 KECCAK256 PUSH1 0x5 ADD PUSH0 SWAP1 SLOAD SWAP1 PUSH2 0x100 EXP SWAP1 DIV PUSH20 0xFFFFFFFFFFFFFFFFFFFFFFFFFFFFFFFFFFFFFFFF AND DUP3 PUSH1 0x8 PUSH0 DUP9 DUP2 MSTORE PUSH1 0x20 ADD SWAP1 DUP2 MSTORE PUSH1 0x20 ADD PUSH0 KECCAK256 PUSH1 0x2 ADD SLOAD PUSH2 0x710 SWAP2 SWAP1 PUSH2 0x28FA JUMP JUMPDEST PUSH2 0x1EFF JUMP JUMPDEST POP PUSH1 0x8 PUSH0 DUP6 DUP2 MSTORE PUSH1 0x20 ADD SWAP1 DUP2 MSTORE PUSH1 0x20 ADD PUSH0 KECCAK256 PUSH1 0x2 ADD SLOAD PUSH1 0x2 PUSH0 DUP3 DUP3 SLOAD PUSH2 0x73B SWAP2 SWAP1 PUSH2 0x28FA JUMP JUMPDEST SWAP3 POP POP DUP2 SWAP1 SSTORE POP DUP1 PUSH1 0x3 PUSH0 DUP3 DUP3 SLOAD PUSH2 0x753 SWAP2 SWAP1 PUSH2 0x292D JUMP JUMPDEST SWAP3 POP POP DUP2 SWAP1 SSTORE POP PUSH1 0x1 PUSH1 0x8 PUSH0 DUP7 DUP2 MSTORE PUSH1 0x20 ADD SWAP1 DUP2 MSTORE PUSH1 0x20 ADD PUSH0 KECCAK256 PUSH1 0x5 ADD PUSH1 0x16 PUSH2 0x100 EXP DUP2 SLOAD DUP2 PUSH1 0xFF MUL NOT AND SWAP1 DUP4 ISZERO ISZERO MUL OR SWAP1 SSTORE POP PUSH1 0x3 PUSH1 0x8 PUSH0 DUP7 DUP2 MSTORE PUSH1 0x20 ADD SWAP1 DUP2 MSTORE PUSH1 0x20 ADD PUSH0 KECCAK256 PUSH1 0x5 ADD PUSH1 0x14 PUSH2 0x100 EXP DUP2 SLOAD DUP2 PUSH1 0xFF MUL NOT AND SWAP1 DUP4 PUSH1 0x6 DUP2 GT ISZERO PUSH2 0x7BF JUMPI PUSH2 0x7BE PUSH2 0x2210 JUMP JUMPDEST JUMPDEST MUL OR SWAP1 SSTORE POP PUSH1 0x6 PUSH0 DUP2 SLOAD DUP1 SWAP3 SWAP2 SWAP1 PUSH2 0x7D6 SWAP1 PUSH2 0x2960 JUMP JUMPDEST SWAP2 SWAP1 POP SSTORE POP POP PUSH2 0x81F JUMP JUMPDEST PUSH1 0x4 PUSH1 0x8 PUSH0 DUP6 DUP2 MSTORE PUSH1 0x20 ADD SWAP1 DUP2 MSTORE PUSH1 0x20 ADD PUSH0 KECCAK256 PUSH1 0x5 ADD PUSH1 0x14 PUSH2 0x100 EXP DUP2 SLOAD DUP2 PUSH1 0xFF MUL NOT AND SWAP1 DUP4 PUSH1 0x6 DUP2 GT ISZERO PUSH2 0x819 JUMPI PUSH2 0x818 PUSH2 0x2210 JUMP JUMPDEST JUMPDEST MUL OR SWAP1 SSTORE POP JUMPDEST CALLER PUSH20 0xFFFFFFFFFFFFFFFFFFFFFFFFFFFFFFFFFFFFFFFF AND PUSH32 0x23AD0062AD47DA0F27F5C07751751E4B60AFC16BF6FE03A24266A01EC4897931 DUP5 PUSH1 0x4 PUSH1 0x40 MLOAD PUSH2 0x868 SWAP3 SWAP2 SWAP1 PUSH2 0x2A00 JUMP JUMPDEST PUSH1 0x40 MLOAD DUP1 SWAP2 SUB SWAP1 LOG2 PUSH1 0x1 SWAP1 POP SWAP3 SWAP2 POP POP JUMP JUMPDEST PUSH1 0x60 PUSH1 0x9 PUSH0 CALLER PUSH20 0xFFFFFFFFFFFFFFFFFFFFFFFFFFFFFFFFFFFFFFFF AND PUSH20 0xFFFFFFFFFFFFFFFFFFFFFFFFFFFFFFFFFFFFFFFF AND DUP2 MSTORE PUSH1 0x20 ADD SWAP1 DUP2 MSTORE PUSH1 0x20 ADD PUSH0 KECCAK256 DUP1 SLOAD DUP1 PUSH1 0x20 MUL PUSH1 0x20 ADD PUSH1 0x40 MLOAD SWAP1 DUP2 ADD PUSH1 0x40 MSTORE DUP1 SWAP3 SWAP2 SWAP1 DUP2 DUP2 MSTORE PUSH1 0x20 ADD PUSH0 SWAP1 JUMPDEST DUP3 DUP3 LT ISZERO PUSH2 0xAD1 JUMPI DUP4 DUP3 SWAP1 PUSH0 MSTORE PUSH1 0x20 PUSH0 KECCAK256 SWAP1 PUSH1 0x6 MUL ADD PUSH1 0x40 MLOAD DUP1 PUSH2 0x120 ADD PUSH1 0x40 MSTORE SWAP1 DUP2 PUSH0 DUP3 ADD SLOAD DUP2 MSTORE PUSH1 0x20 ADD PUSH1 0x1 DUP3 ADD DUP1 SLOAD PUSH2 0x913 SWAP1 PUSH2 0x2A67 JUMP JUMPDEST DUP1 PUSH1 0x1F ADD PUSH1 0x20 DUP1 SWAP2 DIV MUL PUSH1 0x20 ADD PUSH1 0x40 MLOAD SWAP1 DUP2 ADD PUSH1 0x40 MSTORE DUP1 SWAP3 SWAP2 SWAP1 DUP2 DUP2 MSTORE PUSH1 0x20 ADD DUP3 DUP1 SLOAD PUSH2 0x93F SWAP1 PUSH2 0x2A67 JUMP JUMPDEST DUP1 ISZERO PUSH2 0x98A JUMPI DUP1 PUSH1 0x1F LT PUSH2 0x961 JUMPI PUSH2 0x100 DUP1 DUP4 SLOAD DIV MUL DUP4 MSTORE SWAP2 PUSH1 0x20 ADD SWAP2 PUSH2 0x98A JUMP JUMPDEST DUP3 ADD SWAP2 SWAP1 PUSH0 MSTORE PUSH1 0x20 PUSH0 KECCAK256 SWAP1 JUMPDEST DUP2 SLOAD DUP2 MSTORE SWAP1 PUSH1 0x1 ADD SWAP1 PUSH1 0x20 ADD DUP1 DUP4 GT PUSH2 0x96D JUMPI DUP3 SWAP1 SUB PUSH1 0x1F AND DUP3 ADD SWAP2 JUMPDEST POP POP POP POP POP DUP2 MSTORE PUSH1 0x20 ADD PUSH1 0x2 DUP3 ADD SLOAD DUP2 MSTORE PUSH1 0x20 ADD PUSH1 0x3 DUP3 ADD SLOAD DUP2 MSTORE PUSH1 0x20 ADD PUSH1 0x4 DUP3 ADD PUSH0 SWAP1 SLOAD SWAP1 PUSH2 0x100 EXP SWAP1 DIV PUSH20 0xFFFFFFFFFFFFFFFFFFFFFFFFFFFFFFFFFFFFFFFF AND PUSH20 0xFFFFFFFFFFFFFFFFFFFFFFFFFFFFFFFFFFFFFFFF AND PUSH20 0xFFFFFFFFFFFFFFFFFFFFFFFFFFFFFFFFFFFFFFFF AND DUP2 MSTORE PUSH1 0x20 ADD PUSH1 0x5 DUP3 ADD PUSH0 SWAP1 SLOAD SWAP1 PUSH2 0x100 EXP SWAP1 DIV PUSH20 0xFFFFFFFFFFFFFFFFFFFFFFFFFFFFFFFFFFFFFFFF AND PUSH20 0xFFFFFFFFFFFFFFFFFFFFFFFFFFFFFFFFFFFFFFFF AND PUSH20 0xFFFFFFFFFFFFFFFFFFFFFFFFFFFFFFFFFFFFFFFF AND DUP2 MSTORE PUSH1 0x20 ADD PUSH1 0x5 DUP3 ADD PUSH1 0x14 SWAP1 SLOAD SWAP1 PUSH2 0x100 EXP SWAP1 DIV PUSH1 0xFF AND PUSH1 0x6 DUP2 GT ISZERO PUSH2 0xA76 JUMPI PUSH2 0xA75 PUSH2 0x2210 JUMP JUMPDEST JUMPDEST PUSH1 0x6 DUP2 GT ISZERO PUSH2 0xA88 JUMPI PUSH2 0xA87 PUSH2 0x2210 JUMP JUMPDEST JUMPDEST DUP2 MSTORE PUSH1 0x20 ADD PUSH1 0x5 DUP3 ADD PUSH1 0x15 SWAP1 SLOAD SWAP1 PUSH2 0x100 EXP SWAP1 DIV PUSH1 0xFF AND ISZERO ISZERO ISZERO ISZERO DUP2 MSTORE PUSH1 0x20 ADD PUSH1 0x5 DUP3 ADD PUSH1 0x16 SWAP1 SLOAD SWAP1 PUSH2 0x100 EXP SWAP1 DIV PUSH1 0xFF AND ISZERO ISZERO ISZERO ISZERO DUP2 MSTORE POP POP DUP2 MSTORE PUSH1 0x20 ADD SWAP1 PUSH1 0x1 ADD SWAP1 PUSH2 0x8D8 JUMP JUMPDEST POP POP POP POP SWAP1 POP SWAP1 JUMP JUMPDEST PUSH0 PUSH1 0x1 PUSH0 SWAP1 SLOAD SWAP1 PUSH2 0x100 EXP SWAP1 DIV PUSH20 0xFFFFFFFFFFFFFFFFFFFFFFFFFFFFFFFFFFFFFFFF AND PUSH20 0xFFFFFFFFFFFFFFFFFFFFFFFFFFFFFFFFFFFFFFFF AND CALLER PUSH20 0xFFFFFFFFFFFFFFFFFFFFFFFFFFFFFFFFFFFFFFFF AND EQ PUSH2 0xB6A JUMPI PUSH1 0x40 MLOAD PUSH32 0x8C379A000000000000000000000000000000000000000000000000000000000 DUP2 MSTORE PUSH1 0x4 ADD PUSH2 0xB61 SWAP1 PUSH2 0x2AE1 JUMP JUMPDEST PUSH1 0x40 MLOAD DUP1 SWAP2 SUB SWAP1 REVERT JUMPDEST PUSH1 0x8 PUSH0 DUP4 DUP2 MSTORE PUSH1 0x20 ADD SWAP1 DUP2 MSTORE PUSH1 0x20 ADD PUSH0 KECCAK256 PUSH1 0x5 ADD PUSH1 0x16 SWAP1 SLOAD SWAP1 PUSH2 0x100 EXP SWAP1 DIV PUSH1 0xFF AND ISZERO PUSH2 0xBCC JUMPI PUSH1 0x40 MLOAD PUSH32 0x8C379A000000000000000000000000000000000000000000000000000000000 DUP2 MSTORE PUSH1 0x4 ADD PUSH2 0xBC3 SWAP1 PUSH2 0x2B49 JUMP JUMPDEST PUSH1 0x40 MLOAD DUP1 SWAP2 SUB SWAP1 REVERT JUMPDEST PUSH2 0xC1D PUSH1 0x8 PUSH0 DUP5 DUP2 MSTORE PUSH1 0x20 ADD SWAP1 DUP2 MSTORE PUSH1 0x20 ADD PUSH0 KECCAK256 PUSH1 0x4 ADD PUSH0 SWAP1 SLOAD SWAP1 PUSH2 0x100 EXP SWAP1 DIV PUSH20 0xFFFFFFFFFFFFFFFFFFFFFFFFFFFFFFFFFFFFFFFF AND PUSH1 0x8 PUSH0 DUP6 DUP2 MSTORE PUSH1 0x20 ADD SWAP1 DUP2 MSTORE PUSH1 0x20 ADD PUSH0 KECCAK256 PUSH1 0x2 ADD SLOAD PUSH2 0x1EFF JUMP JUMPDEST POP PUSH1 0x8 PUSH0 DUP4 DUP2 MSTORE PUSH1 0x20 ADD SWAP1 DUP2 MSTORE PUSH1 0x20 ADD PUSH0 KECCAK256 PUSH1 0x2 ADD SLOAD PUSH1 0x2 PUSH0 DUP3 DUP3 SLOAD PUSH2 0xC43 SWAP2 SWAP1 PUSH2 0x28FA JUMP JUMPDEST SWAP3 POP POP DUP2 SWAP1 SSTORE POP PUSH1 0x5 PUSH1 0x8 PUSH0 DUP5 DUP2 MSTORE PUSH1 0x20 ADD SWAP1 DUP2 MSTORE PUSH1 0x20 ADD PUSH0 KECCAK256 PUSH1 0x5 ADD PUSH1 0x14 PUSH2 0x100 EXP DUP2 SLOAD DUP2 PUSH1 0xFF MUL NOT AND SWAP1 DUP4 PUSH1 0x6 DUP2 GT ISZERO PUSH2 0xC82 JUMPI PUSH2 0xC81 PUSH2 0x2210 JUMP JUMPDEST JUMPDEST MUL OR SWAP1 SSTORE POP PUSH1 0x7 PUSH0 DUP2 SLOAD DUP1 SWAP3 SWAP2 SWAP1 PUSH2 0xC99 SWAP1 PUSH2 0x2960 JUMP JUMPDEST SWAP2 SWAP1 POP SSTORE POP CALLER PUSH20 0xFFFFFFFFFFFFFFFFFFFFFFFFFFFFFFFFFFFFFFFF AND PUSH32 0x23AD0062AD47DA0F27F5C07751751E4B60AFC16BF6FE03A24266A01EC4897931 DUP4 PUSH1 0x5 PUSH1 0x40 MLOAD PUSH2 0xCE7 SWAP3 SWAP2 SWAP1 PUSH2 0x2BB1 JUMP JUMPDEST PUSH1 0x40 MLOAD DUP1 SWAP2 SUB SWAP1 LOG2 PUSH1 0x1 SWAP1 POP SWAP2 SWAP1 POP JUMP JUMPDEST PUSH1 0x5 SLOAD DUP2 JUMP JUMPDEST PUSH2 0xD06 PUSH2 0x1FB3 JUMP JUMPDEST PUSH1 0x8 PUSH0 DUP4 DUP2 MSTORE PUSH1 0x20 ADD SWAP1 DUP2 MSTORE PUSH1 0x20 ADD PUSH0 KECCAK256 PUSH1 0x40 MLOAD DUP1 PUSH2 0x120 ADD PUSH1 0x40 MSTORE SWAP1 DUP2 PUSH0 DUP3 ADD SLOAD DUP2 MSTORE PUSH1 0x20 ADD PUSH1 0x1 DUP3 ADD DUP1 SLOAD PUSH2 0xD3C SWAP1 PUSH2 0x2A67 JUMP JUMPDEST DUP1 PUSH1 0x1F ADD PUSH1 0x20 DUP1 SWAP2 DIV MUL PUSH1 0x20 ADD PUSH1 0x40 MLOAD SWAP1 DUP2 ADD PUSH1 0x40 MSTORE DUP1 SWAP3 SWAP2 SWAP1 DUP2 DUP2 MSTORE PUSH1 0x20 ADD DUP3 DUP1 SLOAD PUSH2 0xD68 SWAP1 PUSH2 0x2A67 JUMP JUMPDEST DUP1 ISZERO PUSH2 0xDB3 JUMPI DUP1 PUSH1 0x1F LT PUSH2 0xD8A JUMPI PUSH2 0x100 DUP1 DUP4 SLOAD DIV MUL DUP4 MSTORE SWAP2 PUSH1 0x20 ADD SWAP2 PUSH2 0xDB3 JUMP JUMPDEST DUP3 ADD SWAP2 SWAP1 PUSH0 MSTORE PUSH1 0x20 PUSH0 KECCAK256 SWAP1 JUMPDEST DUP2 SLOAD DUP2 MSTORE SWAP1 PUSH1 0x1 ADD SWAP1 PUSH1 0x20 ADD DUP1 DUP4 GT PUSH2 0xD96 JUMPI DUP3 SWAP1 SUB PUSH1 0x1F AND DUP3 ADD SWAP2 JUMPDEST POP POP POP POP POP DUP2 MSTORE PUSH1 0x20 ADD PUSH1 0x2 DUP3 ADD SLOAD DUP2 MSTORE PUSH1 0x20 ADD PUSH1 0x3 DUP3 ADD SLOAD DUP2 MSTORE PUSH1 0x20 ADD PUSH1 0x4 DUP3 ADD PUSH0 SWAP1 SLOAD SWAP1 PUSH2 0x100 EXP SWAP1 DIV PUSH20 0xFFFFFFFFFFFFFFFFFFFFFFFFFFFFFFFFFFFFFFFF AND PUSH20 0xFFFFFFFFFFFFFFFFFFFFFFFFFFFFFFFFFFFFFFFF AND PUSH20 0xFFFFFFFFFFFFFFFFFFFFFFFFFFFFFFFFFFFFFFFF AND DUP2 MSTORE PUSH1 0x20 ADD PUSH1 0x5 DUP3 ADD PUSH0 SWAP1 SLOAD SWAP1 PUSH2 0x100 EXP SWAP1 DIV PUSH20 0xFFFFFFFFFFFFFFFFFFFFFFFFFFFFFFFFFFFFFFFF AND PUSH20 0xFFFFFFFFFFFFFFFFFFFFFFFFFFFFFFFFFFFFFFFF AND PUSH20 0xFFFFFFFFFFFFFFFFFFFFFFFFFFFFFFFFFFFFFFFF AND DUP2 MSTORE PUSH1 0x20 ADD PUSH1 0x5 DUP3 ADD PUSH1 0x14 SWAP1 SLOAD SWAP1 PUSH2 0x100 EXP SWAP1 DIV PUSH1 0xFF AND PUSH1 0x6 DUP2 GT ISZERO PUSH2 0xE9F JUMPI PUSH2 0xE9E PUSH2 0x2210 JUMP JUMPDEST JUMPDEST PUSH1 0x6 DUP2 GT ISZERO PUSH2 0xEB1 JUMPI PUSH2 0xEB0 PUSH2 0x2210 JUMP JUMPDEST JUMPDEST DUP2 MSTORE PUSH1 0x20 ADD PUSH1 0x5 DUP3 ADD PUSH1 0x15 SWAP1 SLOAD SWAP1 PUSH2 0x100 EXP SWAP1 DIV PUSH1 0xFF AND ISZERO ISZERO ISZERO ISZERO DUP2 MSTORE PUSH1 0x20 ADD PUSH1 0x5 DUP3 ADD PUSH1 0x16 SWAP1 SLOAD SWAP1 PUSH2 0x100 EXP SWAP1 DIV PUSH1 0xFF AND ISZERO ISZERO ISZERO ISZERO DUP2 MSTORE POP POP SWAP1 POP SWAP2 SWAP1 POP JUMP JUMPDEST PUSH1 0xC PUSH1 0x20 MSTORE DUP1 PUSH0 MSTORE PUSH1 0x40 PUSH0 KECCAK256 PUSH0 SWAP2 POP SLOAD SWAP1 PUSH2 0x100 EXP SWAP1 DIV PUSH1 0xFF AND DUP2 JUMP JUMPDEST PUSH1 0x6 SLOAD DUP2 JUMP JUMPDEST PUSH1 0x60 PUSH1 0x5 SLOAD PUSH8 0xFFFFFFFFFFFFFFFF DUP2 GT ISZERO PUSH2 0xF33 JUMPI PUSH2 0xF32 PUSH2 0x2BEB JUMP JUMPDEST JUMPDEST PUSH1 0x40 MLOAD SWAP1 DUP1 DUP3 MSTORE DUP1 PUSH1 0x20 MUL PUSH1 0x20 ADD DUP3 ADD PUSH1 0x40 MSTORE DUP1 ISZERO PUSH2 0xF6C JUMPI DUP2 PUSH1 0x20 ADD JUMPDEST PUSH2 0xF59 PUSH2 0x1FB3 JUMP JUMPDEST DUP2 MSTORE PUSH1 0x20 ADD SWAP1 PUSH1 0x1 SWAP1 SUB SWAP1 DUP2 PUSH2 0xF51 JUMPI SWAP1 POP JUMPDEST POP SWAP1 POP PUSH0 JUMPDEST PUSH1 0x5 SLOAD DUP2 LT ISZERO PUSH2 0x118B JUMPI PUSH1 0x8 PUSH0 DUP3 DUP2 MSTORE PUSH1 0x20 ADD SWAP1 DUP2 MSTORE PUSH1 0x20 ADD PUSH0 KECCAK256 PUSH1 0x40 MLOAD DUP1 PUSH2 0x120 ADD PUSH1 0x40 MSTORE SWAP1 DUP2 PUSH0 DUP3 ADD SLOAD DUP2 MSTORE PUSH1 0x20 ADD PUSH1 0x1 DUP3 ADD DUP1 SLOAD PUSH2 0xFB1 SWAP1 PUSH2 0x2A67 JUMP JUMPDEST DUP1 PUSH1 0x1F ADD PUSH1 0x20 DUP1 SWAP2 DIV MUL PUSH1 0x20 ADD PUSH1 0x40 MLOAD SWAP1 DUP2 ADD PUSH1 0x40 MSTORE DUP1 SWAP3 SWAP2 SWAP1 DUP2 DUP2 MSTORE PUSH1 0x20 ADD DUP3 DUP1 SLOAD PUSH2 0xFDD SWAP1 PUSH2 0x2A67 JUMP JUMPDEST DUP1 ISZERO PUSH2 0x1028 JUMPI DUP1 PUSH1 0x1F LT PUSH2 0xFFF JUMPI PUSH2 0x100 DUP1 DUP4 SLOAD DIV MUL DUP4 MSTORE SWAP2 PUSH1 0x20 ADD SWAP2 PUSH2 0x1028 JUMP JUMPDEST DUP3 ADD SWAP2 SWAP1 PUSH0 MSTORE PUSH1 0x20 PUSH0 KECCAK256 SWAP1 JUMPDEST DUP2 SLOAD DUP2 MSTORE SWAP1 PUSH1 0x1 ADD SWAP1 PUSH1 0x20 ADD DUP1 DUP4 GT PUSH2 0x100B JUMPI DUP3 SWAP1 SUB PUSH1 0x1F AND DUP3 ADD SWAP2 JUMPDEST POP POP POP POP POP DUP2 MSTORE PUSH1 0x20 ADD PUSH1 0x2 DUP3 ADD SLOAD DUP2 MSTORE PUSH1 0x20 ADD PUSH1 0x3 DUP3 ADD SLOAD DUP2 MSTORE PUSH1 0x20 ADD PUSH1 0x4 DUP3 ADD PUSH0 SWAP1 SLOAD SWAP1 PUSH2 0x100 EXP SWAP1 DIV PUSH20 0xFFFFFFFFFFFFFFFFFFFFFFFFFFFFFFFFFFFFFFFF AND PUSH20 0xFFFFFFFFFFFFFFFFFFFFFFFFFFFFFFFFFFFFFFFF AND PUSH20 0xFFFFFFFFFFFFFFFFFFFFFFFFFFFFFFFFFFFFFFFF AND DUP2 MSTORE PUSH1 0x20 ADD PUSH1 0x5 DUP3 ADD PUSH0 SWAP1 SLOAD SWAP1 PUSH2 0x100 EXP SWAP1 DIV PUSH20 0xFFFFFFFFFFFFFFFFFFFFFFFFFFFFFFFFFFFFFFFF AND PUSH20 0xFFFFFFFFFFFFFFFFFFFFFFFFFFFFFFFFFFFFFFFF AND PUSH20 0xFFFFFFFFFFFFFFFFFFFFFFFFFFFFFFFFFFFFFFFF AND DUP2 MSTORE PUSH1 0x20 ADD PUSH1 0x5 DUP3 ADD PUSH1 0x14 SWAP1 SLOAD SWAP1 PUSH2 0x100 EXP SWAP1 DIV PUSH1 0xFF AND PUSH1 0x6 DUP2 GT ISZERO PUSH2 0x1114 JUMPI PUSH2 0x1113 PUSH2 0x2210 JUMP JUMPDEST JUMPDEST PUSH1 0x6 DUP2 GT ISZERO PUSH2 0x1126 JUMPI PUSH2 0x1125 PUSH2 0x2210 JUMP JUMPDEST JUMPDEST DUP2 MSTORE PUSH1 0x20 ADD PUSH1 0x5 DUP3 ADD PUSH1 0x15 SWAP1 SLOAD SWAP1 PUSH2 0x100 EXP SWAP1 DIV PUSH1 0xFF AND ISZERO ISZERO ISZERO ISZERO DUP2 MSTORE PUSH1 0x20 ADD PUSH1 0x5 DUP3 ADD PUSH1 0x16 SWAP1 SLOAD SWAP1 PUSH2 0x100 EXP SWAP1 DIV PUSH1 0xFF AND ISZERO ISZERO ISZERO ISZERO DUP2 MSTORE POP POP DUP3 DUP3 DUP2 MLOAD DUP2 LT PUSH2 0x1173 JUMPI PUSH2 0x1172 PUSH2 0x2C18 JUMP JUMPDEST JUMPDEST PUSH1 0x20 MUL PUSH1 0x20 ADD ADD DUP2 SWAP1 MSTORE POP DUP1 DUP1 PUSH1 0x1 ADD SWAP2 POP POP PUSH2 0xF71 JUMP JUMPDEST POP SWAP1 JUMP JUMPDEST PUSH1 0x4 SLOAD DUP2 JUMP JUMPDEST PUSH1 0x3 SLOAD DUP2 JUMP JUMPDEST PUSH1 0x1 PUSH0 SWAP1 SLOAD SWAP1 PUSH2 0x100 EXP SWAP1 DIV PUSH20 0xFFFFFFFFFFFFFFFFFFFFFFFFFFFFFFFFFFFFFFFF AND DUP2 JUMP JUMPDEST PUSH1 0xB PUSH1 0x20 MSTORE DUP1 PUSH0 MSTORE PUSH1 0x40 PUSH0 KECCAK256 PUSH0 SWAP2 POP SLOAD SWAP1 PUSH2 0x100 EXP SWAP1 DIV PUSH20 0xFFFFFFFFFFFFFFFFFFFFFFFFFFFFFFFFFFFFFFFF AND DUP2 JUMP JUMPDEST PUSH1 0xA PUSH1 0x20 MSTORE DUP2 PUSH0 MSTORE PUSH1 0x40 PUSH0 KECCAK256 PUSH1 0x20 MSTORE DUP1 PUSH0 MSTORE PUSH1 0x40 PUSH0 KECCAK256 PUSH0 SWAP2 POP SWAP2 POP SWAP1 SLOAD SWAP1 PUSH2 0x100 EXP SWAP1 DIV PUSH1 0xFF AND DUP2 JUMP JUMPDEST PUSH0 PUSH1 0x8 PUSH0 DUP4 DUP2 MSTORE PUSH1 0x20 ADD SWAP1 DUP2 MSTORE PUSH1 0x20 ADD PUSH0 KECCAK256 PUSH1 0x5 ADD PUSH0 SWAP1 SLOAD SWAP1 PUSH2 0x100 EXP SWAP1 DIV PUSH20 0xFFFFFFFFFFFFFFFFFFFFFFFFFFFFFFFFFFFFFFFF AND PUSH20 0xFFFFFFFFFFFFFFFFFFFFFFFFFFFFFFFFFFFFFFFF AND CALLER PUSH20 0xFFFFFFFFFFFFFFFFFFFFFFFFFFFFFFFFFFFFFFFF AND EQ PUSH2 0x12BC JUMPI PUSH1 0x40 MLOAD PUSH32 0x8C379A000000000000000000000000000000000000000000000000000000000 DUP2 MSTORE PUSH1 0x4 ADD PUSH2 0x12B3 SWAP1 PUSH2 0x2C8F JUMP JUMPDEST PUSH1 0x40 MLOAD DUP1 SWAP2 SUB SWAP1 REVERT JUMPDEST PUSH1 0x8 PUSH0 DUP4 DUP2 MSTORE PUSH1 0x20 ADD SWAP1 DUP2 MSTORE PUSH1 0x20 ADD PUSH0 KECCAK256 PUSH1 0x5 ADD PUSH1 0x15 SWAP1 SLOAD SWAP1 PUSH2 0x100 EXP SWAP1 DIV PUSH1 0xFF AND ISZERO PUSH2 0x131E JUMPI PUSH1 0x40 MLOAD PUSH32 0x8C379A000000000000000000000000000000000000000000000000000000000 DUP2 MSTORE PUSH1 0x4 ADD PUSH2 0x1315 SWAP1 PUSH2 0x2B49 JUMP JUMPDEST PUSH1 0x40 MLOAD DUP1 SWAP2 SUB SWAP1 REVERT JUMPDEST PUSH1 0x8 PUSH0 DUP4 DUP2 MSTORE PUSH1 0x20 ADD SWAP1 DUP2 MSTORE PUSH1 0x20 ADD PUSH0 KECCAK256 PUSH1 0x5 ADD PUSH1 0x16 SWAP1 SLOAD SWAP1 PUSH2 0x100 EXP SWAP1 DIV PUSH1 0xFF AND ISZERO PUSH2 0x1380 JUMPI PUSH1 0x40 MLOAD PUSH32 0x8C379A000000000000000000000000000000000000000000000000000000000 DUP2 MSTORE PUSH1 0x4 ADD PUSH2 0x1377 SWAP1 PUSH2 0x2CF7 JUMP JUMPDEST PUSH1 0x40 MLOAD DUP1 SWAP2 SUB SWAP1 REVERT JUMPDEST PUSH1 0x1 PUSH1 0x8 PUSH0 DUP5 DUP2 MSTORE PUSH1 0x20 ADD SWAP1 DUP2 MSTORE PUSH1 0x20 ADD PUSH0 KECCAK256 PUSH1 0x5 ADD PUSH1 0x15 PUSH2 0x100 EXP DUP2 SLOAD DUP2 PUSH1 0xFF MUL NOT AND SWAP1 DUP4 ISZERO ISZERO MUL OR SWAP1 SSTORE POP PUSH1 0x2 PUSH1 0x8 PUSH0 DUP5 DUP2 MSTORE PUSH1 0x20 ADD SWAP1 DUP2 MSTORE PUSH1 0x20 ADD PUSH0 KECCAK256 PUSH1 0x5 ADD PUSH1 0x14 PUSH2 0x100 EXP DUP2 SLOAD DUP2 PUSH1 0xFF MUL NOT AND SWAP1 DUP4 PUSH1 0x6 DUP2 GT ISZERO PUSH2 0x13E5 JUMPI PUSH2 0x13E4 PUSH2 0x2210 JUMP JUMPDEST JUMPDEST MUL OR SWAP1 SSTORE POP CALLER PUSH20 0xFFFFFFFFFFFFFFFFFFFFFFFFFFFFFFFFFFFFFFFF AND PUSH32 0x23AD0062AD47DA0F27F5C07751751E4B60AFC16BF6FE03A24266A01EC4897931 DUP4 PUSH1 0x2 PUSH1 0x40 MLOAD PUSH2 0x1433 SWAP3 SWAP2 SWAP1 PUSH2 0x2D5F JUMP JUMPDEST PUSH1 0x40 MLOAD DUP1 SWAP2 SUB SWAP1 LOG2 PUSH1 0x1 SWAP1 POP SWAP2 SWAP1 POP JUMP JUMPDEST PUSH0 DUP1 DUP5 DUP5 SWAP1 POP GT PUSH2 0x148A JUMPI PUSH1 0x40 MLOAD PUSH32 0x8C379A000000000000000000000000000000000000000000000000000000000 DUP2 MSTORE PUSH1 0x4 ADD PUSH2 0x1481 SWAP1 PUSH2 0x2DE3 JUMP JUMPDEST PUSH1 0x40 MLOAD DUP1 SWAP2 SUB SWAP1 REVERT JUMPDEST PUSH0 DUP3 GT PUSH2 0x14CC JUMPI PUSH1 0x40 MLOAD PUSH32 0x8C379A000000000000000000000000000000000000000000000000000000000 DUP2 MSTORE PUSH1 0x4 ADD PUSH2 0x14C3 SWAP1 PUSH2 0x2E4B JUMP JUMPDEST PUSH1 0x40 MLOAD DUP1 SWAP2 SUB SWAP1 REVERT JUMPDEST DUP2 CALLVALUE LT ISZERO PUSH2 0x150F JUMPI PUSH1 0x40 MLOAD PUSH32 0x8C379A000000000000000000000000000000000000000000000000000000000 DUP2 MSTORE PUSH1 0x4 ADD PUSH2 0x1506 SWAP1 PUSH2 0x2EB3 JUMP JUMPDEST PUSH1 0x40 MLOAD DUP1 SWAP2 SUB SWAP1 REVERT JUMPDEST PUSH0 PUSH1 0x5 PUSH0 DUP2 SLOAD DUP1 SWAP3 SWAP2 SWAP1 PUSH2 0x1522 SWAP1 PUSH2 0x2960 JUMP JUMPDEST SWAP2 SWAP1 POP SSTORE SWAP1 POP PUSH0 PUSH1 0x8 PUSH0 DUP4 DUP2 MSTORE PUSH1 0x20 ADD SWAP1 DUP2 MSTORE PUSH1 0x20 ADD PUSH0 KECCAK256 SWAP1 POP DUP2 DUP2 PUSH0 ADD DUP2 SWAP1 SSTORE POP DUP6 DUP6 DUP3 PUSH1 0x1 ADD SWAP2 DUP3 PUSH2 0x1557 SWAP3 SWAP2 SWAP1 PUSH2 0x3078 JUMP JUMPDEST POP DUP4 DUP2 PUSH1 0x2 ADD DUP2 SWAP1 SSTORE POP TIMESTAMP DUP2 PUSH1 0x3 ADD DUP2 SWAP1 SSTORE POP CALLER DUP2 PUSH1 0x4 ADD PUSH0 PUSH2 0x100 EXP DUP2 SLOAD DUP2 PUSH20 0xFFFFFFFFFFFFFFFFFFFFFFFFFFFFFFFFFFFFFFFF MUL NOT AND SWAP1 DUP4 PUSH20 0xFFFFFFFFFFFFFFFFFFFFFFFFFFFFFFFFFFFFFFFF AND MUL OR SWAP1 SSTORE POP PUSH0 DUP2 PUSH1 0x5 ADD PUSH1 0x14 PUSH2 0x100 EXP DUP2 SLOAD DUP2 PUSH1 0xFF MUL NOT AND SWAP1 DUP4 PUSH1 0x6 DUP2 GT ISZERO PUSH2 0x15D3 JUMPI PUSH2 0x15D2 PUSH2 0x2210 JUMP JUMPDEST JUMPDEST MUL OR SWAP1 SSTORE POP PUSH1 0x9 PUSH0 CALLER PUSH20 0xFFFFFFFFFFFFFFFFFFFFFFFFFFFFFFFFFFFFFFFF AND PUSH20 0xFFFFFFFFFFFFFFFFFFFFFFFFFFFFFFFFFFFFFFFF AND DUP2 MSTORE PUSH1 0x20 ADD SWAP1 DUP2 MSTORE PUSH1 0x20 ADD PUSH0 KECCAK256 DUP2 SWAP1 DUP1 PUSH1 0x1 DUP2 SLOAD ADD DUP1 DUP3 SSTORE DUP1 SWAP2 POP POP PUSH1 0x1 SWAP1 SUB SWAP1 PUSH0 MSTORE PUSH1 0x20 PUSH0 KECCAK256 SWAP1 PUSH1 0x6 MUL ADD PUSH0 SWAP1 SWAP2 SWAP1 SWAP2 SWAP1 SWAP2 POP PUSH0 DUP3 ADD SLOAD DUP2 PUSH0 ADD SSTORE PUSH1 0x1 DUP3 ADD DUP2 PUSH1 0x1 ADD SWAP1 DUP2 PUSH2 0x1658 SWAP2 SWAP1 PUSH2 0x315A JUMP JUMPDEST POP PUSH1 0x2 DUP3 ADD SLOAD DUP2 PUSH1 0x2 ADD SSTORE PUSH1 0x3 DUP3 ADD SLOAD DUP2 PUSH1 0x3 ADD SSTORE PUSH1 0x4 DUP3 ADD PUSH0 SWAP1 SLOAD SWAP1 PUSH2 0x100 EXP SWAP1 DIV PUSH20 0xFFFFFFFFFFFFFFFFFFFFFFFFFFFFFFFFFFFFFFFF AND DUP2 PUSH1 0x4 ADD PUSH0 PUSH2 0x100 EXP DUP2 SLOAD DUP2 PUSH20 0xFFFFFFFFFFFFFFFFFFFFFFFFFFFFFFFFFFFFFFFF MUL NOT AND SWAP1 DUP4 PUSH20 0xFFFFFFFFFFFFFFFFFFFFFFFFFFFFFFFFFFFFFFFF AND MUL OR SWAP1 SSTORE POP PUSH1 0x5 DUP3 ADD PUSH0 SWAP1 SLOAD SWAP1 PUSH2 0x100 EXP SWAP1 DIV PUSH20 0xFFFFFFFFFFFFFFFFFFFFFFFFFFFFFFFFFFFFFFFF AND DUP2 PUSH1 0x5 ADD PUSH0 PUSH2 0x100 EXP DUP2 SLOAD DUP2 PUSH20 0xFFFFFFFFFFFFFFFFFFFFFFFFFFFFFFFFFFFFFFFF MUL NOT AND SWAP1 DUP4 PUSH20 0xFFFFFFFFFFFFFFFFFFFFFFFFFFFFFFFFFFFFFFFF AND MUL OR SWAP1 SSTORE POP PUSH1 0x5 DUP3 ADD PUSH1 0x14 SWAP1 SLOAD SWAP1 PUSH2 0x100 EXP SWAP1 DIV PUSH1 0xFF AND DUP2 PUSH1 0x5 ADD PUSH1 0x14 PUSH2 0x100 EXP DUP2 SLOAD DUP2 PUSH1 0xFF MUL NOT AND SWAP1 DUP4 PUSH1 0x6 DUP2 GT ISZERO PUSH2 0x176F JUMPI PUSH2 0x176E PUSH2 0x2210 JUMP JUMPDEST JUMPDEST MUL OR SWAP1 SSTORE POP PUSH1 0x5 DUP3 ADD PUSH1 0x15 SWAP1 SLOAD SWAP1 PUSH2 0x100 EXP SWAP1 DIV PUSH1 0xFF AND DUP2 PUSH1 0x5 ADD PUSH1 0x15 PUSH2 0x100 EXP DUP2 SLOAD DUP2 PUSH1 0xFF MUL NOT AND SWAP1 DUP4 ISZERO ISZERO MUL OR SWAP1 SSTORE POP PUSH1 0x5 DUP3 ADD PUSH1 0x16 SWAP1 SLOAD SWAP1 PUSH2 0x100 EXP SWAP1 DIV PUSH1 0xFF AND DUP2 PUSH1 0x5 ADD PUSH1 0x16 PUSH2 0x100 EXP DUP2 SLOAD DUP2 PUSH1 0xFF MUL NOT AND SWAP1 DUP4 ISZERO ISZERO MUL OR SWAP1 SSTORE POP POP POP CALLER PUSH1 0xB PUSH0 DUP5 DUP2 MSTORE PUSH1 0x20 ADD SWAP1 DUP2 MSTORE PUSH1 0x20 ADD PUSH0 KECCAK256 PUSH0 PUSH2 0x100 EXP DUP2 SLOAD DUP2 PUSH20 0xFFFFFFFFFFFFFFFFFFFFFFFFFFFFFFFFFFFFFFFF MUL NOT AND SWAP1 DUP4 PUSH20 0xFFFFFFFFFFFFFFFFFFFFFFFFFFFFFFFFFFFFFFFF AND MUL OR SWAP1 SSTORE POP PUSH1 0x1 PUSH1 0xC PUSH0 DUP5 DUP2 MSTORE PUSH1 0x20 ADD SWAP1 DUP2 MSTORE PUSH1 0x20 ADD PUSH0 KECCAK256 PUSH0 PUSH2 0x100 EXP DUP2 SLOAD DUP2 PUSH1 0xFF MUL NOT AND SWAP1 DUP4 PUSH1 0x1 DUP2 GT ISZERO PUSH2 0x1853 JUMPI PUSH2 0x1852 PUSH2 0x2210 JUMP JUMPDEST JUMPDEST MUL OR SWAP1 SSTORE POP DUP4 PUSH1 0x2 PUSH0 DUP3 DUP3 SLOAD PUSH2 0x1869 SWAP2 SWAP1 PUSH2 0x292D JUMP JUMPDEST SWAP3 POP POP DUP2 SWAP1 SSTORE POP CALLER PUSH20 0xFFFFFFFFFFFFFFFFFFFFFFFFFFFFFFFFFFFFFFFF AND PUSH32 0x23AD0062AD47DA0F27F5C07751751E4B60AFC16BF6FE03A24266A01EC4897931 DUP4 PUSH0 PUSH1 0x40 MLOAD PUSH2 0x18B8 SWAP3 SWAP2 SWAP1 PUSH2 0x3289 JUMP JUMPDEST PUSH1 0x40 MLOAD DUP1 SWAP2 SUB SWAP1 LOG2 PUSH1 0x1 SWAP3 POP POP POP SWAP4 SWAP3 POP POP POP JUMP JUMPDEST PUSH0 PUSH1 0xB PUSH0 DUP5 DUP2 MSTORE PUSH1 0x20 ADD SWAP1 DUP2 MSTORE PUSH1 0x20 ADD PUSH0 KECCAK256 PUSH0 SWAP1 SLOAD SWAP1 PUSH2 0x100 EXP SWAP1 DIV PUSH20 0xFFFFFFFFFFFFFFFFFFFFFFFFFFFFFFFFFFFFFFFF AND PUSH20 0xFFFFFFFFFFFFFFFFFFFFFFFFFFFFFFFFFFFFFFFF AND CALLER PUSH20 0xFFFFFFFFFFFFFFFFFFFFFFFFFFFFFFFFFFFFFFFF AND EQ PUSH2 0x196C JUMPI PUSH1 0x40 MLOAD PUSH32 0x8C379A000000000000000000000000000000000000000000000000000000000 DUP2 MSTORE PUSH1 0x4 ADD PUSH2 0x1963 SWAP1 PUSH2 0x27B9 JUMP JUMPDEST PUSH1 0x40 MLOAD DUP1 SWAP2 SUB SWAP1 REVERT JUMPDEST PUSH1 0x1 DUP1 DUP2 GT ISZERO PUSH2 0x197F JUMPI PUSH2 0x197E PUSH2 0x2210 JUMP JUMPDEST JUMPDEST PUSH1 0xC PUSH0 DUP6 DUP2 MSTORE PUSH1 0x20 ADD SWAP1 DUP2 MSTORE PUSH1 0x20 ADD PUSH0 KECCAK256 PUSH0 SWAP1 SLOAD SWAP1 PUSH2 0x100 EXP SWAP1 DIV PUSH1 0xFF AND PUSH1 0x1 DUP2 GT ISZERO PUSH2 0x19AF JUMPI PUSH2 0x19AE PUSH2 0x2210 JUMP JUMPDEST JUMPDEST EQ PUSH2 0x19EF JUMPI PUSH1 0x40 MLOAD PUSH32 0x8C379A000000000000000000000000000000000000000000000000000000000 DUP2 MSTORE PUSH1 0x4 ADD PUSH2 0x19E6 SWAP1 PUSH2 0x330D JUMP JUMPDEST PUSH1 0x40 MLOAD DUP1 SWAP2 SUB SWAP1 REVERT JUMPDEST PUSH1 0xA PUSH0 DUP4 PUSH20 0xFFFFFFFFFFFFFFFFFFFFFFFFFFFFFFFFFFFFFFFF AND PUSH20 0xFFFFFFFFFFFFFFFFFFFFFFFFFFFFFFFFFFFFFFFF AND DUP2 MSTORE PUSH1 0x20 ADD SWAP1 DUP2 MSTORE PUSH1 0x20 ADD PUSH0 KECCAK256 PUSH0 DUP5 DUP2 MSTORE PUSH1 0x20 ADD SWAP1 DUP2 MSTORE PUSH1 0x20 ADD PUSH0 KECCAK256 PUSH0 SWAP1 SLOAD SWAP1 PUSH2 0x100 EXP SWAP1 DIV PUSH1 0xFF AND PUSH2 0x1A87 JUMPI PUSH1 0x40 MLOAD PUSH32 0x8C379A000000000000000000000000000000000000000000000000000000000 DUP2 MSTORE PUSH1 0x4 ADD PUSH2 0x1A7E SWAP1 PUSH2 0x3375 JUMP JUMPDEST PUSH1 0x40 MLOAD DUP1 SWAP2 SUB SWAP1 REVERT JUMPDEST PUSH0 PUSH1 0x1 DUP2 GT ISZERO PUSH2 0x1A9A JUMPI PUSH2 0x1A99 PUSH2 0x2210 JUMP JUMPDEST JUMPDEST PUSH1 0xC PUSH0 DUP6 DUP2 MSTORE PUSH1 0x20 ADD SWAP1 DUP2 MSTORE PUSH1 0x20 ADD PUSH0 KECCAK256 PUSH0 SWAP1 SLOAD SWAP1 PUSH2 0x100 EXP SWAP1 DIV PUSH1 0xFF AND PUSH1 0x1 DUP2 GT ISZERO PUSH2 0x1ACA JUMPI PUSH2 0x1AC9 PUSH2 0x2210 JUMP JUMPDEST JUMPDEST POP POP PUSH1 0x1 PUSH1 0x8 PUSH0 DUP6 DUP2 MSTORE PUSH1 0x20 ADD SWAP1 DUP2 MSTORE PUSH1 0x20 ADD PUSH0 KECCAK256 PUSH1 0x5 ADD PUSH1 0x14 PUSH2 0x100 EXP DUP2 SLOAD DUP2 PUSH1 0xFF MUL NOT AND SWAP1 DUP4 PUSH1 0x6 DUP2 GT ISZERO PUSH2 0x1B04 JUMPI PUSH2 0x1B03 PUSH2 0x2210 JUMP JUMPDEST JUMPDEST MUL OR SWAP1 SSTORE POP DUP2 PUSH1 0x8 PUSH0 DUP6 DUP2 MSTORE PUSH1 0x20 ADD SWAP1 DUP2 MSTORE PUSH1 0x20 ADD PUSH0 KECCAK256 PUSH1 0x5 ADD PUSH0 PUSH2 0x100 EXP DUP2 SLOAD DUP2 PUSH20 0xFFFFFFFFFFFFFFFFFFFFFFFFFFFFFFFFFFFFFFFF MUL NOT AND SWAP1 DUP4 PUSH20 0xFFFFFFFFFFFFFFFFFFFFFFFFFFFFFFFFFFFFFFFF AND MUL OR SWAP1 SSTORE POP CALLER PUSH20 0xFFFFFFFFFFFFFFFFFFFFFFFFFFFFFFFFFFFFFFFF AND PUSH32 0x23AD0062AD47DA0F27F5C07751751E4B60AFC16BF6FE03A24266A01EC4897931 DUP5 PUSH1 0x1 PUSH1 0x40 MLOAD PUSH2 0x1BA4 SWAP3 SWAP2 SWAP1 PUSH2 0x33DD JUMP JUMPDEST PUSH1 0x40 MLOAD DUP1 SWAP2 SUB SWAP1 LOG2 PUSH1 0x1 SWAP1 POP SWAP3 SWAP2 POP POP JUMP JUMPDEST PUSH1 0x2 SLOAD DUP2 JUMP JUMPDEST PUSH1 0x7 SLOAD DUP2 JUMP JUMPDEST PUSH0 PUSH1 0xB PUSH0 DUP4 DUP2 MSTORE PUSH1 0x20 ADD SWAP1 DUP2 MSTORE PUSH1 0x20 ADD PUSH0 KECCAK256 PUSH0 SWAP1 SLOAD SWAP1 PUSH2 0x100 EXP SWAP1 DIV PUSH20 0xFFFFFFFFFFFFFFFFFFFFFFFFFFFFFFFFFFFFFFFF AND PUSH20 0xFFFFFFFFFFFFFFFFFFFFFFFFFFFFFFFFFFFFFFFF AND CALLER PUSH20 0xFFFFFFFFFFFFFFFFFFFFFFFFFFFFFFFFFFFFFFFF AND SUB PUSH2 0x1C61 JUMPI PUSH1 0x40 MLOAD PUSH32 0x8C379A000000000000000000000000000000000000000000000000000000000 DUP2 MSTORE PUSH1 0x4 ADD PUSH2 0x1C58 SWAP1 PUSH2 0x3461 JUMP JUMPDEST PUSH1 0x40 MLOAD DUP1 SWAP2 SUB SWAP1 REVERT JUMPDEST PUSH1 0x1 DUP1 DUP2 GT ISZERO PUSH2 0x1C74 JUMPI PUSH2 0x1C73 PUSH2 0x2210 JUMP JUMPDEST JUMPDEST PUSH1 0xC PUSH0 DUP5 DUP2 MSTORE PUSH1 0x20 ADD SWAP1 DUP2 MSTORE PUSH1 0x20 ADD PUSH0 KECCAK256 PUSH0 SWAP1 SLOAD SWAP1 PUSH2 0x100 EXP SWAP1 DIV PUSH1 0xFF AND PUSH1 0x1 DUP2 GT ISZERO PUSH2 0x1CA4 JUMPI PUSH2 0x1CA3 PUSH2 0x2210 JUMP JUMPDEST JUMPDEST EQ PUSH2 0x1CE4 JUMPI PUSH1 0x40 MLOAD PUSH32 0x8C379A000000000000000000000000000000000000000000000000000000000 DUP2 MSTORE PUSH1 0x4 ADD PUSH2 0x1CDB SWAP1 PUSH2 0x330D JUMP JUMPDEST PUSH1 0x40 MLOAD DUP1 SWAP2 SUB SWAP1 REVERT JUMPDEST PUSH1 0x1 PUSH1 0xA PUSH0 CALLER PUSH20 0xFFFFFFFFFFFFFFFFFFFFFFFFFFFFFFFFFFFFFFFF AND PUSH20 0xFFFFFFFFFFFFFFFFFFFFFFFFFFFFFFFFFFFFFFFF AND DUP2 MSTORE PUSH1 0x20 ADD SWAP1 DUP2 MSTORE PUSH1 0x20 ADD PUSH0 KECCAK256 PUSH0 DUP5 DUP2 MSTORE PUSH1 0x20 ADD SWAP1 DUP2 MSTORE PUSH1 0x20 ADD PUSH0 KECCAK256 PUSH0 PUSH2 0x100 EXP DUP2 SLOAD DUP2 PUSH1 0xFF MUL NOT AND SWAP1 DUP4 ISZERO ISZERO MUL OR SWAP1 SSTORE POP CALLER PUSH20 0xFFFFFFFFFFFFFFFFFFFFFFFFFFFFFFFFFFFFFFFF AND PUSH32 0x23AD0062AD47DA0F27F5C07751751E4B60AFC16BF6FE03A24266A01EC4897931 DUP4 PUSH0 PUSH1 0x40 MLOAD PUSH2 0x1D90 SWAP3 SWAP2 SWAP1 PUSH2 0x34C9 JUMP JUMPDEST PUSH1 0x40 MLOAD DUP1 SWAP2 SUB SWAP1 LOG2 PUSH1 0x1 SWAP1 POP SWAP2 SWAP1 POP JUMP JUMPDEST PUSH0 PUSH1 0x1 PUSH0 SWAP1 SLOAD SWAP1 PUSH2 0x100 EXP SWAP1 DIV PUSH20 0xFFFFFFFFFFFFFFFFFFFFFFFFFFFFFFFFFFFFFFFF AND PUSH20 0xFFFFFFFFFFFFFFFFFFFFFFFFFFFFFFFFFFFFFFFF AND CALLER PUSH20 0xFFFFFFFFFFFFFFFFFFFFFFFFFFFFFFFFFFFFFFFF AND EQ PUSH2 0x1E31 JUMPI PUSH1 0x40 MLOAD PUSH32 0x8C379A000000000000000000000000000000000000000000000000000000000 DUP2 MSTORE PUSH1 0x4 ADD PUSH2 0x1E28 SWAP1 PUSH2 0x2AE1 JUMP JUMPDEST PUSH1 0x40 MLOAD DUP1 SWAP2 SUB SWAP1 REVERT JUMPDEST PUSH0 DUP3 GT DUP1 ISZERO PUSH2 0x1E42 JUMPI POP PUSH1 0x3 SLOAD DUP3 GT ISZERO JUMPDEST PUSH2 0x1E81 JUMPI PUSH1 0x40 MLOAD PUSH32 0x8C379A000000000000000000000000000000000000000000000000000000000 DUP2 MSTORE PUSH1 0x4 ADD PUSH2 0x1E78 SWAP1 PUSH2 0x354D JUMP JUMPDEST PUSH1 0x40 MLOAD DUP1 SWAP2 SUB SWAP1 REVERT JUMPDEST PUSH2 0x1E8B DUP4 DUP4 PUSH2 0x1EFF JUMP JUMPDEST POP DUP2 PUSH1 0x3 PUSH0 DUP3 DUP3 SLOAD PUSH2 0x1E9D SWAP2 SWAP1 PUSH2 0x28FA JUMP JUMPDEST SWAP3 POP POP DUP2 SWAP1 SSTORE POP CALLER PUSH20 0xFFFFFFFFFFFFFFFFFFFFFFFFFFFFFFFFFFFFFFFF AND PUSH32 0x23AD0062AD47DA0F27F5C07751751E4B60AFC16BF6FE03A24266A01EC4897931 TIMESTAMP PUSH1 0x6 PUSH1 0x40 MLOAD PUSH2 0x1EED SWAP3 SWAP2 SWAP1 PUSH2 0x35B5 JUMP JUMPDEST PUSH1 0x40 MLOAD DUP1 SWAP2 SUB SWAP1 LOG2 PUSH1 0x1 SWAP1 POP SWAP3 SWAP2 POP POP JUMP JUMPDEST PUSH0 DUP1 DUP4 PUSH20 0xFFFFFFFFFFFFFFFFFFFFFFFFFFFFFFFFFFFFFFFF AND DUP4 PUSH1 0x40 MLOAD PUSH2 0x1F25 SWAP1 PUSH2 0x361C JUMP JUMPDEST PUSH0 PUSH1 0x40 MLOAD DUP1 DUP4 SUB DUP2 DUP6 DUP8 GAS CALL SWAP3 POP POP POP RETURNDATASIZE DUP1 PUSH0 DUP2 EQ PUSH2 0x1F5F JUMPI PUSH1 0x40 MLOAD SWAP2 POP PUSH1 0x1F NOT PUSH1 0x3F RETURNDATASIZE ADD AND DUP3 ADD PUSH1 0x40 MSTORE RETURNDATASIZE DUP3 MSTORE RETURNDATASIZE PUSH0 PUSH1 0x20 DUP5 ADD RETURNDATACOPY PUSH2 0x1F64 JUMP JUMPDEST PUSH1 0x60 SWAP2 POP JUMPDEST POP POP SWAP1 POP DUP1 PUSH2 0x1FA8 JUMPI PUSH1 0x40 MLOAD PUSH32 0x8C379A000000000000000000000000000000000000000000000000000000000 DUP2 MSTORE PUSH1 0x4 ADD PUSH2 0x1F9F SWAP1 PUSH2 0x367A JUMP JUMPDEST PUSH1 0x40 MLOAD DUP1 SWAP2 SUB SWAP1 REVERT JUMPDEST PUSH1 0x1 SWAP2 POP POP SWAP3 SWAP2 POP POP JUMP JUMPDEST PUSH1 0x40 MLOAD DUP1 PUSH2 0x120 ADD PUSH1 0x40 MSTORE DUP1 PUSH0 DUP2 MSTORE PUSH1 0x20 ADD PUSH1 0x60 DUP2 MSTORE PUSH1 0x20 ADD PUSH0 DUP2 MSTORE PUSH1 0x20 ADD PUSH0 DUP2 MSTORE PUSH1 0x20 ADD PUSH0 PUSH20 0xFFFFFFFFFFFFFFFFFFFFFFFFFFFFFFFFFFFFFFFF AND DUP2 MSTORE PUSH1 0x20 ADD PUSH0 PUSH20 0xFFFFFFFFFFFFFFFFFFFFFFFFFFFFFFFFFFFFFFFF AND DUP2 MSTORE PUSH1 0x20 ADD PUSH0 PUSH1 0x6 DUP2 GT ISZERO PUSH2 0x2023 JUMPI PUSH2 0x2022 PUSH2 0x2210 JUMP JUMPDEST JUMPDEST DUP2 MSTORE PUSH1 0x20 ADD PUSH0 ISZERO ISZERO DUP2 MSTORE PUSH1 0x20 ADD PUSH0 ISZERO ISZERO DUP2 MSTORE POP SWAP1 JUMP JUMPDEST PUSH0 DUP1 REVERT JUMPDEST PUSH0 DUP1 REVERT JUMPDEST PUSH0 DUP2 SWAP1 POP SWAP2 SWAP1 POP JUMP JUMPDEST PUSH2 0x2053 DUP2 PUSH2 0x2041 JUMP JUMPDEST DUP2 EQ PUSH2 0x205D JUMPI PUSH0 DUP1 REVERT JUMPDEST POP JUMP JUMPDEST PUSH0 DUP2 CALLDATALOAD SWAP1 POP PUSH2 0x206E DUP2 PUSH2 0x204A JUMP JUMPDEST SWAP3 SWAP2 POP POP JUMP JUMPDEST PUSH0 DUP2 ISZERO ISZERO SWAP1 POP SWAP2 SWAP1 POP JUMP JUMPDEST PUSH2 0x2088 DUP2 PUSH2 0x2074 JUMP JUMPDEST DUP2 EQ PUSH2 0x2092 JUMPI PUSH0 DUP1 REVERT JUMPDEST POP JUMP JUMPDEST PUSH0 DUP2 CALLDATALOAD SWAP1 POP PUSH2 0x20A3 DUP2 PUSH2 0x207F JUMP JUMPDEST SWAP3 SWAP2 POP POP JUMP JUMPDEST PUSH0 DUP1 PUSH1 0x40 DUP4 DUP6 SUB SLT ISZERO PUSH2 0x20BF JUMPI PUSH2 0x20BE PUSH2 0x2039 JUMP JUMPDEST JUMPDEST PUSH0 PUSH2 0x20CC DUP6 DUP3 DUP7 ADD PUSH2 0x2060 JUMP JUMPDEST SWAP3 POP POP PUSH1 0x20 PUSH2 0x20DD DUP6 DUP3 DUP7 ADD PUSH2 0x2095 JUMP JUMPDEST SWAP2 POP POP SWAP3 POP SWAP3 SWAP1 POP JUMP JUMPDEST PUSH2 0x20F0 DUP2 PUSH2 0x2074 JUMP JUMPDEST DUP3 MSTORE POP POP JUMP JUMPDEST PUSH0 PUSH1 0x20 DUP3 ADD SWAP1 POP PUSH2 0x2109 PUSH0 DUP4 ADD DUP5 PUSH2 0x20E7 JUMP JUMPDEST SWAP3 SWAP2 POP POP JUMP JUMPDEST PUSH0 DUP2 MLOAD SWAP1 POP SWAP2 SWAP1 POP JUMP JUMPDEST PUSH0 DUP3 DUP3 MSTORE PUSH1 0x20 DUP3 ADD SWAP1 POP SWAP3 SWAP2 POP POP JUMP JUMPDEST PUSH0 DUP2 SWAP1 POP PUSH1 0x20 DUP3 ADD SWAP1 POP SWAP2 SWAP1 POP JUMP JUMPDEST PUSH2 0x2141 DUP2 PUSH2 0x2041 JUMP JUMPDEST DUP3 MSTORE POP POP JUMP JUMPDEST PUSH0 DUP2 MLOAD SWAP1 POP SWAP2 SWAP1 POP JUMP JUMPDEST PUSH0 DUP3 DUP3 MSTORE PUSH1 0x20 DUP3 ADD SWAP1 POP SWAP3 SWAP2 POP POP JUMP JUMPDEST PUSH0 JUMPDEST DUP4 DUP2 LT ISZERO PUSH2 0x217E JUMPI DUP1 DUP3 ADD MLOAD DUP2 DUP5 ADD MSTORE PUSH1 0x20 DUP2 ADD SWAP1 POP PUSH2 0x2163 JUMP JUMPDEST PUSH0 DUP5 DUP5 ADD MSTORE POP POP POP POP JUMP JUMPDEST PUSH0 PUSH1 0x1F NOT PUSH1 0x1F DUP4 ADD AND SWAP1 POP SWAP2 SWAP1 POP JUMP JUMPDEST PUSH0 PUSH2 0x21A3 DUP3 PUSH2 0x2147 JUMP JUMPDEST PUSH2 0x21AD DUP2 DUP6 PUSH2 0x2151 JUMP JUMPDEST SWAP4 POP PUSH2 0x21BD DUP2 DUP6 PUSH1 0x20 DUP7 ADD PUSH2 0x2161 JUMP JUMPDEST PUSH2 0x21C6 DUP2 PUSH2 0x2189 JUMP JUMPDEST DUP5 ADD SWAP2 POP POP SWAP3 SWAP2 POP POP JUMP JUMPDEST PUSH0 PUSH20 0xFFFFFFFFFFFFFFFFFFFFFFFFFFFFFFFFFFFFFFFF DUP3 AND SWAP1 POP SWAP2 SWAP1 POP JUMP JUMPDEST PUSH0 PUSH2 0x21FA DUP3 PUSH2 0x21D1 JUMP JUMPDEST SWAP1 POP SWAP2 SWAP1 POP JUMP JUMPDEST PUSH2 0x220A DUP2 PUSH2 0x21F0 JUMP JUMPDEST DUP3 MSTORE POP POP JUMP JUMPDEST PUSH32 0x4E487B7100000000000000000000000000000000000000000000000000000000 PUSH0 MSTORE PUSH1 0x21 PUSH1 0x4 MSTORE PUSH1 0x24 PUSH0 REVERT JUMPDEST PUSH1 0x7 DUP2 LT PUSH2 0x224E JUMPI PUSH2 0x224D PUSH2 0x2210 JUMP JUMPDEST JUMPDEST POP JUMP JUMPDEST PUSH0 DUP2 SWAP1 POP PUSH2 0x225E DUP3 PUSH2 0x223D JUMP JUMPDEST SWAP2 SWAP1 POP JUMP JUMPDEST PUSH0 PUSH2 0x226D DUP3 PUSH2 0x2251 JUMP JUMPDEST SWAP1 POP SWAP2 SWAP1 POP JUMP JUMPDEST PUSH2 0x227D DUP2 PUSH2 0x2263 JUMP JUMPDEST DUP3 MSTORE POP POP JUMP JUMPDEST PUSH2 0x228C DUP2 PUSH2 0x2074 JUMP JUMPDEST DUP3 MSTORE POP POP JUMP JUMPDEST PUSH0 PUSH2 0x120 DUP4 ADD PUSH0 DUP4 ADD MLOAD PUSH2 0x22A8 PUSH0 DUP7 ADD DUP3 PUSH2 0x2138 JUMP JUMPDEST POP PUSH1 0x20 DUP4 ADD MLOAD DUP5 DUP3 SUB PUSH1 0x20 DUP7 ADD MSTORE PUSH2 0x22C0 DUP3 DUP3 PUSH2 0x2199 JUMP JUMPDEST SWAP2 POP POP PUSH1 0x40 DUP4 ADD MLOAD PUSH2 0x22D5 PUSH1 0x40 DUP7 ADD DUP3 PUSH2 0x2138 JUMP JUMPDEST POP PUSH1 0x60 DUP4 ADD MLOAD PUSH2 0x22E8 PUSH1 0x60 DUP7 ADD DUP3 PUSH2 0x2138 JUMP JUMPDEST POP PUSH1 0x80 DUP4 ADD MLOAD PUSH2 0x22FB PUSH1 0x80 DUP7 ADD DUP3 PUSH2 0x2201 JUMP JUMPDEST POP PUSH1 0xA0 DUP4 ADD MLOAD PUSH2 0x230E PUSH1 0xA0 DUP7 ADD DUP3 PUSH2 0x2201 JUMP JUMPDEST POP PUSH1 0xC0 DUP4 ADD MLOAD PUSH2 0x2321 PUSH1 0xC0 DUP7 ADD DUP3 PUSH2 0x2274 JUMP JUMPDEST POP PUSH1 0xE0 DUP4 ADD MLOAD PUSH2 0x2334 PUSH1 0xE0 DUP7 ADD DUP3 PUSH2 0x2283 JUMP JUMPDEST POP PUSH2 0x100 DUP4 ADD MLOAD PUSH2 0x2349 PUSH2 0x100 DUP7 ADD DUP3 PUSH2 0x2283 JUMP JUMPDEST POP DUP1 SWAP2 POP POP SWAP3 SWAP2 POP POP JUMP JUMPDEST PUSH0 PUSH2 0x235F DUP4 DUP4 PUSH2 0x2292 JUMP JUMPDEST SWAP1 POP SWAP3 SWAP2 POP POP JUMP JUMPDEST PUSH0 PUSH1 0x20 DUP3 ADD SWAP1 POP SWAP2 SWAP1 POP JUMP JUMPDEST PUSH0 PUSH2 0x237D DUP3 PUSH2 0x210F JUMP JUMPDEST PUSH2 0x2387 DUP2 DUP6 PUSH2 0x2119 JUMP JUMPDEST SWAP4 POP DUP4 PUSH1 0x20 DUP3 MUL DUP6 ADD PUSH2 0x2399 DUP6 PUSH2 0x2129 JUMP JUMPDEST DUP1 PUSH0 JUMPDEST DUP6 DUP2 LT ISZERO PUSH2 0x23D4 JUMPI DUP5 DUP5 SUB DUP10 MSTORE DUP2 MLOAD PUSH2 0x23B5 DUP6 DUP3 PUSH2 0x2354 JUMP JUMPDEST SWAP5 POP PUSH2 0x23C0 DUP4 PUSH2 0x2367 JUMP JUMPDEST SWAP3 POP PUSH1 0x20 DUP11 ADD SWAP10 POP POP PUSH1 0x1 DUP2 ADD SWAP1 POP PUSH2 0x239C JUMP JUMPDEST POP DUP3 SWAP8 POP DUP8 SWAP6 POP POP POP POP POP POP SWAP3 SWAP2 POP POP JUMP JUMPDEST PUSH0 PUSH1 0x20 DUP3 ADD SWAP1 POP DUP2 DUP2 SUB PUSH0 DUP4 ADD MSTORE PUSH2 0x23FE DUP2 DUP5 PUSH2 0x2373 JUMP JUMPDEST SWAP1 POP SWAP3 SWAP2 POP POP JUMP JUMPDEST PUSH0 PUSH1 0x20 DUP3 DUP5 SUB SLT ISZERO PUSH2 0x241B JUMPI PUSH2 0x241A PUSH2 0x2039 JUMP JUMPDEST JUMPDEST PUSH0 PUSH2 0x2428 DUP5 DUP3 DUP6 ADD PUSH2 0x2060 JUMP JUMPDEST SWAP2 POP POP SWAP3 SWAP2 POP POP JUMP JUMPDEST PUSH2 0x243A DUP2 PUSH2 0x2041 JUMP JUMPDEST DUP3 MSTORE POP POP JUMP JUMPDEST PUSH0 PUSH1 0x20 DUP3 ADD SWAP1 POP PUSH2 0x2453 PUSH0 DUP4 ADD DUP5 PUSH2 0x2431 JUMP JUMPDEST SWAP3 SWAP2 POP POP JUMP JUMPDEST PUSH0 PUSH2 0x120 DUP4 ADD PUSH0 DUP4 ADD MLOAD PUSH2 0x246F PUSH0 DUP7 ADD DUP3 PUSH2 0x2138 JUMP JUMPDEST POP PUSH1 0x20 DUP4 ADD MLOAD DUP5 DUP3 SUB PUSH1 0x20 DUP7 ADD MSTORE PUSH2 0x2487 DUP3 DUP3 PUSH2 0x2199 JUMP JUMPDEST SWAP2 POP POP PUSH1 0x40 DUP4 ADD MLOAD PUSH2 0x249C PUSH1 0x40 DUP7 ADD DUP3 PUSH2 0x2138 JUMP JUMPDEST POP PUSH1 0x60 DUP4 ADD MLOAD PUSH2 0x24AF PUSH1 0x60 DUP7 ADD DUP3 PUSH2 0x2138 JUMP JUMPDEST POP PUSH1 0x80 DUP4 ADD MLOAD PUSH2 0x24C2 PUSH1 0x80 DUP7 ADD DUP3 PUSH2 0x2201 JUMP JUMPDEST POP PUSH1 0xA0 DUP4 ADD MLOAD PUSH2 0x24D5 PUSH1 0xA0 DUP7 ADD DUP3 PUSH2 0x2201 JUMP JUMPDEST POP PUSH1 0xC0 DUP4 ADD MLOAD PUSH2 0x24E8 PUSH1 0xC0 DUP7 ADD DUP3 PUSH2 0x2274 JUMP JUMPDEST POP PUSH1 0xE0 DUP4 ADD MLOAD PUSH2 0x24FB PUSH1 0xE0 DUP7 ADD DUP3 PUSH2 0x2283 JUMP JUMPDEST POP PUSH2 0x100 DUP4 ADD MLOAD PUSH2 0x2510 PUSH2 0x100 DUP7 ADD DUP3 PUSH2 0x2283 JUMP JUMPDEST POP DUP1 SWAP2 POP POP SWAP3 SWAP2 POP POP JUMP JUMPDEST PUSH0 PUSH1 0x20 DUP3 ADD SWAP1 POP DUP2 DUP2 SUB PUSH0 DUP4 ADD MSTORE PUSH2 0x2533 DUP2 DUP5 PUSH2 0x2459 JUMP JUMPDEST SWAP1 POP SWAP3 SWAP2 POP POP JUMP JUMPDEST PUSH1 0x2 DUP2 LT PUSH2 0x254C JUMPI PUSH2 0x254B PUSH2 0x2210 JUMP JUMPDEST JUMPDEST POP JUMP JUMPDEST PUSH0 DUP2 SWAP1 POP PUSH2 0x255C DUP3 PUSH2 0x253B JUMP JUMPDEST SWAP2 SWAP1 POP JUMP JUMPDEST PUSH0 PUSH2 0x256B DUP3 PUSH2 0x254F JUMP JUMPDEST SWAP1 POP SWAP2 SWAP1 POP JUMP JUMPDEST PUSH2 0x257B DUP2 PUSH2 0x2561 JUMP JUMPDEST DUP3 MSTORE POP POP JUMP JUMPDEST PUSH0 PUSH1 0x20 DUP3 ADD SWAP1 POP PUSH2 0x2594 PUSH0 DUP4 ADD DUP5 PUSH2 0x2572 JUMP JUMPDEST SWAP3 SWAP2 POP POP JUMP JUMPDEST PUSH0 PUSH2 0x25A4 DUP3 PUSH2 0x21D1 JUMP JUMPDEST SWAP1 POP SWAP2 SWAP1 POP JUMP JUMPDEST PUSH2 0x25B4 DUP2 PUSH2 0x259A JUMP JUMPDEST DUP3 MSTORE POP POP JUMP JUMPDEST PUSH0 PUSH1 0x20 DUP3 ADD SWAP1 POP PUSH2 0x25CD PUSH0 DUP4 ADD DUP5 PUSH2 0x25AB JUMP JUMPDEST SWAP3 SWAP2 POP POP JUMP JUMPDEST PUSH2 0x25DC DUP2 PUSH2 0x21F0 JUMP JUMPDEST DUP3 MSTORE POP POP JUMP JUMPDEST PUSH0 PUSH1 0x20 DUP3 ADD SWAP1 POP PUSH2 0x25F5 PUSH0 DUP4 ADD DUP5 PUSH2 0x25D3 JUMP JUMPDEST SWAP3 SWAP2 POP POP JUMP JUMPDEST PUSH2 0x2604 DUP2 PUSH2 0x21F0 JUMP JUMPDEST DUP2 EQ PUSH2 0x260E JUMPI PUSH0 DUP1 REVERT JUMPDEST POP JUMP JUMPDEST PUSH0 DUP2 CALLDATALOAD SWAP1 POP PUSH2 0x261F DUP2 PUSH2 0x25FB JUMP JUMPDEST SWAP3 SWAP2 POP POP JUMP JUMPDEST PUSH0 DUP1 PUSH1 0x40 DUP4 DUP6 SUB SLT ISZERO PUSH2 0x263B JUMPI PUSH2 0x263A PUSH2 0x2039 JUMP JUMPDEST JUMPDEST PUSH0 PUSH2 0x2648 DUP6 DUP3 DUP7 ADD PUSH2 0x2611 JUMP JUMPDEST SWAP3 POP POP PUSH1 0x20 PUSH2 0x2659 DUP6 DUP3 DUP7 ADD PUSH2 0x2060 JUMP JUMPDEST SWAP2 POP POP SWAP3 POP SWAP3 SWAP1 POP JUMP JUMPDEST PUSH0 DUP1 REVERT JUMPDEST PUSH0 DUP1 REVERT JUMPDEST PUSH0 DUP1 REVERT JUMPDEST PUSH0 DUP1 DUP4 PUSH1 0x1F DUP5 ADD SLT PUSH2 0x2684 JUMPI PUSH2 0x2683 PUSH2 0x2663 JUMP JUMPDEST JUMPDEST DUP3 CALLDATALOAD SWAP1 POP PUSH8 0xFFFFFFFFFFFFFFFF DUP2 GT ISZERO PUSH2 0x26A1 JUMPI PUSH2 0x26A0 PUSH2 0x2667 JUMP JUMPDEST JUMPDEST PUSH1 0x20 DUP4 ADD SWAP2 POP DUP4 PUSH1 0x1 DUP3 MUL DUP4 ADD GT ISZERO PUSH2 0x26BD JUMPI PUSH2 0x26BC PUSH2 0x266B JUMP JUMPDEST JUMPDEST SWAP3 POP SWAP3 SWAP1 POP JUMP JUMPDEST PUSH0 DUP1 PUSH0 PUSH1 0x40 DUP5 DUP7 SUB SLT ISZERO PUSH2 0x26DB JUMPI PUSH2 0x26DA PUSH2 0x2039 JUMP JUMPDEST JUMPDEST PUSH0 DUP5 ADD CALLDATALOAD PUSH8 0xFFFFFFFFFFFFFFFF DUP2 GT ISZERO PUSH2 0x26F8 JUMPI PUSH2 0x26F7 PUSH2 0x203D JUMP JUMPDEST JUMPDEST PUSH2 0x2704 DUP7 DUP3 DUP8 ADD PUSH2 0x266F JUMP JUMPDEST SWAP4 POP SWAP4 POP POP PUSH1 0x20 PUSH2 0x2717 DUP7 DUP3 DUP8 ADD PUSH2 0x2060 JUMP JUMPDEST SWAP2 POP POP SWAP3 POP SWAP3 POP SWAP3 JUMP JUMPDEST PUSH0 DUP1 PUSH1 0x40 DUP4 DUP6 SUB SLT ISZERO PUSH2 0x2737 JUMPI PUSH2 0x2736 PUSH2 0x2039 JUMP JUMPDEST JUMPDEST PUSH0 PUSH2 0x2744 DUP6 DUP3 DUP7 ADD PUSH2 0x2060 JUMP JUMPDEST SWAP3 POP POP PUSH1 0x20 PUSH2 0x2755 DUP6 DUP3 DUP7 ADD PUSH2 0x2611 JUMP JUMPDEST SWAP2 POP POP SWAP3 POP SWAP3 SWAP1 POP JUMP JUMPDEST PUSH0 DUP3 DUP3 MSTORE PUSH1 0x20 DUP3 ADD SWAP1 POP SWAP3 SWAP2 POP POP JUMP JUMPDEST PUSH32 0x4F6E6C79206F776E657220616C6C6F7765640000000000000000000000000000 PUSH0 DUP3 ADD MSTORE POP JUMP JUMPDEST PUSH0 PUSH2 0x27A3 PUSH1 0x12 DUP4 PUSH2 0x275F JUMP JUMPDEST SWAP2 POP PUSH2 0x27AE DUP3 PUSH2 0x276F JUMP JUMPDEST PUSH1 0x20 DUP3 ADD SWAP1 POP SWAP2 SWAP1 POP JUMP JUMPDEST PUSH0 PUSH1 0x20 DUP3 ADD SWAP1 POP DUP2 DUP2 SUB PUSH0 DUP4 ADD MSTORE PUSH2 0x27D0 DUP2 PUSH2 0x2797 JUMP JUMPDEST SWAP1 POP SWAP2 SWAP1 POP JUMP JUMPDEST PUSH32 0x53657276696365206E6F742070726F7669646564000000000000000000000000 PUSH0 DUP3 ADD MSTORE POP JUMP JUMPDEST PUSH0 PUSH2 0x280B PUSH1 0x14 DUP4 PUSH2 0x275F JUMP JUMPDEST SWAP2 POP PUSH2 0x2816 DUP3 PUSH2 0x27D7 JUMP JUMPDEST PUSH1 0x20 DUP3 ADD SWAP1 POP SWAP2 SWAP1 POP JUMP JUMPDEST PUSH0 PUSH1 0x20 DUP3 ADD SWAP1 POP DUP2 DUP2 SUB PUSH0 DUP4 ADD MSTORE PUSH2 0x2838 DUP2 PUSH2 0x27FF JUMP JUMPDEST SWAP1 POP SWAP2 SWAP1 POP JUMP JUMPDEST PUSH32 0x416C726561647920726566756E6465642C206372656174652061206E65772049 PUSH0 DUP3 ADD MSTORE PUSH32 0x74656D0000000000000000000000000000000000000000000000000000000000 PUSH1 0x20 DUP3 ADD MSTORE POP JUMP JUMPDEST PUSH0 PUSH2 0x2899 PUSH1 0x23 DUP4 PUSH2 0x275F JUMP JUMPDEST SWAP2 POP PUSH2 0x28A4 DUP3 PUSH2 0x283F JUMP JUMPDEST PUSH1 0x40 DUP3 ADD SWAP1 POP SWAP2 SWAP1 POP JUMP JUMPDEST PUSH0 PUSH1 0x20 DUP3 ADD SWAP1 POP DUP2 DUP2 SUB PUSH0 DUP4 ADD MSTORE PUSH2 0x28C6 DUP2 PUSH2 0x288D JUMP JUMPDEST SWAP1 POP SWAP2 SWAP1 POP JUMP JUMPDEST PUSH32 0x4E487B7100000000000000000000000000000000000000000000000000000000 PUSH0 MSTORE PUSH1 0x11 PUSH1 0x4 MSTORE PUSH1 0x24 PUSH0 REVERT JUMPDEST PUSH0 PUSH2 0x2904 DUP3 PUSH2 0x2041 JUMP JUMPDEST SWAP2 POP PUSH2 0x290F DUP4 PUSH2 0x2041 JUMP JUMPDEST SWAP3 POP DUP3 DUP3 SUB SWAP1 POP DUP2 DUP2 GT ISZERO PUSH2 0x2927 JUMPI PUSH2 0x2926 PUSH2 0x28CD JUMP JUMPDEST JUMPDEST SWAP3 SWAP2 POP POP JUMP JUMPDEST PUSH0 PUSH2 0x2937 DUP3 PUSH2 0x2041 JUMP JUMPDEST SWAP2 POP PUSH2 0x2942 DUP4 PUSH2 0x2041 JUMP JUMPDEST SWAP3 POP DUP3 DUP3 ADD SWAP1 POP DUP1 DUP3 GT ISZERO PUSH2 0x295A JUMPI PUSH2 0x2959 PUSH2 0x28CD JUMP JUMPDEST JUMPDEST SWAP3 SWAP2 POP POP JUMP JUMPDEST PUSH0 PUSH2 0x296A DUP3 PUSH2 0x2041 JUMP JUMPDEST SWAP2 POP PUSH32 0xFFFFFFFFFFFFFFFFFFFFFFFFFFFFFFFFFFFFFFFFFFFFFFFFFFFFFFFFFFFFFFFF DUP3 SUB PUSH2 0x299C JUMPI PUSH2 0x299B PUSH2 0x28CD JUMP JUMPDEST JUMPDEST PUSH1 0x1 DUP3 ADD SWAP1 POP SWAP2 SWAP1 POP JUMP JUMPDEST PUSH32 0x4449535055545445440000000000000000000000000000000000000000000000 PUSH0 DUP3 ADD MSTORE POP JUMP JUMPDEST PUSH0 PUSH2 0x29DB PUSH1 0x9 DUP4 PUSH2 0x275F JUMP JUMPDEST SWAP2 POP PUSH2 0x29E6 DUP3 PUSH2 0x29A7 JUMP JUMPDEST PUSH1 0x20 DUP3 ADD SWAP1 POP SWAP2 SWAP1 POP JUMP JUMPDEST PUSH2 0x29FA DUP2 PUSH2 0x2263 JUMP JUMPDEST DUP3 MSTORE POP POP JUMP JUMPDEST PUSH0 PUSH1 0x60 DUP3 ADD SWAP1 POP PUSH2 0x2A13 PUSH0 DUP4 ADD DUP6 PUSH2 0x2431 JUMP JUMPDEST DUP2 DUP2 SUB PUSH1 0x20 DUP4 ADD MSTORE PUSH2 0x2A24 DUP2 PUSH2 0x29CF JUMP JUMPDEST SWAP1 POP PUSH2 0x2A33 PUSH1 0x40 DUP4 ADD DUP5 PUSH2 0x29F1 JUMP JUMPDEST SWAP4 SWAP3 POP POP POP JUMP JUMPDEST PUSH32 0x4E487B7100000000000000000000000000000000000000000000000000000000 PUSH0 MSTORE PUSH1 0x22 PUSH1 0x4 MSTORE PUSH1 0x24 PUSH0 REVERT JUMPDEST PUSH0 PUSH1 0x2 DUP3 DIV SWAP1 POP PUSH1 0x1 DUP3 AND DUP1 PUSH2 0x2A7E JUMPI PUSH1 0x7F DUP3 AND SWAP2 POP JUMPDEST PUSH1 0x20 DUP3 LT DUP2 SUB PUSH2 0x2A91 JUMPI PUSH2 0x2A90 PUSH2 0x2A3A JUMP JUMPDEST JUMPDEST POP SWAP2 SWAP1 POP JUMP JUMPDEST PUSH32 0x4F6E6C7920457363726F7720616C6C6F77656400000000000000000000000000 PUSH0 DUP3 ADD MSTORE POP JUMP JUMPDEST PUSH0 PUSH2 0x2ACB PUSH1 0x13 DUP4 PUSH2 0x275F JUMP JUMPDEST SWAP2 POP PUSH2 0x2AD6 DUP3 PUSH2 0x2A97 JUMP JUMPDEST PUSH1 0x20 DUP3 ADD SWAP1 POP SWAP2 SWAP1 POP JUMP JUMPDEST PUSH0 PUSH1 0x20 DUP3 ADD SWAP1 POP DUP2 DUP2 SUB PUSH0 DUP4 ADD MSTORE PUSH2 0x2AF8 DUP2 PUSH2 0x2ABF JUMP JUMPDEST SWAP1 POP SWAP2 SWAP1 POP JUMP JUMPDEST PUSH32 0x5365727669636520616C72656164792070726F76696465640000000000000000 PUSH0 DUP3 ADD MSTORE POP JUMP JUMPDEST PUSH0 PUSH2 0x2B33 PUSH1 0x18 DUP4 PUSH2 0x275F JUMP JUMPDEST SWAP2 POP PUSH2 0x2B3E DUP3 PUSH2 0x2AFF JUMP JUMPDEST PUSH1 0x20 DUP3 ADD SWAP1 POP SWAP2 SWAP1 POP JUMP JUMPDEST PUSH0 PUSH1 0x20 DUP3 ADD SWAP1 POP DUP2 DUP2 SUB PUSH0 DUP4 ADD MSTORE PUSH2 0x2B60 DUP2 PUSH2 0x2B27 JUMP JUMPDEST SWAP1 POP SWAP2 SWAP1 POP JUMP JUMPDEST PUSH32 0x524546554E444544000000000000000000000000000000000000000000000000 PUSH0 DUP3 ADD MSTORE POP JUMP JUMPDEST PUSH0 PUSH2 0x2B9B PUSH1 0x8 DUP4 PUSH2 0x275F JUMP JUMPDEST SWAP2 POP PUSH2 0x2BA6 DUP3 PUSH2 0x2B67 JUMP JUMPDEST PUSH1 0x20 DUP3 ADD SWAP1 POP SWAP2 SWAP1 POP JUMP JUMPDEST PUSH0 PUSH1 0x60 DUP3 ADD SWAP1 POP PUSH2 0x2BC4 PUSH0 DUP4 ADD DUP6 PUSH2 0x2431 JUMP JUMPDEST DUP2 DUP2 SUB PUSH1 0x20 DUP4 ADD MSTORE PUSH2 0x2BD5 DUP2 PUSH2 0x2B8F JUMP JUMPDEST SWAP1 POP PUSH2 0x2BE4 PUSH1 0x40 DUP4 ADD DUP5 PUSH2 0x29F1 JUMP JUMPDEST SWAP4 SWAP3 POP POP POP JUMP JUMPDEST PUSH32 0x4E487B7100000000000000000000000000000000000000000000000000000000 PUSH0 MSTORE PUSH1 0x41 PUSH1 0x4 MSTORE PUSH1 0x24 PUSH0 REVERT JUMPDEST PUSH32 0x4E487B7100000000000000000000000000000000000000000000000000000000 PUSH0 MSTORE PUSH1 0x32 PUSH1 0x4 MSTORE PUSH1 0x24 PUSH0 REVERT JUMPDEST PUSH32 0x53657276696365206E6F74206177617264656420746F20796F75000000000000 PUSH0 DUP3 ADD MSTORE POP JUMP JUMPDEST PUSH0 PUSH2 0x2C79 PUSH1 0x1A DUP4 PUSH2 0x275F JUMP JUMPDEST SWAP2 POP PUSH2 0x2C84 DUP3 PUSH2 0x2C45 JUMP JUMPDEST PUSH1 0x20 DUP3 ADD SWAP1 POP SWAP2 SWAP1 POP JUMP JUMPDEST PUSH0 PUSH1 0x20 DUP3 ADD SWAP1 POP DUP2 DUP2 SUB PUSH0 DUP4 ADD MSTORE PUSH2 0x2CA6 DUP2 PUSH2 0x2C6D JUMP JUMPDEST SWAP1 POP SWAP2 SWAP1 POP JUMP JUMPDEST PUSH32 0x5365727669636520616C726561647920636F6E6669726D656400000000000000 PUSH0 DUP3 ADD MSTORE POP JUMP JUMPDEST PUSH0 PUSH2 0x2CE1 PUSH1 0x19 DUP4 PUSH2 0x275F JUMP JUMPDEST SWAP2 POP PUSH2 0x2CEC DUP3 PUSH2 0x2CAD JUMP JUMPDEST PUSH1 0x20 DUP3 ADD SWAP1 POP SWAP2 SWAP1 POP JUMP JUMPDEST PUSH0 PUSH1 0x20 DUP3 ADD SWAP1 POP DUP2 DUP2 SUB PUSH0 DUP4 ADD MSTORE PUSH2 0x2D0E DUP2 PUSH2 0x2CD5 JUMP JUMPDEST SWAP1 POP SWAP2 SWAP1 POP JUMP JUMPDEST PUSH32 0x44454C495645525920494E544941544544000000000000000000000000000000 PUSH0 DUP3 ADD MSTORE POP JUMP JUMPDEST PUSH0 PUSH2 0x2D49 PUSH1 0x11 DUP4 PUSH2 0x275F JUMP JUMPDEST SWAP2 POP PUSH2 0x2D54 DUP3 PUSH2 0x2D15 JUMP JUMPDEST PUSH1 0x20 DUP3 ADD SWAP1 POP SWAP2 SWAP1 POP JUMP JUMPDEST PUSH0 PUSH1 0x60 DUP3 ADD SWAP1 POP PUSH2 0x2D72 PUSH0 DUP4 ADD DUP6 PUSH2 0x2431 JUMP JUMPDEST DUP2 DUP2 SUB PUSH1 0x20 DUP4 ADD MSTORE PUSH2 0x2D83 DUP2 PUSH2 0x2D3D JUMP JUMPDEST SWAP1 POP PUSH2 0x2D92 PUSH1 0x40 DUP4 ADD DUP5 PUSH2 0x29F1 JUMP JUMPDEST SWAP4 SWAP3 POP POP POP JUMP JUMPDEST PUSH32 0x507572706F73652063616E6E6F7420626520656D707479000000000000000000 PUSH0 DUP3 ADD MSTORE POP JUMP JUMPDEST PUSH0 PUSH2 0x2DCD PUSH1 0x17 DUP4 PUSH2 0x275F JUMP JUMPDEST SWAP2 POP PUSH2 0x2DD8 DUP3 PUSH2 0x2D99 JUMP JUMPDEST PUSH1 0x20 DUP3 ADD SWAP1 POP SWAP2 SWAP1 POP JUMP JUMPDEST PUSH0 PUSH1 0x20 DUP3 ADD SWAP1 POP DUP2 DUP2 SUB PUSH0 DUP4 ADD MSTORE PUSH2 0x2DFA DUP2 PUSH2 0x2DC1 JUMP JUMPDEST SWAP1 POP SWAP2 SWAP1 POP JUMP JUMPDEST PUSH32 0x416D6F756E74206D7573742062652067726561746572207468616E2030000000 PUSH0 DUP3 ADD MSTORE POP JUMP JUMPDEST PUSH0 PUSH2 0x2E35 PUSH1 0x1D DUP4 PUSH2 0x275F JUMP JUMPDEST SWAP2 POP PUSH2 0x2E40 DUP3 PUSH2 0x2E01 JUMP JUMPDEST PUSH1 0x20 DUP3 ADD SWAP1 POP SWAP2 SWAP1 POP JUMP JUMPDEST PUSH0 PUSH1 0x20 DUP3 ADD SWAP1 POP DUP2 DUP2 SUB PUSH0 DUP4 ADD MSTORE PUSH2 0x2E62 DUP2 PUSH2 0x2E29 JUMP JUMPDEST SWAP1 POP SWAP2 SWAP1 POP JUMP JUMPDEST PUSH32 0x496E73756666696369656E742045746865722073656E74000000000000000000 PUSH0 DUP3 ADD MSTORE POP JUMP JUMPDEST PUSH0 PUSH2 0x2E9D PUSH1 0x17 DUP4 PUSH2 0x275F JUMP JUMPDEST SWAP2 POP PUSH2 0x2EA8 DUP3 PUSH2 0x2E69 JUMP JUMPDEST PUSH1 0x20 DUP3 ADD SWAP1 POP SWAP2 SWAP1 POP JUMP JUMPDEST PUSH0 PUSH1 0x20 DUP3 ADD SWAP1 POP DUP2 DUP2 SUB PUSH0 DUP4 ADD MSTORE PUSH2 0x2ECA DUP2 PUSH2 0x2E91 JUMP JUMPDEST SWAP1 POP SWAP2 SWAP1 POP JUMP JUMPDEST PUSH0 DUP3 SWAP1 POP SWAP3 SWAP2 POP POP JUMP JUMPDEST PUSH0 DUP2 SWAP1 POP DUP2 PUSH0 MSTORE PUSH1 0x20 PUSH0 KECCAK256 SWAP1 POP SWAP2 SWAP1 POP JUMP JUMPDEST PUSH0 PUSH1 0x20 PUSH1 0x1F DUP4 ADD DIV SWAP1 POP SWAP2 SWAP1 POP JUMP JUMPDEST PUSH0 DUP3 DUP3 SHL SWAP1 POP SWAP3 SWAP2 POP POP JUMP JUMPDEST PUSH0 PUSH1 0x8 DUP4 MUL PUSH2 0x2F37 PUSH32 0xFFFFFFFFFFFFFFFFFFFFFFFFFFFFFFFFFFFFFFFFFFFFFFFFFFFFFFFFFFFFFFFF DUP3 PUSH2 0x2EFC JUMP JUMPDEST PUSH2 0x2F41 DUP7 DUP4 PUSH2 0x2EFC JUMP JUMPDEST SWAP6 POP DUP1 NOT DUP5 AND SWAP4 POP DUP1 DUP7 AND DUP5 OR SWAP3 POP POP POP SWAP4 SWAP3 POP POP POP JUMP JUMPDEST PUSH0 DUP2 SWAP1 POP SWAP2 SWAP1 POP JUMP JUMPDEST PUSH0 PUSH2 0x2F7C PUSH2 0x2F77 PUSH2 0x2F72 DUP5 PUSH2 0x2041 JUMP JUMPDEST PUSH2 0x2F59 JUMP JUMPDEST PUSH2 0x2041 JUMP JUMPDEST SWAP1 POP SWAP2 SWAP1 POP JUMP JUMPDEST PUSH0 DUP2 SWAP1 POP SWAP2 SWAP1 POP JUMP JUMPDEST PUSH2 0x2F95 DUP4 PUSH2 0x2F62 JUMP JUMPDEST PUSH2 0x2FA9 PUSH2 0x2FA1 DUP3 PUSH2 0x2F83 JUMP JUMPDEST DUP5 DUP5 SLOAD PUSH2 0x2F08 JUMP JUMPDEST DUP3 SSTORE POP POP POP POP JUMP JUMPDEST PUSH0 SWAP1 JUMP JUMPDEST PUSH2 0x2FBD PUSH2 0x2FB1 JUMP JUMPDEST PUSH2 0x2FC8 DUP2 DUP5 DUP5 PUSH2 0x2F8C JUMP JUMPDEST POP POP POP JUMP JUMPDEST JUMPDEST DUP2 DUP2 LT ISZERO PUSH2 0x2FEB JUMPI PUSH2 0x2FE0 PUSH0 DUP3 PUSH2 0x2FB5 JUMP JUMPDEST PUSH1 0x1 DUP2 ADD SWAP1 POP PUSH2 0x2FCE JUMP JUMPDEST POP POP JUMP JUMPDEST PUSH1 0x1F DUP3 GT ISZERO PUSH2 0x3030 JUMPI PUSH2 0x3001 DUP2 PUSH2 0x2EDB JUMP JUMPDEST PUSH2 0x300A DUP5 PUSH2 0x2EED JUMP JUMPDEST DUP2 ADD PUSH1 0x20 DUP6 LT ISZERO PUSH2 0x3019 JUMPI DUP2 SWAP1 POP JUMPDEST PUSH2 0x302D PUSH2 0x3025 DUP6 PUSH2 0x2EED JUMP JUMPDEST DUP4 ADD DUP3 PUSH2 0x2FCD JUMP JUMPDEST POP POP JUMPDEST POP POP POP JUMP JUMPDEST PUSH0 DUP3 DUP3 SHR SWAP1 POP SWAP3 SWAP2 POP POP JUMP JUMPDEST PUSH0 PUSH2 0x3050 PUSH0 NOT DUP5 PUSH1 0x8 MUL PUSH2 0x3035 JUMP JUMPDEST NOT DUP1 DUP4 AND SWAP2 POP POP SWAP3 SWAP2 POP POP JUMP JUMPDEST PUSH0 PUSH2 0x3068 DUP4 DUP4 PUSH2 0x3041 JUMP JUMPDEST SWAP2 POP DUP3 PUSH1 0x2 MUL DUP3 OR SWAP1 POP SWAP3 SWAP2 POP POP JUMP JUMPDEST PUSH2 0x3082 DUP4 DUP4 PUSH2 0x2ED1 JUMP JUMPDEST PUSH8 0xFFFFFFFFFFFFFFFF DUP2 GT ISZERO PUSH2 0x309B JUMPI PUSH2 0x309A PUSH2 0x2BEB JUMP JUMPDEST JUMPDEST PUSH2 0x30A5 DUP3 SLOAD PUSH2 0x2A67 JUMP JUMPDEST PUSH2 0x30B0 DUP3 DUP3 DUP6 PUSH2 0x2FEF JUMP JUMPDEST PUSH0 PUSH1 0x1F DUP4 GT PUSH1 0x1 DUP2 EQ PUSH2 0x30DD JUMPI PUSH0 DUP5 ISZERO PUSH2 0x30CB JUMPI DUP3 DUP8 ADD CALLDATALOAD SWAP1 POP JUMPDEST PUSH2 0x30D5 DUP6 DUP3 PUSH2 0x305D JUMP JUMPDEST DUP7 SSTORE POP PUSH2 0x313C JUMP JUMPDEST PUSH1 0x1F NOT DUP5 AND PUSH2 0x30EB DUP7 PUSH2 0x2EDB JUMP JUMPDEST PUSH0 JUMPDEST DUP3 DUP2 LT ISZERO PUSH2 0x3112 JUMPI DUP5 DUP10 ADD CALLDATALOAD DUP3 SSTORE PUSH1 0x1 DUP3 ADD SWAP2 POP PUSH1 0x20 DUP6 ADD SWAP5 POP PUSH1 0x20 DUP2 ADD SWAP1 POP PUSH2 0x30ED JUMP JUMPDEST DUP7 DUP4 LT ISZERO PUSH2 0x312F JUMPI DUP5 DUP10 ADD CALLDATALOAD PUSH2 0x312B PUSH1 0x1F DUP10 AND DUP3 PUSH2 0x3041 JUMP JUMPDEST DUP4 SSTORE POP JUMPDEST PUSH1 0x1 PUSH1 0x2 DUP9 MUL ADD DUP9 SSTORE POP POP POP JUMPDEST POP POP POP POP POP POP POP JUMP JUMPDEST PUSH0 DUP2 SLOAD SWAP1 POP PUSH2 0x3153 DUP2 PUSH2 0x2A67 JUMP JUMPDEST SWAP1 POP SWAP2 SWAP1 POP JUMP JUMPDEST DUP2 DUP2 SUB PUSH2 0x3168 JUMPI POP POP PUSH2 0x323D JUMP JUMPDEST PUSH2 0x3171 DUP3 PUSH2 0x3145 JUMP JUMPDEST PUSH8 0xFFFFFFFFFFFFFFFF DUP2 GT ISZERO PUSH2 0x318A JUMPI PUSH2 0x3189 PUSH2 0x2BEB JUMP JUMPDEST JUMPDEST PUSH2 0x3194 DUP3 SLOAD PUSH2 0x2A67 JUMP JUMPDEST PUSH2 0x319F DUP3 DUP3 DUP6 PUSH2 0x2FEF JUMP JUMPDEST PUSH0 PUSH1 0x1F DUP4 GT PUSH1 0x1 DUP2 EQ PUSH2 0x31CC JUMPI PUSH0 DUP5 ISZERO PUSH2 0x31BA JUMPI DUP3 DUP8 ADD SLOAD SWAP1 POP JUMPDEST PUSH2 0x31C4 DUP6 DUP3 PUSH2 0x305D JUMP JUMPDEST DUP7 SSTORE POP PUSH2 0x3236 JUMP JUMPDEST PUSH1 0x1F NOT DUP5 AND PUSH2 0x31DA DUP8 PUSH2 0x2EDB JUMP JUMPDEST SWAP7 POP PUSH2 0x31E5 DUP7 PUSH2 0x2EDB JUMP JUMPDEST PUSH0 JUMPDEST DUP3 DUP2 LT ISZERO PUSH2 0x320C JUMPI DUP5 DUP10 ADD SLOAD DUP3 SSTORE PUSH1 0x1 DUP3 ADD SWAP2 POP PUSH1 0x1 DUP6 ADD SWAP5 POP PUSH1 0x20 DUP2 ADD SWAP1 POP PUSH2 0x31E7 JUMP JUMPDEST DUP7 DUP4 LT ISZERO PUSH2 0x3229 JUMPI DUP5 DUP10 ADD SLOAD PUSH2 0x3225 PUSH1 0x1F DUP10 AND DUP3 PUSH2 0x3041 JUMP JUMPDEST DUP4 SSTORE POP JUMPDEST PUSH1 0x1 PUSH1 0x2 DUP9 MUL ADD DUP9 SSTORE POP POP POP JUMPDEST POP POP POP POP POP POP JUMPDEST JUMP JUMPDEST PUSH32 0x4954454D20435245415445440000000000000000000000000000000000000000 PUSH0 DUP3 ADD MSTORE POP JUMP JUMPDEST PUSH0 PUSH2 0x3273 PUSH1 0xC DUP4 PUSH2 0x275F JUMP JUMPDEST SWAP2 POP PUSH2 0x327E DUP3 PUSH2 0x323F JUMP JUMPDEST PUSH1 0x20 DUP3 ADD SWAP1 POP SWAP2 SWAP1 POP JUMP JUMPDEST PUSH0 PUSH1 0x60 DUP3 ADD SWAP1 POP PUSH2 0x329C PUSH0 DUP4 ADD DUP6 PUSH2 0x2431 JUMP JUMPDEST DUP2 DUP2 SUB PUSH1 0x20 DUP4 ADD MSTORE PUSH2 0x32AD DUP2 PUSH2 0x3267 JUMP JUMPDEST SWAP1 POP PUSH2 0x32BC PUSH1 0x40 DUP4 ADD DUP5 PUSH2 0x29F1 JUMP JUMPDEST SWAP4 SWAP3 POP POP POP JUMP JUMPDEST PUSH32 0x4974656D206E6F7420617661696C61626C650000000000000000000000000000 PUSH0 DUP3 ADD MSTORE POP JUMP JUMPDEST PUSH0 PUSH2 0x32F7 PUSH1 0x12 DUP4 PUSH2 0x275F JUMP JUMPDEST SWAP2 POP PUSH2 0x3302 DUP3 PUSH2 0x32C3 JUMP JUMPDEST PUSH1 0x20 DUP3 ADD SWAP1 POP SWAP2 SWAP1 POP JUMP JUMPDEST PUSH0 PUSH1 0x20 DUP3 ADD SWAP1 POP DUP2 DUP2 SUB PUSH0 DUP4 ADD MSTORE PUSH2 0x3324 DUP2 PUSH2 0x32EB JUMP JUMPDEST SWAP1 POP SWAP2 SWAP1 POP JUMP JUMPDEST PUSH32 0x50726F7669646572206E6F74206F6E20746865206C6973740000000000000000 PUSH0 DUP3 ADD MSTORE POP JUMP JUMPDEST PUSH0 PUSH2 0x335F PUSH1 0x18 DUP4 PUSH2 0x275F JUMP JUMPDEST SWAP2 POP PUSH2 0x336A DUP3 PUSH2 0x332B JUMP JUMPDEST PUSH1 0x20 DUP3 ADD SWAP1 POP SWAP2 SWAP1 POP JUMP JUMPDEST PUSH0 PUSH1 0x20 DUP3 ADD SWAP1 POP DUP2 DUP2 SUB PUSH0 DUP4 ADD MSTORE PUSH2 0x338C DUP2 PUSH2 0x3353 JUMP JUMPDEST SWAP1 POP SWAP2 SWAP1 POP JUMP JUMPDEST PUSH32 0x415050524F564544000000000000000000000000000000000000000000000000 PUSH0 DUP3 ADD MSTORE POP JUMP JUMPDEST PUSH0 PUSH2 0x33C7 PUSH1 0x8 DUP4 PUSH2 0x275F JUMP JUMPDEST SWAP2 POP PUSH2 0x33D2 DUP3 PUSH2 0x3393 JUMP JUMPDEST PUSH1 0x20 DUP3 ADD SWAP1 POP SWAP2 SWAP1 POP JUMP JUMPDEST PUSH0 PUSH1 0x60 DUP3 ADD SWAP1 POP PUSH2 0x33F0 PUSH0 DUP4 ADD DUP6 PUSH2 0x2431 JUMP JUMPDEST DUP2 DUP2 SUB PUSH1 0x20 DUP4 ADD MSTORE PUSH2 0x3401 DUP2 PUSH2 0x33BB JUMP JUMPDEST SWAP1 POP PUSH2 0x3410 PUSH1 0x40 DUP4 ADD DUP5 PUSH2 0x29F1 JUMP JUMPDEST SWAP4 SWAP3 POP POP POP JUMP JUMPDEST PUSH32 0x4F776E6572206E6F7420616C6C6F776564000000000000000000000000000000 PUSH0 DUP3 ADD MSTORE POP JUMP JUMPDEST PUSH0 PUSH2 0x344B PUSH1 0x11 DUP4 PUSH2 0x275F JUMP JUMPDEST SWAP2 POP PUSH2 0x3456 DUP3 PUSH2 0x3417 JUMP JUMPDEST PUSH1 0x20 DUP3 ADD SWAP1 POP SWAP2 SWAP1 POP JUMP JUMPDEST PUSH0 PUSH1 0x20 DUP3 ADD SWAP1 POP DUP2 DUP2 SUB PUSH0 DUP4 ADD MSTORE PUSH2 0x3478 DUP2 PUSH2 0x343F JUMP JUMPDEST SWAP1 POP SWAP2 SWAP1 POP JUMP JUMPDEST PUSH32 0x5245515545535445440000000000000000000000000000000000000000000000 PUSH0 DUP3 ADD MSTORE POP JUMP JUMPDEST PUSH0 PUSH2 0x34B3 PUSH1 0x9 DUP4 PUSH2 0x275F JUMP JUMPDEST SWAP2 POP PUSH2 0x34BE DUP3 PUSH2 0x347F JUMP JUMPDEST PUSH1 0x20 DUP3 ADD SWAP1 POP SWAP2 SWAP1 POP JUMP JUMPDEST PUSH0 PUSH1 0x60 DUP3 ADD SWAP1 POP PUSH2 0x34DC PUSH0 DUP4 ADD DUP6 PUSH2 0x2431 JUMP JUMPDEST DUP2 DUP2 SUB PUSH1 0x20 DUP4 ADD MSTORE PUSH2 0x34ED DUP2 PUSH2 0x34A7 JUMP JUMPDEST SWAP1 POP PUSH2 0x34FC PUSH1 0x40 DUP4 ADD DUP5 PUSH2 0x29F1 JUMP JUMPDEST SWAP4 SWAP3 POP POP POP JUMP JUMPDEST PUSH32 0x5A65726F207769746864726177616C206E6F7420616C6C6F7765640000000000 PUSH0 DUP3 ADD MSTORE POP JUMP JUMPDEST PUSH0 PUSH2 0x3537 PUSH1 0x1B DUP4 PUSH2 0x275F JUMP JUMPDEST SWAP2 POP PUSH2 0x3542 DUP3 PUSH2 0x3503 JUMP JUMPDEST PUSH1 0x20 DUP3 ADD SWAP1 POP SWAP2 SWAP1 POP JUMP JUMPDEST PUSH0 PUSH1 0x20 DUP3 ADD SWAP1 POP DUP2 DUP2 SUB PUSH0 DUP4 ADD MSTORE PUSH2 0x3564 DUP2 PUSH2 0x352B JUMP JUMPDEST SWAP1 POP SWAP2 SWAP1 POP JUMP JUMPDEST PUSH32 0x5749544844524157454400000000000000000000000000000000000000000000 PUSH0 DUP3 ADD MSTORE POP JUMP JUMPDEST PUSH0 PUSH2 0x359F PUSH1 0xA DUP4 PUSH2 0x275F JUMP JUMPDEST SWAP2 POP PUSH2 0x35AA DUP3 PUSH2 0x356B JUMP JUMPDEST PUSH1 0x20 DUP3 ADD SWAP1 POP SWAP2 SWAP1 POP JUMP JUMPDEST PUSH0 PUSH1 0x60 DUP3 ADD SWAP1 POP PUSH2 0x35C8 PUSH0 DUP4 ADD DUP6 PUSH2 0x2431 JUMP JUMPDEST DUP2 DUP2 SUB PUSH1 0x20 DUP4 ADD MSTORE PUSH2 0x35D9 DUP2 PUSH2 0x3593 JUMP JUMPDEST SWAP1 POP PUSH2 0x35E8 PUSH1 0x40 DUP4 ADD DUP5 PUSH2 0x29F1 JUMP JUMPDEST SWAP4 SWAP3 POP POP POP JUMP JUMPDEST PUSH0 DUP2 SWAP1 POP SWAP3 SWAP2 POP POP JUMP JUMPDEST POP JUMP JUMPDEST PUSH0 PUSH2 0x3607 PUSH0 DUP4 PUSH2 0x35EF JUMP JUMPDEST SWAP2 POP PUSH2 0x3612 DUP3 PUSH2 0x35F9 JUMP JUMPDEST PUSH0 DUP3 ADD SWAP1 POP SWAP2 SWAP1 POP JUMP JUMPDEST PUSH0 PUSH2 0x3626 DUP3 PUSH2 0x35FC JUMP JUMPDEST SWAP2 POP DUP2 SWAP1 POP SWAP2 SWAP1 POP JUMP JUMPDEST PUSH32 0x5061796D656E74206661696C6564000000000000000000000000000000000000 PUSH0 DUP3 ADD MSTORE POP JUMP JUMPDEST PUSH0 PUSH2 0x3664 PUSH1 0xE DUP4 PUSH2 0x275F JUMP JUMPDEST SWAP2 POP PUSH2 0x366F DUP3 PUSH2 0x3630 JUMP JUMPDEST PUSH1 0x20 DUP3 ADD SWAP1 POP SWAP2 SWAP1 POP JUMP JUMPDEST PUSH0 PUSH1 0x20 DUP3 ADD SWAP1 POP DUP2 DUP2 SUB PUSH0 DUP4 ADD MSTORE PUSH2 0x3691 DUP2 PUSH2 0x3658 JUMP JUMPDEST SWAP1 POP SWAP2 SWAP1 POP JUMP INVALID LOG2 PUSH5 0x6970667358 0x22 SLT KECCAK256 0x2E PUSH15 0xDF6239BD6DAA4FBF9FF55D3340076 0xE8 0xAD 0xF9 RETURNDATASIZE SWAP13 0xF6 XOR CALLVALUE EXTCODEHASH 0xD0 MSTORE PC 0xB0 0xCF 0xA7 PUSH5 0x736F6C6343 STOP ADDMOD XOR STOP CALLER "
				},
				"gasEstimates": {
					"creation": {
						"codeDepositCost": "2806000",
						"executionCost": "infinite",
						"totalCost": "infinite"
					},
					"external": {
						"approveRequest(uint256,address)": "infinite",
						"confirmDelivery(uint256,bool)": "infinite",
						"createItem(string,uint256)": "infinite",
						"escAcc()": "2531",
						"escAvailBal()": "2536",
						"escBal()": "2469",
						"escFee()": "2514",
						"getItem(uint256)": "infinite",
						"getItems()": "infinite",
						"isAvailable(uint256)": "2896",
						"myItems()": "infinite",
						"ownerOf(uint256)": "2872",
						"performDelievery(uint256)": "infinite",
						"refundItem(uint256)": "infinite",
						"requestItem(uint256)": "infinite",
						"requested(address,uint256)": "3138",
						"totalConfirmed()": "2470",
						"totalDisputed()": "2491",
						"totalItems()": "2515",
						"withdrawFund(address,uint256)": "infinite"
					},
					"internal": {
						"payTo(address,uint256)": "infinite"
					}
				},
				"methodIdentifiers": {
					"approveRequest(uint256,address)": "bc045df8",
					"confirmDelivery(uint256,bool)": "04ef0781",
					"createItem(string,uint256)": "8c551742",
					"escAcc()": "618f0ea7",
					"escAvailBal()": "50f18cb7",
					"escBal()": "c86d9da2",
					"escFee()": "4e47368b",
					"getItem(uint256)": "3129e773",
					"getItems()": "410d59cc",
					"isAvailable(uint256)": "3a178d99",
					"myItems()": "10dd7a4c",
					"ownerOf(uint256)": "6352211e",
					"performDelievery(uint256)": "7216f123",
					"refundItem(uint256)": "18059aad",
					"requestItem(uint256)": "d62a4887",
					"requested(address,uint256)": "6754cc28",
					"totalConfirmed()": "4028a0f1",
					"totalDisputed()": "c9958c4d",
					"totalItems()": "2799276d",
					"withdrawFund(address,uint256)": "f7c8d221"
				}
			},
			"storageLayout": {
				"storage": [
					{
						"astId": 10,
						"contract": "contracts/escrowcontract.sol:Escrow",
						"label": "_status",
						"offset": 0,
						"slot": "0",
						"type": "t_uint256"
					},
					{
						"astId": 71,
						"contract": "contracts/escrowcontract.sol:Escrow",
						"label": "escAcc",
						"offset": 0,
						"slot": "1",
						"type": "t_address_payable"
					},
					{
						"astId": 73,
						"contract": "contracts/escrowcontract.sol:Escrow",
						"label": "escBal",
						"offset": 0,
						"slot": "2",
						"type": "t_uint256"
					},
					{
						"astId": 75,
						"contract": "contracts/escrowcontract.sol:Escrow",
						"label": "escAvailBal",
						"offset": 0,
						"slot": "3",
						"type": "t_uint256"
					},
					{
						"astId": 77,
						"contract": "contracts/escrowcontract.sol:Escrow",
						"label": "escFee",
						"offset": 0,
						"slot": "4",
						"type": "t_uint256"
					},
					{
						"astId": 80,
						"contract": "contracts/escrowcontract.sol:Escrow",
						"label": "totalItems",
						"offset": 0,
						"slot": "5",
						"type": "t_uint256"
					},
					{
						"astId": 83,
						"contract": "contracts/escrowcontract.sol:Escrow",
						"label": "totalConfirmed",
						"offset": 0,
						"slot": "6",
						"type": "t_uint256"
					},
					{
						"astId": 86,
						"contract": "contracts/escrowcontract.sol:Escrow",
						"label": "totalDisputed",
						"offset": 0,
						"slot": "7",
						"type": "t_uint256"
					},
					{
						"astId": 91,
						"contract": "contracts/escrowcontract.sol:Escrow",
						"label": "items",
						"offset": 0,
						"slot": "8",
						"type": "t_mapping(t_uint256,t_struct(ItemStruct)143_storage)"
					},
					{
						"astId": 97,
						"contract": "contracts/escrowcontract.sol:Escrow",
						"label": "itemsOf",
						"offset": 0,
						"slot": "9",
						"type": "t_mapping(t_address,t_array(t_struct(ItemStruct)143_storage)dyn_storage)"
					},
					{
						"astId": 103,
						"contract": "contracts/escrowcontract.sol:Escrow",
						"label": "requested",
						"offset": 0,
						"slot": "10",
						"type": "t_mapping(t_address,t_mapping(t_uint256,t_bool))"
					},
					{
						"astId": 107,
						"contract": "contracts/escrowcontract.sol:Escrow",
						"label": "ownerOf",
						"offset": 0,
						"slot": "11",
						"type": "t_mapping(t_uint256,t_address)"
					},
					{
						"astId": 112,
						"contract": "contracts/escrowcontract.sol:Escrow",
						"label": "isAvailable",
						"offset": 0,
						"slot": "12",
						"type": "t_mapping(t_uint256,t_enum(Available)123)"
					}
				],
				"types": {
					"t_address": {
						"encoding": "inplace",
						"label": "address",
						"numberOfBytes": "20"
					},
					"t_address_payable": {
						"encoding": "inplace",
						"label": "address payable",
						"numberOfBytes": "20"
					},
					"t_array(t_struct(ItemStruct)143_storage)dyn_storage": {
						"base": "t_struct(ItemStruct)143_storage",
						"encoding": "dynamic_array",
						"label": "struct Escrow.ItemStruct[]",
						"numberOfBytes": "32"
					},
					"t_bool": {
						"encoding": "inplace",
						"label": "bool",
						"numberOfBytes": "1"
					},
					"t_enum(Available)123": {
						"encoding": "inplace",
						"label": "enum Escrow.Available",
						"numberOfBytes": "1"
					},
					"t_enum(Status)120": {
						"encoding": "inplace",
						"label": "enum Escrow.Status",
						"numberOfBytes": "1"
					},
					"t_mapping(t_address,t_array(t_struct(ItemStruct)143_storage)dyn_storage)": {
						"encoding": "mapping",
						"key": "t_address",
						"label": "mapping(address => struct Escrow.ItemStruct[])",
						"numberOfBytes": "32",
						"value": "t_array(t_struct(ItemStruct)143_storage)dyn_storage"
					},
					"t_mapping(t_address,t_mapping(t_uint256,t_bool))": {
						"encoding": "mapping",
						"key": "t_address",
						"label": "mapping(address => mapping(uint256 => bool))",
						"numberOfBytes": "32",
						"value": "t_mapping(t_uint256,t_bool)"
					},
					"t_mapping(t_uint256,t_address)": {
						"encoding": "mapping",
						"key": "t_uint256",
						"label": "mapping(uint256 => address)",
						"numberOfBytes": "32",
						"value": "t_address"
					},
					"t_mapping(t_uint256,t_bool)": {
						"encoding": "mapping",
						"key": "t_uint256",
						"label": "mapping(uint256 => bool)",
						"numberOfBytes": "32",
						"value": "t_bool"
					},
					"t_mapping(t_uint256,t_enum(Available)123)": {
						"encoding": "mapping",
						"key": "t_uint256",
						"label": "mapping(uint256 => enum Escrow.Available)",
						"numberOfBytes": "32",
						"value": "t_enum(Available)123"
					},
					"t_mapping(t_uint256,t_struct(ItemStruct)143_storage)": {
						"encoding": "mapping",
						"key": "t_uint256",
						"label": "mapping(uint256 => struct Escrow.ItemStruct)",
						"numberOfBytes": "32",
						"value": "t_struct(ItemStruct)143_storage"
					},
					"t_string_storage": {
						"encoding": "bytes",
						"label": "string",
						"numberOfBytes": "32"
					},
					"t_struct(ItemStruct)143_storage": {
						"encoding": "inplace",
						"label": "struct Escrow.ItemStruct",
						"members": [
							{
								"astId": 125,
								"contract": "contracts/escrowcontract.sol:Escrow",
								"label": "itemId",
								"offset": 0,
								"slot": "0",
								"type": "t_uint256"
							},
							{
								"astId": 127,
								"contract": "contracts/escrowcontract.sol:Escrow",
								"label": "purpose",
								"offset": 0,
								"slot": "1",
								"type": "t_string_storage"
							},
							{
								"astId": 129,
								"contract": "contracts/escrowcontract.sol:Escrow",
								"label": "amount",
								"offset": 0,
								"slot": "2",
								"type": "t_uint256"
							},
							{
								"astId": 131,
								"contract": "contracts/escrowcontract.sol:Escrow",
								"label": "timestamp",
								"offset": 0,
								"slot": "3",
								"type": "t_uint256"
							},
							{
								"astId": 133,
								"contract": "contracts/escrowcontract.sol:Escrow",
								"label": "owner",
								"offset": 0,
								"slot": "4",
								"type": "t_address"
							},
							{
								"astId": 135,
								"contract": "contracts/escrowcontract.sol:Escrow",
								"label": "provider",
								"offset": 0,
								"slot": "5",
								"type": "t_address"
							},
							{
								"astId": 138,
								"contract": "contracts/escrowcontract.sol:Escrow",
								"label": "status",
								"offset": 20,
								"slot": "5",
								"type": "t_enum(Status)120"
							},
							{
								"astId": 140,
								"contract": "contracts/escrowcontract.sol:Escrow",
								"label": "provided",
								"offset": 21,
								"slot": "5",
								"type": "t_bool"
							},
							{
								"astId": 142,
								"contract": "contracts/escrowcontract.sol:Escrow",
								"label": "confirmed",
								"offset": 22,
								"slot": "5",
								"type": "t_bool"
							}
						],
						"numberOfBytes": "192"
					},
					"t_uint256": {
						"encoding": "inplace",
						"label": "uint256",
						"numberOfBytes": "32"
					}
				}
			},
			"userdoc": {
				"kind": "user",
				"methods": {},
				"version": 1
			}
		}
	}
}