{
	"contracts/cropcontract.sol": {
		"Futures": {
			"abi": [
				{
					"inputs": [],
					"stateMutability": "nonpayable",
					"type": "constructor"
				},
				{
					"anonymous": false,
					"inputs": [
						{
							"indexed": false,
							"internalType": "bytes32",
							"name": "id",
							"type": "bytes32"
						},
						{
							"indexed": false,
							"internalType": "string",
							"name": "actionType",
							"type": "string"
						},
						{
							"indexed": false,
							"internalType": "enum Futures.Status",
							"name": "status",
							"type": "uint8"
						},
						{
							"indexed": true,
							"internalType": "address",
							"name": "executor",
							"type": "address"
						}
					],
					"name": "Action",
					"type": "event"
				},
				{
					"inputs": [
						{
							"internalType": "bytes32",
							"name": "_contractId",
							"type": "bytes32"
						}
					],
					"name": "acceptContract",
					"outputs": [],
					"stateMutability": "payable",
					"type": "function"
				},
				{
					"inputs": [
						{
							"internalType": "address",
							"name": "",
							"type": "address"
						},
						{
							"internalType": "uint256",
							"name": "",
							"type": "uint256"
						}
					],
					"name": "accepted",
					"outputs": [
						{
							"internalType": "bool",
							"name": "",
							"type": "bool"
						}
					],
					"stateMutability": "view",
					"type": "function"
				},
				{
					"inputs": [],
					"name": "buyer",
					"outputs": [
						{
							"internalType": "address payable",
							"name": "",
							"type": "address"
						}
					],
					"stateMutability": "view",
					"type": "function"
				},
				{
					"inputs": [
						{
							"internalType": "string",
							"name": "_name",
							"type": "string"
						},
						{
							"internalType": "uint256",
							"name": "_phoneNo",
							"type": "uint256"
						},
						{
							"internalType": "string",
							"name": "_email",
							"type": "string"
						},
						{
							"internalType": "string",
							"name": "_businessName",
							"type": "string"
						},
						{
							"internalType": "string",
							"name": "_location",
							"type": "string"
						}
					],
					"name": "createBuyer",
					"outputs": [],
					"stateMutability": "nonpayable",
					"type": "function"
				},
				{
					"inputs": [
						{
							"internalType": "string",
							"name": "_product",
							"type": "string"
						},
						{
							"internalType": "uint256",
							"name": "_quantity",
							"type": "uint256"
						},
						{
							"internalType": "string",
							"name": "_unit",
							"type": "string"
						},
						{
							"internalType": "string",
							"name": "_expectedMonthOfDelivery",
							"type": "string"
						},
						{
							"internalType": "uint256",
							"name": "_pricePerUnit",
							"type": "uint256"
						},
						{
							"internalType": "string",
							"name": "_termsAndConditions",
							"type": "string"
						}
					],
					"name": "createCropContract",
					"outputs": [],
					"stateMutability": "nonpayable",
					"type": "function"
				},
				{
					"inputs": [
						{
							"internalType": "string",
							"name": "_name",
							"type": "string"
						},
						{
							"internalType": "string",
							"name": "_email",
							"type": "string"
						},
						{
							"internalType": "string",
							"name": "_phoneNumber",
							"type": "string"
						},
						{
							"internalType": "string",
							"name": "_cropTypes",
							"type": "string"
						},
						{
							"internalType": "string",
							"name": "_location",
							"type": "string"
						}
					],
					"name": "createFarmer",
					"outputs": [],
					"stateMutability": "nonpayable",
					"type": "function"
				},
				{
					"inputs": [],
					"name": "escAcc",
					"outputs": [
						{
							"internalType": "address payable",
							"name": "",
							"type": "address"
						}
					],
					"stateMutability": "view",
					"type": "function"
				},
				{
					"inputs": [],
					"name": "escAvailBal",
					"outputs": [
						{
							"internalType": "uint256",
							"name": "",
							"type": "uint256"
						}
					],
					"stateMutability": "view",
					"type": "function"
				},
				{
					"inputs": [],
					"name": "escBal",
					"outputs": [
						{
							"internalType": "uint256",
							"name": "",
							"type": "uint256"
						}
					],
					"stateMutability": "view",
					"type": "function"
				},
				{
					"inputs": [],
					"name": "escFee",
					"outputs": [
						{
							"internalType": "uint256",
							"name": "",
							"type": "uint256"
						}
					],
					"stateMutability": "view",
					"type": "function"
				},
				{
					"inputs": [],
					"name": "farmer",
					"outputs": [
						{
							"internalType": "address payable",
							"name": "",
							"type": "address"
						}
					],
					"stateMutability": "view",
					"type": "function"
				},
				{
					"inputs": [],
					"name": "getAllContracts",
					"outputs": [
						{
							"components": [
								{
									"internalType": "bytes32",
									"name": "id",
									"type": "bytes32"
								},
								{
									"internalType": "string",
									"name": "product",
									"type": "string"
								},
								{
									"internalType": "uint256",
									"name": "quantity",
									"type": "uint256"
								},
								{
									"internalType": "string",
									"name": "unit",
									"type": "string"
								},
								{
									"internalType": "string",
									"name": "expectedMonthOfDelivery",
									"type": "string"
								},
								{
									"internalType": "uint256",
									"name": "pricePerUnit",
									"type": "uint256"
								},
								{
									"internalType": "string",
									"name": "termsAndConditions",
									"type": "string"
								},
								{
									"internalType": "address",
									"name": "owner",
									"type": "address"
								},
								{
									"internalType": "address",
									"name": "buyer",
									"type": "address"
								},
								{
									"internalType": "enum Futures.Status",
									"name": "status",
									"type": "uint8"
								},
								{
									"internalType": "bool",
									"name": "accepted",
									"type": "bool"
								}
							],
							"internalType": "struct Futures.CropContractStruct[]",
							"name": "",
							"type": "tuple[]"
						}
					],
					"stateMutability": "view",
					"type": "function"
				},
				{
					"inputs": [],
					"name": "getMyContracts",
					"outputs": [
						{
							"components": [
								{
									"internalType": "bytes32",
									"name": "id",
									"type": "bytes32"
								},
								{
									"internalType": "string",
									"name": "product",
									"type": "string"
								},
								{
									"internalType": "uint256",
									"name": "quantity",
									"type": "uint256"
								},
								{
									"internalType": "string",
									"name": "unit",
									"type": "string"
								},
								{
									"internalType": "string",
									"name": "expectedMonthOfDelivery",
									"type": "string"
								},
								{
									"internalType": "uint256",
									"name": "pricePerUnit",
									"type": "uint256"
								},
								{
									"internalType": "string",
									"name": "termsAndConditions",
									"type": "string"
								},
								{
									"internalType": "address",
									"name": "owner",
									"type": "address"
								},
								{
									"internalType": "address",
									"name": "buyer",
									"type": "address"
								},
								{
									"internalType": "enum Futures.Status",
									"name": "status",
									"type": "uint8"
								},
								{
									"internalType": "bool",
									"name": "accepted",
									"type": "bool"
								}
							],
							"internalType": "struct Futures.CropContractStruct[]",
							"name": "",
							"type": "tuple[]"
						}
					],
					"stateMutability": "view",
					"type": "function"
				},
				{
					"inputs": [
						{
							"internalType": "uint256",
							"name": "",
							"type": "uint256"
						}
					],
					"name": "isAvailable",
					"outputs": [
						{
							"internalType": "enum Futures.Available",
							"name": "",
							"type": "uint8"
						}
					],
					"stateMutability": "view",
					"type": "function"
				},
				{
					"inputs": [
						{
							"internalType": "bytes32",
							"name": "",
							"type": "bytes32"
						}
					],
					"name": "ownerOf",
					"outputs": [
						{
							"internalType": "address",
							"name": "",
							"type": "address"
						}
					],
					"stateMutability": "view",
					"type": "function"
				},
				{
					"inputs": [],
					"name": "totalComplete",
					"outputs": [
						{
							"internalType": "uint256",
							"name": "",
							"type": "uint256"
						}
					],
					"stateMutability": "view",
					"type": "function"
				},
				{
					"inputs": [],
					"name": "totalContracts",
					"outputs": [
						{
							"internalType": "uint256",
							"name": "",
							"type": "uint256"
						}
					],
					"stateMutability": "view",
					"type": "function"
				},
				{
					"inputs": [],
					"name": "totalTerminated",
					"outputs": [
						{
							"internalType": "uint256",
							"name": "",
							"type": "uint256"
						}
					],
					"stateMutability": "view",
					"type": "function"
				}
			],
			"devdoc": {
				"kind": "dev",
				"methods": {},
				"version": 1
			},
			"evm": {
				"assembly": "    /* \"contracts/cropcontract.sol\":122:6514  contract Futures is ReentrancyGuard {... */\n  mstore(0x40, 0x80)\n    /* \"contracts/cropcontract.sol\":388:389  0 */\n  0x00\n    /* \"contracts/cropcontract.sol\":356:389  uint256 public totalContracts = 0 */\n  0x07\n  sstore\n    /* \"contracts/cropcontract.sol\":426:427  0 */\n  0x00\n    /* \"contracts/cropcontract.sol\":395:427  uint256 public totalComplete = 0 */\n  0x08\n  sstore\n    /* \"contracts/cropcontract.sol\":466:467  0 */\n  0x00\n    /* \"contracts/cropcontract.sol\":433:467  uint256 public totalTerminated = 0 */\n  0x09\n  sstore\n    /* \"contracts/cropcontract.sol\":1979:2114  constructor () {... */\n  callvalue\n  dup1\n  iszero\n  tag_1\n  jumpi\n  0x00\n  dup1\n  revert\ntag_1:\n  pop\n    /* \"@openzeppelin/contracts/security/ReentrancyGuard.sol\":1716:1717  1 */\n  0x01\n    /* \"@openzeppelin/contracts/security/ReentrancyGuard.sol\":1821:1828  _status */\n  0x00\n    /* \"@openzeppelin/contracts/security/ReentrancyGuard.sol\":1821:1843  _status = _NOT_ENTERED */\n  dup2\n  swap1\n  sstore\n  pop\n    /* \"contracts/cropcontract.sol\":2022:2032  msg.sender */\n  caller\n    /* \"contracts/cropcontract.sol\":2004:2010  escAcc */\n  0x01\n  0x00\n    /* \"contracts/cropcontract.sol\":2004:2033  escAcc = payable (msg.sender) */\n  0x0100\n  exp\n  dup2\n  sload\n  dup2\n  0xffffffffffffffffffffffffffffffffffffffff\n  mul\n  not\n  and\n  swap1\n  dup4\n  0xffffffffffffffffffffffffffffffffffffffff\n  and\n  mul\n  or\n  swap1\n  sstore\n  pop\n    /* \"contracts/cropcontract.sol\":2052:2053  0 */\n  0x00\n    /* \"contracts/cropcontract.sol\":2043:2049  escBal */\n  0x04\n    /* \"contracts/cropcontract.sol\":2043:2053  escBal = 0 */\n  dup2\n  swap1\n  sstore\n  pop\n    /* \"contracts/cropcontract.sol\":2077:2078  0 */\n  0x00\n    /* \"contracts/cropcontract.sol\":2063:2074  escAvailBal */\n  0x06\n    /* \"contracts/cropcontract.sol\":2063:2078  escAvailBal = 0 */\n  dup2\n  swap1\n  sstore\n  pop\n    /* \"contracts/cropcontract.sol\":122:6514  contract Futures is ReentrancyGuard {... */\n  dataSize(sub_0)\n  dup1\n  dataOffset(sub_0)\n  0x00\n  codecopy\n  0x00\n  return\nstop\n\nsub_0: assembly {\n        /* \"contracts/cropcontract.sol\":122:6514  contract Futures is ReentrancyGuard {... */\n      mstore(0x40, 0x80)\n      jumpi(tag_1, lt(calldatasize, 0x04))\n      shr(0xe0, calldataload(0x00))\n      dup1\n      0x7150d8ae\n      gt\n      tag_20\n      jumpi\n      dup1\n      0xc81bde15\n      gt\n      tag_21\n      jumpi\n      dup1\n      0xc81bde15\n      eq\n      tag_15\n      jumpi\n      dup1\n      0xc86d9da2\n      eq\n      tag_16\n      jumpi\n      dup1\n      0xd811fcf0\n      eq\n      tag_17\n      jumpi\n      dup1\n      0xe96a155c\n      eq\n      tag_18\n      jumpi\n      dup1\n      0xf3cdc81e\n      eq\n      tag_19\n      jumpi\n      jump(tag_1)\n    tag_21:\n      dup1\n      0x7150d8ae\n      eq\n      tag_11\n      jumpi\n      dup1\n      0x7dd56411\n      eq\n      tag_12\n      jumpi\n      dup1\n      0xa09037a9\n      eq\n      tag_13\n      jumpi\n      dup1\n      0xb86b1fbe\n      eq\n      tag_14\n      jumpi\n      jump(tag_1)\n    tag_20:\n      dup1\n      0x3a178d99\n      gt\n      tag_22\n      jumpi\n      dup1\n      0x3a178d99\n      eq\n      tag_6\n      jumpi\n      dup1\n      0x42c6e7fd\n      eq\n      tag_7\n      jumpi\n      dup1\n      0x4e47368b\n      eq\n      tag_8\n      jumpi\n      dup1\n      0x50f18cb7\n      eq\n      tag_9\n      jumpi\n      dup1\n      0x618f0ea7\n      eq\n      tag_10\n      jumpi\n      jump(tag_1)\n    tag_22:\n      dup1\n      0x039858e4\n      eq\n      tag_2\n      jumpi\n      dup1\n      0x09bfcd73\n      eq\n      tag_3\n      jumpi\n      dup1\n      0x18d3ce96\n      eq\n      tag_4\n      jumpi\n      dup1\n      0x2107e9e1\n      eq\n      tag_5\n      jumpi\n    tag_1:\n      0x00\n      dup1\n      revert\n        /* \"contracts/cropcontract.sol\":716:778  mapping(address =>  mapping(uint256 => bool)) public  accepted */\n    tag_2:\n      callvalue\n      dup1\n      iszero\n      tag_23\n      jumpi\n      0x00\n      dup1\n      revert\n    tag_23:\n      pop\n      tag_24\n      0x04\n      dup1\n      calldatasize\n      sub\n      dup2\n      add\n      swap1\n      tag_25\n      swap2\n      swap1\n      tag_26\n      jump\t// in\n    tag_25:\n      tag_27\n      jump\t// in\n    tag_24:\n      mload(0x40)\n      tag_28\n      swap2\n      swap1\n      tag_29\n      jump\t// in\n    tag_28:\n      mload(0x40)\n      dup1\n      swap2\n      sub\n      swap1\n      return\n        /* \"contracts/cropcontract.sol\":3882:5179  function createCropContract(... */\n    tag_3:\n      callvalue\n      dup1\n      iszero\n      tag_30\n      jumpi\n      0x00\n      dup1\n      revert\n    tag_30:\n      pop\n      tag_31\n      0x04\n      dup1\n      calldatasize\n      sub\n      dup2\n      add\n      swap1\n      tag_32\n      swap2\n      swap1\n      tag_33\n      jump\t// in\n    tag_32:\n      tag_34\n      jump\t// in\n    tag_31:\n      stop\n        /* \"contracts/cropcontract.sol\":5304:5671  function getAllContracts() external view returns (CropContractStruct[] memory) {... */\n    tag_4:\n      callvalue\n      dup1\n      iszero\n      tag_35\n      jumpi\n      0x00\n      dup1\n      revert\n    tag_35:\n      pop\n      tag_36\n      tag_37\n      jump\t// in\n    tag_36:\n      mload(0x40)\n      tag_38\n      swap2\n      swap1\n      tag_39\n      jump\t// in\n    tag_38:\n      mload(0x40)\n      dup1\n      swap2\n      sub\n      swap1\n      return\n        /* \"contracts/cropcontract.sol\":2120:2981  function createBuyer(... */\n    tag_5:\n      callvalue\n      dup1\n      iszero\n      tag_40\n      jumpi\n      0x00\n      dup1\n      revert\n    tag_40:\n      pop\n      tag_41\n      0x04\n      dup1\n      calldatasize\n      sub\n      dup2\n      add\n      swap1\n      tag_42\n      swap2\n      swap1\n      tag_43\n      jump\t// in\n    tag_42:\n      tag_44\n      jump\t// in\n    tag_41:\n      stop\n        /* \"contracts/cropcontract.sol\":832:880  mapping(uint256 => Available) public isAvailable */\n    tag_6:\n      callvalue\n      dup1\n      iszero\n      tag_45\n      jumpi\n      0x00\n      dup1\n      revert\n    tag_45:\n      pop\n      tag_46\n      0x04\n      dup1\n      calldatasize\n      sub\n      dup2\n      add\n      swap1\n      tag_47\n      swap2\n      swap1\n      tag_48\n      jump\t// in\n    tag_47:\n      tag_49\n      jump\t// in\n    tag_46:\n      mload(0x40)\n      tag_50\n      swap2\n      swap1\n      tag_51\n      jump\t// in\n    tag_50:\n      mload(0x40)\n      dup1\n      swap2\n      sub\n      swap1\n      return\n        /* \"contracts/cropcontract.sol\":395:427  uint256 public totalComplete = 0 */\n    tag_7:\n      callvalue\n      dup1\n      iszero\n      tag_52\n      jumpi\n      0x00\n      dup1\n      revert\n    tag_52:\n      pop\n      tag_53\n      tag_54\n      jump\t// in\n    tag_53:\n      mload(0x40)\n      tag_55\n      swap2\n      swap1\n      tag_56\n      jump\t// in\n    tag_55:\n      mload(0x40)\n      dup1\n      swap2\n      sub\n      swap1\n      return\n        /* \"contracts/cropcontract.sol\":297:318  uint256 public escFee */\n    tag_8:\n      callvalue\n      dup1\n      iszero\n      tag_57\n      jumpi\n      0x00\n      dup1\n      revert\n    tag_57:\n      pop\n      tag_58\n      tag_59\n      jump\t// in\n    tag_58:\n      mload(0x40)\n      tag_60\n      swap2\n      swap1\n      tag_56\n      jump\t// in\n    tag_60:\n      mload(0x40)\n      dup1\n      swap2\n      sub\n      swap1\n      return\n        /* \"contracts/cropcontract.sol\":324:350  uint256 public escAvailBal */\n    tag_9:\n      callvalue\n      dup1\n      iszero\n      tag_61\n      jumpi\n      0x00\n      dup1\n      revert\n    tag_61:\n      pop\n      tag_62\n      tag_63\n      jump\t// in\n    tag_62:\n      mload(0x40)\n      tag_64\n      swap2\n      swap1\n      tag_56\n      jump\t// in\n    tag_64:\n      mload(0x40)\n      dup1\n      swap2\n      sub\n      swap1\n      return\n        /* \"contracts/cropcontract.sol\":164:193  address payable public escAcc */\n    tag_10:\n      callvalue\n      dup1\n      iszero\n      tag_65\n      jumpi\n      0x00\n      dup1\n      revert\n    tag_65:\n      pop\n      tag_66\n      tag_67\n      jump\t// in\n    tag_66:\n      mload(0x40)\n      tag_68\n      swap2\n      swap1\n      tag_69\n      jump\t// in\n    tag_68:\n      mload(0x40)\n      dup1\n      swap2\n      sub\n      swap1\n      return\n        /* \"contracts/cropcontract.sol\":199:228  address payable public  buyer */\n    tag_11:\n      callvalue\n      dup1\n      iszero\n      tag_70\n      jumpi\n      0x00\n      dup1\n      revert\n    tag_70:\n      pop\n      tag_71\n      tag_72\n      jump\t// in\n    tag_71:\n      mload(0x40)\n      tag_73\n      swap2\n      swap1\n      tag_69\n      jump\t// in\n    tag_73:\n      mload(0x40)\n      dup1\n      swap2\n      sub\n      swap1\n      return\n        /* \"contracts/cropcontract.sol\":784:826  mapping(bytes32 => address) public ownerOf */\n    tag_12:\n      callvalue\n      dup1\n      iszero\n      tag_74\n      jumpi\n      0x00\n      dup1\n      revert\n    tag_74:\n      pop\n      tag_75\n      0x04\n      dup1\n      calldatasize\n      sub\n      dup2\n      add\n      swap1\n      tag_76\n      swap2\n      swap1\n      tag_77\n      jump\t// in\n    tag_76:\n      tag_78\n      jump\t// in\n    tag_75:\n      mload(0x40)\n      tag_79\n      swap2\n      swap1\n      tag_80\n      jump\t// in\n    tag_79:\n      mload(0x40)\n      dup1\n      swap2\n      sub\n      swap1\n      return\n        /* \"contracts/cropcontract.sol\":356:389  uint256 public totalContracts = 0 */\n    tag_13:\n      callvalue\n      dup1\n      iszero\n      tag_81\n      jumpi\n      0x00\n      dup1\n      revert\n    tag_81:\n      pop\n      tag_82\n      tag_83\n      jump\t// in\n    tag_82:\n      mload(0x40)\n      tag_84\n      swap2\n      swap1\n      tag_56\n      jump\t// in\n    tag_84:\n      mload(0x40)\n      dup1\n      swap2\n      sub\n      swap1\n      return\n        /* \"contracts/cropcontract.sol\":433:467  uint256 public totalTerminated = 0 */\n    tag_14:\n      callvalue\n      dup1\n      iszero\n      tag_85\n      jumpi\n      0x00\n      dup1\n      revert\n    tag_85:\n      pop\n      tag_86\n      tag_87\n      jump\t// in\n    tag_86:\n      mload(0x40)\n      tag_88\n      swap2\n      swap1\n      tag_56\n      jump\t// in\n    tag_88:\n      mload(0x40)\n      dup1\n      swap2\n      sub\n      swap1\n      return\n        /* \"contracts/cropcontract.sol\":5181:5302  function getMyContracts() external view returns (CropContractStruct[] memory) {... */\n    tag_15:\n      callvalue\n      dup1\n      iszero\n      tag_89\n      jumpi\n      0x00\n      dup1\n      revert\n    tag_89:\n      pop\n      tag_90\n      tag_91\n      jump\t// in\n    tag_90:\n      mload(0x40)\n      tag_92\n      swap2\n      swap1\n      tag_39\n      jump\t// in\n    tag_92:\n      mload(0x40)\n      dup1\n      swap2\n      sub\n      swap1\n      return\n        /* \"contracts/cropcontract.sol\":270:291  uint256 public escBal */\n    tag_16:\n      callvalue\n      dup1\n      iszero\n      tag_93\n      jumpi\n      0x00\n      dup1\n      revert\n    tag_93:\n      pop\n      tag_94\n      tag_95\n      jump\t// in\n    tag_94:\n      mload(0x40)\n      tag_96\n      swap2\n      swap1\n      tag_56\n      jump\t// in\n    tag_96:\n      mload(0x40)\n      dup1\n      swap2\n      sub\n      swap1\n      return\n        /* \"contracts/cropcontract.sol\":234:264  address payable public  farmer */\n    tag_17:\n      callvalue\n      dup1\n      iszero\n      tag_97\n      jumpi\n      0x00\n      dup1\n      revert\n    tag_97:\n      pop\n      tag_98\n      tag_99\n      jump\t// in\n    tag_98:\n      mload(0x40)\n      tag_100\n      swap2\n      swap1\n      tag_69\n      jump\t// in\n    tag_100:\n      mload(0x40)\n      dup1\n      swap2\n      sub\n      swap1\n      return\n        /* \"contracts/cropcontract.sol\":2983:3880  function createFarmer(... */\n    tag_18:\n      callvalue\n      dup1\n      iszero\n      tag_101\n      jumpi\n      0x00\n      dup1\n      revert\n    tag_101:\n      pop\n      tag_102\n      0x04\n      dup1\n      calldatasize\n      sub\n      dup2\n      add\n      swap1\n      tag_103\n      swap2\n      swap1\n      tag_104\n      jump\t// in\n    tag_103:\n      tag_105\n      jump\t// in\n    tag_102:\n      stop\n        /* \"contracts/cropcontract.sol\":5673:6481  function acceptContract(bytes32 _contractId) external payable {... */\n    tag_19:\n      tag_106\n      0x04\n      dup1\n      calldatasize\n      sub\n      dup2\n      add\n      swap1\n      tag_107\n      swap2\n      swap1\n      tag_77\n      jump\t// in\n    tag_107:\n      tag_108\n      jump\t// in\n    tag_106:\n      stop\n        /* \"contracts/cropcontract.sol\":716:778  mapping(address =>  mapping(uint256 => bool)) public  accepted */\n    tag_27:\n      mstore(0x20, 0x0e)\n      dup2\n      0x00\n      mstore\n      mstore(0x20, keccak256(0x00, 0x40))\n      dup1\n      0x00\n      mstore\n      keccak256(0x00, 0x40)\n      0x00\n      swap2\n      pop\n      swap2\n      pop\n      swap1\n      sload\n      swap1\n      0x0100\n      exp\n      swap1\n      div\n      0xff\n      and\n      dup2\n      jump\t// out\n        /* \"contracts/cropcontract.sol\":3882:5179  function createCropContract(... */\n    tag_34:\n        /* \"contracts/cropcontract.sol\":4155:4156  0 */\n      0x00\n        /* \"contracts/cropcontract.sol\":4136:4144  _product */\n      dup7\n        /* \"contracts/cropcontract.sol\":4130:4152  bytes(_product).length */\n      mload\n        /* \"contracts/cropcontract.sol\":4130:4156  bytes(_product).length > 0 */\n      gt\n        /* \"contracts/cropcontract.sol\":4130:4181  bytes(_product).length > 0 &&... */\n      dup1\n      iszero\n      tag_110\n      jumpi\n      pop\n        /* \"contracts/cropcontract.sol\":4180:4181  0 */\n      0x00\n        /* \"contracts/cropcontract.sol\":4168:4177  _quantity */\n      dup6\n        /* \"contracts/cropcontract.sol\":4168:4181  _quantity > 0 */\n      gt\n        /* \"contracts/cropcontract.sol\":4130:4181  bytes(_product).length > 0 &&... */\n    tag_110:\n        /* \"contracts/cropcontract.sol\":4130:4216  bytes(_product).length > 0 &&... */\n      dup1\n      iszero\n      tag_111\n      jumpi\n      pop\n        /* \"contracts/cropcontract.sol\":4215:4216  0 */\n      0x00\n        /* \"contracts/cropcontract.sol\":4199:4204  _unit */\n      dup5\n        /* \"contracts/cropcontract.sol\":4193:4212  bytes(_unit).length */\n      mload\n        /* \"contracts/cropcontract.sol\":4193:4216  bytes(_unit).length > 0 */\n      gt\n        /* \"contracts/cropcontract.sol\":4130:4216  bytes(_product).length > 0 &&... */\n    tag_111:\n        /* \"contracts/cropcontract.sol\":4130:4270  bytes(_product).length > 0 &&... */\n      dup1\n      iszero\n      tag_112\n      jumpi\n      pop\n        /* \"contracts/cropcontract.sol\":4269:4270  0 */\n      0x00\n        /* \"contracts/cropcontract.sol\":4234:4258  _expectedMonthOfDelivery */\n      dup4\n        /* \"contracts/cropcontract.sol\":4228:4266  bytes(_expectedMonthOfDelivery).length */\n      mload\n        /* \"contracts/cropcontract.sol\":4228:4270  bytes(_expectedMonthOfDelivery).length > 0 */\n      gt\n        /* \"contracts/cropcontract.sol\":4130:4270  bytes(_product).length > 0 &&... */\n    tag_112:\n        /* \"contracts/cropcontract.sol\":4130:4299  bytes(_product).length > 0 &&... */\n      dup1\n      iszero\n      tag_113\n      jumpi\n      pop\n        /* \"contracts/cropcontract.sol\":4298:4299  0 */\n      0x00\n        /* \"contracts/cropcontract.sol\":4282:4295  _pricePerUnit */\n      dup3\n        /* \"contracts/cropcontract.sol\":4282:4299  _pricePerUnit > 0 */\n      gt\n        /* \"contracts/cropcontract.sol\":4130:4299  bytes(_product).length > 0 &&... */\n    tag_113:\n        /* \"contracts/cropcontract.sol\":4130:4348  bytes(_product).length > 0 &&... */\n      dup1\n      iszero\n      tag_114\n      jumpi\n      pop\n        /* \"contracts/cropcontract.sol\":4347:4348  0 */\n      0x00\n        /* \"contracts/cropcontract.sol\":4317:4336  _termsAndConditions */\n      dup2\n        /* \"contracts/cropcontract.sol\":4311:4344  bytes(_termsAndConditions).length */\n      mload\n        /* \"contracts/cropcontract.sol\":4311:4348  bytes(_termsAndConditions).length > 0 */\n      gt\n        /* \"contracts/cropcontract.sol\":4130:4348  bytes(_product).length > 0 &&... */\n    tag_114:\n        /* \"contracts/cropcontract.sol\":4113:4379  require(... */\n      tag_115\n      jumpi\n      mload(0x40)\n      0x08c379a000000000000000000000000000000000000000000000000000000000\n      dup2\n      mstore\n      0x04\n      add\n      tag_116\n      swap1\n      tag_117\n      jump\t// in\n    tag_116:\n      mload(0x40)\n      dup1\n      swap2\n      sub\n      swap1\n      revert\n    tag_115:\n        /* \"contracts/cropcontract.sol\":4386:4404  bytes32 contractId */\n      0x00\n        /* \"contracts/cropcontract.sol\":4434:4444  msg.sender */\n      caller\n        /* \"contracts/cropcontract.sol\":4446:4461  block.timestamp */\n      timestamp\n        /* \"contracts/cropcontract.sol\":4417:4462  abi.encodePacked(msg.sender, block.timestamp) */\n      add(0x20, mload(0x40))\n      tag_118\n      swap3\n      swap2\n      swap1\n      tag_119\n      jump\t// in\n    tag_118:\n      mload(0x40)\n      0x20\n      dup2\n      dup4\n      sub\n      sub\n      dup2\n      mstore\n      swap1\n      0x40\n      mstore\n        /* \"contracts/cropcontract.sol\":4407:4463  keccak256(abi.encodePacked(msg.sender, block.timestamp)) */\n      dup1\n      mload\n      swap1\n      0x20\n      add\n      keccak256\n        /* \"contracts/cropcontract.sol\":4386:4463  bytes32 contractId = keccak256(abi.encodePacked(msg.sender, block.timestamp)) */\n      swap1\n      pop\n        /* \"contracts/cropcontract.sol\":4469:4506  CropContractStruct memory newContract */\n      0x00\n        /* \"contracts/cropcontract.sol\":4509:4925  CropContractStruct({... */\n      mload(0x40)\n      dup1\n      0x0160\n      add\n      0x40\n      mstore\n      dup1\n        /* \"contracts/cropcontract.sol\":4542:4552  contractId */\n      dup4\n        /* \"contracts/cropcontract.sol\":4509:4925  CropContractStruct({... */\n      dup2\n      mstore\n      0x20\n      add\n        /* \"contracts/cropcontract.sol\":4571:4579  _product */\n      dup10\n        /* \"contracts/cropcontract.sol\":4509:4925  CropContractStruct({... */\n      dup2\n      mstore\n      0x20\n      add\n        /* \"contracts/cropcontract.sol\":4599:4608  _quantity */\n      dup9\n        /* \"contracts/cropcontract.sol\":4509:4925  CropContractStruct({... */\n      dup2\n      mstore\n      0x20\n      add\n        /* \"contracts/cropcontract.sol\":4624:4629  _unit */\n      dup8\n        /* \"contracts/cropcontract.sol\":4509:4925  CropContractStruct({... */\n      dup2\n      mstore\n      0x20\n      add\n        /* \"contracts/cropcontract.sol\":4664:4688  _expectedMonthOfDelivery */\n      dup7\n        /* \"contracts/cropcontract.sol\":4509:4925  CropContractStruct({... */\n      dup2\n      mstore\n      0x20\n      add\n        /* \"contracts/cropcontract.sol\":4712:4725  _pricePerUnit */\n      dup6\n        /* \"contracts/cropcontract.sol\":4509:4925  CropContractStruct({... */\n      dup2\n      mstore\n      0x20\n      add\n        /* \"contracts/cropcontract.sol\":4755:4774  _termsAndConditions */\n      dup5\n        /* \"contracts/cropcontract.sol\":4509:4925  CropContractStruct({... */\n      dup2\n      mstore\n      0x20\n      add\n        /* \"contracts/cropcontract.sol\":4791:4801  msg.sender */\n      caller\n        /* \"contracts/cropcontract.sol\":4509:4925  CropContractStruct({... */\n      0xffffffffffffffffffffffffffffffffffffffff\n      and\n      dup2\n      mstore\n      0x20\n      add\n        /* \"contracts/cropcontract.sol\":4826:4827  0 */\n      0x00\n        /* \"contracts/cropcontract.sol\":4509:4925  CropContractStruct({... */\n      0xffffffffffffffffffffffffffffffffffffffff\n      and\n      dup2\n      mstore\n      0x20\n      add\n        /* \"contracts/cropcontract.sol\":4879:4893  Status.CREATED */\n      0x00\n        /* \"contracts/cropcontract.sol\":4509:4925  CropContractStruct({... */\n      0x07\n      dup2\n      gt\n      iszero\n      tag_120\n      jumpi\n      tag_121\n      tag_122\n      jump\t// in\n    tag_121:\n    tag_120:\n      dup2\n      mstore\n      0x20\n      add\n        /* \"contracts/cropcontract.sol\":4913:4918  false */\n      0x00\n        /* \"contracts/cropcontract.sol\":4509:4925  CropContractStruct({... */\n      iszero\n      iszero\n      dup2\n      mstore\n      pop\n        /* \"contracts/cropcontract.sol\":4469:4925  CropContractStruct memory newContract = CropContractStruct({... */\n      swap1\n      pop\n        /* \"contracts/cropcontract.sol\":4960:4971  newContract */\n      dup1\n        /* \"contracts/cropcontract.sol\":4932:4945  cropContracts */\n      0x0c\n        /* \"contracts/cropcontract.sol\":4932:4957  cropContracts[contractId] */\n      0x00\n        /* \"contracts/cropcontract.sol\":4946:4956  contractId */\n      dup5\n        /* \"contracts/cropcontract.sol\":4932:4957  cropContracts[contractId] */\n      dup2\n      mstore\n      0x20\n      add\n      swap1\n      dup2\n      mstore\n      0x20\n      add\n      0x00\n      keccak256\n        /* \"contracts/cropcontract.sol\":4932:4971  cropContracts[contractId] = newContract */\n      0x00\n      dup3\n      add\n      mload\n      dup2\n      0x00\n      add\n      sstore\n      0x20\n      dup3\n      add\n      mload\n      dup2\n      0x01\n      add\n      swap1\n      dup2\n      tag_123\n      swap2\n      swap1\n      tag_124\n      jump\t// in\n    tag_123:\n      pop\n      0x40\n      dup3\n      add\n      mload\n      dup2\n      0x02\n      add\n      sstore\n      0x60\n      dup3\n      add\n      mload\n      dup2\n      0x03\n      add\n      swap1\n      dup2\n      tag_125\n      swap2\n      swap1\n      tag_124\n      jump\t// in\n    tag_125:\n      pop\n      0x80\n      dup3\n      add\n      mload\n      dup2\n      0x04\n      add\n      swap1\n      dup2\n      tag_126\n      swap2\n      swap1\n      tag_124\n      jump\t// in\n    tag_126:\n      pop\n      0xa0\n      dup3\n      add\n      mload\n      dup2\n      0x05\n      add\n      sstore\n      0xc0\n      dup3\n      add\n      mload\n      dup2\n      0x06\n      add\n      swap1\n      dup2\n      tag_127\n      swap2\n      swap1\n      tag_124\n      jump\t// in\n    tag_127:\n      pop\n      0xe0\n      dup3\n      add\n      mload\n      dup2\n      0x07\n      add\n      exp(0x0100, 0x00)\n      dup2\n      sload\n      dup2\n      0xffffffffffffffffffffffffffffffffffffffff\n      mul\n      not\n      and\n      swap1\n      dup4\n      0xffffffffffffffffffffffffffffffffffffffff\n      and\n      mul\n      or\n      swap1\n      sstore\n      pop\n      0x0100\n      dup3\n      add\n      mload\n      dup2\n      0x08\n      add\n      exp(0x0100, 0x00)\n      dup2\n      sload\n      dup2\n      0xffffffffffffffffffffffffffffffffffffffff\n      mul\n      not\n      and\n      swap1\n      dup4\n      0xffffffffffffffffffffffffffffffffffffffff\n      and\n      mul\n      or\n      swap1\n      sstore\n      pop\n      0x0120\n      dup3\n      add\n      mload\n      dup2\n      0x08\n      add\n      exp(0x0100, 0x14)\n      dup2\n      sload\n      dup2\n      0xff\n      mul\n      not\n      and\n      swap1\n      dup4\n      0x07\n      dup2\n      gt\n      iszero\n      tag_128\n      jumpi\n      tag_129\n      tag_122\n      jump\t// in\n    tag_129:\n    tag_128:\n      mul\n      or\n      swap1\n      sstore\n      pop\n      0x0140\n      dup3\n      add\n      mload\n      dup2\n      0x08\n      add\n      exp(0x0100, 0x15)\n      dup2\n      sload\n      dup2\n      0xff\n      mul\n      not\n      and\n      swap1\n      dup4\n      iszero\n      iszero\n      mul\n      or\n      swap1\n      sstore\n      pop\n      swap1\n      pop\n      pop\n        /* \"contracts/cropcontract.sol\":4977:4992  cropContractsOf */\n      0x0d\n        /* \"contracts/cropcontract.sol\":4977:5004  cropContractsOf[msg.sender] */\n      0x00\n        /* \"contracts/cropcontract.sol\":4993:5003  msg.sender */\n      caller\n        /* \"contracts/cropcontract.sol\":4977:5004  cropContractsOf[msg.sender] */\n      0xffffffffffffffffffffffffffffffffffffffff\n      and\n      0xffffffffffffffffffffffffffffffffffffffff\n      and\n      dup2\n      mstore\n      0x20\n      add\n      swap1\n      dup2\n      mstore\n      0x20\n      add\n      0x00\n      keccak256\n        /* \"contracts/cropcontract.sol\":5010:5021  newContract */\n      dup2\n        /* \"contracts/cropcontract.sol\":4977:5022  cropContractsOf[msg.sender].push(newContract) */\n      swap1\n      dup1\n      0x01\n      dup2\n      sload\n      add\n      dup1\n      dup3\n      sstore\n      dup1\n      swap2\n      pop\n      pop\n      0x01\n      swap1\n      sub\n      swap1\n      0x00\n      mstore\n      keccak256(0x00, 0x20)\n      swap1\n      0x09\n      mul\n      add\n      0x00\n      swap1\n      swap2\n      swap1\n      swap2\n      swap1\n      swap2\n      pop\n      0x00\n      dup3\n      add\n      mload\n      dup2\n      0x00\n      add\n      sstore\n      0x20\n      dup3\n      add\n      mload\n      dup2\n      0x01\n      add\n      swap1\n      dup2\n      tag_131\n      swap2\n      swap1\n      tag_124\n      jump\t// in\n    tag_131:\n      pop\n      0x40\n      dup3\n      add\n      mload\n      dup2\n      0x02\n      add\n      sstore\n      0x60\n      dup3\n      add\n      mload\n      dup2\n      0x03\n      add\n      swap1\n      dup2\n      tag_132\n      swap2\n      swap1\n      tag_124\n      jump\t// in\n    tag_132:\n      pop\n      0x80\n      dup3\n      add\n      mload\n      dup2\n      0x04\n      add\n      swap1\n      dup2\n      tag_133\n      swap2\n      swap1\n      tag_124\n      jump\t// in\n    tag_133:\n      pop\n      0xa0\n      dup3\n      add\n      mload\n      dup2\n      0x05\n      add\n      sstore\n      0xc0\n      dup3\n      add\n      mload\n      dup2\n      0x06\n      add\n      swap1\n      dup2\n      tag_134\n      swap2\n      swap1\n      tag_124\n      jump\t// in\n    tag_134:\n      pop\n      0xe0\n      dup3\n      add\n      mload\n      dup2\n      0x07\n      add\n      exp(0x0100, 0x00)\n      dup2\n      sload\n      dup2\n      0xffffffffffffffffffffffffffffffffffffffff\n      mul\n      not\n      and\n      swap1\n      dup4\n      0xffffffffffffffffffffffffffffffffffffffff\n      and\n      mul\n      or\n      swap1\n      sstore\n      pop\n      0x0100\n      dup3\n      add\n      mload\n      dup2\n      0x08\n      add\n      exp(0x0100, 0x00)\n      dup2\n      sload\n      dup2\n      0xffffffffffffffffffffffffffffffffffffffff\n      mul\n      not\n      and\n      swap1\n      dup4\n      0xffffffffffffffffffffffffffffffffffffffff\n      and\n      mul\n      or\n      swap1\n      sstore\n      pop\n      0x0120\n      dup3\n      add\n      mload\n      dup2\n      0x08\n      add\n      exp(0x0100, 0x14)\n      dup2\n      sload\n      dup2\n      0xff\n      mul\n      not\n      and\n      swap1\n      dup4\n      0x07\n      dup2\n      gt\n      iszero\n      tag_135\n      jumpi\n      tag_136\n      tag_122\n      jump\t// in\n    tag_136:\n    tag_135:\n      mul\n      or\n      swap1\n      sstore\n      pop\n      0x0140\n      dup3\n      add\n      mload\n      dup2\n      0x08\n      add\n      exp(0x0100, 0x15)\n      dup2\n      sload\n      dup2\n      0xff\n      mul\n      not\n      and\n      swap1\n      dup4\n      iszero\n      iszero\n      mul\n      or\n      swap1\n      sstore\n      pop\n      pop\n      pop\n        /* \"contracts/cropcontract.sol\":5050:5060  msg.sender */\n      caller\n        /* \"contracts/cropcontract.sol\":5028:5035  ownerOf */\n      0x0f\n        /* \"contracts/cropcontract.sol\":5028:5047  ownerOf[contractId] */\n      0x00\n        /* \"contracts/cropcontract.sol\":5036:5046  contractId */\n      dup5\n        /* \"contracts/cropcontract.sol\":5028:5047  ownerOf[contractId] */\n      dup2\n      mstore\n      0x20\n      add\n      swap1\n      dup2\n      mstore\n      0x20\n      add\n      0x00\n      keccak256\n      0x00\n        /* \"contracts/cropcontract.sol\":5028:5060  ownerOf[contractId] = msg.sender */\n      0x0100\n      exp\n      dup2\n      sload\n      dup2\n      0xffffffffffffffffffffffffffffffffffffffff\n      mul\n      not\n      and\n      swap1\n      dup4\n      0xffffffffffffffffffffffffffffffffffffffff\n      and\n      mul\n      or\n      swap1\n      sstore\n      pop\n        /* \"contracts/cropcontract.sol\":5160:5170  msg.sender */\n      caller\n        /* \"contracts/cropcontract.sol\":5072:5176  Action(... */\n      0xffffffffffffffffffffffffffffffffffffffff\n      and\n      0xd28c9cc43c9abfc1a8676edaee9931daa84190c43f35d1fb6e3a48afa4bca3\n        /* \"contracts/cropcontract.sol\":5088:5098  contractId */\n      dup4\n        /* \"contracts/cropcontract.sol\":5136:5150  Status.CREATED */\n      0x00\n        /* \"contracts/cropcontract.sol\":5072:5176  Action(... */\n      mload(0x40)\n      tag_137\n      swap3\n      swap2\n      swap1\n      tag_138\n      jump\t// in\n    tag_137:\n      mload(0x40)\n      dup1\n      swap2\n      sub\n      swap1\n      log2\n        /* \"contracts/cropcontract.sol\":4107:5179  {... */\n      pop\n      pop\n        /* \"contracts/cropcontract.sol\":3882:5179  function createCropContract(... */\n      pop\n      pop\n      pop\n      pop\n      pop\n      pop\n      jump\t// out\n        /* \"contracts/cropcontract.sol\":5304:5671  function getAllContracts() external view returns (CropContractStruct[] memory) {... */\n    tag_37:\n        /* \"contracts/cropcontract.sol\":5354:5381  CropContractStruct[] memory */\n      0x60\n        /* \"contracts/cropcontract.sol\":5389:5429  CropContractStruct[] memory allContracts */\n      0x00\n        /* \"contracts/cropcontract.sol\":5457:5471  totalContracts */\n      sload(0x07)\n        /* \"contracts/cropcontract.sol\":5432:5472  new CropContractStruct[](totalContracts) */\n      0xffffffffffffffff\n      dup2\n      gt\n      iszero\n      tag_140\n      jumpi\n      tag_141\n      tag_142\n      jump\t// in\n    tag_141:\n    tag_140:\n      mload(0x40)\n      swap1\n      dup1\n      dup3\n      mstore\n      dup1\n      0x20\n      mul\n      0x20\n      add\n      dup3\n      add\n      0x40\n      mstore\n      dup1\n      iszero\n      tag_143\n      jumpi\n      dup2\n      0x20\n      add\n    tag_144:\n      tag_145\n      tag_146\n      jump\t// in\n    tag_145:\n      dup2\n      mstore\n      0x20\n      add\n      swap1\n      0x01\n      swap1\n      sub\n      swap1\n      dup2\n      tag_144\n      jumpi\n      swap1\n      pop\n    tag_143:\n      pop\n        /* \"contracts/cropcontract.sol\":5389:5472  CropContractStruct[] memory allContracts = new CropContractStruct[](totalContracts) */\n      swap1\n      pop\n        /* \"contracts/cropcontract.sol\":5483:5492  uint256 i */\n      0x00\n        /* \"contracts/cropcontract.sol\":5478:5644  for (uint256 i = 0; i < totalContracts; i++) {... */\n    tag_147:\n        /* \"contracts/cropcontract.sol\":5502:5516  totalContracts */\n      sload(0x07)\n        /* \"contracts/cropcontract.sol\":5498:5499  i */\n      dup2\n        /* \"contracts/cropcontract.sol\":5498:5516  i < totalContracts */\n      lt\n        /* \"contracts/cropcontract.sol\":5478:5644  for (uint256 i = 0; i < totalContracts; i++) {... */\n      iszero\n      tag_148\n      jumpi\n        /* \"contracts/cropcontract.sol\":5533:5551  bytes32 contractId */\n      0x00\n        /* \"contracts/cropcontract.sol\":5581:5582  i */\n      dup2\n        /* \"contracts/cropcontract.sol\":5564:5583  abi.encodePacked(i) */\n      add(0x20, mload(0x40))\n      tag_150\n      swap2\n      swap1\n      tag_151\n      jump\t// in\n    tag_150:\n      mload(0x40)\n      0x20\n      dup2\n      dup4\n      sub\n      sub\n      dup2\n      mstore\n      swap1\n      0x40\n      mstore\n        /* \"contracts/cropcontract.sol\":5554:5584  keccak256(abi.encodePacked(i)) */\n      dup1\n      mload\n      swap1\n      0x20\n      add\n      keccak256\n        /* \"contracts/cropcontract.sol\":5533:5584  bytes32 contractId = keccak256(abi.encodePacked(i)) */\n      swap1\n      pop\n        /* \"contracts/cropcontract.sol\":5612:5625  cropContracts */\n      0x0c\n        /* \"contracts/cropcontract.sol\":5612:5637  cropContracts[contractId] */\n      0x00\n        /* \"contracts/cropcontract.sol\":5626:5636  contractId */\n      dup3\n        /* \"contracts/cropcontract.sol\":5612:5637  cropContracts[contractId] */\n      dup2\n      mstore\n      0x20\n      add\n      swap1\n      dup2\n      mstore\n      0x20\n      add\n      0x00\n      keccak256\n        /* \"contracts/cropcontract.sol\":5594:5637  allContracts[i] = cropContracts[contractId] */\n      mload(0x40)\n      dup1\n      0x0160\n      add\n      0x40\n      mstore\n      swap1\n      dup2\n      0x00\n      dup3\n      add\n      sload\n      dup2\n      mstore\n      0x20\n      add\n      0x01\n      dup3\n      add\n      dup1\n      sload\n      tag_152\n      swap1\n      tag_153\n      jump\t// in\n    tag_152:\n      dup1\n      0x1f\n      add\n      0x20\n      dup1\n      swap2\n      div\n      mul\n      0x20\n      add\n      mload(0x40)\n      swap1\n      dup2\n      add\n      0x40\n      mstore\n      dup1\n      swap3\n      swap2\n      swap1\n      dup2\n      dup2\n      mstore\n      0x20\n      add\n      dup3\n      dup1\n      sload\n      tag_154\n      swap1\n      tag_153\n      jump\t// in\n    tag_154:\n      dup1\n      iszero\n      tag_155\n      jumpi\n      dup1\n      0x1f\n      lt\n      tag_156\n      jumpi\n      0x0100\n      dup1\n      dup4\n      sload\n      div\n      mul\n      dup4\n      mstore\n      swap2\n      0x20\n      add\n      swap2\n      jump(tag_155)\n    tag_156:\n      dup3\n      add\n      swap2\n      swap1\n      0x00\n      mstore\n      keccak256(0x00, 0x20)\n      swap1\n    tag_157:\n      dup2\n      sload\n      dup2\n      mstore\n      swap1\n      0x01\n      add\n      swap1\n      0x20\n      add\n      dup1\n      dup4\n      gt\n      tag_157\n      jumpi\n      dup3\n      swap1\n      sub\n      0x1f\n      and\n      dup3\n      add\n      swap2\n    tag_155:\n      pop\n      pop\n      pop\n      pop\n      pop\n      dup2\n      mstore\n      0x20\n      add\n      0x02\n      dup3\n      add\n      sload\n      dup2\n      mstore\n      0x20\n      add\n      0x03\n      dup3\n      add\n      dup1\n      sload\n      tag_158\n      swap1\n      tag_153\n      jump\t// in\n    tag_158:\n      dup1\n      0x1f\n      add\n      0x20\n      dup1\n      swap2\n      div\n      mul\n      0x20\n      add\n      mload(0x40)\n      swap1\n      dup2\n      add\n      0x40\n      mstore\n      dup1\n      swap3\n      swap2\n      swap1\n      dup2\n      dup2\n      mstore\n      0x20\n      add\n      dup3\n      dup1\n      sload\n      tag_159\n      swap1\n      tag_153\n      jump\t// in\n    tag_159:\n      dup1\n      iszero\n      tag_160\n      jumpi\n      dup1\n      0x1f\n      lt\n      tag_161\n      jumpi\n      0x0100\n      dup1\n      dup4\n      sload\n      div\n      mul\n      dup4\n      mstore\n      swap2\n      0x20\n      add\n      swap2\n      jump(tag_160)\n    tag_161:\n      dup3\n      add\n      swap2\n      swap1\n      0x00\n      mstore\n      keccak256(0x00, 0x20)\n      swap1\n    tag_162:\n      dup2\n      sload\n      dup2\n      mstore\n      swap1\n      0x01\n      add\n      swap1\n      0x20\n      add\n      dup1\n      dup4\n      gt\n      tag_162\n      jumpi\n      dup3\n      swap1\n      sub\n      0x1f\n      and\n      dup3\n      add\n      swap2\n    tag_160:\n      pop\n      pop\n      pop\n      pop\n      pop\n      dup2\n      mstore\n      0x20\n      add\n      0x04\n      dup3\n      add\n      dup1\n      sload\n      tag_163\n      swap1\n      tag_153\n      jump\t// in\n    tag_163:\n      dup1\n      0x1f\n      add\n      0x20\n      dup1\n      swap2\n      div\n      mul\n      0x20\n      add\n      mload(0x40)\n      swap1\n      dup2\n      add\n      0x40\n      mstore\n      dup1\n      swap3\n      swap2\n      swap1\n      dup2\n      dup2\n      mstore\n      0x20\n      add\n      dup3\n      dup1\n      sload\n      tag_164\n      swap1\n      tag_153\n      jump\t// in\n    tag_164:\n      dup1\n      iszero\n      tag_165\n      jumpi\n      dup1\n      0x1f\n      lt\n      tag_166\n      jumpi\n      0x0100\n      dup1\n      dup4\n      sload\n      div\n      mul\n      dup4\n      mstore\n      swap2\n      0x20\n      add\n      swap2\n      jump(tag_165)\n    tag_166:\n      dup3\n      add\n      swap2\n      swap1\n      0x00\n      mstore\n      keccak256(0x00, 0x20)\n      swap1\n    tag_167:\n      dup2\n      sload\n      dup2\n      mstore\n      swap1\n      0x01\n      add\n      swap1\n      0x20\n      add\n      dup1\n      dup4\n      gt\n      tag_167\n      jumpi\n      dup3\n      swap1\n      sub\n      0x1f\n      and\n      dup3\n      add\n      swap2\n    tag_165:\n      pop\n      pop\n      pop\n      pop\n      pop\n      dup2\n      mstore\n      0x20\n      add\n      0x05\n      dup3\n      add\n      sload\n      dup2\n      mstore\n      0x20\n      add\n      0x06\n      dup3\n      add\n      dup1\n      sload\n      tag_168\n      swap1\n      tag_153\n      jump\t// in\n    tag_168:\n      dup1\n      0x1f\n      add\n      0x20\n      dup1\n      swap2\n      div\n      mul\n      0x20\n      add\n      mload(0x40)\n      swap1\n      dup2\n      add\n      0x40\n      mstore\n      dup1\n      swap3\n      swap2\n      swap1\n      dup2\n      dup2\n      mstore\n      0x20\n      add\n      dup3\n      dup1\n      sload\n      tag_169\n      swap1\n      tag_153\n      jump\t// in\n    tag_169:\n      dup1\n      iszero\n      tag_170\n      jumpi\n      dup1\n      0x1f\n      lt\n      tag_171\n      jumpi\n      0x0100\n      dup1\n      dup4\n      sload\n      div\n      mul\n      dup4\n      mstore\n      swap2\n      0x20\n      add\n      swap2\n      jump(tag_170)\n    tag_171:\n      dup3\n      add\n      swap2\n      swap1\n      0x00\n      mstore\n      keccak256(0x00, 0x20)\n      swap1\n    tag_172:\n      dup2\n      sload\n      dup2\n      mstore\n      swap1\n      0x01\n      add\n      swap1\n      0x20\n      add\n      dup1\n      dup4\n      gt\n      tag_172\n      jumpi\n      dup3\n      swap1\n      sub\n      0x1f\n      and\n      dup3\n      add\n      swap2\n    tag_170:\n      pop\n      pop\n      pop\n      pop\n      pop\n      dup2\n      mstore\n      0x20\n      add\n      0x07\n      dup3\n      add\n      0x00\n      swap1\n      sload\n      swap1\n      0x0100\n      exp\n      swap1\n      div\n      0xffffffffffffffffffffffffffffffffffffffff\n      and\n      0xffffffffffffffffffffffffffffffffffffffff\n      and\n      0xffffffffffffffffffffffffffffffffffffffff\n      and\n      dup2\n      mstore\n      0x20\n      add\n      0x08\n      dup3\n      add\n      0x00\n      swap1\n      sload\n      swap1\n      0x0100\n      exp\n      swap1\n      div\n      0xffffffffffffffffffffffffffffffffffffffff\n      and\n      0xffffffffffffffffffffffffffffffffffffffff\n      and\n      0xffffffffffffffffffffffffffffffffffffffff\n      and\n      dup2\n      mstore\n      0x20\n      add\n      0x08\n      dup3\n      add\n      0x14\n      swap1\n      sload\n      swap1\n      0x0100\n      exp\n      swap1\n      div\n      0xff\n      and\n      0x07\n      dup2\n      gt\n      iszero\n      tag_173\n      jumpi\n      tag_174\n      tag_122\n      jump\t// in\n    tag_174:\n    tag_173:\n      0x07\n      dup2\n      gt\n      iszero\n      tag_175\n      jumpi\n      tag_176\n      tag_122\n      jump\t// in\n    tag_176:\n    tag_175:\n      dup2\n      mstore\n      0x20\n      add\n      0x08\n      dup3\n      add\n      0x15\n      swap1\n      sload\n      swap1\n      0x0100\n      exp\n      swap1\n      div\n      0xff\n      and\n      iszero\n      iszero\n      iszero\n      iszero\n      dup2\n      mstore\n      pop\n      pop\n        /* \"contracts/cropcontract.sol\":5594:5606  allContracts */\n      dup4\n        /* \"contracts/cropcontract.sol\":5607:5608  i */\n      dup4\n        /* \"contracts/cropcontract.sol\":5594:5609  allContracts[i] */\n      dup2\n      mload\n      dup2\n      lt\n      tag_177\n      jumpi\n      tag_178\n      tag_179\n      jump\t// in\n    tag_178:\n    tag_177:\n      0x20\n      mul\n      0x20\n      add\n      add\n        /* \"contracts/cropcontract.sol\":5594:5637  allContracts[i] = cropContracts[contractId] */\n      dup2\n      swap1\n      mstore\n      pop\n        /* \"contracts/cropcontract.sol\":5523:5644  {... */\n      pop\n        /* \"contracts/cropcontract.sol\":5518:5521  i++ */\n      dup1\n      dup1\n      0x01\n      add\n      swap2\n      pop\n      pop\n        /* \"contracts/cropcontract.sol\":5478:5644  for (uint256 i = 0; i < totalContracts; i++) {... */\n      jump(tag_147)\n    tag_148:\n      pop\n        /* \"contracts/cropcontract.sol\":5656:5668  allContracts */\n      dup1\n        /* \"contracts/cropcontract.sol\":5649:5668  return allContracts */\n      swap2\n      pop\n      pop\n        /* \"contracts/cropcontract.sol\":5304:5671  function getAllContracts() external view returns (CropContractStruct[] memory) {... */\n      swap1\n      jump\t// out\n        /* \"contracts/cropcontract.sol\":2120:2981  function createBuyer(... */\n    tag_44:\n        /* \"contracts/cropcontract.sol\":2332:2333  0 */\n      0x00\n        /* \"contracts/cropcontract.sol\":2316:2321  _name */\n      dup6\n        /* \"contracts/cropcontract.sol\":2310:2329  bytes(_name).length */\n      mload\n        /* \"contracts/cropcontract.sol\":2310:2333  bytes(_name).length > 0 */\n      gt\n        /* \"contracts/cropcontract.sol\":2310:2357  bytes(_name).length > 0 &&... */\n      dup1\n      iszero\n      tag_181\n      jumpi\n      pop\n        /* \"contracts/cropcontract.sol\":2356:2357  0 */\n      0x00\n        /* \"contracts/cropcontract.sol\":2345:2353  _phoneNo */\n      dup5\n        /* \"contracts/cropcontract.sol\":2345:2357  _phoneNo > 0 */\n      gt\n        /* \"contracts/cropcontract.sol\":2310:2357  bytes(_name).length > 0 &&... */\n    tag_181:\n        /* \"contracts/cropcontract.sol\":2310:2400  bytes(_name).length > 0 &&... */\n      dup1\n      iszero\n      tag_182\n      jumpi\n      pop\n        /* \"contracts/cropcontract.sol\":2399:2400  0 */\n      0x00\n        /* \"contracts/cropcontract.sol\":2375:2388  _businessName */\n      dup3\n        /* \"contracts/cropcontract.sol\":2369:2396  bytes(_businessName).length */\n      mload\n        /* \"contracts/cropcontract.sol\":2369:2400  bytes(_businessName).length > 0 */\n      gt\n        /* \"contracts/cropcontract.sol\":2310:2400  bytes(_name).length > 0 &&... */\n    tag_182:\n        /* \"contracts/cropcontract.sol\":2310:2439  bytes(_name).length > 0 &&... */\n      dup1\n      iszero\n      tag_183\n      jumpi\n      pop\n        /* \"contracts/cropcontract.sol\":2438:2439  0 */\n      0x00\n        /* \"contracts/cropcontract.sol\":2418:2427  _location */\n      dup2\n        /* \"contracts/cropcontract.sol\":2412:2435  bytes(_location).length */\n      mload\n        /* \"contracts/cropcontract.sol\":2412:2439  bytes(_location).length > 0 */\n      gt\n        /* \"contracts/cropcontract.sol\":2310:2439  bytes(_name).length > 0 &&... */\n    tag_183:\n        /* \"contracts/cropcontract.sol\":2293:2470  require(... */\n      tag_184\n      jumpi\n      mload(0x40)\n      0x08c379a000000000000000000000000000000000000000000000000000000000\n      dup2\n      mstore\n      0x04\n      add\n      tag_185\n      swap1\n      tag_117\n      jump\t// in\n    tag_185:\n      mload(0x40)\n      dup1\n      swap2\n      sub\n      swap1\n      revert\n    tag_184:\n        /* \"contracts/cropcontract.sol\":2477:2492  bytes32 buyerId */\n      0x00\n        /* \"contracts/cropcontract.sol\":2522:2532  msg.sender */\n      caller\n        /* \"contracts/cropcontract.sol\":2534:2549  block.timestamp */\n      timestamp\n        /* \"contracts/cropcontract.sol\":2505:2550  abi.encodePacked(msg.sender, block.timestamp) */\n      add(0x20, mload(0x40))\n      tag_186\n      swap3\n      swap2\n      swap1\n      tag_119\n      jump\t// in\n    tag_186:\n      mload(0x40)\n      0x20\n      dup2\n      dup4\n      sub\n      sub\n      dup2\n      mstore\n      swap1\n      0x40\n      mstore\n        /* \"contracts/cropcontract.sol\":2495:2551  keccak256(abi.encodePacked(msg.sender, block.timestamp)) */\n      dup1\n      mload\n      swap1\n      0x20\n      add\n      keccak256\n        /* \"contracts/cropcontract.sol\":2477:2551  bytes32 buyerId = keccak256(abi.encodePacked(msg.sender, block.timestamp)) */\n      swap1\n      pop\n        /* \"contracts/cropcontract.sol\":2557:2584  BuyerStruct memory newBuyer */\n      0x00\n        /* \"contracts/cropcontract.sol\":2587:2800  BuyerStruct({... */\n      mload(0x40)\n      dup1\n      0xe0\n      add\n      0x40\n      mstore\n      dup1\n        /* \"contracts/cropcontract.sol\":2613:2620  buyerId */\n      dup4\n        /* \"contracts/cropcontract.sol\":2587:2800  BuyerStruct({... */\n      dup2\n      mstore\n      0x20\n      add\n        /* \"contracts/cropcontract.sol\":2636:2641  _name */\n      dup9\n        /* \"contracts/cropcontract.sol\":2587:2800  BuyerStruct({... */\n      dup2\n      mstore\n      0x20\n      add\n        /* \"contracts/cropcontract.sol\":2660:2668  _phoneNo */\n      dup8\n        /* \"contracts/cropcontract.sol\":2587:2800  BuyerStruct({... */\n      dup2\n      mstore\n      0x20\n      add\n        /* \"contracts/cropcontract.sol\":2685:2691  _email */\n      dup7\n        /* \"contracts/cropcontract.sol\":2587:2800  BuyerStruct({... */\n      dup2\n      mstore\n      0x20\n      add\n        /* \"contracts/cropcontract.sol\":2715:2728  _businessName */\n      dup6\n        /* \"contracts/cropcontract.sol\":2587:2800  BuyerStruct({... */\n      dup2\n      mstore\n      0x20\n      add\n        /* \"contracts/cropcontract.sol\":2748:2757  _location */\n      dup5\n        /* \"contracts/cropcontract.sol\":2587:2800  BuyerStruct({... */\n      dup2\n      mstore\n      0x20\n      add\n        /* \"contracts/cropcontract.sol\":2778:2793  block.timestamp */\n      timestamp\n        /* \"contracts/cropcontract.sol\":2587:2800  BuyerStruct({... */\n      dup2\n      mstore\n      pop\n        /* \"contracts/cropcontract.sol\":2557:2800  BuyerStruct memory newBuyer = BuyerStruct({... */\n      swap1\n      pop\n        /* \"contracts/cropcontract.sol\":2825:2833  newBuyer */\n      dup1\n        /* \"contracts/cropcontract.sol\":2807:2813  buyers */\n      0x0a\n        /* \"contracts/cropcontract.sol\":2807:2822  buyers[buyerId] */\n      0x00\n        /* \"contracts/cropcontract.sol\":2814:2821  buyerId */\n      dup5\n        /* \"contracts/cropcontract.sol\":2807:2822  buyers[buyerId] */\n      dup2\n      mstore\n      0x20\n      add\n      swap1\n      dup2\n      mstore\n      0x20\n      add\n      0x00\n      keccak256\n        /* \"contracts/cropcontract.sol\":2807:2833  buyers[buyerId] = newBuyer */\n      0x00\n      dup3\n      add\n      mload\n      dup2\n      0x00\n      add\n      sstore\n      0x20\n      dup3\n      add\n      mload\n      dup2\n      0x01\n      add\n      swap1\n      dup2\n      tag_187\n      swap2\n      swap1\n      tag_124\n      jump\t// in\n    tag_187:\n      pop\n      0x40\n      dup3\n      add\n      mload\n      dup2\n      0x02\n      add\n      sstore\n      0x60\n      dup3\n      add\n      mload\n      dup2\n      0x03\n      add\n      swap1\n      dup2\n      tag_188\n      swap2\n      swap1\n      tag_124\n      jump\t// in\n    tag_188:\n      pop\n      0x80\n      dup3\n      add\n      mload\n      dup2\n      0x04\n      add\n      swap1\n      dup2\n      tag_189\n      swap2\n      swap1\n      tag_124\n      jump\t// in\n    tag_189:\n      pop\n      0xa0\n      dup3\n      add\n      mload\n      dup2\n      0x05\n      add\n      swap1\n      dup2\n      tag_190\n      swap2\n      swap1\n      tag_124\n      jump\t// in\n    tag_190:\n      pop\n      0xc0\n      dup3\n      add\n      mload\n      dup2\n      0x06\n      add\n      sstore\n      swap1\n      pop\n      pop\n        /* \"contracts/cropcontract.sol\":2858:2868  msg.sender */\n      caller\n        /* \"contracts/cropcontract.sol\":2839:2846  ownerOf */\n      0x0f\n        /* \"contracts/cropcontract.sol\":2839:2855  ownerOf[buyerId] */\n      0x00\n        /* \"contracts/cropcontract.sol\":2847:2854  buyerId */\n      dup5\n        /* \"contracts/cropcontract.sol\":2839:2855  ownerOf[buyerId] */\n      dup2\n      mstore\n      0x20\n      add\n      swap1\n      dup2\n      mstore\n      0x20\n      add\n      0x00\n      keccak256\n      0x00\n        /* \"contracts/cropcontract.sol\":2839:2868  ownerOf[buyerId] = msg.sender */\n      0x0100\n      exp\n      dup2\n      sload\n      dup2\n      0xffffffffffffffffffffffffffffffffffffffff\n      mul\n      not\n      and\n      swap1\n      dup4\n      0xffffffffffffffffffffffffffffffffffffffff\n      and\n      mul\n      or\n      swap1\n      sstore\n      pop\n        /* \"contracts/cropcontract.sol\":2962:2972  msg.sender */\n      caller\n        /* \"contracts/cropcontract.sol\":2880:2978  Action(... */\n      0xffffffffffffffffffffffffffffffffffffffff\n      and\n      0xd28c9cc43c9abfc1a8676edaee9931daa84190c43f35d1fb6e3a48afa4bca3\n        /* \"contracts/cropcontract.sol\":2896:2903  buyerId */\n      dup4\n        /* \"contracts/cropcontract.sol\":2938:2952  Status.CREATED */\n      0x00\n        /* \"contracts/cropcontract.sol\":2880:2978  Action(... */\n      mload(0x40)\n      tag_191\n      swap3\n      swap2\n      swap1\n      tag_192\n      jump\t// in\n    tag_191:\n      mload(0x40)\n      dup1\n      swap2\n      sub\n      swap1\n      log2\n        /* \"contracts/cropcontract.sol\":2287:2981  {... */\n      pop\n      pop\n        /* \"contracts/cropcontract.sol\":2120:2981  function createBuyer(... */\n      pop\n      pop\n      pop\n      pop\n      pop\n      jump\t// out\n        /* \"contracts/cropcontract.sol\":832:880  mapping(uint256 => Available) public isAvailable */\n    tag_49:\n      mstore(0x20, 0x10)\n      dup1\n      0x00\n      mstore\n      keccak256(0x00, 0x40)\n      0x00\n      swap2\n      pop\n      sload\n      swap1\n      0x0100\n      exp\n      swap1\n      div\n      0xff\n      and\n      dup2\n      jump\t// out\n        /* \"contracts/cropcontract.sol\":395:427  uint256 public totalComplete = 0 */\n    tag_54:\n      sload(0x08)\n      dup2\n      jump\t// out\n        /* \"contracts/cropcontract.sol\":297:318  uint256 public escFee */\n    tag_59:\n      sload(0x05)\n      dup2\n      jump\t// out\n        /* \"contracts/cropcontract.sol\":324:350  uint256 public escAvailBal */\n    tag_63:\n      sload(0x06)\n      dup2\n      jump\t// out\n        /* \"contracts/cropcontract.sol\":164:193  address payable public escAcc */\n    tag_67:\n      0x01\n      0x00\n      swap1\n      sload\n      swap1\n      0x0100\n      exp\n      swap1\n      div\n      0xffffffffffffffffffffffffffffffffffffffff\n      and\n      dup2\n      jump\t// out\n        /* \"contracts/cropcontract.sol\":199:228  address payable public  buyer */\n    tag_72:\n      0x02\n      0x00\n      swap1\n      sload\n      swap1\n      0x0100\n      exp\n      swap1\n      div\n      0xffffffffffffffffffffffffffffffffffffffff\n      and\n      dup2\n      jump\t// out\n        /* \"contracts/cropcontract.sol\":784:826  mapping(bytes32 => address) public ownerOf */\n    tag_78:\n      mstore(0x20, 0x0f)\n      dup1\n      0x00\n      mstore\n      keccak256(0x00, 0x40)\n      0x00\n      swap2\n      pop\n      sload\n      swap1\n      0x0100\n      exp\n      swap1\n      div\n      0xffffffffffffffffffffffffffffffffffffffff\n      and\n      dup2\n      jump\t// out\n        /* \"contracts/cropcontract.sol\":356:389  uint256 public totalContracts = 0 */\n    tag_83:\n      sload(0x07)\n      dup2\n      jump\t// out\n        /* \"contracts/cropcontract.sol\":433:467  uint256 public totalTerminated = 0 */\n    tag_87:\n      sload(0x09)\n      dup2\n      jump\t// out\n        /* \"contracts/cropcontract.sol\":5181:5302  function getMyContracts() external view returns (CropContractStruct[] memory) {... */\n    tag_91:\n        /* \"contracts/cropcontract.sol\":5230:5257  CropContractStruct[] memory */\n      0x60\n        /* \"contracts/cropcontract.sol\":5272:5287  cropContractsOf */\n      0x0d\n        /* \"contracts/cropcontract.sol\":5272:5299  cropContractsOf[msg.sender] */\n      0x00\n        /* \"contracts/cropcontract.sol\":5288:5298  msg.sender */\n      caller\n        /* \"contracts/cropcontract.sol\":5272:5299  cropContractsOf[msg.sender] */\n      0xffffffffffffffffffffffffffffffffffffffff\n      and\n      0xffffffffffffffffffffffffffffffffffffffff\n      and\n      dup2\n      mstore\n      0x20\n      add\n      swap1\n      dup2\n      mstore\n      0x20\n      add\n      0x00\n      keccak256\n        /* \"contracts/cropcontract.sol\":5265:5299  return cropContractsOf[msg.sender] */\n      dup1\n      sload\n      dup1\n      0x20\n      mul\n      0x20\n      add\n      mload(0x40)\n      swap1\n      dup2\n      add\n      0x40\n      mstore\n      dup1\n      swap3\n      swap2\n      swap1\n      dup2\n      dup2\n      mstore\n      0x20\n      add\n      0x00\n      swap1\n    tag_194:\n      dup3\n      dup3\n      lt\n      iszero\n      tag_195\n      jumpi\n      dup4\n      dup3\n      swap1\n      0x00\n      mstore\n      keccak256(0x00, 0x20)\n      swap1\n      0x09\n      mul\n      add\n      mload(0x40)\n      dup1\n      0x0160\n      add\n      0x40\n      mstore\n      swap1\n      dup2\n      0x00\n      dup3\n      add\n      sload\n      dup2\n      mstore\n      0x20\n      add\n      0x01\n      dup3\n      add\n      dup1\n      sload\n      tag_197\n      swap1\n      tag_153\n      jump\t// in\n    tag_197:\n      dup1\n      0x1f\n      add\n      0x20\n      dup1\n      swap2\n      div\n      mul\n      0x20\n      add\n      mload(0x40)\n      swap1\n      dup2\n      add\n      0x40\n      mstore\n      dup1\n      swap3\n      swap2\n      swap1\n      dup2\n      dup2\n      mstore\n      0x20\n      add\n      dup3\n      dup1\n      sload\n      tag_198\n      swap1\n      tag_153\n      jump\t// in\n    tag_198:\n      dup1\n      iszero\n      tag_199\n      jumpi\n      dup1\n      0x1f\n      lt\n      tag_200\n      jumpi\n      0x0100\n      dup1\n      dup4\n      sload\n      div\n      mul\n      dup4\n      mstore\n      swap2\n      0x20\n      add\n      swap2\n      jump(tag_199)\n    tag_200:\n      dup3\n      add\n      swap2\n      swap1\n      0x00\n      mstore\n      keccak256(0x00, 0x20)\n      swap1\n    tag_201:\n      dup2\n      sload\n      dup2\n      mstore\n      swap1\n      0x01\n      add\n      swap1\n      0x20\n      add\n      dup1\n      dup4\n      gt\n      tag_201\n      jumpi\n      dup3\n      swap1\n      sub\n      0x1f\n      and\n      dup3\n      add\n      swap2\n    tag_199:\n      pop\n      pop\n      pop\n      pop\n      pop\n      dup2\n      mstore\n      0x20\n      add\n      0x02\n      dup3\n      add\n      sload\n      dup2\n      mstore\n      0x20\n      add\n      0x03\n      dup3\n      add\n      dup1\n      sload\n      tag_202\n      swap1\n      tag_153\n      jump\t// in\n    tag_202:\n      dup1\n      0x1f\n      add\n      0x20\n      dup1\n      swap2\n      div\n      mul\n      0x20\n      add\n      mload(0x40)\n      swap1\n      dup2\n      add\n      0x40\n      mstore\n      dup1\n      swap3\n      swap2\n      swap1\n      dup2\n      dup2\n      mstore\n      0x20\n      add\n      dup3\n      dup1\n      sload\n      tag_203\n      swap1\n      tag_153\n      jump\t// in\n    tag_203:\n      dup1\n      iszero\n      tag_204\n      jumpi\n      dup1\n      0x1f\n      lt\n      tag_205\n      jumpi\n      0x0100\n      dup1\n      dup4\n      sload\n      div\n      mul\n      dup4\n      mstore\n      swap2\n      0x20\n      add\n      swap2\n      jump(tag_204)\n    tag_205:\n      dup3\n      add\n      swap2\n      swap1\n      0x00\n      mstore\n      keccak256(0x00, 0x20)\n      swap1\n    tag_206:\n      dup2\n      sload\n      dup2\n      mstore\n      swap1\n      0x01\n      add\n      swap1\n      0x20\n      add\n      dup1\n      dup4\n      gt\n      tag_206\n      jumpi\n      dup3\n      swap1\n      sub\n      0x1f\n      and\n      dup3\n      add\n      swap2\n    tag_204:\n      pop\n      pop\n      pop\n      pop\n      pop\n      dup2\n      mstore\n      0x20\n      add\n      0x04\n      dup3\n      add\n      dup1\n      sload\n      tag_207\n      swap1\n      tag_153\n      jump\t// in\n    tag_207:\n      dup1\n      0x1f\n      add\n      0x20\n      dup1\n      swap2\n      div\n      mul\n      0x20\n      add\n      mload(0x40)\n      swap1\n      dup2\n      add\n      0x40\n      mstore\n      dup1\n      swap3\n      swap2\n      swap1\n      dup2\n      dup2\n      mstore\n      0x20\n      add\n      dup3\n      dup1\n      sload\n      tag_208\n      swap1\n      tag_153\n      jump\t// in\n    tag_208:\n      dup1\n      iszero\n      tag_209\n      jumpi\n      dup1\n      0x1f\n      lt\n      tag_210\n      jumpi\n      0x0100\n      dup1\n      dup4\n      sload\n      div\n      mul\n      dup4\n      mstore\n      swap2\n      0x20\n      add\n      swap2\n      jump(tag_209)\n    tag_210:\n      dup3\n      add\n      swap2\n      swap1\n      0x00\n      mstore\n      keccak256(0x00, 0x20)\n      swap1\n    tag_211:\n      dup2\n      sload\n      dup2\n      mstore\n      swap1\n      0x01\n      add\n      swap1\n      0x20\n      add\n      dup1\n      dup4\n      gt\n      tag_211\n      jumpi\n      dup3\n      swap1\n      sub\n      0x1f\n      and\n      dup3\n      add\n      swap2\n    tag_209:\n      pop\n      pop\n      pop\n      pop\n      pop\n      dup2\n      mstore\n      0x20\n      add\n      0x05\n      dup3\n      add\n      sload\n      dup2\n      mstore\n      0x20\n      add\n      0x06\n      dup3\n      add\n      dup1\n      sload\n      tag_212\n      swap1\n      tag_153\n      jump\t// in\n    tag_212:\n      dup1\n      0x1f\n      add\n      0x20\n      dup1\n      swap2\n      div\n      mul\n      0x20\n      add\n      mload(0x40)\n      swap1\n      dup2\n      add\n      0x40\n      mstore\n      dup1\n      swap3\n      swap2\n      swap1\n      dup2\n      dup2\n      mstore\n      0x20\n      add\n      dup3\n      dup1\n      sload\n      tag_213\n      swap1\n      tag_153\n      jump\t// in\n    tag_213:\n      dup1\n      iszero\n      tag_214\n      jumpi\n      dup1\n      0x1f\n      lt\n      tag_215\n      jumpi\n      0x0100\n      dup1\n      dup4\n      sload\n      div\n      mul\n      dup4\n      mstore\n      swap2\n      0x20\n      add\n      swap2\n      jump(tag_214)\n    tag_215:\n      dup3\n      add\n      swap2\n      swap1\n      0x00\n      mstore\n      keccak256(0x00, 0x20)\n      swap1\n    tag_216:\n      dup2\n      sload\n      dup2\n      mstore\n      swap1\n      0x01\n      add\n      swap1\n      0x20\n      add\n      dup1\n      dup4\n      gt\n      tag_216\n      jumpi\n      dup3\n      swap1\n      sub\n      0x1f\n      and\n      dup3\n      add\n      swap2\n    tag_214:\n      pop\n      pop\n      pop\n      pop\n      pop\n      dup2\n      mstore\n      0x20\n      add\n      0x07\n      dup3\n      add\n      0x00\n      swap1\n      sload\n      swap1\n      0x0100\n      exp\n      swap1\n      div\n      0xffffffffffffffffffffffffffffffffffffffff\n      and\n      0xffffffffffffffffffffffffffffffffffffffff\n      and\n      0xffffffffffffffffffffffffffffffffffffffff\n      and\n      dup2\n      mstore\n      0x20\n      add\n      0x08\n      dup3\n      add\n      0x00\n      swap1\n      sload\n      swap1\n      0x0100\n      exp\n      swap1\n      div\n      0xffffffffffffffffffffffffffffffffffffffff\n      and\n      0xffffffffffffffffffffffffffffffffffffffff\n      and\n      0xffffffffffffffffffffffffffffffffffffffff\n      and\n      dup2\n      mstore\n      0x20\n      add\n      0x08\n      dup3\n      add\n      0x14\n      swap1\n      sload\n      swap1\n      0x0100\n      exp\n      swap1\n      div\n      0xff\n      and\n      0x07\n      dup2\n      gt\n      iszero\n      tag_217\n      jumpi\n      tag_218\n      tag_122\n      jump\t// in\n    tag_218:\n    tag_217:\n      0x07\n      dup2\n      gt\n      iszero\n      tag_219\n      jumpi\n      tag_220\n      tag_122\n      jump\t// in\n    tag_220:\n    tag_219:\n      dup2\n      mstore\n      0x20\n      add\n      0x08\n      dup3\n      add\n      0x15\n      swap1\n      sload\n      swap1\n      0x0100\n      exp\n      swap1\n      div\n      0xff\n      and\n      iszero\n      iszero\n      iszero\n      iszero\n      dup2\n      mstore\n      pop\n      pop\n      dup2\n      mstore\n      0x20\n      add\n      swap1\n      0x01\n      add\n      swap1\n      jump(tag_194)\n    tag_195:\n      pop\n      pop\n      pop\n      pop\n      swap1\n      pop\n        /* \"contracts/cropcontract.sol\":5181:5302  function getMyContracts() external view returns (CropContractStruct[] memory) {... */\n      swap1\n      jump\t// out\n        /* \"contracts/cropcontract.sol\":270:291  uint256 public escBal */\n    tag_95:\n      sload(0x04)\n      dup2\n      jump\t// out\n        /* \"contracts/cropcontract.sol\":234:264  address payable public  farmer */\n    tag_99:\n      0x03\n      0x00\n      swap1\n      sload\n      swap1\n      0x0100\n      exp\n      swap1\n      div\n      0xffffffffffffffffffffffffffffffffffffffff\n      and\n      dup2\n      jump\t// out\n        /* \"contracts/cropcontract.sol\":2983:3880  function createFarmer(... */\n    tag_105:\n        /* \"contracts/cropcontract.sol\":3203:3204  0 */\n      0x00\n        /* \"contracts/cropcontract.sol\":3187:3192  _name */\n      dup6\n        /* \"contracts/cropcontract.sol\":3181:3200  bytes(_name).length */\n      mload\n        /* \"contracts/cropcontract.sol\":3181:3204  bytes(_name).length > 0 */\n      gt\n        /* \"contracts/cropcontract.sol\":3181:3246  bytes(_name).length > 0 &&... */\n      dup1\n      iszero\n      tag_222\n      jumpi\n      pop\n        /* \"contracts/cropcontract.sol\":3245:3246  0 */\n      0x00\n        /* \"contracts/cropcontract.sol\":3222:3234  _phoneNumber */\n      dup4\n        /* \"contracts/cropcontract.sol\":3216:3242  bytes(_phoneNumber).length */\n      mload\n        /* \"contracts/cropcontract.sol\":3216:3246  bytes(_phoneNumber).length > 0 */\n      gt\n        /* \"contracts/cropcontract.sol\":3181:3246  bytes(_name).length > 0 &&... */\n    tag_222:\n        /* \"contracts/cropcontract.sol\":3181:3286  bytes(_name).length > 0 &&... */\n      dup1\n      iszero\n      tag_223\n      jumpi\n      pop\n        /* \"contracts/cropcontract.sol\":3285:3286  0 */\n      0x00\n        /* \"contracts/cropcontract.sol\":3264:3274  _cropTypes */\n      dup3\n        /* \"contracts/cropcontract.sol\":3258:3282  bytes(_cropTypes).length */\n      mload\n        /* \"contracts/cropcontract.sol\":3258:3286  bytes(_cropTypes).length > 0 */\n      gt\n        /* \"contracts/cropcontract.sol\":3181:3286  bytes(_name).length > 0 &&... */\n    tag_223:\n        /* \"contracts/cropcontract.sol\":3181:3325  bytes(_name).length > 0 &&... */\n      dup1\n      iszero\n      tag_224\n      jumpi\n      pop\n        /* \"contracts/cropcontract.sol\":3324:3325  0 */\n      0x00\n        /* \"contracts/cropcontract.sol\":3304:3313  _location */\n      dup2\n        /* \"contracts/cropcontract.sol\":3298:3321  bytes(_location).length */\n      mload\n        /* \"contracts/cropcontract.sol\":3298:3325  bytes(_location).length > 0 */\n      gt\n        /* \"contracts/cropcontract.sol\":3181:3325  bytes(_name).length > 0 &&... */\n    tag_224:\n        /* \"contracts/cropcontract.sol\":3164:3356  require(... */\n      tag_225\n      jumpi\n      mload(0x40)\n      0x08c379a000000000000000000000000000000000000000000000000000000000\n      dup2\n      mstore\n      0x04\n      add\n      tag_226\n      swap1\n      tag_117\n      jump\t// in\n    tag_226:\n      mload(0x40)\n      dup1\n      swap2\n      sub\n      swap1\n      revert\n    tag_225:\n        /* \"contracts/cropcontract.sol\":3363:3379  bytes32 farmerId */\n      0x00\n        /* \"contracts/cropcontract.sol\":3409:3419  msg.sender */\n      caller\n        /* \"contracts/cropcontract.sol\":3421:3436  block.timestamp */\n      timestamp\n        /* \"contracts/cropcontract.sol\":3392:3437  abi.encodePacked(msg.sender, block.timestamp) */\n      add(0x20, mload(0x40))\n      tag_227\n      swap3\n      swap2\n      swap1\n      tag_119\n      jump\t// in\n    tag_227:\n      mload(0x40)\n      0x20\n      dup2\n      dup4\n      sub\n      sub\n      dup2\n      mstore\n      swap1\n      0x40\n      mstore\n        /* \"contracts/cropcontract.sol\":3382:3438  keccak256(abi.encodePacked(msg.sender, block.timestamp)) */\n      dup1\n      mload\n      swap1\n      0x20\n      add\n      keccak256\n        /* \"contracts/cropcontract.sol\":3363:3438  bytes32 farmerId = keccak256(abi.encodePacked(msg.sender, block.timestamp)) */\n      swap1\n      pop\n        /* \"contracts/cropcontract.sol\":3444:3473  FarmerStruct memory newFarmer */\n      0x00\n        /* \"contracts/cropcontract.sol\":3476:3693  FarmerStruct({... */\n      mload(0x40)\n      dup1\n      0xe0\n      add\n      0x40\n      mstore\n      dup1\n        /* \"contracts/cropcontract.sol\":3503:3511  farmerId */\n      dup4\n        /* \"contracts/cropcontract.sol\":3476:3693  FarmerStruct({... */\n      dup2\n      mstore\n      0x20\n      add\n        /* \"contracts/cropcontract.sol\":3527:3532  _name */\n      dup9\n        /* \"contracts/cropcontract.sol\":3476:3693  FarmerStruct({... */\n      dup2\n      mstore\n      0x20\n      add\n        /* \"contracts/cropcontract.sol\":3549:3555  _email */\n      dup8\n        /* \"contracts/cropcontract.sol\":3476:3693  FarmerStruct({... */\n      dup2\n      mstore\n      0x20\n      add\n        /* \"contracts/cropcontract.sol\":3578:3590  _phoneNumber */\n      dup7\n        /* \"contracts/cropcontract.sol\":3476:3693  FarmerStruct({... */\n      dup2\n      mstore\n      0x20\n      add\n        /* \"contracts/cropcontract.sol\":3611:3621  _cropTypes */\n      dup6\n        /* \"contracts/cropcontract.sol\":3476:3693  FarmerStruct({... */\n      dup2\n      mstore\n      0x20\n      add\n        /* \"contracts/cropcontract.sol\":3641:3650  _location */\n      dup5\n        /* \"contracts/cropcontract.sol\":3476:3693  FarmerStruct({... */\n      dup2\n      mstore\n      0x20\n      add\n        /* \"contracts/cropcontract.sol\":3671:3686  block.timestamp */\n      timestamp\n        /* \"contracts/cropcontract.sol\":3476:3693  FarmerStruct({... */\n      dup2\n      mstore\n      pop\n        /* \"contracts/cropcontract.sol\":3444:3693  FarmerStruct memory newFarmer = FarmerStruct({... */\n      swap1\n      pop\n        /* \"contracts/cropcontract.sol\":3720:3729  newFarmer */\n      dup1\n        /* \"contracts/cropcontract.sol\":3700:3707  farmers */\n      0x0b\n        /* \"contracts/cropcontract.sol\":3700:3717  farmers[farmerId] */\n      0x00\n        /* \"contracts/cropcontract.sol\":3708:3716  farmerId */\n      dup5\n        /* \"contracts/cropcontract.sol\":3700:3717  farmers[farmerId] */\n      dup2\n      mstore\n      0x20\n      add\n      swap1\n      dup2\n      mstore\n      0x20\n      add\n      0x00\n      keccak256\n        /* \"contracts/cropcontract.sol\":3700:3729  farmers[farmerId] = newFarmer */\n      0x00\n      dup3\n      add\n      mload\n      dup2\n      0x00\n      add\n      sstore\n      0x20\n      dup3\n      add\n      mload\n      dup2\n      0x01\n      add\n      swap1\n      dup2\n      tag_228\n      swap2\n      swap1\n      tag_124\n      jump\t// in\n    tag_228:\n      pop\n      0x40\n      dup3\n      add\n      mload\n      dup2\n      0x02\n      add\n      swap1\n      dup2\n      tag_229\n      swap2\n      swap1\n      tag_124\n      jump\t// in\n    tag_229:\n      pop\n      0x60\n      dup3\n      add\n      mload\n      dup2\n      0x03\n      add\n      swap1\n      dup2\n      tag_230\n      swap2\n      swap1\n      tag_124\n      jump\t// in\n    tag_230:\n      pop\n      0x80\n      dup3\n      add\n      mload\n      dup2\n      0x04\n      add\n      swap1\n      dup2\n      tag_231\n      swap2\n      swap1\n      tag_124\n      jump\t// in\n    tag_231:\n      pop\n      0xa0\n      dup3\n      add\n      mload\n      dup2\n      0x05\n      add\n      swap1\n      dup2\n      tag_232\n      swap2\n      swap1\n      tag_124\n      jump\t// in\n    tag_232:\n      pop\n      0xc0\n      dup3\n      add\n      mload\n      dup2\n      0x06\n      add\n      sstore\n      swap1\n      pop\n      pop\n        /* \"contracts/cropcontract.sol\":3755:3765  msg.sender */\n      caller\n        /* \"contracts/cropcontract.sol\":3735:3742  ownerOf */\n      0x0f\n        /* \"contracts/cropcontract.sol\":3735:3752  ownerOf[farmerId] */\n      0x00\n        /* \"contracts/cropcontract.sol\":3743:3751  farmerId */\n      dup5\n        /* \"contracts/cropcontract.sol\":3735:3752  ownerOf[farmerId] */\n      dup2\n      mstore\n      0x20\n      add\n      swap1\n      dup2\n      mstore\n      0x20\n      add\n      0x00\n      keccak256\n      0x00\n        /* \"contracts/cropcontract.sol\":3735:3765  ownerOf[farmerId] = msg.sender */\n      0x0100\n      exp\n      dup2\n      sload\n      dup2\n      0xffffffffffffffffffffffffffffffffffffffff\n      mul\n      not\n      and\n      swap1\n      dup4\n      0xffffffffffffffffffffffffffffffffffffffff\n      and\n      mul\n      or\n      swap1\n      sstore\n      pop\n        /* \"contracts/cropcontract.sol\":3861:3871  msg.sender */\n      caller\n        /* \"contracts/cropcontract.sol\":3777:3877  Action(... */\n      0xffffffffffffffffffffffffffffffffffffffff\n      and\n      0xd28c9cc43c9abfc1a8676edaee9931daa84190c43f35d1fb6e3a48afa4bca3\n        /* \"contracts/cropcontract.sol\":3793:3801  farmerId */\n      dup4\n        /* \"contracts/cropcontract.sol\":3837:3851  Status.CREATED */\n      0x00\n        /* \"contracts/cropcontract.sol\":3777:3877  Action(... */\n      mload(0x40)\n      tag_233\n      swap3\n      swap2\n      swap1\n      tag_234\n      jump\t// in\n    tag_233:\n      mload(0x40)\n      dup1\n      swap2\n      sub\n      swap1\n      log2\n        /* \"contracts/cropcontract.sol\":3158:3880  {... */\n      pop\n      pop\n        /* \"contracts/cropcontract.sol\":2983:3880  function createFarmer(... */\n      pop\n      pop\n      pop\n      pop\n      pop\n      jump\t// out\n        /* \"contracts/cropcontract.sol\":5673:6481  function acceptContract(bytes32 _contractId) external payable {... */\n    tag_108:\n        /* \"contracts/cropcontract.sol\":5761:5762  0 */\n      0x00\n        /* \"contracts/cropcontract.sol\":5749:5758  msg.value */\n      callvalue\n        /* \"contracts/cropcontract.sol\":5749:5762  msg.value > 0 */\n      gt\n        /* \"contracts/cropcontract.sol\":5741:5804  require(msg.value > 0, \"Deposit amount must be greater than 0\") */\n      tag_236\n      jumpi\n      mload(0x40)\n      0x08c379a000000000000000000000000000000000000000000000000000000000\n      dup2\n      mstore\n      0x04\n      add\n      tag_237\n      swap1\n      tag_238\n      jump\t// in\n    tag_237:\n      mload(0x40)\n      dup1\n      swap2\n      sub\n      swap1\n      revert\n    tag_236:\n        /* \"contracts/cropcontract.sol\":5855:5869  Status.CREATED */\n      0x00\n        /* \"contracts/cropcontract.sol\":5818:5869  cropContracts[_contractId].status == Status.CREATED */\n      0x07\n      dup2\n      gt\n      iszero\n      tag_239\n      jumpi\n      tag_240\n      tag_122\n      jump\t// in\n    tag_240:\n    tag_239:\n        /* \"contracts/cropcontract.sol\":5818:5831  cropContracts */\n      0x0c\n        /* \"contracts/cropcontract.sol\":5818:5844  cropContracts[_contractId] */\n      0x00\n        /* \"contracts/cropcontract.sol\":5832:5843  _contractId */\n      dup4\n        /* \"contracts/cropcontract.sol\":5818:5844  cropContracts[_contractId] */\n      dup2\n      mstore\n      0x20\n      add\n      swap1\n      dup2\n      mstore\n      0x20\n      add\n      0x00\n      keccak256\n        /* \"contracts/cropcontract.sol\":5818:5851  cropContracts[_contractId].status */\n      0x08\n      add\n      0x14\n      swap1\n      sload\n      swap1\n      0x0100\n      exp\n      swap1\n      div\n      0xff\n      and\n        /* \"contracts/cropcontract.sol\":5818:5869  cropContracts[_contractId].status == Status.CREATED */\n      0x07\n      dup2\n      gt\n      iszero\n      tag_241\n      jumpi\n      tag_242\n      tag_122\n      jump\t// in\n    tag_242:\n    tag_241:\n      eq\n        /* \"contracts/cropcontract.sol\":5810:5911  require(cropContracts[_contractId].status == Status.CREATED, \"Contract is not in the CREATED status\") */\n      tag_243\n      jumpi\n      mload(0x40)\n      0x08c379a000000000000000000000000000000000000000000000000000000000\n      dup2\n      mstore\n      0x04\n      add\n      tag_244\n      swap1\n      tag_245\n      jump\t// in\n    tag_244:\n      mload(0x40)\n      dup1\n      swap2\n      sub\n      swap1\n      revert\n    tag_243:\n        /* \"contracts/cropcontract.sol\":6060:6081  Status.BUYER_ACCEPTED */\n      0x01\n        /* \"contracts/cropcontract.sol\":6024:6037  cropContracts */\n      0x0c\n        /* \"contracts/cropcontract.sol\":6024:6050  cropContracts[_contractId] */\n      0x00\n        /* \"contracts/cropcontract.sol\":6038:6049  _contractId */\n      dup4\n        /* \"contracts/cropcontract.sol\":6024:6050  cropContracts[_contractId] */\n      dup2\n      mstore\n      0x20\n      add\n      swap1\n      dup2\n      mstore\n      0x20\n      add\n      0x00\n      keccak256\n        /* \"contracts/cropcontract.sol\":6024:6057  cropContracts[_contractId].status */\n      0x08\n      add\n      0x14\n        /* \"contracts/cropcontract.sol\":6024:6081  cropContracts[_contractId].status = Status.BUYER_ACCEPTED */\n      0x0100\n      exp\n      dup2\n      sload\n      dup2\n      0xff\n      mul\n      not\n      and\n      swap1\n      dup4\n      0x07\n      dup2\n      gt\n      iszero\n      tag_246\n      jumpi\n      tag_247\n      tag_122\n      jump\t// in\n    tag_247:\n    tag_246:\n      mul\n      or\n      swap1\n      sstore\n      pop\n        /* \"contracts/cropcontract.sol\":6125:6129  true */\n      0x01\n        /* \"contracts/cropcontract.sol\":6087:6100  cropContracts */\n      0x0c\n        /* \"contracts/cropcontract.sol\":6087:6113  cropContracts[_contractId] */\n      0x00\n        /* \"contracts/cropcontract.sol\":6101:6112  _contractId */\n      dup4\n        /* \"contracts/cropcontract.sol\":6087:6113  cropContracts[_contractId] */\n      dup2\n      mstore\n      0x20\n      add\n      swap1\n      dup2\n      mstore\n      0x20\n      add\n      0x00\n      keccak256\n        /* \"contracts/cropcontract.sol\":6087:6122  cropContracts[_contractId].accepted */\n      0x08\n      add\n      0x15\n        /* \"contracts/cropcontract.sol\":6087:6129  cropContracts[_contractId].accepted = true */\n      0x0100\n      exp\n      dup2\n      sload\n      dup2\n      0xff\n      mul\n      not\n      and\n      swap1\n      dup4\n      iszero\n      iszero\n      mul\n      or\n      swap1\n      sstore\n      pop\n        /* \"contracts/cropcontract.sol\":6170:6180  msg.sender */\n      caller\n        /* \"contracts/cropcontract.sol\":6135:6148  cropContracts */\n      0x0c\n        /* \"contracts/cropcontract.sol\":6135:6161  cropContracts[_contractId] */\n      0x00\n        /* \"contracts/cropcontract.sol\":6149:6160  _contractId */\n      dup4\n        /* \"contracts/cropcontract.sol\":6135:6161  cropContracts[_contractId] */\n      dup2\n      mstore\n      0x20\n      add\n      swap1\n      dup2\n      mstore\n      0x20\n      add\n      0x00\n      keccak256\n        /* \"contracts/cropcontract.sol\":6135:6167  cropContracts[_contractId].buyer */\n      0x08\n      add\n      0x00\n        /* \"contracts/cropcontract.sol\":6135:6180  cropContracts[_contractId].buyer = msg.sender */\n      0x0100\n      exp\n      dup2\n      sload\n      dup2\n      0xffffffffffffffffffffffffffffffffffffffff\n      mul\n      not\n      and\n      swap1\n      dup4\n      0xffffffffffffffffffffffffffffffffffffffff\n      and\n      mul\n      or\n      swap1\n      sstore\n      pop\n        /* \"contracts/cropcontract.sol\":6287:6296  msg.value */\n      callvalue\n        /* \"contracts/cropcontract.sol\":6277:6283  escBal */\n      0x04\n      0x00\n        /* \"contracts/cropcontract.sol\":6277:6296  escBal += msg.value */\n      dup3\n      dup3\n      sload\n      tag_248\n      swap2\n      swap1\n      tag_249\n      jump\t// in\n    tag_248:\n      swap3\n      pop\n      pop\n      dup2\n      swap1\n      sstore\n      pop\n        /* \"contracts/cropcontract.sol\":6462:6472  msg.sender */\n      caller\n        /* \"contracts/cropcontract.sol\":6365:6478  Action(... */\n      0xffffffffffffffffffffffffffffffffffffffff\n      and\n      0xd28c9cc43c9abfc1a8676edaee9931daa84190c43f35d1fb6e3a48afa4bca3\n        /* \"contracts/cropcontract.sol\":6381:6392  _contractId */\n      dup3\n        /* \"contracts/cropcontract.sol\":6431:6452  Status.BUYER_ACCEPTED */\n      0x01\n        /* \"contracts/cropcontract.sol\":6365:6478  Action(... */\n      mload(0x40)\n      tag_250\n      swap3\n      swap2\n      swap1\n      tag_251\n      jump\t// in\n    tag_250:\n      mload(0x40)\n      dup1\n      swap2\n      sub\n      swap1\n      log2\n        /* \"contracts/cropcontract.sol\":5673:6481  function acceptContract(bytes32 _contractId) external payable {... */\n      pop\n      jump\t// out\n    tag_146:\n      mload(0x40)\n      dup1\n      0x0160\n      add\n      0x40\n      mstore\n      dup1\n      0x00\n      dup1\n      not\n      and\n      dup2\n      mstore\n      0x20\n      add\n      0x60\n      dup2\n      mstore\n      0x20\n      add\n      0x00\n      dup2\n      mstore\n      0x20\n      add\n      0x60\n      dup2\n      mstore\n      0x20\n      add\n      0x60\n      dup2\n      mstore\n      0x20\n      add\n      0x00\n      dup2\n      mstore\n      0x20\n      add\n      0x60\n      dup2\n      mstore\n      0x20\n      add\n      and(0xffffffffffffffffffffffffffffffffffffffff, 0x00)\n      dup2\n      mstore\n      0x20\n      add\n      and(0xffffffffffffffffffffffffffffffffffffffff, 0x00)\n      dup2\n      mstore\n      0x20\n      add\n      0x00\n      0x07\n      dup2\n      gt\n      iszero\n      tag_252\n      jumpi\n      tag_253\n      tag_122\n      jump\t// in\n    tag_253:\n    tag_252:\n      dup2\n      mstore\n      0x20\n      add\n      iszero(iszero(0x00))\n      dup2\n      mstore\n      pop\n      swap1\n      jump\t// out\n        /* \"#utility.yul\":7:82   */\n    tag_254:\n        /* \"#utility.yul\":40:46   */\n      0x00\n        /* \"#utility.yul\":73:75   */\n      0x40\n        /* \"#utility.yul\":67:76   */\n      mload\n        /* \"#utility.yul\":57:76   */\n      swap1\n      pop\n        /* \"#utility.yul\":7:82   */\n      swap1\n      jump\t// out\n        /* \"#utility.yul\":88:205   */\n    tag_255:\n        /* \"#utility.yul\":197:198   */\n      0x00\n        /* \"#utility.yul\":194:195   */\n      dup1\n        /* \"#utility.yul\":187:199   */\n      revert\n        /* \"#utility.yul\":211:328   */\n    tag_256:\n        /* \"#utility.yul\":320:321   */\n      0x00\n        /* \"#utility.yul\":317:318   */\n      dup1\n        /* \"#utility.yul\":310:322   */\n      revert\n        /* \"#utility.yul\":334:460   */\n    tag_257:\n        /* \"#utility.yul\":371:378   */\n      0x00\n        /* \"#utility.yul\":411:453   */\n      0xffffffffffffffffffffffffffffffffffffffff\n        /* \"#utility.yul\":404:409   */\n      dup3\n        /* \"#utility.yul\":400:454   */\n      and\n        /* \"#utility.yul\":389:454   */\n      swap1\n      pop\n        /* \"#utility.yul\":334:460   */\n      swap2\n      swap1\n      pop\n      jump\t// out\n        /* \"#utility.yul\":466:562   */\n    tag_258:\n        /* \"#utility.yul\":503:510   */\n      0x00\n        /* \"#utility.yul\":532:556   */\n      tag_351\n        /* \"#utility.yul\":550:555   */\n      dup3\n        /* \"#utility.yul\":532:556   */\n      tag_257\n      jump\t// in\n    tag_351:\n        /* \"#utility.yul\":521:556   */\n      swap1\n      pop\n        /* \"#utility.yul\":466:562   */\n      swap2\n      swap1\n      pop\n      jump\t// out\n        /* \"#utility.yul\":568:690   */\n    tag_259:\n        /* \"#utility.yul\":641:665   */\n      tag_353\n        /* \"#utility.yul\":659:664   */\n      dup2\n        /* \"#utility.yul\":641:665   */\n      tag_258\n      jump\t// in\n    tag_353:\n        /* \"#utility.yul\":634:639   */\n      dup2\n        /* \"#utility.yul\":631:666   */\n      eq\n        /* \"#utility.yul\":621:684   */\n      tag_354\n      jumpi\n        /* \"#utility.yul\":680:681   */\n      0x00\n        /* \"#utility.yul\":677:678   */\n      dup1\n        /* \"#utility.yul\":670:682   */\n      revert\n        /* \"#utility.yul\":621:684   */\n    tag_354:\n        /* \"#utility.yul\":568:690   */\n      pop\n      jump\t// out\n        /* \"#utility.yul\":696:835   */\n    tag_260:\n        /* \"#utility.yul\":742:747   */\n      0x00\n        /* \"#utility.yul\":780:786   */\n      dup2\n        /* \"#utility.yul\":767:787   */\n      calldataload\n        /* \"#utility.yul\":758:787   */\n      swap1\n      pop\n        /* \"#utility.yul\":796:829   */\n      tag_356\n        /* \"#utility.yul\":823:828   */\n      dup2\n        /* \"#utility.yul\":796:829   */\n      tag_259\n      jump\t// in\n    tag_356:\n        /* \"#utility.yul\":696:835   */\n      swap3\n      swap2\n      pop\n      pop\n      jump\t// out\n        /* \"#utility.yul\":841:918   */\n    tag_261:\n        /* \"#utility.yul\":878:885   */\n      0x00\n        /* \"#utility.yul\":907:912   */\n      dup2\n        /* \"#utility.yul\":896:912   */\n      swap1\n      pop\n        /* \"#utility.yul\":841:918   */\n      swap2\n      swap1\n      pop\n      jump\t// out\n        /* \"#utility.yul\":924:1046   */\n    tag_262:\n        /* \"#utility.yul\":997:1021   */\n      tag_359\n        /* \"#utility.yul\":1015:1020   */\n      dup2\n        /* \"#utility.yul\":997:1021   */\n      tag_261\n      jump\t// in\n    tag_359:\n        /* \"#utility.yul\":990:995   */\n      dup2\n        /* \"#utility.yul\":987:1022   */\n      eq\n        /* \"#utility.yul\":977:1040   */\n      tag_360\n      jumpi\n        /* \"#utility.yul\":1036:1037   */\n      0x00\n        /* \"#utility.yul\":1033:1034   */\n      dup1\n        /* \"#utility.yul\":1026:1038   */\n      revert\n        /* \"#utility.yul\":977:1040   */\n    tag_360:\n        /* \"#utility.yul\":924:1046   */\n      pop\n      jump\t// out\n        /* \"#utility.yul\":1052:1191   */\n    tag_263:\n        /* \"#utility.yul\":1098:1103   */\n      0x00\n        /* \"#utility.yul\":1136:1142   */\n      dup2\n        /* \"#utility.yul\":1123:1143   */\n      calldataload\n        /* \"#utility.yul\":1114:1143   */\n      swap1\n      pop\n        /* \"#utility.yul\":1152:1185   */\n      tag_362\n        /* \"#utility.yul\":1179:1184   */\n      dup2\n        /* \"#utility.yul\":1152:1185   */\n      tag_262\n      jump\t// in\n    tag_362:\n        /* \"#utility.yul\":1052:1191   */\n      swap3\n      swap2\n      pop\n      pop\n      jump\t// out\n        /* \"#utility.yul\":1197:1671   */\n    tag_26:\n        /* \"#utility.yul\":1265:1271   */\n      0x00\n        /* \"#utility.yul\":1273:1279   */\n      dup1\n        /* \"#utility.yul\":1322:1324   */\n      0x40\n        /* \"#utility.yul\":1310:1319   */\n      dup4\n        /* \"#utility.yul\":1301:1308   */\n      dup6\n        /* \"#utility.yul\":1297:1320   */\n      sub\n        /* \"#utility.yul\":1293:1325   */\n      slt\n        /* \"#utility.yul\":1290:1409   */\n      iszero\n      tag_364\n      jumpi\n        /* \"#utility.yul\":1328:1407   */\n      tag_365\n      tag_255\n      jump\t// in\n    tag_365:\n        /* \"#utility.yul\":1290:1409   */\n    tag_364:\n        /* \"#utility.yul\":1448:1449   */\n      0x00\n        /* \"#utility.yul\":1473:1526   */\n      tag_366\n        /* \"#utility.yul\":1518:1525   */\n      dup6\n        /* \"#utility.yul\":1509:1515   */\n      dup3\n        /* \"#utility.yul\":1498:1507   */\n      dup7\n        /* \"#utility.yul\":1494:1516   */\n      add\n        /* \"#utility.yul\":1473:1526   */\n      tag_260\n      jump\t// in\n    tag_366:\n        /* \"#utility.yul\":1463:1526   */\n      swap3\n      pop\n        /* \"#utility.yul\":1419:1536   */\n      pop\n        /* \"#utility.yul\":1575:1577   */\n      0x20\n        /* \"#utility.yul\":1601:1654   */\n      tag_367\n        /* \"#utility.yul\":1646:1653   */\n      dup6\n        /* \"#utility.yul\":1637:1643   */\n      dup3\n        /* \"#utility.yul\":1626:1635   */\n      dup7\n        /* \"#utility.yul\":1622:1644   */\n      add\n        /* \"#utility.yul\":1601:1654   */\n      tag_263\n      jump\t// in\n    tag_367:\n        /* \"#utility.yul\":1591:1654   */\n      swap2\n      pop\n        /* \"#utility.yul\":1546:1664   */\n      pop\n        /* \"#utility.yul\":1197:1671   */\n      swap3\n      pop\n      swap3\n      swap1\n      pop\n      jump\t// out\n        /* \"#utility.yul\":1677:1767   */\n    tag_264:\n        /* \"#utility.yul\":1711:1718   */\n      0x00\n        /* \"#utility.yul\":1754:1759   */\n      dup2\n        /* \"#utility.yul\":1747:1760   */\n      iszero\n        /* \"#utility.yul\":1740:1761   */\n      iszero\n        /* \"#utility.yul\":1729:1761   */\n      swap1\n      pop\n        /* \"#utility.yul\":1677:1767   */\n      swap2\n      swap1\n      pop\n      jump\t// out\n        /* \"#utility.yul\":1773:1882   */\n    tag_265:\n        /* \"#utility.yul\":1854:1875   */\n      tag_370\n        /* \"#utility.yul\":1869:1874   */\n      dup2\n        /* \"#utility.yul\":1854:1875   */\n      tag_264\n      jump\t// in\n    tag_370:\n        /* \"#utility.yul\":1849:1852   */\n      dup3\n        /* \"#utility.yul\":1842:1876   */\n      mstore\n        /* \"#utility.yul\":1773:1882   */\n      pop\n      pop\n      jump\t// out\n        /* \"#utility.yul\":1888:2098   */\n    tag_29:\n        /* \"#utility.yul\":1975:1979   */\n      0x00\n        /* \"#utility.yul\":2013:2015   */\n      0x20\n        /* \"#utility.yul\":2002:2011   */\n      dup3\n        /* \"#utility.yul\":1998:2016   */\n      add\n        /* \"#utility.yul\":1990:2016   */\n      swap1\n      pop\n        /* \"#utility.yul\":2026:2091   */\n      tag_372\n        /* \"#utility.yul\":2088:2089   */\n      0x00\n        /* \"#utility.yul\":2077:2086   */\n      dup4\n        /* \"#utility.yul\":2073:2090   */\n      add\n        /* \"#utility.yul\":2064:2070   */\n      dup5\n        /* \"#utility.yul\":2026:2091   */\n      tag_265\n      jump\t// in\n    tag_372:\n        /* \"#utility.yul\":1888:2098   */\n      swap3\n      swap2\n      pop\n      pop\n      jump\t// out\n        /* \"#utility.yul\":2104:2221   */\n    tag_266:\n        /* \"#utility.yul\":2213:2214   */\n      0x00\n        /* \"#utility.yul\":2210:2211   */\n      dup1\n        /* \"#utility.yul\":2203:2215   */\n      revert\n        /* \"#utility.yul\":2227:2344   */\n    tag_267:\n        /* \"#utility.yul\":2336:2337   */\n      0x00\n        /* \"#utility.yul\":2333:2334   */\n      dup1\n        /* \"#utility.yul\":2326:2338   */\n      revert\n        /* \"#utility.yul\":2350:2452   */\n    tag_268:\n        /* \"#utility.yul\":2391:2397   */\n      0x00\n        /* \"#utility.yul\":2442:2444   */\n      0x1f\n        /* \"#utility.yul\":2438:2445   */\n      not\n        /* \"#utility.yul\":2433:2435   */\n      0x1f\n        /* \"#utility.yul\":2426:2431   */\n      dup4\n        /* \"#utility.yul\":2422:2436   */\n      add\n        /* \"#utility.yul\":2418:2446   */\n      and\n        /* \"#utility.yul\":2408:2446   */\n      swap1\n      pop\n        /* \"#utility.yul\":2350:2452   */\n      swap2\n      swap1\n      pop\n      jump\t// out\n        /* \"#utility.yul\":2458:2638   */\n    tag_142:\n        /* \"#utility.yul\":2506:2583   */\n      0x4e487b7100000000000000000000000000000000000000000000000000000000\n        /* \"#utility.yul\":2503:2504   */\n      0x00\n        /* \"#utility.yul\":2496:2584   */\n      mstore\n        /* \"#utility.yul\":2603:2607   */\n      0x41\n        /* \"#utility.yul\":2600:2601   */\n      0x04\n        /* \"#utility.yul\":2593:2608   */\n      mstore\n        /* \"#utility.yul\":2627:2631   */\n      0x24\n        /* \"#utility.yul\":2624:2625   */\n      0x00\n        /* \"#utility.yul\":2617:2632   */\n      revert\n        /* \"#utility.yul\":2644:2925   */\n    tag_269:\n        /* \"#utility.yul\":2727:2754   */\n      tag_378\n        /* \"#utility.yul\":2749:2753   */\n      dup3\n        /* \"#utility.yul\":2727:2754   */\n      tag_268\n      jump\t// in\n    tag_378:\n        /* \"#utility.yul\":2719:2725   */\n      dup2\n        /* \"#utility.yul\":2715:2755   */\n      add\n        /* \"#utility.yul\":2857:2863   */\n      dup2\n        /* \"#utility.yul\":2845:2855   */\n      dup2\n        /* \"#utility.yul\":2842:2864   */\n      lt\n        /* \"#utility.yul\":2821:2839   */\n      0xffffffffffffffff\n        /* \"#utility.yul\":2809:2819   */\n      dup3\n        /* \"#utility.yul\":2806:2840   */\n      gt\n        /* \"#utility.yul\":2803:2865   */\n      or\n        /* \"#utility.yul\":2800:2888   */\n      iszero\n      tag_379\n      jumpi\n        /* \"#utility.yul\":2868:2886   */\n      tag_380\n      tag_142\n      jump\t// in\n    tag_380:\n        /* \"#utility.yul\":2800:2888   */\n    tag_379:\n        /* \"#utility.yul\":2908:2918   */\n      dup1\n        /* \"#utility.yul\":2904:2906   */\n      0x40\n        /* \"#utility.yul\":2897:2919   */\n      mstore\n        /* \"#utility.yul\":2687:2925   */\n      pop\n        /* \"#utility.yul\":2644:2925   */\n      pop\n      pop\n      jump\t// out\n        /* \"#utility.yul\":2931:3060   */\n    tag_270:\n        /* \"#utility.yul\":2965:2971   */\n      0x00\n        /* \"#utility.yul\":2992:3012   */\n      tag_382\n      tag_254\n      jump\t// in\n    tag_382:\n        /* \"#utility.yul\":2982:3012   */\n      swap1\n      pop\n        /* \"#utility.yul\":3021:3054   */\n      tag_383\n        /* \"#utility.yul\":3049:3053   */\n      dup3\n        /* \"#utility.yul\":3041:3047   */\n      dup3\n        /* \"#utility.yul\":3021:3054   */\n      tag_269\n      jump\t// in\n    tag_383:\n        /* \"#utility.yul\":2931:3060   */\n      swap2\n      swap1\n      pop\n      jump\t// out\n        /* \"#utility.yul\":3066:3374   */\n    tag_271:\n        /* \"#utility.yul\":3128:3132   */\n      0x00\n        /* \"#utility.yul\":3218:3236   */\n      0xffffffffffffffff\n        /* \"#utility.yul\":3210:3216   */\n      dup3\n        /* \"#utility.yul\":3207:3237   */\n      gt\n        /* \"#utility.yul\":3204:3260   */\n      iszero\n      tag_385\n      jumpi\n        /* \"#utility.yul\":3240:3258   */\n      tag_386\n      tag_142\n      jump\t// in\n    tag_386:\n        /* \"#utility.yul\":3204:3260   */\n    tag_385:\n        /* \"#utility.yul\":3278:3307   */\n      tag_387\n        /* \"#utility.yul\":3300:3306   */\n      dup3\n        /* \"#utility.yul\":3278:3307   */\n      tag_268\n      jump\t// in\n    tag_387:\n        /* \"#utility.yul\":3270:3307   */\n      swap1\n      pop\n        /* \"#utility.yul\":3362:3366   */\n      0x20\n        /* \"#utility.yul\":3356:3360   */\n      dup2\n        /* \"#utility.yul\":3352:3367   */\n      add\n        /* \"#utility.yul\":3344:3367   */\n      swap1\n      pop\n        /* \"#utility.yul\":3066:3374   */\n      swap2\n      swap1\n      pop\n      jump\t// out\n        /* \"#utility.yul\":3380:3526   */\n    tag_272:\n        /* \"#utility.yul\":3477:3483   */\n      dup3\n        /* \"#utility.yul\":3472:3475   */\n      dup2\n        /* \"#utility.yul\":3467:3470   */\n      dup4\n        /* \"#utility.yul\":3454:3484   */\n      calldatacopy\n        /* \"#utility.yul\":3518:3519   */\n      0x00\n        /* \"#utility.yul\":3509:3515   */\n      dup4\n        /* \"#utility.yul\":3504:3507   */\n      dup4\n        /* \"#utility.yul\":3500:3516   */\n      add\n        /* \"#utility.yul\":3493:3520   */\n      mstore\n        /* \"#utility.yul\":3380:3526   */\n      pop\n      pop\n      pop\n      jump\t// out\n        /* \"#utility.yul\":3532:3957   */\n    tag_273:\n        /* \"#utility.yul\":3610:3615   */\n      0x00\n        /* \"#utility.yul\":3635:3701   */\n      tag_390\n        /* \"#utility.yul\":3651:3700   */\n      tag_391\n        /* \"#utility.yul\":3693:3699   */\n      dup5\n        /* \"#utility.yul\":3651:3700   */\n      tag_271\n      jump\t// in\n    tag_391:\n        /* \"#utility.yul\":3635:3701   */\n      tag_270\n      jump\t// in\n    tag_390:\n        /* \"#utility.yul\":3626:3701   */\n      swap1\n      pop\n        /* \"#utility.yul\":3724:3730   */\n      dup3\n        /* \"#utility.yul\":3717:3722   */\n      dup2\n        /* \"#utility.yul\":3710:3731   */\n      mstore\n        /* \"#utility.yul\":3762:3766   */\n      0x20\n        /* \"#utility.yul\":3755:3760   */\n      dup2\n        /* \"#utility.yul\":3751:3767   */\n      add\n        /* \"#utility.yul\":3800:3803   */\n      dup5\n        /* \"#utility.yul\":3791:3797   */\n      dup5\n        /* \"#utility.yul\":3786:3789   */\n      dup5\n        /* \"#utility.yul\":3782:3798   */\n      add\n        /* \"#utility.yul\":3779:3804   */\n      gt\n        /* \"#utility.yul\":3776:3888   */\n      iszero\n      tag_392\n      jumpi\n        /* \"#utility.yul\":3807:3886   */\n      tag_393\n      tag_267\n      jump\t// in\n    tag_393:\n        /* \"#utility.yul\":3776:3888   */\n    tag_392:\n        /* \"#utility.yul\":3897:3951   */\n      tag_394\n        /* \"#utility.yul\":3944:3950   */\n      dup5\n        /* \"#utility.yul\":3939:3942   */\n      dup3\n        /* \"#utility.yul\":3934:3937   */\n      dup6\n        /* \"#utility.yul\":3897:3951   */\n      tag_272\n      jump\t// in\n    tag_394:\n        /* \"#utility.yul\":3616:3957   */\n      pop\n        /* \"#utility.yul\":3532:3957   */\n      swap4\n      swap3\n      pop\n      pop\n      pop\n      jump\t// out\n        /* \"#utility.yul\":3977:4317   */\n    tag_274:\n        /* \"#utility.yul\":4033:4038   */\n      0x00\n        /* \"#utility.yul\":4082:4085   */\n      dup3\n        /* \"#utility.yul\":4075:4079   */\n      0x1f\n        /* \"#utility.yul\":4067:4073   */\n      dup4\n        /* \"#utility.yul\":4063:4080   */\n      add\n        /* \"#utility.yul\":4059:4086   */\n      slt\n        /* \"#utility.yul\":4049:4171   */\n      tag_396\n      jumpi\n        /* \"#utility.yul\":4090:4169   */\n      tag_397\n      tag_266\n      jump\t// in\n    tag_397:\n        /* \"#utility.yul\":4049:4171   */\n    tag_396:\n        /* \"#utility.yul\":4207:4213   */\n      dup2\n        /* \"#utility.yul\":4194:4214   */\n      calldataload\n        /* \"#utility.yul\":4232:4311   */\n      tag_398\n        /* \"#utility.yul\":4307:4310   */\n      dup5\n        /* \"#utility.yul\":4299:4305   */\n      dup3\n        /* \"#utility.yul\":4292:4296   */\n      0x20\n        /* \"#utility.yul\":4284:4290   */\n      dup7\n        /* \"#utility.yul\":4280:4297   */\n      add\n        /* \"#utility.yul\":4232:4311   */\n      tag_273\n      jump\t// in\n    tag_398:\n        /* \"#utility.yul\":4223:4311   */\n      swap2\n      pop\n        /* \"#utility.yul\":4039:4317   */\n      pop\n        /* \"#utility.yul\":3977:4317   */\n      swap3\n      swap2\n      pop\n      pop\n      jump\t// out\n        /* \"#utility.yul\":4323:6100   */\n    tag_33:\n        /* \"#utility.yul\":4467:4473   */\n      0x00\n        /* \"#utility.yul\":4475:4481   */\n      dup1\n        /* \"#utility.yul\":4483:4489   */\n      0x00\n        /* \"#utility.yul\":4491:4497   */\n      dup1\n        /* \"#utility.yul\":4499:4505   */\n      0x00\n        /* \"#utility.yul\":4507:4513   */\n      dup1\n        /* \"#utility.yul\":4556:4559   */\n      0xc0\n        /* \"#utility.yul\":4544:4553   */\n      dup8\n        /* \"#utility.yul\":4535:4542   */\n      dup10\n        /* \"#utility.yul\":4531:4554   */\n      sub\n        /* \"#utility.yul\":4527:4560   */\n      slt\n        /* \"#utility.yul\":4524:4644   */\n      iszero\n      tag_400\n      jumpi\n        /* \"#utility.yul\":4563:4642   */\n      tag_401\n      tag_255\n      jump\t// in\n    tag_401:\n        /* \"#utility.yul\":4524:4644   */\n    tag_400:\n        /* \"#utility.yul\":4711:4712   */\n      0x00\n        /* \"#utility.yul\":4700:4709   */\n      dup8\n        /* \"#utility.yul\":4696:4713   */\n      add\n        /* \"#utility.yul\":4683:4714   */\n      calldataload\n        /* \"#utility.yul\":4741:4759   */\n      0xffffffffffffffff\n        /* \"#utility.yul\":4733:4739   */\n      dup2\n        /* \"#utility.yul\":4730:4760   */\n      gt\n        /* \"#utility.yul\":4727:4844   */\n      iszero\n      tag_402\n      jumpi\n        /* \"#utility.yul\":4763:4842   */\n      tag_403\n      tag_256\n      jump\t// in\n    tag_403:\n        /* \"#utility.yul\":4727:4844   */\n    tag_402:\n        /* \"#utility.yul\":4868:4931   */\n      tag_404\n        /* \"#utility.yul\":4923:4930   */\n      dup10\n        /* \"#utility.yul\":4914:4920   */\n      dup3\n        /* \"#utility.yul\":4903:4912   */\n      dup11\n        /* \"#utility.yul\":4899:4921   */\n      add\n        /* \"#utility.yul\":4868:4931   */\n      tag_274\n      jump\t// in\n    tag_404:\n        /* \"#utility.yul\":4858:4931   */\n      swap7\n      pop\n        /* \"#utility.yul\":4654:4941   */\n      pop\n        /* \"#utility.yul\":4980:4982   */\n      0x20\n        /* \"#utility.yul\":5006:5059   */\n      tag_405\n        /* \"#utility.yul\":5051:5058   */\n      dup10\n        /* \"#utility.yul\":5042:5048   */\n      dup3\n        /* \"#utility.yul\":5031:5040   */\n      dup11\n        /* \"#utility.yul\":5027:5049   */\n      add\n        /* \"#utility.yul\":5006:5059   */\n      tag_263\n      jump\t// in\n    tag_405:\n        /* \"#utility.yul\":4996:5059   */\n      swap6\n      pop\n        /* \"#utility.yul\":4951:5069   */\n      pop\n        /* \"#utility.yul\":5136:5138   */\n      0x40\n        /* \"#utility.yul\":5125:5134   */\n      dup8\n        /* \"#utility.yul\":5121:5139   */\n      add\n        /* \"#utility.yul\":5108:5140   */\n      calldataload\n        /* \"#utility.yul\":5167:5185   */\n      0xffffffffffffffff\n        /* \"#utility.yul\":5159:5165   */\n      dup2\n        /* \"#utility.yul\":5156:5186   */\n      gt\n        /* \"#utility.yul\":5153:5270   */\n      iszero\n      tag_406\n      jumpi\n        /* \"#utility.yul\":5189:5268   */\n      tag_407\n      tag_256\n      jump\t// in\n    tag_407:\n        /* \"#utility.yul\":5153:5270   */\n    tag_406:\n        /* \"#utility.yul\":5294:5357   */\n      tag_408\n        /* \"#utility.yul\":5349:5356   */\n      dup10\n        /* \"#utility.yul\":5340:5346   */\n      dup3\n        /* \"#utility.yul\":5329:5338   */\n      dup11\n        /* \"#utility.yul\":5325:5347   */\n      add\n        /* \"#utility.yul\":5294:5357   */\n      tag_274\n      jump\t// in\n    tag_408:\n        /* \"#utility.yul\":5284:5357   */\n      swap5\n      pop\n        /* \"#utility.yul\":5079:5367   */\n      pop\n        /* \"#utility.yul\":5434:5436   */\n      0x60\n        /* \"#utility.yul\":5423:5432   */\n      dup8\n        /* \"#utility.yul\":5419:5437   */\n      add\n        /* \"#utility.yul\":5406:5438   */\n      calldataload\n        /* \"#utility.yul\":5465:5483   */\n      0xffffffffffffffff\n        /* \"#utility.yul\":5457:5463   */\n      dup2\n        /* \"#utility.yul\":5454:5484   */\n      gt\n        /* \"#utility.yul\":5451:5568   */\n      iszero\n      tag_409\n      jumpi\n        /* \"#utility.yul\":5487:5566   */\n      tag_410\n      tag_256\n      jump\t// in\n    tag_410:\n        /* \"#utility.yul\":5451:5568   */\n    tag_409:\n        /* \"#utility.yul\":5592:5655   */\n      tag_411\n        /* \"#utility.yul\":5647:5654   */\n      dup10\n        /* \"#utility.yul\":5638:5644   */\n      dup3\n        /* \"#utility.yul\":5627:5636   */\n      dup11\n        /* \"#utility.yul\":5623:5645   */\n      add\n        /* \"#utility.yul\":5592:5655   */\n      tag_274\n      jump\t// in\n    tag_411:\n        /* \"#utility.yul\":5582:5655   */\n      swap4\n      pop\n        /* \"#utility.yul\":5377:5665   */\n      pop\n        /* \"#utility.yul\":5704:5707   */\n      0x80\n        /* \"#utility.yul\":5731:5784   */\n      tag_412\n        /* \"#utility.yul\":5776:5783   */\n      dup10\n        /* \"#utility.yul\":5767:5773   */\n      dup3\n        /* \"#utility.yul\":5756:5765   */\n      dup11\n        /* \"#utility.yul\":5752:5774   */\n      add\n        /* \"#utility.yul\":5731:5784   */\n      tag_263\n      jump\t// in\n    tag_412:\n        /* \"#utility.yul\":5721:5784   */\n      swap3\n      pop\n        /* \"#utility.yul\":5675:5794   */\n      pop\n        /* \"#utility.yul\":5861:5864   */\n      0xa0\n        /* \"#utility.yul\":5850:5859   */\n      dup8\n        /* \"#utility.yul\":5846:5865   */\n      add\n        /* \"#utility.yul\":5833:5866   */\n      calldataload\n        /* \"#utility.yul\":5893:5911   */\n      0xffffffffffffffff\n        /* \"#utility.yul\":5885:5891   */\n      dup2\n        /* \"#utility.yul\":5882:5912   */\n      gt\n        /* \"#utility.yul\":5879:5996   */\n      iszero\n      tag_413\n      jumpi\n        /* \"#utility.yul\":5915:5994   */\n      tag_414\n      tag_256\n      jump\t// in\n    tag_414:\n        /* \"#utility.yul\":5879:5996   */\n    tag_413:\n        /* \"#utility.yul\":6020:6083   */\n      tag_415\n        /* \"#utility.yul\":6075:6082   */\n      dup10\n        /* \"#utility.yul\":6066:6072   */\n      dup3\n        /* \"#utility.yul\":6055:6064   */\n      dup11\n        /* \"#utility.yul\":6051:6073   */\n      add\n        /* \"#utility.yul\":6020:6083   */\n      tag_274\n      jump\t// in\n    tag_415:\n        /* \"#utility.yul\":6010:6083   */\n      swap2\n      pop\n        /* \"#utility.yul\":5804:6093   */\n      pop\n        /* \"#utility.yul\":4323:6100   */\n      swap3\n      swap6\n      pop\n      swap3\n      swap6\n      pop\n      swap3\n      swap6\n      jump\t// out\n        /* \"#utility.yul\":6106:6255   */\n    tag_275:\n        /* \"#utility.yul\":6208:6214   */\n      0x00\n        /* \"#utility.yul\":6242:6247   */\n      dup2\n        /* \"#utility.yul\":6236:6248   */\n      mload\n        /* \"#utility.yul\":6226:6248   */\n      swap1\n      pop\n        /* \"#utility.yul\":6106:6255   */\n      swap2\n      swap1\n      pop\n      jump\t// out\n        /* \"#utility.yul\":6261:6480   */\n    tag_276:\n        /* \"#utility.yul\":6395:6406   */\n      0x00\n        /* \"#utility.yul\":6429:6435   */\n      dup3\n        /* \"#utility.yul\":6424:6427   */\n      dup3\n        /* \"#utility.yul\":6417:6436   */\n      mstore\n        /* \"#utility.yul\":6469:6473   */\n      0x20\n        /* \"#utility.yul\":6464:6467   */\n      dup3\n        /* \"#utility.yul\":6460:6474   */\n      add\n        /* \"#utility.yul\":6445:6474   */\n      swap1\n      pop\n        /* \"#utility.yul\":6261:6480   */\n      swap3\n      swap2\n      pop\n      pop\n      jump\t// out\n        /* \"#utility.yul\":6486:6653   */\n    tag_277:\n        /* \"#utility.yul\":6588:6592   */\n      0x00\n        /* \"#utility.yul\":6611:6614   */\n      dup2\n        /* \"#utility.yul\":6603:6614   */\n      swap1\n      pop\n        /* \"#utility.yul\":6641:6645   */\n      0x20\n        /* \"#utility.yul\":6636:6639   */\n      dup3\n        /* \"#utility.yul\":6632:6646   */\n      add\n        /* \"#utility.yul\":6624:6646   */\n      swap1\n      pop\n        /* \"#utility.yul\":6486:6653   */\n      swap2\n      swap1\n      pop\n      jump\t// out\n        /* \"#utility.yul\":6659:6736   */\n    tag_278:\n        /* \"#utility.yul\":6696:6703   */\n      0x00\n        /* \"#utility.yul\":6725:6730   */\n      dup2\n        /* \"#utility.yul\":6714:6730   */\n      swap1\n      pop\n        /* \"#utility.yul\":6659:6736   */\n      swap2\n      swap1\n      pop\n      jump\t// out\n        /* \"#utility.yul\":6742:6850   */\n    tag_279:\n        /* \"#utility.yul\":6819:6843   */\n      tag_421\n        /* \"#utility.yul\":6837:6842   */\n      dup2\n        /* \"#utility.yul\":6819:6843   */\n      tag_278\n      jump\t// in\n    tag_421:\n        /* \"#utility.yul\":6814:6817   */\n      dup3\n        /* \"#utility.yul\":6807:6844   */\n      mstore\n        /* \"#utility.yul\":6742:6850   */\n      pop\n      pop\n      jump\t// out\n        /* \"#utility.yul\":6856:6955   */\n    tag_280:\n        /* \"#utility.yul\":6908:6914   */\n      0x00\n        /* \"#utility.yul\":6942:6947   */\n      dup2\n        /* \"#utility.yul\":6936:6948   */\n      mload\n        /* \"#utility.yul\":6926:6948   */\n      swap1\n      pop\n        /* \"#utility.yul\":6856:6955   */\n      swap2\n      swap1\n      pop\n      jump\t// out\n        /* \"#utility.yul\":6961:7120   */\n    tag_281:\n        /* \"#utility.yul\":7035:7046   */\n      0x00\n        /* \"#utility.yul\":7069:7075   */\n      dup3\n        /* \"#utility.yul\":7064:7067   */\n      dup3\n        /* \"#utility.yul\":7057:7076   */\n      mstore\n        /* \"#utility.yul\":7109:7113   */\n      0x20\n        /* \"#utility.yul\":7104:7107   */\n      dup3\n        /* \"#utility.yul\":7100:7114   */\n      add\n        /* \"#utility.yul\":7085:7114   */\n      swap1\n      pop\n        /* \"#utility.yul\":6961:7120   */\n      swap3\n      swap2\n      pop\n      pop\n      jump\t// out\n        /* \"#utility.yul\":7126:7372   */\n    tag_282:\n        /* \"#utility.yul\":7207:7208   */\n      0x00\n        /* \"#utility.yul\":7217:7330   */\n    tag_425:\n        /* \"#utility.yul\":7231:7237   */\n      dup4\n        /* \"#utility.yul\":7228:7229   */\n      dup2\n        /* \"#utility.yul\":7225:7238   */\n      lt\n        /* \"#utility.yul\":7217:7330   */\n      iszero\n      tag_427\n      jumpi\n        /* \"#utility.yul\":7316:7317   */\n      dup1\n        /* \"#utility.yul\":7311:7314   */\n      dup3\n        /* \"#utility.yul\":7307:7318   */\n      add\n        /* \"#utility.yul\":7301:7319   */\n      mload\n        /* \"#utility.yul\":7297:7298   */\n      dup2\n        /* \"#utility.yul\":7292:7295   */\n      dup5\n        /* \"#utility.yul\":7288:7299   */\n      add\n        /* \"#utility.yul\":7281:7320   */\n      mstore\n        /* \"#utility.yul\":7253:7255   */\n      0x20\n        /* \"#utility.yul\":7250:7251   */\n      dup2\n        /* \"#utility.yul\":7246:7256   */\n      add\n        /* \"#utility.yul\":7241:7256   */\n      swap1\n      pop\n        /* \"#utility.yul\":7217:7330   */\n      jump(tag_425)\n    tag_427:\n        /* \"#utility.yul\":7364:7365   */\n      0x00\n        /* \"#utility.yul\":7355:7361   */\n      dup5\n        /* \"#utility.yul\":7350:7353   */\n      dup5\n        /* \"#utility.yul\":7346:7362   */\n      add\n        /* \"#utility.yul\":7339:7366   */\n      mstore\n        /* \"#utility.yul\":7188:7372   */\n      pop\n        /* \"#utility.yul\":7126:7372   */\n      pop\n      pop\n      pop\n      jump\t// out\n        /* \"#utility.yul\":7378:7735   */\n    tag_283:\n        /* \"#utility.yul\":7456:7459   */\n      0x00\n        /* \"#utility.yul\":7484:7523   */\n      tag_429\n        /* \"#utility.yul\":7517:7522   */\n      dup3\n        /* \"#utility.yul\":7484:7523   */\n      tag_280\n      jump\t// in\n    tag_429:\n        /* \"#utility.yul\":7539:7600   */\n      tag_430\n        /* \"#utility.yul\":7593:7599   */\n      dup2\n        /* \"#utility.yul\":7588:7591   */\n      dup6\n        /* \"#utility.yul\":7539:7600   */\n      tag_281\n      jump\t// in\n    tag_430:\n        /* \"#utility.yul\":7532:7600   */\n      swap4\n      pop\n        /* \"#utility.yul\":7609:7674   */\n      tag_431\n        /* \"#utility.yul\":7667:7673   */\n      dup2\n        /* \"#utility.yul\":7662:7665   */\n      dup6\n        /* \"#utility.yul\":7655:7659   */\n      0x20\n        /* \"#utility.yul\":7648:7653   */\n      dup7\n        /* \"#utility.yul\":7644:7660   */\n      add\n        /* \"#utility.yul\":7609:7674   */\n      tag_282\n      jump\t// in\n    tag_431:\n        /* \"#utility.yul\":7699:7728   */\n      tag_432\n        /* \"#utility.yul\":7721:7727   */\n      dup2\n        /* \"#utility.yul\":7699:7728   */\n      tag_268\n      jump\t// in\n    tag_432:\n        /* \"#utility.yul\":7694:7697   */\n      dup5\n        /* \"#utility.yul\":7690:7729   */\n      add\n        /* \"#utility.yul\":7683:7729   */\n      swap2\n      pop\n        /* \"#utility.yul\":7460:7735   */\n      pop\n        /* \"#utility.yul\":7378:7735   */\n      swap3\n      swap2\n      pop\n      pop\n      jump\t// out\n        /* \"#utility.yul\":7741:7849   */\n    tag_284:\n        /* \"#utility.yul\":7818:7842   */\n      tag_434\n        /* \"#utility.yul\":7836:7841   */\n      dup2\n        /* \"#utility.yul\":7818:7842   */\n      tag_261\n      jump\t// in\n    tag_434:\n        /* \"#utility.yul\":7813:7816   */\n      dup3\n        /* \"#utility.yul\":7806:7843   */\n      mstore\n        /* \"#utility.yul\":7741:7849   */\n      pop\n      pop\n      jump\t// out\n        /* \"#utility.yul\":7855:7963   */\n    tag_285:\n        /* \"#utility.yul\":7932:7956   */\n      tag_436\n        /* \"#utility.yul\":7950:7955   */\n      dup2\n        /* \"#utility.yul\":7932:7956   */\n      tag_258\n      jump\t// in\n    tag_436:\n        /* \"#utility.yul\":7927:7930   */\n      dup3\n        /* \"#utility.yul\":7920:7957   */\n      mstore\n        /* \"#utility.yul\":7855:7963   */\n      pop\n      pop\n      jump\t// out\n        /* \"#utility.yul\":7969:8149   */\n    tag_122:\n        /* \"#utility.yul\":8017:8094   */\n      0x4e487b7100000000000000000000000000000000000000000000000000000000\n        /* \"#utility.yul\":8014:8015   */\n      0x00\n        /* \"#utility.yul\":8007:8095   */\n      mstore\n        /* \"#utility.yul\":8114:8118   */\n      0x21\n        /* \"#utility.yul\":8111:8112   */\n      0x04\n        /* \"#utility.yul\":8104:8119   */\n      mstore\n        /* \"#utility.yul\":8138:8142   */\n      0x24\n        /* \"#utility.yul\":8135:8136   */\n      0x00\n        /* \"#utility.yul\":8128:8143   */\n      revert\n        /* \"#utility.yul\":8155:8270   */\n    tag_286:\n        /* \"#utility.yul\":8238:8239   */\n      0x08\n        /* \"#utility.yul\":8231:8236   */\n      dup2\n        /* \"#utility.yul\":8228:8240   */\n      lt\n        /* \"#utility.yul\":8218:8264   */\n      tag_439\n      jumpi\n        /* \"#utility.yul\":8244:8262   */\n      tag_440\n      tag_122\n      jump\t// in\n    tag_440:\n        /* \"#utility.yul\":8218:8264   */\n    tag_439:\n        /* \"#utility.yul\":8155:8270   */\n      pop\n      jump\t// out\n        /* \"#utility.yul\":8276:8407   */\n    tag_287:\n        /* \"#utility.yul\":8323:8330   */\n      0x00\n        /* \"#utility.yul\":8352:8357   */\n      dup2\n        /* \"#utility.yul\":8341:8357   */\n      swap1\n      pop\n        /* \"#utility.yul\":8358:8401   */\n      tag_442\n        /* \"#utility.yul\":8395:8400   */\n      dup3\n        /* \"#utility.yul\":8358:8401   */\n      tag_286\n      jump\t// in\n    tag_442:\n        /* \"#utility.yul\":8276:8407   */\n      swap2\n      swap1\n      pop\n      jump\t// out\n        /* \"#utility.yul\":8413:8544   */\n    tag_288:\n        /* \"#utility.yul\":8471:8480   */\n      0x00\n        /* \"#utility.yul\":8504:8538   */\n      tag_444\n        /* \"#utility.yul\":8532:8537   */\n      dup3\n        /* \"#utility.yul\":8504:8538   */\n      tag_287\n      jump\t// in\n    tag_444:\n        /* \"#utility.yul\":8491:8538   */\n      swap1\n      pop\n        /* \"#utility.yul\":8413:8544   */\n      swap2\n      swap1\n      pop\n      jump\t// out\n        /* \"#utility.yul\":8550:8687   */\n    tag_289:\n        /* \"#utility.yul\":8635:8680   */\n      tag_446\n        /* \"#utility.yul\":8674:8679   */\n      dup2\n        /* \"#utility.yul\":8635:8680   */\n      tag_288\n      jump\t// in\n    tag_446:\n        /* \"#utility.yul\":8630:8633   */\n      dup3\n        /* \"#utility.yul\":8623:8681   */\n      mstore\n        /* \"#utility.yul\":8550:8687   */\n      pop\n      pop\n      jump\t// out\n        /* \"#utility.yul\":8693:8792   */\n    tag_290:\n        /* \"#utility.yul\":8764:8785   */\n      tag_448\n        /* \"#utility.yul\":8779:8784   */\n      dup2\n        /* \"#utility.yul\":8764:8785   */\n      tag_264\n      jump\t// in\n    tag_448:\n        /* \"#utility.yul\":8759:8762   */\n      dup3\n        /* \"#utility.yul\":8752:8786   */\n      mstore\n        /* \"#utility.yul\":8693:8792   */\n      pop\n      pop\n      jump\t// out\n        /* \"#utility.yul\":8876:11341   */\n    tag_291:\n        /* \"#utility.yul\":9005:9008   */\n      0x00\n        /* \"#utility.yul\":9041:9047   */\n      0x0160\n        /* \"#utility.yul\":9036:9039   */\n      dup4\n        /* \"#utility.yul\":9032:9048   */\n      add\n        /* \"#utility.yul\":9128:9132   */\n      0x00\n        /* \"#utility.yul\":9121:9126   */\n      dup4\n        /* \"#utility.yul\":9117:9133   */\n      add\n        /* \"#utility.yul\":9111:9134   */\n      mload\n        /* \"#utility.yul\":9147:9210   */\n      tag_450\n        /* \"#utility.yul\":9204:9208   */\n      0x00\n        /* \"#utility.yul\":9199:9202   */\n      dup7\n        /* \"#utility.yul\":9195:9209   */\n      add\n        /* \"#utility.yul\":9181:9193   */\n      dup3\n        /* \"#utility.yul\":9147:9210   */\n      tag_279\n      jump\t// in\n    tag_450:\n        /* \"#utility.yul\":9058:9220   */\n      pop\n        /* \"#utility.yul\":9305:9309   */\n      0x20\n        /* \"#utility.yul\":9298:9303   */\n      dup4\n        /* \"#utility.yul\":9294:9310   */\n      add\n        /* \"#utility.yul\":9288:9311   */\n      mload\n        /* \"#utility.yul\":9358:9361   */\n      dup5\n        /* \"#utility.yul\":9352:9356   */\n      dup3\n        /* \"#utility.yul\":9348:9362   */\n      sub\n        /* \"#utility.yul\":9341:9345   */\n      0x20\n        /* \"#utility.yul\":9336:9339   */\n      dup7\n        /* \"#utility.yul\":9332:9346   */\n      add\n        /* \"#utility.yul\":9325:9363   */\n      mstore\n        /* \"#utility.yul\":9384:9457   */\n      tag_451\n        /* \"#utility.yul\":9452:9456   */\n      dup3\n        /* \"#utility.yul\":9438:9450   */\n      dup3\n        /* \"#utility.yul\":9384:9457   */\n      tag_283\n      jump\t// in\n    tag_451:\n        /* \"#utility.yul\":9376:9457   */\n      swap2\n      pop\n        /* \"#utility.yul\":9230:9468   */\n      pop\n        /* \"#utility.yul\":9554:9558   */\n      0x40\n        /* \"#utility.yul\":9547:9552   */\n      dup4\n        /* \"#utility.yul\":9543:9559   */\n      add\n        /* \"#utility.yul\":9537:9560   */\n      mload\n        /* \"#utility.yul\":9573:9636   */\n      tag_452\n        /* \"#utility.yul\":9630:9634   */\n      0x40\n        /* \"#utility.yul\":9625:9628   */\n      dup7\n        /* \"#utility.yul\":9621:9635   */\n      add\n        /* \"#utility.yul\":9607:9619   */\n      dup3\n        /* \"#utility.yul\":9573:9636   */\n      tag_284\n      jump\t// in\n    tag_452:\n        /* \"#utility.yul\":9478:9646   */\n      pop\n        /* \"#utility.yul\":9728:9732   */\n      0x60\n        /* \"#utility.yul\":9721:9726   */\n      dup4\n        /* \"#utility.yul\":9717:9733   */\n      add\n        /* \"#utility.yul\":9711:9734   */\n      mload\n        /* \"#utility.yul\":9781:9784   */\n      dup5\n        /* \"#utility.yul\":9775:9779   */\n      dup3\n        /* \"#utility.yul\":9771:9785   */\n      sub\n        /* \"#utility.yul\":9764:9768   */\n      0x60\n        /* \"#utility.yul\":9759:9762   */\n      dup7\n        /* \"#utility.yul\":9755:9769   */\n      add\n        /* \"#utility.yul\":9748:9786   */\n      mstore\n        /* \"#utility.yul\":9807:9880   */\n      tag_453\n        /* \"#utility.yul\":9875:9879   */\n      dup3\n        /* \"#utility.yul\":9861:9873   */\n      dup3\n        /* \"#utility.yul\":9807:9880   */\n      tag_283\n      jump\t// in\n    tag_453:\n        /* \"#utility.yul\":9799:9880   */\n      swap2\n      pop\n        /* \"#utility.yul\":9656:9891   */\n      pop\n        /* \"#utility.yul\":9992:9996   */\n      0x80\n        /* \"#utility.yul\":9985:9990   */\n      dup4\n        /* \"#utility.yul\":9981:9997   */\n      add\n        /* \"#utility.yul\":9975:9998   */\n      mload\n        /* \"#utility.yul\":10045:10048   */\n      dup5\n        /* \"#utility.yul\":10039:10043   */\n      dup3\n        /* \"#utility.yul\":10035:10049   */\n      sub\n        /* \"#utility.yul\":10028:10032   */\n      0x80\n        /* \"#utility.yul\":10023:10026   */\n      dup7\n        /* \"#utility.yul\":10019:10033   */\n      add\n        /* \"#utility.yul\":10012:10050   */\n      mstore\n        /* \"#utility.yul\":10071:10144   */\n      tag_454\n        /* \"#utility.yul\":10139:10143   */\n      dup3\n        /* \"#utility.yul\":10125:10137   */\n      dup3\n        /* \"#utility.yul\":10071:10144   */\n      tag_283\n      jump\t// in\n    tag_454:\n        /* \"#utility.yul\":10063:10144   */\n      swap2\n      pop\n        /* \"#utility.yul\":9901:10155   */\n      pop\n        /* \"#utility.yul\":10245:10249   */\n      0xa0\n        /* \"#utility.yul\":10238:10243   */\n      dup4\n        /* \"#utility.yul\":10234:10250   */\n      add\n        /* \"#utility.yul\":10228:10251   */\n      mload\n        /* \"#utility.yul\":10264:10327   */\n      tag_455\n        /* \"#utility.yul\":10321:10325   */\n      0xa0\n        /* \"#utility.yul\":10316:10319   */\n      dup7\n        /* \"#utility.yul\":10312:10326   */\n      add\n        /* \"#utility.yul\":10298:10310   */\n      dup3\n        /* \"#utility.yul\":10264:10327   */\n      tag_284\n      jump\t// in\n    tag_455:\n        /* \"#utility.yul\":10165:10337   */\n      pop\n        /* \"#utility.yul\":10433:10437   */\n      0xc0\n        /* \"#utility.yul\":10426:10431   */\n      dup4\n        /* \"#utility.yul\":10422:10438   */\n      add\n        /* \"#utility.yul\":10416:10439   */\n      mload\n        /* \"#utility.yul\":10486:10489   */\n      dup5\n        /* \"#utility.yul\":10480:10484   */\n      dup3\n        /* \"#utility.yul\":10476:10490   */\n      sub\n        /* \"#utility.yul\":10469:10473   */\n      0xc0\n        /* \"#utility.yul\":10464:10467   */\n      dup7\n        /* \"#utility.yul\":10460:10474   */\n      add\n        /* \"#utility.yul\":10453:10491   */\n      mstore\n        /* \"#utility.yul\":10512:10585   */\n      tag_456\n        /* \"#utility.yul\":10580:10584   */\n      dup3\n        /* \"#utility.yul\":10566:10578   */\n      dup3\n        /* \"#utility.yul\":10512:10585   */\n      tag_283\n      jump\t// in\n    tag_456:\n        /* \"#utility.yul\":10504:10585   */\n      swap2\n      pop\n        /* \"#utility.yul\":10347:10596   */\n      pop\n        /* \"#utility.yul\":10679:10683   */\n      0xe0\n        /* \"#utility.yul\":10672:10677   */\n      dup4\n        /* \"#utility.yul\":10668:10684   */\n      add\n        /* \"#utility.yul\":10662:10685   */\n      mload\n        /* \"#utility.yul\":10698:10761   */\n      tag_457\n        /* \"#utility.yul\":10755:10759   */\n      0xe0\n        /* \"#utility.yul\":10750:10753   */\n      dup7\n        /* \"#utility.yul\":10746:10760   */\n      add\n        /* \"#utility.yul\":10732:10744   */\n      dup3\n        /* \"#utility.yul\":10698:10761   */\n      tag_285\n      jump\t// in\n    tag_457:\n        /* \"#utility.yul\":10606:10771   */\n      pop\n        /* \"#utility.yul\":10854:10860   */\n      0x0100\n        /* \"#utility.yul\":10847:10852   */\n      dup4\n        /* \"#utility.yul\":10843:10861   */\n      add\n        /* \"#utility.yul\":10837:10862   */\n      mload\n        /* \"#utility.yul\":10875:10940   */\n      tag_458\n        /* \"#utility.yul\":10932:10938   */\n      0x0100\n        /* \"#utility.yul\":10927:10930   */\n      dup7\n        /* \"#utility.yul\":10923:10939   */\n      add\n        /* \"#utility.yul\":10909:10921   */\n      dup3\n        /* \"#utility.yul\":10875:10940   */\n      tag_285\n      jump\t// in\n    tag_458:\n        /* \"#utility.yul\":10781:10950   */\n      pop\n        /* \"#utility.yul\":11034:11040   */\n      0x0120\n        /* \"#utility.yul\":11027:11032   */\n      dup4\n        /* \"#utility.yul\":11023:11041   */\n      add\n        /* \"#utility.yul\":11017:11042   */\n      mload\n        /* \"#utility.yul\":11055:11128   */\n      tag_459\n        /* \"#utility.yul\":11120:11126   */\n      0x0120\n        /* \"#utility.yul\":11115:11118   */\n      dup7\n        /* \"#utility.yul\":11111:11127   */\n      add\n        /* \"#utility.yul\":11097:11109   */\n      dup3\n        /* \"#utility.yul\":11055:11128   */\n      tag_289\n      jump\t// in\n    tag_459:\n        /* \"#utility.yul\":10960:11138   */\n      pop\n        /* \"#utility.yul\":11224:11230   */\n      0x0140\n        /* \"#utility.yul\":11217:11222   */\n      dup4\n        /* \"#utility.yul\":11213:11231   */\n      add\n        /* \"#utility.yul\":11207:11232   */\n      mload\n        /* \"#utility.yul\":11245:11304   */\n      tag_460\n        /* \"#utility.yul\":11296:11302   */\n      0x0140\n        /* \"#utility.yul\":11291:11294   */\n      dup7\n        /* \"#utility.yul\":11287:11303   */\n      add\n        /* \"#utility.yul\":11273:11285   */\n      dup3\n        /* \"#utility.yul\":11245:11304   */\n      tag_290\n      jump\t// in\n    tag_460:\n        /* \"#utility.yul\":11148:11314   */\n      pop\n        /* \"#utility.yul\":11331:11335   */\n      dup1\n        /* \"#utility.yul\":11324:11335   */\n      swap2\n      pop\n        /* \"#utility.yul\":9010:11341   */\n      pop\n        /* \"#utility.yul\":8876:11341   */\n      swap3\n      swap2\n      pop\n      pop\n      jump\t// out\n        /* \"#utility.yul\":11347:11643   */\n    tag_292:\n        /* \"#utility.yul\":11486:11496   */\n      0x00\n        /* \"#utility.yul\":11521:11637   */\n      tag_462\n        /* \"#utility.yul\":11633:11636   */\n      dup4\n        /* \"#utility.yul\":11625:11631   */\n      dup4\n        /* \"#utility.yul\":11521:11637   */\n      tag_291\n      jump\t// in\n    tag_462:\n        /* \"#utility.yul\":11507:11637   */\n      swap1\n      pop\n        /* \"#utility.yul\":11347:11643   */\n      swap3\n      swap2\n      pop\n      pop\n      jump\t// out\n        /* \"#utility.yul\":11649:11797   */\n    tag_293:\n        /* \"#utility.yul\":11754:11758   */\n      0x00\n        /* \"#utility.yul\":11786:11790   */\n      0x20\n        /* \"#utility.yul\":11781:11784   */\n      dup3\n        /* \"#utility.yul\":11777:11791   */\n      add\n        /* \"#utility.yul\":11769:11791   */\n      swap1\n      pop\n        /* \"#utility.yul\":11649:11797   */\n      swap2\n      swap1\n      pop\n      jump\t// out\n        /* \"#utility.yul\":11885:13076   */\n    tag_294:\n        /* \"#utility.yul\":12074:12077   */\n      0x00\n        /* \"#utility.yul\":12103:12192   */\n      tag_465\n        /* \"#utility.yul\":12186:12191   */\n      dup3\n        /* \"#utility.yul\":12103:12192   */\n      tag_275\n      jump\t// in\n    tag_465:\n        /* \"#utility.yul\":12208:12329   */\n      tag_466\n        /* \"#utility.yul\":12322:12328   */\n      dup2\n        /* \"#utility.yul\":12317:12320   */\n      dup6\n        /* \"#utility.yul\":12208:12329   */\n      tag_276\n      jump\t// in\n    tag_466:\n        /* \"#utility.yul\":12201:12329   */\n      swap4\n      pop\n        /* \"#utility.yul\":12355:12358   */\n      dup4\n        /* \"#utility.yul\":12400:12404   */\n      0x20\n        /* \"#utility.yul\":12392:12398   */\n      dup3\n        /* \"#utility.yul\":12388:12405   */\n      mul\n        /* \"#utility.yul\":12383:12386   */\n      dup6\n        /* \"#utility.yul\":12379:12406   */\n      add\n        /* \"#utility.yul\":12430:12521   */\n      tag_467\n        /* \"#utility.yul\":12515:12520   */\n      dup6\n        /* \"#utility.yul\":12430:12521   */\n      tag_277\n      jump\t// in\n    tag_467:\n        /* \"#utility.yul\":12544:12551   */\n      dup1\n        /* \"#utility.yul\":12575:12576   */\n      0x00\n        /* \"#utility.yul\":12560:13031   */\n    tag_468:\n        /* \"#utility.yul\":12585:12591   */\n      dup6\n        /* \"#utility.yul\":12582:12583   */\n      dup2\n        /* \"#utility.yul\":12579:12592   */\n      lt\n        /* \"#utility.yul\":12560:13031   */\n      iszero\n      tag_470\n      jumpi\n        /* \"#utility.yul\":12656:12665   */\n      dup5\n        /* \"#utility.yul\":12650:12654   */\n      dup5\n        /* \"#utility.yul\":12646:12666   */\n      sub\n        /* \"#utility.yul\":12641:12644   */\n      dup10\n        /* \"#utility.yul\":12634:12667   */\n      mstore\n        /* \"#utility.yul\":12707:12713   */\n      dup2\n        /* \"#utility.yul\":12701:12714   */\n      mload\n        /* \"#utility.yul\":12735:12869   */\n      tag_471\n        /* \"#utility.yul\":12864:12868   */\n      dup6\n        /* \"#utility.yul\":12849:12862   */\n      dup3\n        /* \"#utility.yul\":12735:12869   */\n      tag_292\n      jump\t// in\n    tag_471:\n        /* \"#utility.yul\":12727:12869   */\n      swap5\n      pop\n        /* \"#utility.yul\":12892:12987   */\n      tag_472\n        /* \"#utility.yul\":12980:12986   */\n      dup4\n        /* \"#utility.yul\":12892:12987   */\n      tag_293\n      jump\t// in\n    tag_472:\n        /* \"#utility.yul\":12882:12987   */\n      swap3\n      pop\n        /* \"#utility.yul\":13016:13020   */\n      0x20\n        /* \"#utility.yul\":13011:13014   */\n      dup11\n        /* \"#utility.yul\":13007:13021   */\n      add\n        /* \"#utility.yul\":13000:13021   */\n      swap10\n      pop\n        /* \"#utility.yul\":12620:13031   */\n      pop\n        /* \"#utility.yul\":12607:12608   */\n      0x01\n        /* \"#utility.yul\":12604:12605   */\n      dup2\n        /* \"#utility.yul\":12600:12609   */\n      add\n        /* \"#utility.yul\":12595:12609   */\n      swap1\n      pop\n        /* \"#utility.yul\":12560:13031   */\n      jump(tag_468)\n    tag_470:\n        /* \"#utility.yul\":12564:12578   */\n      pop\n        /* \"#utility.yul\":13047:13051   */\n      dup3\n        /* \"#utility.yul\":13040:13051   */\n      swap8\n      pop\n        /* \"#utility.yul\":13067:13070   */\n      dup8\n        /* \"#utility.yul\":13060:13070   */\n      swap6\n      pop\n        /* \"#utility.yul\":12079:13076   */\n      pop\n      pop\n      pop\n      pop\n      pop\n        /* \"#utility.yul\":11885:13076   */\n      swap3\n      swap2\n      pop\n      pop\n      jump\t// out\n        /* \"#utility.yul\":13082:13595   */\n    tag_39:\n        /* \"#utility.yul\":13295:13299   */\n      0x00\n        /* \"#utility.yul\":13333:13335   */\n      0x20\n        /* \"#utility.yul\":13322:13331   */\n      dup3\n        /* \"#utility.yul\":13318:13336   */\n      add\n        /* \"#utility.yul\":13310:13336   */\n      swap1\n      pop\n        /* \"#utility.yul\":13382:13391   */\n      dup2\n        /* \"#utility.yul\":13376:13380   */\n      dup2\n        /* \"#utility.yul\":13372:13392   */\n      sub\n        /* \"#utility.yul\":13368:13369   */\n      0x00\n        /* \"#utility.yul\":13357:13366   */\n      dup4\n        /* \"#utility.yul\":13353:13370   */\n      add\n        /* \"#utility.yul\":13346:13393   */\n      mstore\n        /* \"#utility.yul\":13410:13588   */\n      tag_474\n        /* \"#utility.yul\":13583:13587   */\n      dup2\n        /* \"#utility.yul\":13574:13580   */\n      dup5\n        /* \"#utility.yul\":13410:13588   */\n      tag_294\n      jump\t// in\n    tag_474:\n        /* \"#utility.yul\":13402:13588   */\n      swap1\n      pop\n        /* \"#utility.yul\":13082:13595   */\n      swap3\n      swap2\n      pop\n      pop\n      jump\t// out\n        /* \"#utility.yul\":13601:15232   */\n    tag_43:\n        /* \"#utility.yul\":13736:13742   */\n      0x00\n        /* \"#utility.yul\":13744:13750   */\n      dup1\n        /* \"#utility.yul\":13752:13758   */\n      0x00\n        /* \"#utility.yul\":13760:13766   */\n      dup1\n        /* \"#utility.yul\":13768:13774   */\n      0x00\n        /* \"#utility.yul\":13817:13820   */\n      0xa0\n        /* \"#utility.yul\":13805:13814   */\n      dup7\n        /* \"#utility.yul\":13796:13803   */\n      dup9\n        /* \"#utility.yul\":13792:13815   */\n      sub\n        /* \"#utility.yul\":13788:13821   */\n      slt\n        /* \"#utility.yul\":13785:13905   */\n      iszero\n      tag_476\n      jumpi\n        /* \"#utility.yul\":13824:13903   */\n      tag_477\n      tag_255\n      jump\t// in\n    tag_477:\n        /* \"#utility.yul\":13785:13905   */\n    tag_476:\n        /* \"#utility.yul\":13972:13973   */\n      0x00\n        /* \"#utility.yul\":13961:13970   */\n      dup7\n        /* \"#utility.yul\":13957:13974   */\n      add\n        /* \"#utility.yul\":13944:13975   */\n      calldataload\n        /* \"#utility.yul\":14002:14020   */\n      0xffffffffffffffff\n        /* \"#utility.yul\":13994:14000   */\n      dup2\n        /* \"#utility.yul\":13991:14021   */\n      gt\n        /* \"#utility.yul\":13988:14105   */\n      iszero\n      tag_478\n      jumpi\n        /* \"#utility.yul\":14024:14103   */\n      tag_479\n      tag_256\n      jump\t// in\n    tag_479:\n        /* \"#utility.yul\":13988:14105   */\n    tag_478:\n        /* \"#utility.yul\":14129:14192   */\n      tag_480\n        /* \"#utility.yul\":14184:14191   */\n      dup9\n        /* \"#utility.yul\":14175:14181   */\n      dup3\n        /* \"#utility.yul\":14164:14173   */\n      dup10\n        /* \"#utility.yul\":14160:14182   */\n      add\n        /* \"#utility.yul\":14129:14192   */\n      tag_274\n      jump\t// in\n    tag_480:\n        /* \"#utility.yul\":14119:14192   */\n      swap6\n      pop\n        /* \"#utility.yul\":13915:14202   */\n      pop\n        /* \"#utility.yul\":14241:14243   */\n      0x20\n        /* \"#utility.yul\":14267:14320   */\n      tag_481\n        /* \"#utility.yul\":14312:14319   */\n      dup9\n        /* \"#utility.yul\":14303:14309   */\n      dup3\n        /* \"#utility.yul\":14292:14301   */\n      dup10\n        /* \"#utility.yul\":14288:14310   */\n      add\n        /* \"#utility.yul\":14267:14320   */\n      tag_263\n      jump\t// in\n    tag_481:\n        /* \"#utility.yul\":14257:14320   */\n      swap5\n      pop\n        /* \"#utility.yul\":14212:14330   */\n      pop\n        /* \"#utility.yul\":14397:14399   */\n      0x40\n        /* \"#utility.yul\":14386:14395   */\n      dup7\n        /* \"#utility.yul\":14382:14400   */\n      add\n        /* \"#utility.yul\":14369:14401   */\n      calldataload\n        /* \"#utility.yul\":14428:14446   */\n      0xffffffffffffffff\n        /* \"#utility.yul\":14420:14426   */\n      dup2\n        /* \"#utility.yul\":14417:14447   */\n      gt\n        /* \"#utility.yul\":14414:14531   */\n      iszero\n      tag_482\n      jumpi\n        /* \"#utility.yul\":14450:14529   */\n      tag_483\n      tag_256\n      jump\t// in\n    tag_483:\n        /* \"#utility.yul\":14414:14531   */\n    tag_482:\n        /* \"#utility.yul\":14555:14618   */\n      tag_484\n        /* \"#utility.yul\":14610:14617   */\n      dup9\n        /* \"#utility.yul\":14601:14607   */\n      dup3\n        /* \"#utility.yul\":14590:14599   */\n      dup10\n        /* \"#utility.yul\":14586:14608   */\n      add\n        /* \"#utility.yul\":14555:14618   */\n      tag_274\n      jump\t// in\n    tag_484:\n        /* \"#utility.yul\":14545:14618   */\n      swap4\n      pop\n        /* \"#utility.yul\":14340:14628   */\n      pop\n        /* \"#utility.yul\":14695:14697   */\n      0x60\n        /* \"#utility.yul\":14684:14693   */\n      dup7\n        /* \"#utility.yul\":14680:14698   */\n      add\n        /* \"#utility.yul\":14667:14699   */\n      calldataload\n        /* \"#utility.yul\":14726:14744   */\n      0xffffffffffffffff\n        /* \"#utility.yul\":14718:14724   */\n      dup2\n        /* \"#utility.yul\":14715:14745   */\n      gt\n        /* \"#utility.yul\":14712:14829   */\n      iszero\n      tag_485\n      jumpi\n        /* \"#utility.yul\":14748:14827   */\n      tag_486\n      tag_256\n      jump\t// in\n    tag_486:\n        /* \"#utility.yul\":14712:14829   */\n    tag_485:\n        /* \"#utility.yul\":14853:14916   */\n      tag_487\n        /* \"#utility.yul\":14908:14915   */\n      dup9\n        /* \"#utility.yul\":14899:14905   */\n      dup3\n        /* \"#utility.yul\":14888:14897   */\n      dup10\n        /* \"#utility.yul\":14884:14906   */\n      add\n        /* \"#utility.yul\":14853:14916   */\n      tag_274\n      jump\t// in\n    tag_487:\n        /* \"#utility.yul\":14843:14916   */\n      swap3\n      pop\n        /* \"#utility.yul\":14638:14926   */\n      pop\n        /* \"#utility.yul\":14993:14996   */\n      0x80\n        /* \"#utility.yul\":14982:14991   */\n      dup7\n        /* \"#utility.yul\":14978:14997   */\n      add\n        /* \"#utility.yul\":14965:14998   */\n      calldataload\n        /* \"#utility.yul\":15025:15043   */\n      0xffffffffffffffff\n        /* \"#utility.yul\":15017:15023   */\n      dup2\n        /* \"#utility.yul\":15014:15044   */\n      gt\n        /* \"#utility.yul\":15011:15128   */\n      iszero\n      tag_488\n      jumpi\n        /* \"#utility.yul\":15047:15126   */\n      tag_489\n      tag_256\n      jump\t// in\n    tag_489:\n        /* \"#utility.yul\":15011:15128   */\n    tag_488:\n        /* \"#utility.yul\":15152:15215   */\n      tag_490\n        /* \"#utility.yul\":15207:15214   */\n      dup9\n        /* \"#utility.yul\":15198:15204   */\n      dup3\n        /* \"#utility.yul\":15187:15196   */\n      dup10\n        /* \"#utility.yul\":15183:15205   */\n      add\n        /* \"#utility.yul\":15152:15215   */\n      tag_274\n      jump\t// in\n    tag_490:\n        /* \"#utility.yul\":15142:15215   */\n      swap2\n      pop\n        /* \"#utility.yul\":14936:15225   */\n      pop\n        /* \"#utility.yul\":13601:15232   */\n      swap3\n      swap6\n      pop\n      swap3\n      swap6\n      swap1\n      swap4\n      pop\n      jump\t// out\n        /* \"#utility.yul\":15238:15567   */\n    tag_48:\n        /* \"#utility.yul\":15297:15303   */\n      0x00\n        /* \"#utility.yul\":15346:15348   */\n      0x20\n        /* \"#utility.yul\":15334:15343   */\n      dup3\n        /* \"#utility.yul\":15325:15332   */\n      dup5\n        /* \"#utility.yul\":15321:15344   */\n      sub\n        /* \"#utility.yul\":15317:15349   */\n      slt\n        /* \"#utility.yul\":15314:15433   */\n      iszero\n      tag_492\n      jumpi\n        /* \"#utility.yul\":15352:15431   */\n      tag_493\n      tag_255\n      jump\t// in\n    tag_493:\n        /* \"#utility.yul\":15314:15433   */\n    tag_492:\n        /* \"#utility.yul\":15472:15473   */\n      0x00\n        /* \"#utility.yul\":15497:15550   */\n      tag_494\n        /* \"#utility.yul\":15542:15549   */\n      dup5\n        /* \"#utility.yul\":15533:15539   */\n      dup3\n        /* \"#utility.yul\":15522:15531   */\n      dup6\n        /* \"#utility.yul\":15518:15540   */\n      add\n        /* \"#utility.yul\":15497:15550   */\n      tag_263\n      jump\t// in\n    tag_494:\n        /* \"#utility.yul\":15487:15550   */\n      swap2\n      pop\n        /* \"#utility.yul\":15443:15560   */\n      pop\n        /* \"#utility.yul\":15238:15567   */\n      swap3\n      swap2\n      pop\n      pop\n      jump\t// out\n        /* \"#utility.yul\":15573:15691   */\n    tag_295:\n        /* \"#utility.yul\":15659:15660   */\n      0x02\n        /* \"#utility.yul\":15652:15657   */\n      dup2\n        /* \"#utility.yul\":15649:15661   */\n      lt\n        /* \"#utility.yul\":15639:15685   */\n      tag_496\n      jumpi\n        /* \"#utility.yul\":15665:15683   */\n      tag_497\n      tag_122\n      jump\t// in\n    tag_497:\n        /* \"#utility.yul\":15639:15685   */\n    tag_496:\n        /* \"#utility.yul\":15573:15691   */\n      pop\n      jump\t// out\n        /* \"#utility.yul\":15697:15834   */\n    tag_296:\n        /* \"#utility.yul\":15747:15754   */\n      0x00\n        /* \"#utility.yul\":15776:15781   */\n      dup2\n        /* \"#utility.yul\":15765:15781   */\n      swap1\n      pop\n        /* \"#utility.yul\":15782:15828   */\n      tag_499\n        /* \"#utility.yul\":15822:15827   */\n      dup3\n        /* \"#utility.yul\":15782:15828   */\n      tag_295\n      jump\t// in\n    tag_499:\n        /* \"#utility.yul\":15697:15834   */\n      swap2\n      swap1\n      pop\n      jump\t// out\n        /* \"#utility.yul\":15840:15977   */\n    tag_297:\n        /* \"#utility.yul\":15901:15910   */\n      0x00\n        /* \"#utility.yul\":15934:15971   */\n      tag_501\n        /* \"#utility.yul\":15965:15970   */\n      dup3\n        /* \"#utility.yul\":15934:15971   */\n      tag_296\n      jump\t// in\n    tag_501:\n        /* \"#utility.yul\":15921:15971   */\n      swap1\n      pop\n        /* \"#utility.yul\":15840:15977   */\n      swap2\n      swap1\n      pop\n      jump\t// out\n        /* \"#utility.yul\":15983:16136   */\n    tag_298:\n        /* \"#utility.yul\":16081:16129   */\n      tag_503\n        /* \"#utility.yul\":16123:16128   */\n      dup2\n        /* \"#utility.yul\":16081:16129   */\n      tag_297\n      jump\t// in\n    tag_503:\n        /* \"#utility.yul\":16076:16079   */\n      dup3\n        /* \"#utility.yul\":16069:16130   */\n      mstore\n        /* \"#utility.yul\":15983:16136   */\n      pop\n      pop\n      jump\t// out\n        /* \"#utility.yul\":16142:16386   */\n    tag_51:\n        /* \"#utility.yul\":16246:16250   */\n      0x00\n        /* \"#utility.yul\":16284:16286   */\n      0x20\n        /* \"#utility.yul\":16273:16282   */\n      dup3\n        /* \"#utility.yul\":16269:16287   */\n      add\n        /* \"#utility.yul\":16261:16287   */\n      swap1\n      pop\n        /* \"#utility.yul\":16297:16379   */\n      tag_505\n        /* \"#utility.yul\":16376:16377   */\n      0x00\n        /* \"#utility.yul\":16365:16374   */\n      dup4\n        /* \"#utility.yul\":16361:16378   */\n      add\n        /* \"#utility.yul\":16352:16358   */\n      dup5\n        /* \"#utility.yul\":16297:16379   */\n      tag_298\n      jump\t// in\n    tag_505:\n        /* \"#utility.yul\":16142:16386   */\n      swap3\n      swap2\n      pop\n      pop\n      jump\t// out\n        /* \"#utility.yul\":16392:16510   */\n    tag_299:\n        /* \"#utility.yul\":16479:16503   */\n      tag_507\n        /* \"#utility.yul\":16497:16502   */\n      dup2\n        /* \"#utility.yul\":16479:16503   */\n      tag_261\n      jump\t// in\n    tag_507:\n        /* \"#utility.yul\":16474:16477   */\n      dup3\n        /* \"#utility.yul\":16467:16504   */\n      mstore\n        /* \"#utility.yul\":16392:16510   */\n      pop\n      pop\n      jump\t// out\n        /* \"#utility.yul\":16516:16738   */\n    tag_56:\n        /* \"#utility.yul\":16609:16613   */\n      0x00\n        /* \"#utility.yul\":16647:16649   */\n      0x20\n        /* \"#utility.yul\":16636:16645   */\n      dup3\n        /* \"#utility.yul\":16632:16650   */\n      add\n        /* \"#utility.yul\":16624:16650   */\n      swap1\n      pop\n        /* \"#utility.yul\":16660:16731   */\n      tag_509\n        /* \"#utility.yul\":16728:16729   */\n      0x00\n        /* \"#utility.yul\":16717:16726   */\n      dup4\n        /* \"#utility.yul\":16713:16730   */\n      add\n        /* \"#utility.yul\":16704:16710   */\n      dup5\n        /* \"#utility.yul\":16660:16731   */\n      tag_299\n      jump\t// in\n    tag_509:\n        /* \"#utility.yul\":16516:16738   */\n      swap3\n      swap2\n      pop\n      pop\n      jump\t// out\n        /* \"#utility.yul\":16744:16848   */\n    tag_300:\n        /* \"#utility.yul\":16789:16796   */\n      0x00\n        /* \"#utility.yul\":16818:16842   */\n      tag_511\n        /* \"#utility.yul\":16836:16841   */\n      dup3\n        /* \"#utility.yul\":16818:16842   */\n      tag_257\n      jump\t// in\n    tag_511:\n        /* \"#utility.yul\":16807:16842   */\n      swap1\n      pop\n        /* \"#utility.yul\":16744:16848   */\n      swap2\n      swap1\n      pop\n      jump\t// out\n        /* \"#utility.yul\":16854:16996   */\n    tag_301:\n        /* \"#utility.yul\":16957:16989   */\n      tag_513\n        /* \"#utility.yul\":16983:16988   */\n      dup2\n        /* \"#utility.yul\":16957:16989   */\n      tag_300\n      jump\t// in\n    tag_513:\n        /* \"#utility.yul\":16952:16955   */\n      dup3\n        /* \"#utility.yul\":16945:16990   */\n      mstore\n        /* \"#utility.yul\":16854:16996   */\n      pop\n      pop\n      jump\t// out\n        /* \"#utility.yul\":17002:17256   */\n    tag_69:\n        /* \"#utility.yul\":17111:17115   */\n      0x00\n        /* \"#utility.yul\":17149:17151   */\n      0x20\n        /* \"#utility.yul\":17138:17147   */\n      dup3\n        /* \"#utility.yul\":17134:17152   */\n      add\n        /* \"#utility.yul\":17126:17152   */\n      swap1\n      pop\n        /* \"#utility.yul\":17162:17249   */\n      tag_515\n        /* \"#utility.yul\":17246:17247   */\n      0x00\n        /* \"#utility.yul\":17235:17244   */\n      dup4\n        /* \"#utility.yul\":17231:17248   */\n      add\n        /* \"#utility.yul\":17222:17228   */\n      dup5\n        /* \"#utility.yul\":17162:17249   */\n      tag_301\n      jump\t// in\n    tag_515:\n        /* \"#utility.yul\":17002:17256   */\n      swap3\n      swap2\n      pop\n      pop\n      jump\t// out\n        /* \"#utility.yul\":17262:17384   */\n    tag_302:\n        /* \"#utility.yul\":17335:17359   */\n      tag_517\n        /* \"#utility.yul\":17353:17358   */\n      dup2\n        /* \"#utility.yul\":17335:17359   */\n      tag_278\n      jump\t// in\n    tag_517:\n        /* \"#utility.yul\":17328:17333   */\n      dup2\n        /* \"#utility.yul\":17325:17360   */\n      eq\n        /* \"#utility.yul\":17315:17378   */\n      tag_518\n      jumpi\n        /* \"#utility.yul\":17374:17375   */\n      0x00\n        /* \"#utility.yul\":17371:17372   */\n      dup1\n        /* \"#utility.yul\":17364:17376   */\n      revert\n        /* \"#utility.yul\":17315:17378   */\n    tag_518:\n        /* \"#utility.yul\":17262:17384   */\n      pop\n      jump\t// out\n        /* \"#utility.yul\":17390:17529   */\n    tag_303:\n        /* \"#utility.yul\":17436:17441   */\n      0x00\n        /* \"#utility.yul\":17474:17480   */\n      dup2\n        /* \"#utility.yul\":17461:17481   */\n      calldataload\n        /* \"#utility.yul\":17452:17481   */\n      swap1\n      pop\n        /* \"#utility.yul\":17490:17523   */\n      tag_520\n        /* \"#utility.yul\":17517:17522   */\n      dup2\n        /* \"#utility.yul\":17490:17523   */\n      tag_302\n      jump\t// in\n    tag_520:\n        /* \"#utility.yul\":17390:17529   */\n      swap3\n      swap2\n      pop\n      pop\n      jump\t// out\n        /* \"#utility.yul\":17535:17864   */\n    tag_77:\n        /* \"#utility.yul\":17594:17600   */\n      0x00\n        /* \"#utility.yul\":17643:17645   */\n      0x20\n        /* \"#utility.yul\":17631:17640   */\n      dup3\n        /* \"#utility.yul\":17622:17629   */\n      dup5\n        /* \"#utility.yul\":17618:17641   */\n      sub\n        /* \"#utility.yul\":17614:17646   */\n      slt\n        /* \"#utility.yul\":17611:17730   */\n      iszero\n      tag_522\n      jumpi\n        /* \"#utility.yul\":17649:17728   */\n      tag_523\n      tag_255\n      jump\t// in\n    tag_523:\n        /* \"#utility.yul\":17611:17730   */\n    tag_522:\n        /* \"#utility.yul\":17769:17770   */\n      0x00\n        /* \"#utility.yul\":17794:17847   */\n      tag_524\n        /* \"#utility.yul\":17839:17846   */\n      dup5\n        /* \"#utility.yul\":17830:17836   */\n      dup3\n        /* \"#utility.yul\":17819:17828   */\n      dup6\n        /* \"#utility.yul\":17815:17837   */\n      add\n        /* \"#utility.yul\":17794:17847   */\n      tag_303\n      jump\t// in\n    tag_524:\n        /* \"#utility.yul\":17784:17847   */\n      swap2\n      pop\n        /* \"#utility.yul\":17740:17857   */\n      pop\n        /* \"#utility.yul\":17535:17864   */\n      swap3\n      swap2\n      pop\n      pop\n      jump\t// out\n        /* \"#utility.yul\":17870:17988   */\n    tag_304:\n        /* \"#utility.yul\":17957:17981   */\n      tag_526\n        /* \"#utility.yul\":17975:17980   */\n      dup2\n        /* \"#utility.yul\":17957:17981   */\n      tag_258\n      jump\t// in\n    tag_526:\n        /* \"#utility.yul\":17952:17955   */\n      dup3\n        /* \"#utility.yul\":17945:17982   */\n      mstore\n        /* \"#utility.yul\":17870:17988   */\n      pop\n      pop\n      jump\t// out\n        /* \"#utility.yul\":17994:18216   */\n    tag_80:\n        /* \"#utility.yul\":18087:18091   */\n      0x00\n        /* \"#utility.yul\":18125:18127   */\n      0x20\n        /* \"#utility.yul\":18114:18123   */\n      dup3\n        /* \"#utility.yul\":18110:18128   */\n      add\n        /* \"#utility.yul\":18102:18128   */\n      swap1\n      pop\n        /* \"#utility.yul\":18138:18209   */\n      tag_528\n        /* \"#utility.yul\":18206:18207   */\n      0x00\n        /* \"#utility.yul\":18195:18204   */\n      dup4\n        /* \"#utility.yul\":18191:18208   */\n      add\n        /* \"#utility.yul\":18182:18188   */\n      dup5\n        /* \"#utility.yul\":18138:18209   */\n      tag_304\n      jump\t// in\n    tag_528:\n        /* \"#utility.yul\":17994:18216   */\n      swap3\n      swap2\n      pop\n      pop\n      jump\t// out\n        /* \"#utility.yul\":18222:20033   */\n    tag_104:\n        /* \"#utility.yul\":18367:18373   */\n      0x00\n        /* \"#utility.yul\":18375:18381   */\n      dup1\n        /* \"#utility.yul\":18383:18389   */\n      0x00\n        /* \"#utility.yul\":18391:18397   */\n      dup1\n        /* \"#utility.yul\":18399:18405   */\n      0x00\n        /* \"#utility.yul\":18448:18451   */\n      0xa0\n        /* \"#utility.yul\":18436:18445   */\n      dup7\n        /* \"#utility.yul\":18427:18434   */\n      dup9\n        /* \"#utility.yul\":18423:18446   */\n      sub\n        /* \"#utility.yul\":18419:18452   */\n      slt\n        /* \"#utility.yul\":18416:18536   */\n      iszero\n      tag_530\n      jumpi\n        /* \"#utility.yul\":18455:18534   */\n      tag_531\n      tag_255\n      jump\t// in\n    tag_531:\n        /* \"#utility.yul\":18416:18536   */\n    tag_530:\n        /* \"#utility.yul\":18603:18604   */\n      0x00\n        /* \"#utility.yul\":18592:18601   */\n      dup7\n        /* \"#utility.yul\":18588:18605   */\n      add\n        /* \"#utility.yul\":18575:18606   */\n      calldataload\n        /* \"#utility.yul\":18633:18651   */\n      0xffffffffffffffff\n        /* \"#utility.yul\":18625:18631   */\n      dup2\n        /* \"#utility.yul\":18622:18652   */\n      gt\n        /* \"#utility.yul\":18619:18736   */\n      iszero\n      tag_532\n      jumpi\n        /* \"#utility.yul\":18655:18734   */\n      tag_533\n      tag_256\n      jump\t// in\n    tag_533:\n        /* \"#utility.yul\":18619:18736   */\n    tag_532:\n        /* \"#utility.yul\":18760:18823   */\n      tag_534\n        /* \"#utility.yul\":18815:18822   */\n      dup9\n        /* \"#utility.yul\":18806:18812   */\n      dup3\n        /* \"#utility.yul\":18795:18804   */\n      dup10\n        /* \"#utility.yul\":18791:18813   */\n      add\n        /* \"#utility.yul\":18760:18823   */\n      tag_274\n      jump\t// in\n    tag_534:\n        /* \"#utility.yul\":18750:18823   */\n      swap6\n      pop\n        /* \"#utility.yul\":18546:18833   */\n      pop\n        /* \"#utility.yul\":18900:18902   */\n      0x20\n        /* \"#utility.yul\":18889:18898   */\n      dup7\n        /* \"#utility.yul\":18885:18903   */\n      add\n        /* \"#utility.yul\":18872:18904   */\n      calldataload\n        /* \"#utility.yul\":18931:18949   */\n      0xffffffffffffffff\n        /* \"#utility.yul\":18923:18929   */\n      dup2\n        /* \"#utility.yul\":18920:18950   */\n      gt\n        /* \"#utility.yul\":18917:19034   */\n      iszero\n      tag_535\n      jumpi\n        /* \"#utility.yul\":18953:19032   */\n      tag_536\n      tag_256\n      jump\t// in\n    tag_536:\n        /* \"#utility.yul\":18917:19034   */\n    tag_535:\n        /* \"#utility.yul\":19058:19121   */\n      tag_537\n        /* \"#utility.yul\":19113:19120   */\n      dup9\n        /* \"#utility.yul\":19104:19110   */\n      dup3\n        /* \"#utility.yul\":19093:19102   */\n      dup10\n        /* \"#utility.yul\":19089:19111   */\n      add\n        /* \"#utility.yul\":19058:19121   */\n      tag_274\n      jump\t// in\n    tag_537:\n        /* \"#utility.yul\":19048:19121   */\n      swap5\n      pop\n        /* \"#utility.yul\":18843:19131   */\n      pop\n        /* \"#utility.yul\":19198:19200   */\n      0x40\n        /* \"#utility.yul\":19187:19196   */\n      dup7\n        /* \"#utility.yul\":19183:19201   */\n      add\n        /* \"#utility.yul\":19170:19202   */\n      calldataload\n        /* \"#utility.yul\":19229:19247   */\n      0xffffffffffffffff\n        /* \"#utility.yul\":19221:19227   */\n      dup2\n        /* \"#utility.yul\":19218:19248   */\n      gt\n        /* \"#utility.yul\":19215:19332   */\n      iszero\n      tag_538\n      jumpi\n        /* \"#utility.yul\":19251:19330   */\n      tag_539\n      tag_256\n      jump\t// in\n    tag_539:\n        /* \"#utility.yul\":19215:19332   */\n    tag_538:\n        /* \"#utility.yul\":19356:19419   */\n      tag_540\n        /* \"#utility.yul\":19411:19418   */\n      dup9\n        /* \"#utility.yul\":19402:19408   */\n      dup3\n        /* \"#utility.yul\":19391:19400   */\n      dup10\n        /* \"#utility.yul\":19387:19409   */\n      add\n        /* \"#utility.yul\":19356:19419   */\n      tag_274\n      jump\t// in\n    tag_540:\n        /* \"#utility.yul\":19346:19419   */\n      swap4\n      pop\n        /* \"#utility.yul\":19141:19429   */\n      pop\n        /* \"#utility.yul\":19496:19498   */\n      0x60\n        /* \"#utility.yul\":19485:19494   */\n      dup7\n        /* \"#utility.yul\":19481:19499   */\n      add\n        /* \"#utility.yul\":19468:19500   */\n      calldataload\n        /* \"#utility.yul\":19527:19545   */\n      0xffffffffffffffff\n        /* \"#utility.yul\":19519:19525   */\n      dup2\n        /* \"#utility.yul\":19516:19546   */\n      gt\n        /* \"#utility.yul\":19513:19630   */\n      iszero\n      tag_541\n      jumpi\n        /* \"#utility.yul\":19549:19628   */\n      tag_542\n      tag_256\n      jump\t// in\n    tag_542:\n        /* \"#utility.yul\":19513:19630   */\n    tag_541:\n        /* \"#utility.yul\":19654:19717   */\n      tag_543\n        /* \"#utility.yul\":19709:19716   */\n      dup9\n        /* \"#utility.yul\":19700:19706   */\n      dup3\n        /* \"#utility.yul\":19689:19698   */\n      dup10\n        /* \"#utility.yul\":19685:19707   */\n      add\n        /* \"#utility.yul\":19654:19717   */\n      tag_274\n      jump\t// in\n    tag_543:\n        /* \"#utility.yul\":19644:19717   */\n      swap3\n      pop\n        /* \"#utility.yul\":19439:19727   */\n      pop\n        /* \"#utility.yul\":19794:19797   */\n      0x80\n        /* \"#utility.yul\":19783:19792   */\n      dup7\n        /* \"#utility.yul\":19779:19798   */\n      add\n        /* \"#utility.yul\":19766:19799   */\n      calldataload\n        /* \"#utility.yul\":19826:19844   */\n      0xffffffffffffffff\n        /* \"#utility.yul\":19818:19824   */\n      dup2\n        /* \"#utility.yul\":19815:19845   */\n      gt\n        /* \"#utility.yul\":19812:19929   */\n      iszero\n      tag_544\n      jumpi\n        /* \"#utility.yul\":19848:19927   */\n      tag_545\n      tag_256\n      jump\t// in\n    tag_545:\n        /* \"#utility.yul\":19812:19929   */\n    tag_544:\n        /* \"#utility.yul\":19953:20016   */\n      tag_546\n        /* \"#utility.yul\":20008:20015   */\n      dup9\n        /* \"#utility.yul\":19999:20005   */\n      dup3\n        /* \"#utility.yul\":19988:19997   */\n      dup10\n        /* \"#utility.yul\":19984:20006   */\n      add\n        /* \"#utility.yul\":19953:20016   */\n      tag_274\n      jump\t// in\n    tag_546:\n        /* \"#utility.yul\":19943:20016   */\n      swap2\n      pop\n        /* \"#utility.yul\":19737:20026   */\n      pop\n        /* \"#utility.yul\":18222:20033   */\n      swap3\n      swap6\n      pop\n      swap3\n      swap6\n      swap1\n      swap4\n      pop\n      jump\t// out\n        /* \"#utility.yul\":20039:20208   */\n    tag_305:\n        /* \"#utility.yul\":20123:20134   */\n      0x00\n        /* \"#utility.yul\":20157:20163   */\n      dup3\n        /* \"#utility.yul\":20152:20155   */\n      dup3\n        /* \"#utility.yul\":20145:20164   */\n      mstore\n        /* \"#utility.yul\":20197:20201   */\n      0x20\n        /* \"#utility.yul\":20192:20195   */\n      dup3\n        /* \"#utility.yul\":20188:20202   */\n      add\n        /* \"#utility.yul\":20173:20202   */\n      swap1\n      pop\n        /* \"#utility.yul\":20039:20208   */\n      swap3\n      swap2\n      pop\n      pop\n      jump\t// out\n        /* \"#utility.yul\":20214:20377   */\n    tag_306:\n        /* \"#utility.yul\":20354:20369   */\n      0x496e76616c696420696e70757400000000000000000000000000000000000000\n        /* \"#utility.yul\":20350:20351   */\n      0x00\n        /* \"#utility.yul\":20342:20348   */\n      dup3\n        /* \"#utility.yul\":20338:20352   */\n      add\n        /* \"#utility.yul\":20331:20370   */\n      mstore\n        /* \"#utility.yul\":20214:20377   */\n      pop\n      jump\t// out\n        /* \"#utility.yul\":20383:20749   */\n    tag_307:\n        /* \"#utility.yul\":20525:20528   */\n      0x00\n        /* \"#utility.yul\":20546:20613   */\n      tag_550\n        /* \"#utility.yul\":20610:20612   */\n      0x0d\n        /* \"#utility.yul\":20605:20608   */\n      dup4\n        /* \"#utility.yul\":20546:20613   */\n      tag_305\n      jump\t// in\n    tag_550:\n        /* \"#utility.yul\":20539:20613   */\n      swap2\n      pop\n        /* \"#utility.yul\":20622:20715   */\n      tag_551\n        /* \"#utility.yul\":20711:20714   */\n      dup3\n        /* \"#utility.yul\":20622:20715   */\n      tag_306\n      jump\t// in\n    tag_551:\n        /* \"#utility.yul\":20740:20742   */\n      0x20\n        /* \"#utility.yul\":20735:20738   */\n      dup3\n        /* \"#utility.yul\":20731:20743   */\n      add\n        /* \"#utility.yul\":20724:20743   */\n      swap1\n      pop\n        /* \"#utility.yul\":20383:20749   */\n      swap2\n      swap1\n      pop\n      jump\t// out\n        /* \"#utility.yul\":20755:21174   */\n    tag_117:\n        /* \"#utility.yul\":20921:20925   */\n      0x00\n        /* \"#utility.yul\":20959:20961   */\n      0x20\n        /* \"#utility.yul\":20948:20957   */\n      dup3\n        /* \"#utility.yul\":20944:20962   */\n      add\n        /* \"#utility.yul\":20936:20962   */\n      swap1\n      pop\n        /* \"#utility.yul\":21008:21017   */\n      dup2\n        /* \"#utility.yul\":21002:21006   */\n      dup2\n        /* \"#utility.yul\":20998:21018   */\n      sub\n        /* \"#utility.yul\":20994:20995   */\n      0x00\n        /* \"#utility.yul\":20983:20992   */\n      dup4\n        /* \"#utility.yul\":20979:20996   */\n      add\n        /* \"#utility.yul\":20972:21019   */\n      mstore\n        /* \"#utility.yul\":21036:21167   */\n      tag_553\n        /* \"#utility.yul\":21162:21166   */\n      dup2\n        /* \"#utility.yul\":21036:21167   */\n      tag_307\n      jump\t// in\n    tag_553:\n        /* \"#utility.yul\":21028:21167   */\n      swap1\n      pop\n        /* \"#utility.yul\":20755:21174   */\n      swap2\n      swap1\n      pop\n      jump\t// out\n        /* \"#utility.yul\":21180:21274   */\n    tag_308:\n        /* \"#utility.yul\":21213:21221   */\n      0x00\n        /* \"#utility.yul\":21261:21266   */\n      dup2\n        /* \"#utility.yul\":21257:21259   */\n      0x60\n        /* \"#utility.yul\":21253:21267   */\n      shl\n        /* \"#utility.yul\":21232:21267   */\n      swap1\n      pop\n        /* \"#utility.yul\":21180:21274   */\n      swap2\n      swap1\n      pop\n      jump\t// out\n        /* \"#utility.yul\":21280:21374   */\n    tag_309:\n        /* \"#utility.yul\":21319:21326   */\n      0x00\n        /* \"#utility.yul\":21348:21368   */\n      tag_556\n        /* \"#utility.yul\":21362:21367   */\n      dup3\n        /* \"#utility.yul\":21348:21368   */\n      tag_308\n      jump\t// in\n    tag_556:\n        /* \"#utility.yul\":21337:21368   */\n      swap1\n      pop\n        /* \"#utility.yul\":21280:21374   */\n      swap2\n      swap1\n      pop\n      jump\t// out\n        /* \"#utility.yul\":21380:21480   */\n    tag_310:\n        /* \"#utility.yul\":21419:21426   */\n      0x00\n        /* \"#utility.yul\":21448:21474   */\n      tag_558\n        /* \"#utility.yul\":21468:21473   */\n      dup3\n        /* \"#utility.yul\":21448:21474   */\n      tag_309\n      jump\t// in\n    tag_558:\n        /* \"#utility.yul\":21437:21474   */\n      swap1\n      pop\n        /* \"#utility.yul\":21380:21480   */\n      swap2\n      swap1\n      pop\n      jump\t// out\n        /* \"#utility.yul\":21486:21643   */\n    tag_311:\n        /* \"#utility.yul\":21591:21636   */\n      tag_560\n        /* \"#utility.yul\":21611:21635   */\n      tag_561\n        /* \"#utility.yul\":21629:21634   */\n      dup3\n        /* \"#utility.yul\":21611:21635   */\n      tag_258\n      jump\t// in\n    tag_561:\n        /* \"#utility.yul\":21591:21636   */\n      tag_310\n      jump\t// in\n    tag_560:\n        /* \"#utility.yul\":21586:21589   */\n      dup3\n        /* \"#utility.yul\":21579:21637   */\n      mstore\n        /* \"#utility.yul\":21486:21643   */\n      pop\n      pop\n      jump\t// out\n        /* \"#utility.yul\":21649:21728   */\n    tag_312:\n        /* \"#utility.yul\":21688:21695   */\n      0x00\n        /* \"#utility.yul\":21717:21722   */\n      dup2\n        /* \"#utility.yul\":21706:21722   */\n      swap1\n      pop\n        /* \"#utility.yul\":21649:21728   */\n      swap2\n      swap1\n      pop\n      jump\t// out\n        /* \"#utility.yul\":21734:21891   */\n    tag_313:\n        /* \"#utility.yul\":21839:21884   */\n      tag_564\n        /* \"#utility.yul\":21859:21883   */\n      tag_565\n        /* \"#utility.yul\":21877:21882   */\n      dup3\n        /* \"#utility.yul\":21859:21883   */\n      tag_261\n      jump\t// in\n    tag_565:\n        /* \"#utility.yul\":21839:21884   */\n      tag_312\n      jump\t// in\n    tag_564:\n        /* \"#utility.yul\":21834:21837   */\n      dup3\n        /* \"#utility.yul\":21827:21885   */\n      mstore\n        /* \"#utility.yul\":21734:21891   */\n      pop\n      pop\n      jump\t// out\n        /* \"#utility.yul\":21897:22294   */\n    tag_119:\n        /* \"#utility.yul\":22037:22040   */\n      0x00\n        /* \"#utility.yul\":22052:22127   */\n      tag_567\n        /* \"#utility.yul\":22123:22126   */\n      dup3\n        /* \"#utility.yul\":22114:22120   */\n      dup6\n        /* \"#utility.yul\":22052:22127   */\n      tag_311\n      jump\t// in\n    tag_567:\n        /* \"#utility.yul\":22152:22154   */\n      0x14\n        /* \"#utility.yul\":22147:22150   */\n      dup3\n        /* \"#utility.yul\":22143:22155   */\n      add\n        /* \"#utility.yul\":22136:22155   */\n      swap2\n      pop\n        /* \"#utility.yul\":22165:22240   */\n      tag_568\n        /* \"#utility.yul\":22236:22239   */\n      dup3\n        /* \"#utility.yul\":22227:22233   */\n      dup5\n        /* \"#utility.yul\":22165:22240   */\n      tag_313\n      jump\t// in\n    tag_568:\n        /* \"#utility.yul\":22265:22267   */\n      0x20\n        /* \"#utility.yul\":22260:22263   */\n      dup3\n        /* \"#utility.yul\":22256:22268   */\n      add\n        /* \"#utility.yul\":22249:22268   */\n      swap2\n      pop\n        /* \"#utility.yul\":22285:22288   */\n      dup2\n        /* \"#utility.yul\":22278:22288   */\n      swap1\n      pop\n        /* \"#utility.yul\":21897:22294   */\n      swap4\n      swap3\n      pop\n      pop\n      pop\n      jump\t// out\n        /* \"#utility.yul\":22300:22480   */\n    tag_314:\n        /* \"#utility.yul\":22348:22425   */\n      0x4e487b7100000000000000000000000000000000000000000000000000000000\n        /* \"#utility.yul\":22345:22346   */\n      0x00\n        /* \"#utility.yul\":22338:22426   */\n      mstore\n        /* \"#utility.yul\":22445:22449   */\n      0x22\n        /* \"#utility.yul\":22442:22443   */\n      0x04\n        /* \"#utility.yul\":22435:22450   */\n      mstore\n        /* \"#utility.yul\":22469:22473   */\n      0x24\n        /* \"#utility.yul\":22466:22467   */\n      0x00\n        /* \"#utility.yul\":22459:22474   */\n      revert\n        /* \"#utility.yul\":22486:22806   */\n    tag_153:\n        /* \"#utility.yul\":22530:22536   */\n      0x00\n        /* \"#utility.yul\":22567:22568   */\n      0x02\n        /* \"#utility.yul\":22561:22565   */\n      dup3\n        /* \"#utility.yul\":22557:22569   */\n      div\n        /* \"#utility.yul\":22547:22569   */\n      swap1\n      pop\n        /* \"#utility.yul\":22614:22615   */\n      0x01\n        /* \"#utility.yul\":22608:22612   */\n      dup3\n        /* \"#utility.yul\":22604:22616   */\n      and\n        /* \"#utility.yul\":22635:22653   */\n      dup1\n        /* \"#utility.yul\":22625:22706   */\n      tag_571\n      jumpi\n        /* \"#utility.yul\":22691:22695   */\n      0x7f\n        /* \"#utility.yul\":22683:22689   */\n      dup3\n        /* \"#utility.yul\":22679:22696   */\n      and\n        /* \"#utility.yul\":22669:22696   */\n      swap2\n      pop\n        /* \"#utility.yul\":22625:22706   */\n    tag_571:\n        /* \"#utility.yul\":22753:22755   */\n      0x20\n        /* \"#utility.yul\":22745:22751   */\n      dup3\n        /* \"#utility.yul\":22742:22756   */\n      lt\n        /* \"#utility.yul\":22722:22740   */\n      dup2\n        /* \"#utility.yul\":22719:22757   */\n      sub\n        /* \"#utility.yul\":22716:22800   */\n      tag_572\n      jumpi\n        /* \"#utility.yul\":22772:22790   */\n      tag_573\n      tag_314\n      jump\t// in\n    tag_573:\n        /* \"#utility.yul\":22716:22800   */\n    tag_572:\n        /* \"#utility.yul\":22537:22806   */\n      pop\n        /* \"#utility.yul\":22486:22806   */\n      swap2\n      swap1\n      pop\n      jump\t// out\n        /* \"#utility.yul\":22812:22953   */\n    tag_315:\n        /* \"#utility.yul\":22861:22865   */\n      0x00\n        /* \"#utility.yul\":22884:22887   */\n      dup2\n        /* \"#utility.yul\":22876:22887   */\n      swap1\n      pop\n        /* \"#utility.yul\":22907:22910   */\n      dup2\n        /* \"#utility.yul\":22904:22905   */\n      0x00\n        /* \"#utility.yul\":22897:22911   */\n      mstore\n        /* \"#utility.yul\":22941:22945   */\n      0x20\n        /* \"#utility.yul\":22938:22939   */\n      0x00\n        /* \"#utility.yul\":22928:22946   */\n      keccak256\n        /* \"#utility.yul\":22920:22946   */\n      swap1\n      pop\n        /* \"#utility.yul\":22812:22953   */\n      swap2\n      swap1\n      pop\n      jump\t// out\n        /* \"#utility.yul\":22959:23052   */\n    tag_316:\n        /* \"#utility.yul\":22996:23002   */\n      0x00\n        /* \"#utility.yul\":23043:23045   */\n      0x20\n        /* \"#utility.yul\":23038:23040   */\n      0x1f\n        /* \"#utility.yul\":23031:23036   */\n      dup4\n        /* \"#utility.yul\":23027:23041   */\n      add\n        /* \"#utility.yul\":23023:23046   */\n      div\n        /* \"#utility.yul\":23013:23046   */\n      swap1\n      pop\n        /* \"#utility.yul\":22959:23052   */\n      swap2\n      swap1\n      pop\n      jump\t// out\n        /* \"#utility.yul\":23058:23165   */\n    tag_317:\n        /* \"#utility.yul\":23102:23110   */\n      0x00\n        /* \"#utility.yul\":23152:23157   */\n      dup3\n        /* \"#utility.yul\":23146:23150   */\n      dup3\n        /* \"#utility.yul\":23142:23158   */\n      shl\n        /* \"#utility.yul\":23121:23158   */\n      swap1\n      pop\n        /* \"#utility.yul\":23058:23165   */\n      swap3\n      swap2\n      pop\n      pop\n      jump\t// out\n        /* \"#utility.yul\":23171:23564   */\n    tag_318:\n        /* \"#utility.yul\":23240:23246   */\n      0x00\n        /* \"#utility.yul\":23290:23291   */\n      0x08\n        /* \"#utility.yul\":23278:23288   */\n      dup4\n        /* \"#utility.yul\":23274:23292   */\n      mul\n        /* \"#utility.yul\":23313:23410   */\n      tag_578\n        /* \"#utility.yul\":23343:23409   */\n      0xffffffffffffffffffffffffffffffffffffffffffffffffffffffffffffffff\n        /* \"#utility.yul\":23332:23341   */\n      dup3\n        /* \"#utility.yul\":23313:23410   */\n      tag_317\n      jump\t// in\n    tag_578:\n        /* \"#utility.yul\":23431:23470   */\n      tag_579\n        /* \"#utility.yul\":23461:23469   */\n      dup7\n        /* \"#utility.yul\":23450:23459   */\n      dup4\n        /* \"#utility.yul\":23431:23470   */\n      tag_317\n      jump\t// in\n    tag_579:\n        /* \"#utility.yul\":23419:23470   */\n      swap6\n      pop\n        /* \"#utility.yul\":23503:23507   */\n      dup1\n        /* \"#utility.yul\":23499:23508   */\n      not\n        /* \"#utility.yul\":23492:23497   */\n      dup5\n        /* \"#utility.yul\":23488:23509   */\n      and\n        /* \"#utility.yul\":23479:23509   */\n      swap4\n      pop\n        /* \"#utility.yul\":23552:23556   */\n      dup1\n        /* \"#utility.yul\":23542:23550   */\n      dup7\n        /* \"#utility.yul\":23538:23557   */\n      and\n        /* \"#utility.yul\":23531:23536   */\n      dup5\n        /* \"#utility.yul\":23528:23558   */\n      or\n        /* \"#utility.yul\":23518:23558   */\n      swap3\n      pop\n        /* \"#utility.yul\":23247:23564   */\n      pop\n      pop\n        /* \"#utility.yul\":23171:23564   */\n      swap4\n      swap3\n      pop\n      pop\n      pop\n      jump\t// out\n        /* \"#utility.yul\":23570:23630   */\n    tag_319:\n        /* \"#utility.yul\":23598:23601   */\n      0x00\n        /* \"#utility.yul\":23619:23624   */\n      dup2\n        /* \"#utility.yul\":23612:23624   */\n      swap1\n      pop\n        /* \"#utility.yul\":23570:23630   */\n      swap2\n      swap1\n      pop\n      jump\t// out\n        /* \"#utility.yul\":23636:23778   */\n    tag_320:\n        /* \"#utility.yul\":23686:23695   */\n      0x00\n        /* \"#utility.yul\":23719:23772   */\n      tag_582\n        /* \"#utility.yul\":23737:23771   */\n      tag_583\n        /* \"#utility.yul\":23746:23770   */\n      tag_584\n        /* \"#utility.yul\":23764:23769   */\n      dup5\n        /* \"#utility.yul\":23746:23770   */\n      tag_261\n      jump\t// in\n    tag_584:\n        /* \"#utility.yul\":23737:23771   */\n      tag_319\n      jump\t// in\n    tag_583:\n        /* \"#utility.yul\":23719:23772   */\n      tag_261\n      jump\t// in\n    tag_582:\n        /* \"#utility.yul\":23706:23772   */\n      swap1\n      pop\n        /* \"#utility.yul\":23636:23778   */\n      swap2\n      swap1\n      pop\n      jump\t// out\n        /* \"#utility.yul\":23784:23859   */\n    tag_321:\n        /* \"#utility.yul\":23827:23830   */\n      0x00\n        /* \"#utility.yul\":23848:23853   */\n      dup2\n        /* \"#utility.yul\":23841:23853   */\n      swap1\n      pop\n        /* \"#utility.yul\":23784:23859   */\n      swap2\n      swap1\n      pop\n      jump\t// out\n        /* \"#utility.yul\":23865:24134   */\n    tag_322:\n        /* \"#utility.yul\":23975:24014   */\n      tag_587\n        /* \"#utility.yul\":24006:24013   */\n      dup4\n        /* \"#utility.yul\":23975:24014   */\n      tag_320\n      jump\t// in\n    tag_587:\n        /* \"#utility.yul\":24036:24127   */\n      tag_588\n        /* \"#utility.yul\":24085:24126   */\n      tag_589\n        /* \"#utility.yul\":24109:24125   */\n      dup3\n        /* \"#utility.yul\":24085:24126   */\n      tag_321\n      jump\t// in\n    tag_589:\n        /* \"#utility.yul\":24077:24083   */\n      dup5\n        /* \"#utility.yul\":24070:24074   */\n      dup5\n        /* \"#utility.yul\":24064:24075   */\n      sload\n        /* \"#utility.yul\":24036:24127   */\n      tag_318\n      jump\t// in\n    tag_588:\n        /* \"#utility.yul\":24030:24034   */\n      dup3\n        /* \"#utility.yul\":24023:24128   */\n      sstore\n        /* \"#utility.yul\":23941:24134   */\n      pop\n        /* \"#utility.yul\":23865:24134   */\n      pop\n      pop\n      pop\n      jump\t// out\n        /* \"#utility.yul\":24140:24213   */\n    tag_323:\n        /* \"#utility.yul\":24185:24188   */\n      0x00\n        /* \"#utility.yul\":24140:24213   */\n      swap1\n      jump\t// out\n        /* \"#utility.yul\":24219:24408   */\n    tag_324:\n        /* \"#utility.yul\":24296:24328   */\n      tag_592\n      tag_323\n      jump\t// in\n    tag_592:\n        /* \"#utility.yul\":24337:24402   */\n      tag_593\n        /* \"#utility.yul\":24395:24401   */\n      dup2\n        /* \"#utility.yul\":24387:24393   */\n      dup5\n        /* \"#utility.yul\":24381:24385   */\n      dup5\n        /* \"#utility.yul\":24337:24402   */\n      tag_322\n      jump\t// in\n    tag_593:\n        /* \"#utility.yul\":24272:24408   */\n      pop\n        /* \"#utility.yul\":24219:24408   */\n      pop\n      pop\n      jump\t// out\n        /* \"#utility.yul\":24414:24600   */\n    tag_325:\n        /* \"#utility.yul\":24474:24594   */\n    tag_595:\n        /* \"#utility.yul\":24491:24494   */\n      dup2\n        /* \"#utility.yul\":24484:24489   */\n      dup2\n        /* \"#utility.yul\":24481:24495   */\n      lt\n        /* \"#utility.yul\":24474:24594   */\n      iszero\n      tag_597\n      jumpi\n        /* \"#utility.yul\":24545:24584   */\n      tag_598\n        /* \"#utility.yul\":24582:24583   */\n      0x00\n        /* \"#utility.yul\":24575:24580   */\n      dup3\n        /* \"#utility.yul\":24545:24584   */\n      tag_324\n      jump\t// in\n    tag_598:\n        /* \"#utility.yul\":24518:24519   */\n      0x01\n        /* \"#utility.yul\":24511:24516   */\n      dup2\n        /* \"#utility.yul\":24507:24520   */\n      add\n        /* \"#utility.yul\":24498:24520   */\n      swap1\n      pop\n        /* \"#utility.yul\":24474:24594   */\n      jump(tag_595)\n    tag_597:\n        /* \"#utility.yul\":24414:24600   */\n      pop\n      pop\n      jump\t// out\n        /* \"#utility.yul\":24606:25149   */\n    tag_326:\n        /* \"#utility.yul\":24707:24709   */\n      0x1f\n        /* \"#utility.yul\":24702:24705   */\n      dup3\n        /* \"#utility.yul\":24699:24710   */\n      gt\n        /* \"#utility.yul\":24696:25142   */\n      iszero\n      tag_600\n      jumpi\n        /* \"#utility.yul\":24741:24779   */\n      tag_601\n        /* \"#utility.yul\":24773:24778   */\n      dup2\n        /* \"#utility.yul\":24741:24779   */\n      tag_315\n      jump\t// in\n    tag_601:\n        /* \"#utility.yul\":24825:24854   */\n      tag_602\n        /* \"#utility.yul\":24843:24853   */\n      dup5\n        /* \"#utility.yul\":24825:24854   */\n      tag_316\n      jump\t// in\n    tag_602:\n        /* \"#utility.yul\":24815:24823   */\n      dup2\n        /* \"#utility.yul\":24811:24855   */\n      add\n        /* \"#utility.yul\":25008:25010   */\n      0x20\n        /* \"#utility.yul\":24996:25006   */\n      dup6\n        /* \"#utility.yul\":24993:25011   */\n      lt\n        /* \"#utility.yul\":24990:25039   */\n      iszero\n      tag_603\n      jumpi\n        /* \"#utility.yul\":25029:25037   */\n      dup2\n        /* \"#utility.yul\":25014:25037   */\n      swap1\n      pop\n        /* \"#utility.yul\":24990:25039   */\n    tag_603:\n        /* \"#utility.yul\":25052:25132   */\n      tag_604\n        /* \"#utility.yul\":25108:25130   */\n      tag_605\n        /* \"#utility.yul\":25126:25129   */\n      dup6\n        /* \"#utility.yul\":25108:25130   */\n      tag_316\n      jump\t// in\n    tag_605:\n        /* \"#utility.yul\":25098:25106   */\n      dup4\n        /* \"#utility.yul\":25094:25131   */\n      add\n        /* \"#utility.yul\":25081:25092   */\n      dup3\n        /* \"#utility.yul\":25052:25132   */\n      tag_325\n      jump\t// in\n    tag_604:\n        /* \"#utility.yul\":24711:25142   */\n      pop\n      pop\n        /* \"#utility.yul\":24696:25142   */\n    tag_600:\n        /* \"#utility.yul\":24606:25149   */\n      pop\n      pop\n      pop\n      jump\t// out\n        /* \"#utility.yul\":25155:25272   */\n    tag_327:\n        /* \"#utility.yul\":25209:25217   */\n      0x00\n        /* \"#utility.yul\":25259:25264   */\n      dup3\n        /* \"#utility.yul\":25253:25257   */\n      dup3\n        /* \"#utility.yul\":25249:25265   */\n      shr\n        /* \"#utility.yul\":25228:25265   */\n      swap1\n      pop\n        /* \"#utility.yul\":25155:25272   */\n      swap3\n      swap2\n      pop\n      pop\n      jump\t// out\n        /* \"#utility.yul\":25278:25447   */\n    tag_328:\n        /* \"#utility.yul\":25322:25328   */\n      0x00\n        /* \"#utility.yul\":25355:25406   */\n      tag_608\n        /* \"#utility.yul\":25403:25404   */\n      0x00\n        /* \"#utility.yul\":25399:25405   */\n      not\n        /* \"#utility.yul\":25391:25396   */\n      dup5\n        /* \"#utility.yul\":25388:25389   */\n      0x08\n        /* \"#utility.yul\":25384:25397   */\n      mul\n        /* \"#utility.yul\":25355:25406   */\n      tag_327\n      jump\t// in\n    tag_608:\n        /* \"#utility.yul\":25351:25407   */\n      not\n        /* \"#utility.yul\":25436:25440   */\n      dup1\n        /* \"#utility.yul\":25430:25434   */\n      dup4\n        /* \"#utility.yul\":25426:25441   */\n      and\n        /* \"#utility.yul\":25416:25441   */\n      swap2\n      pop\n        /* \"#utility.yul\":25329:25447   */\n      pop\n        /* \"#utility.yul\":25278:25447   */\n      swap3\n      swap2\n      pop\n      pop\n      jump\t// out\n        /* \"#utility.yul\":25452:25747   */\n    tag_329:\n        /* \"#utility.yul\":25528:25532   */\n      0x00\n        /* \"#utility.yul\":25674:25703   */\n      tag_610\n        /* \"#utility.yul\":25699:25702   */\n      dup4\n        /* \"#utility.yul\":25693:25697   */\n      dup4\n        /* \"#utility.yul\":25674:25703   */\n      tag_328\n      jump\t// in\n    tag_610:\n        /* \"#utility.yul\":25666:25703   */\n      swap2\n      pop\n        /* \"#utility.yul\":25736:25739   */\n      dup3\n        /* \"#utility.yul\":25733:25734   */\n      0x02\n        /* \"#utility.yul\":25729:25740   */\n      mul\n        /* \"#utility.yul\":25723:25727   */\n      dup3\n        /* \"#utility.yul\":25720:25741   */\n      or\n        /* \"#utility.yul\":25712:25741   */\n      swap1\n      pop\n        /* \"#utility.yul\":25452:25747   */\n      swap3\n      swap2\n      pop\n      pop\n      jump\t// out\n        /* \"#utility.yul\":25752:27147   */\n    tag_124:\n        /* \"#utility.yul\":25869:25906   */\n      tag_612\n        /* \"#utility.yul\":25902:25905   */\n      dup3\n        /* \"#utility.yul\":25869:25906   */\n      tag_280\n      jump\t// in\n    tag_612:\n        /* \"#utility.yul\":25971:25989   */\n      0xffffffffffffffff\n        /* \"#utility.yul\":25963:25969   */\n      dup2\n        /* \"#utility.yul\":25960:25990   */\n      gt\n        /* \"#utility.yul\":25957:26013   */\n      iszero\n      tag_613\n      jumpi\n        /* \"#utility.yul\":25993:26011   */\n      tag_614\n      tag_142\n      jump\t// in\n    tag_614:\n        /* \"#utility.yul\":25957:26013   */\n    tag_613:\n        /* \"#utility.yul\":26037:26075   */\n      tag_615\n        /* \"#utility.yul\":26069:26073   */\n      dup3\n        /* \"#utility.yul\":26063:26074   */\n      sload\n        /* \"#utility.yul\":26037:26075   */\n      tag_153\n      jump\t// in\n    tag_615:\n        /* \"#utility.yul\":26122:26189   */\n      tag_616\n        /* \"#utility.yul\":26182:26188   */\n      dup3\n        /* \"#utility.yul\":26174:26180   */\n      dup3\n        /* \"#utility.yul\":26168:26172   */\n      dup6\n        /* \"#utility.yul\":26122:26189   */\n      tag_326\n      jump\t// in\n    tag_616:\n        /* \"#utility.yul\":26216:26217   */\n      0x00\n        /* \"#utility.yul\":26240:26244   */\n      0x20\n        /* \"#utility.yul\":26227:26244   */\n      swap1\n      pop\n        /* \"#utility.yul\":26272:26274   */\n      0x1f\n        /* \"#utility.yul\":26264:26270   */\n      dup4\n        /* \"#utility.yul\":26261:26275   */\n      gt\n        /* \"#utility.yul\":26289:26290   */\n      0x01\n        /* \"#utility.yul\":26284:26902   */\n      dup2\n      eq\n      tag_618\n      jumpi\n        /* \"#utility.yul\":26946:26947   */\n      0x00\n        /* \"#utility.yul\":26963:26969   */\n      dup5\n        /* \"#utility.yul\":26960:27037   */\n      iszero\n      tag_619\n      jumpi\n        /* \"#utility.yul\":27012:27021   */\n      dup3\n        /* \"#utility.yul\":27007:27010   */\n      dup8\n        /* \"#utility.yul\":27003:27022   */\n      add\n        /* \"#utility.yul\":26997:27023   */\n      mload\n        /* \"#utility.yul\":26988:27023   */\n      swap1\n      pop\n        /* \"#utility.yul\":26960:27037   */\n    tag_619:\n        /* \"#utility.yul\":27063:27130   */\n      tag_620\n        /* \"#utility.yul\":27123:27129   */\n      dup6\n        /* \"#utility.yul\":27116:27121   */\n      dup3\n        /* \"#utility.yul\":27063:27130   */\n      tag_329\n      jump\t// in\n    tag_620:\n        /* \"#utility.yul\":27057:27061   */\n      dup7\n        /* \"#utility.yul\":27050:27131   */\n      sstore\n        /* \"#utility.yul\":26919:27141   */\n      pop\n        /* \"#utility.yul\":26254:27141   */\n      jump(tag_617)\n        /* \"#utility.yul\":26284:26902   */\n    tag_618:\n        /* \"#utility.yul\":26336:26340   */\n      0x1f\n        /* \"#utility.yul\":26332:26341   */\n      not\n        /* \"#utility.yul\":26324:26330   */\n      dup5\n        /* \"#utility.yul\":26320:26342   */\n      and\n        /* \"#utility.yul\":26370:26407   */\n      tag_621\n        /* \"#utility.yul\":26402:26406   */\n      dup7\n        /* \"#utility.yul\":26370:26407   */\n      tag_315\n      jump\t// in\n    tag_621:\n        /* \"#utility.yul\":26429:26430   */\n      0x00\n        /* \"#utility.yul\":26443:26651   */\n    tag_622:\n        /* \"#utility.yul\":26457:26464   */\n      dup3\n        /* \"#utility.yul\":26454:26455   */\n      dup2\n        /* \"#utility.yul\":26451:26465   */\n      lt\n        /* \"#utility.yul\":26443:26651   */\n      iszero\n      tag_624\n      jumpi\n        /* \"#utility.yul\":26536:26545   */\n      dup5\n        /* \"#utility.yul\":26531:26534   */\n      dup10\n        /* \"#utility.yul\":26527:26546   */\n      add\n        /* \"#utility.yul\":26521:26547   */\n      mload\n        /* \"#utility.yul\":26513:26519   */\n      dup3\n        /* \"#utility.yul\":26506:26548   */\n      sstore\n        /* \"#utility.yul\":26587:26588   */\n      0x01\n        /* \"#utility.yul\":26579:26585   */\n      dup3\n        /* \"#utility.yul\":26575:26589   */\n      add\n        /* \"#utility.yul\":26565:26589   */\n      swap2\n      pop\n        /* \"#utility.yul\":26634:26636   */\n      0x20\n        /* \"#utility.yul\":26623:26632   */\n      dup6\n        /* \"#utility.yul\":26619:26637   */\n      add\n        /* \"#utility.yul\":26606:26637   */\n      swap5\n      pop\n        /* \"#utility.yul\":26480:26484   */\n      0x20\n        /* \"#utility.yul\":26477:26478   */\n      dup2\n        /* \"#utility.yul\":26473:26485   */\n      add\n        /* \"#utility.yul\":26468:26485   */\n      swap1\n      pop\n        /* \"#utility.yul\":26443:26651   */\n      jump(tag_622)\n    tag_624:\n        /* \"#utility.yul\":26679:26685   */\n      dup7\n        /* \"#utility.yul\":26670:26677   */\n      dup4\n        /* \"#utility.yul\":26667:26686   */\n      lt\n        /* \"#utility.yul\":26664:26843   */\n      iszero\n      tag_625\n      jumpi\n        /* \"#utility.yul\":26737:26746   */\n      dup5\n        /* \"#utility.yul\":26732:26735   */\n      dup10\n        /* \"#utility.yul\":26728:26747   */\n      add\n        /* \"#utility.yul\":26722:26748   */\n      mload\n        /* \"#utility.yul\":26780:26828   */\n      tag_626\n        /* \"#utility.yul\":26822:26826   */\n      0x1f\n        /* \"#utility.yul\":26814:26820   */\n      dup10\n        /* \"#utility.yul\":26810:26827   */\n      and\n        /* \"#utility.yul\":26799:26808   */\n      dup3\n        /* \"#utility.yul\":26780:26828   */\n      tag_328\n      jump\t// in\n    tag_626:\n        /* \"#utility.yul\":26772:26778   */\n      dup4\n        /* \"#utility.yul\":26765:26829   */\n      sstore\n        /* \"#utility.yul\":26687:26843   */\n      pop\n        /* \"#utility.yul\":26664:26843   */\n    tag_625:\n        /* \"#utility.yul\":26889:26890   */\n      0x01\n        /* \"#utility.yul\":26885:26886   */\n      0x02\n        /* \"#utility.yul\":26877:26883   */\n      dup9\n        /* \"#utility.yul\":26873:26887   */\n      mul\n        /* \"#utility.yul\":26869:26891   */\n      add\n        /* \"#utility.yul\":26863:26867   */\n      dup9\n        /* \"#utility.yul\":26856:26892   */\n      sstore\n        /* \"#utility.yul\":26291:26902   */\n      pop\n      pop\n      pop\n        /* \"#utility.yul\":26254:27141   */\n    tag_617:\n      pop\n        /* \"#utility.yul\":25844:27147   */\n      pop\n      pop\n      pop\n        /* \"#utility.yul\":25752:27147   */\n      pop\n      pop\n      jump\t// out\n        /* \"#utility.yul\":27153:27271   */\n    tag_330:\n        /* \"#utility.yul\":27240:27264   */\n      tag_628\n        /* \"#utility.yul\":27258:27263   */\n      dup2\n        /* \"#utility.yul\":27240:27264   */\n      tag_278\n      jump\t// in\n    tag_628:\n        /* \"#utility.yul\":27235:27238   */\n      dup3\n        /* \"#utility.yul\":27228:27265   */\n      mstore\n        /* \"#utility.yul\":27153:27271   */\n      pop\n      pop\n      jump\t// out\n        /* \"#utility.yul\":27277:27443   */\n    tag_331:\n        /* \"#utility.yul\":27417:27435   */\n      0x434f4e54524143545f4352454154454400000000000000000000000000000000\n        /* \"#utility.yul\":27413:27414   */\n      0x00\n        /* \"#utility.yul\":27405:27411   */\n      dup3\n        /* \"#utility.yul\":27401:27415   */\n      add\n        /* \"#utility.yul\":27394:27436   */\n      mstore\n        /* \"#utility.yul\":27277:27443   */\n      pop\n      jump\t// out\n        /* \"#utility.yul\":27449:27815   */\n    tag_332:\n        /* \"#utility.yul\":27591:27594   */\n      0x00\n        /* \"#utility.yul\":27612:27679   */\n      tag_631\n        /* \"#utility.yul\":27676:27678   */\n      0x10\n        /* \"#utility.yul\":27671:27674   */\n      dup4\n        /* \"#utility.yul\":27612:27679   */\n      tag_305\n      jump\t// in\n    tag_631:\n        /* \"#utility.yul\":27605:27679   */\n      swap2\n      pop\n        /* \"#utility.yul\":27688:27781   */\n      tag_632\n        /* \"#utility.yul\":27777:27780   */\n      dup3\n        /* \"#utility.yul\":27688:27781   */\n      tag_331\n      jump\t// in\n    tag_632:\n        /* \"#utility.yul\":27806:27808   */\n      0x20\n        /* \"#utility.yul\":27801:27804   */\n      dup3\n        /* \"#utility.yul\":27797:27809   */\n      add\n        /* \"#utility.yul\":27790:27809   */\n      swap1\n      pop\n        /* \"#utility.yul\":27449:27815   */\n      swap2\n      swap1\n      pop\n      jump\t// out\n        /* \"#utility.yul\":27821:27968   */\n    tag_333:\n        /* \"#utility.yul\":27916:27961   */\n      tag_634\n        /* \"#utility.yul\":27955:27960   */\n      dup2\n        /* \"#utility.yul\":27916:27961   */\n      tag_288\n      jump\t// in\n    tag_634:\n        /* \"#utility.yul\":27911:27914   */\n      dup3\n        /* \"#utility.yul\":27904:27962   */\n      mstore\n        /* \"#utility.yul\":27821:27968   */\n      pop\n      pop\n      jump\t// out\n        /* \"#utility.yul\":27974:28629   */\n    tag_138:\n        /* \"#utility.yul\":28204:28208   */\n      0x00\n        /* \"#utility.yul\":28242:28244   */\n      0x60\n        /* \"#utility.yul\":28231:28240   */\n      dup3\n        /* \"#utility.yul\":28227:28245   */\n      add\n        /* \"#utility.yul\":28219:28245   */\n      swap1\n      pop\n        /* \"#utility.yul\":28255:28326   */\n      tag_636\n        /* \"#utility.yul\":28323:28324   */\n      0x00\n        /* \"#utility.yul\":28312:28321   */\n      dup4\n        /* \"#utility.yul\":28308:28325   */\n      add\n        /* \"#utility.yul\":28299:28305   */\n      dup6\n        /* \"#utility.yul\":28255:28326   */\n      tag_330\n      jump\t// in\n    tag_636:\n        /* \"#utility.yul\":28373:28382   */\n      dup2\n        /* \"#utility.yul\":28367:28371   */\n      dup2\n        /* \"#utility.yul\":28363:28383   */\n      sub\n        /* \"#utility.yul\":28358:28360   */\n      0x20\n        /* \"#utility.yul\":28347:28356   */\n      dup4\n        /* \"#utility.yul\":28343:28361   */\n      add\n        /* \"#utility.yul\":28336:28384   */\n      mstore\n        /* \"#utility.yul\":28401:28532   */\n      tag_637\n        /* \"#utility.yul\":28527:28531   */\n      dup2\n        /* \"#utility.yul\":28401:28532   */\n      tag_332\n      jump\t// in\n    tag_637:\n        /* \"#utility.yul\":28393:28532   */\n      swap1\n      pop\n        /* \"#utility.yul\":28542:28622   */\n      tag_638\n        /* \"#utility.yul\":28618:28620   */\n      0x40\n        /* \"#utility.yul\":28607:28616   */\n      dup4\n        /* \"#utility.yul\":28603:28621   */\n      add\n        /* \"#utility.yul\":28594:28600   */\n      dup5\n        /* \"#utility.yul\":28542:28622   */\n      tag_333\n      jump\t// in\n    tag_638:\n        /* \"#utility.yul\":27974:28629   */\n      swap4\n      swap3\n      pop\n      pop\n      pop\n      jump\t// out\n        /* \"#utility.yul\":28635:28891   */\n    tag_151:\n        /* \"#utility.yul\":28747:28750   */\n      0x00\n        /* \"#utility.yul\":28762:28837   */\n      tag_640\n        /* \"#utility.yul\":28833:28836   */\n      dup3\n        /* \"#utility.yul\":28824:28830   */\n      dup5\n        /* \"#utility.yul\":28762:28837   */\n      tag_313\n      jump\t// in\n    tag_640:\n        /* \"#utility.yul\":28862:28864   */\n      0x20\n        /* \"#utility.yul\":28857:28860   */\n      dup3\n        /* \"#utility.yul\":28853:28865   */\n      add\n        /* \"#utility.yul\":28846:28865   */\n      swap2\n      pop\n        /* \"#utility.yul\":28882:28885   */\n      dup2\n        /* \"#utility.yul\":28875:28885   */\n      swap1\n      pop\n        /* \"#utility.yul\":28635:28891   */\n      swap3\n      swap2\n      pop\n      pop\n      jump\t// out\n        /* \"#utility.yul\":28897:29077   */\n    tag_179:\n        /* \"#utility.yul\":28945:29022   */\n      0x4e487b7100000000000000000000000000000000000000000000000000000000\n        /* \"#utility.yul\":28942:28943   */\n      0x00\n        /* \"#utility.yul\":28935:29023   */\n      mstore\n        /* \"#utility.yul\":29042:29046   */\n      0x32\n        /* \"#utility.yul\":29039:29040   */\n      0x04\n        /* \"#utility.yul\":29032:29047   */\n      mstore\n        /* \"#utility.yul\":29066:29070   */\n      0x24\n        /* \"#utility.yul\":29063:29064   */\n      0x00\n        /* \"#utility.yul\":29056:29071   */\n      revert\n        /* \"#utility.yul\":29083:29246   */\n    tag_334:\n        /* \"#utility.yul\":29223:29238   */\n      0x42555945525f4352454154454400000000000000000000000000000000000000\n        /* \"#utility.yul\":29219:29220   */\n      0x00\n        /* \"#utility.yul\":29211:29217   */\n      dup3\n        /* \"#utility.yul\":29207:29221   */\n      add\n        /* \"#utility.yul\":29200:29239   */\n      mstore\n        /* \"#utility.yul\":29083:29246   */\n      pop\n      jump\t// out\n        /* \"#utility.yul\":29252:29618   */\n    tag_335:\n        /* \"#utility.yul\":29394:29397   */\n      0x00\n        /* \"#utility.yul\":29415:29482   */\n      tag_644\n        /* \"#utility.yul\":29479:29481   */\n      0x0d\n        /* \"#utility.yul\":29474:29477   */\n      dup4\n        /* \"#utility.yul\":29415:29482   */\n      tag_305\n      jump\t// in\n    tag_644:\n        /* \"#utility.yul\":29408:29482   */\n      swap2\n      pop\n        /* \"#utility.yul\":29491:29584   */\n      tag_645\n        /* \"#utility.yul\":29580:29583   */\n      dup3\n        /* \"#utility.yul\":29491:29584   */\n      tag_334\n      jump\t// in\n    tag_645:\n        /* \"#utility.yul\":29609:29611   */\n      0x20\n        /* \"#utility.yul\":29604:29607   */\n      dup3\n        /* \"#utility.yul\":29600:29612   */\n      add\n        /* \"#utility.yul\":29593:29612   */\n      swap1\n      pop\n        /* \"#utility.yul\":29252:29618   */\n      swap2\n      swap1\n      pop\n      jump\t// out\n        /* \"#utility.yul\":29624:30279   */\n    tag_192:\n        /* \"#utility.yul\":29854:29858   */\n      0x00\n        /* \"#utility.yul\":29892:29894   */\n      0x60\n        /* \"#utility.yul\":29881:29890   */\n      dup3\n        /* \"#utility.yul\":29877:29895   */\n      add\n        /* \"#utility.yul\":29869:29895   */\n      swap1\n      pop\n        /* \"#utility.yul\":29905:29976   */\n      tag_647\n        /* \"#utility.yul\":29973:29974   */\n      0x00\n        /* \"#utility.yul\":29962:29971   */\n      dup4\n        /* \"#utility.yul\":29958:29975   */\n      add\n        /* \"#utility.yul\":29949:29955   */\n      dup6\n        /* \"#utility.yul\":29905:29976   */\n      tag_330\n      jump\t// in\n    tag_647:\n        /* \"#utility.yul\":30023:30032   */\n      dup2\n        /* \"#utility.yul\":30017:30021   */\n      dup2\n        /* \"#utility.yul\":30013:30033   */\n      sub\n        /* \"#utility.yul\":30008:30010   */\n      0x20\n        /* \"#utility.yul\":29997:30006   */\n      dup4\n        /* \"#utility.yul\":29993:30011   */\n      add\n        /* \"#utility.yul\":29986:30034   */\n      mstore\n        /* \"#utility.yul\":30051:30182   */\n      tag_648\n        /* \"#utility.yul\":30177:30181   */\n      dup2\n        /* \"#utility.yul\":30051:30182   */\n      tag_335\n      jump\t// in\n    tag_648:\n        /* \"#utility.yul\":30043:30182   */\n      swap1\n      pop\n        /* \"#utility.yul\":30192:30272   */\n      tag_649\n        /* \"#utility.yul\":30268:30270   */\n      0x40\n        /* \"#utility.yul\":30257:30266   */\n      dup4\n        /* \"#utility.yul\":30253:30271   */\n      add\n        /* \"#utility.yul\":30244:30250   */\n      dup5\n        /* \"#utility.yul\":30192:30272   */\n      tag_333\n      jump\t// in\n    tag_649:\n        /* \"#utility.yul\":29624:30279   */\n      swap4\n      swap3\n      pop\n      pop\n      pop\n      jump\t// out\n        /* \"#utility.yul\":30285:30449   */\n    tag_336:\n        /* \"#utility.yul\":30425:30441   */\n      0x4641524d45525f43524541544544000000000000000000000000000000000000\n        /* \"#utility.yul\":30421:30422   */\n      0x00\n        /* \"#utility.yul\":30413:30419   */\n      dup3\n        /* \"#utility.yul\":30409:30423   */\n      add\n        /* \"#utility.yul\":30402:30442   */\n      mstore\n        /* \"#utility.yul\":30285:30449   */\n      pop\n      jump\t// out\n        /* \"#utility.yul\":30455:30821   */\n    tag_337:\n        /* \"#utility.yul\":30597:30600   */\n      0x00\n        /* \"#utility.yul\":30618:30685   */\n      tag_652\n        /* \"#utility.yul\":30682:30684   */\n      0x0e\n        /* \"#utility.yul\":30677:30680   */\n      dup4\n        /* \"#utility.yul\":30618:30685   */\n      tag_305\n      jump\t// in\n    tag_652:\n        /* \"#utility.yul\":30611:30685   */\n      swap2\n      pop\n        /* \"#utility.yul\":30694:30787   */\n      tag_653\n        /* \"#utility.yul\":30783:30786   */\n      dup3\n        /* \"#utility.yul\":30694:30787   */\n      tag_336\n      jump\t// in\n    tag_653:\n        /* \"#utility.yul\":30812:30814   */\n      0x20\n        /* \"#utility.yul\":30807:30810   */\n      dup3\n        /* \"#utility.yul\":30803:30815   */\n      add\n        /* \"#utility.yul\":30796:30815   */\n      swap1\n      pop\n        /* \"#utility.yul\":30455:30821   */\n      swap2\n      swap1\n      pop\n      jump\t// out\n        /* \"#utility.yul\":30827:31482   */\n    tag_234:\n        /* \"#utility.yul\":31057:31061   */\n      0x00\n        /* \"#utility.yul\":31095:31097   */\n      0x60\n        /* \"#utility.yul\":31084:31093   */\n      dup3\n        /* \"#utility.yul\":31080:31098   */\n      add\n        /* \"#utility.yul\":31072:31098   */\n      swap1\n      pop\n        /* \"#utility.yul\":31108:31179   */\n      tag_655\n        /* \"#utility.yul\":31176:31177   */\n      0x00\n        /* \"#utility.yul\":31165:31174   */\n      dup4\n        /* \"#utility.yul\":31161:31178   */\n      add\n        /* \"#utility.yul\":31152:31158   */\n      dup6\n        /* \"#utility.yul\":31108:31179   */\n      tag_330\n      jump\t// in\n    tag_655:\n        /* \"#utility.yul\":31226:31235   */\n      dup2\n        /* \"#utility.yul\":31220:31224   */\n      dup2\n        /* \"#utility.yul\":31216:31236   */\n      sub\n        /* \"#utility.yul\":31211:31213   */\n      0x20\n        /* \"#utility.yul\":31200:31209   */\n      dup4\n        /* \"#utility.yul\":31196:31214   */\n      add\n        /* \"#utility.yul\":31189:31237   */\n      mstore\n        /* \"#utility.yul\":31254:31385   */\n      tag_656\n        /* \"#utility.yul\":31380:31384   */\n      dup2\n        /* \"#utility.yul\":31254:31385   */\n      tag_337\n      jump\t// in\n    tag_656:\n        /* \"#utility.yul\":31246:31385   */\n      swap1\n      pop\n        /* \"#utility.yul\":31395:31475   */\n      tag_657\n        /* \"#utility.yul\":31471:31473   */\n      0x40\n        /* \"#utility.yul\":31460:31469   */\n      dup4\n        /* \"#utility.yul\":31456:31474   */\n      add\n        /* \"#utility.yul\":31447:31453   */\n      dup5\n        /* \"#utility.yul\":31395:31475   */\n      tag_333\n      jump\t// in\n    tag_657:\n        /* \"#utility.yul\":30827:31482   */\n      swap4\n      swap3\n      pop\n      pop\n      pop\n      jump\t// out\n        /* \"#utility.yul\":31488:31712   */\n    tag_338:\n        /* \"#utility.yul\":31628:31662   */\n      0x4465706f73697420616d6f756e74206d75737420626520677265617465722074\n        /* \"#utility.yul\":31624:31625   */\n      0x00\n        /* \"#utility.yul\":31616:31622   */\n      dup3\n        /* \"#utility.yul\":31612:31626   */\n      add\n        /* \"#utility.yul\":31605:31663   */\n      mstore\n        /* \"#utility.yul\":31697:31704   */\n      0x68616e2030000000000000000000000000000000000000000000000000000000\n        /* \"#utility.yul\":31692:31694   */\n      0x20\n        /* \"#utility.yul\":31684:31690   */\n      dup3\n        /* \"#utility.yul\":31680:31695   */\n      add\n        /* \"#utility.yul\":31673:31705   */\n      mstore\n        /* \"#utility.yul\":31488:31712   */\n      pop\n      jump\t// out\n        /* \"#utility.yul\":31718:32084   */\n    tag_339:\n        /* \"#utility.yul\":31860:31863   */\n      0x00\n        /* \"#utility.yul\":31881:31948   */\n      tag_660\n        /* \"#utility.yul\":31945:31947   */\n      0x25\n        /* \"#utility.yul\":31940:31943   */\n      dup4\n        /* \"#utility.yul\":31881:31948   */\n      tag_305\n      jump\t// in\n    tag_660:\n        /* \"#utility.yul\":31874:31948   */\n      swap2\n      pop\n        /* \"#utility.yul\":31957:32050   */\n      tag_661\n        /* \"#utility.yul\":32046:32049   */\n      dup3\n        /* \"#utility.yul\":31957:32050   */\n      tag_338\n      jump\t// in\n    tag_661:\n        /* \"#utility.yul\":32075:32077   */\n      0x40\n        /* \"#utility.yul\":32070:32073   */\n      dup3\n        /* \"#utility.yul\":32066:32078   */\n      add\n        /* \"#utility.yul\":32059:32078   */\n      swap1\n      pop\n        /* \"#utility.yul\":31718:32084   */\n      swap2\n      swap1\n      pop\n      jump\t// out\n        /* \"#utility.yul\":32090:32509   */\n    tag_238:\n        /* \"#utility.yul\":32256:32260   */\n      0x00\n        /* \"#utility.yul\":32294:32296   */\n      0x20\n        /* \"#utility.yul\":32283:32292   */\n      dup3\n        /* \"#utility.yul\":32279:32297   */\n      add\n        /* \"#utility.yul\":32271:32297   */\n      swap1\n      pop\n        /* \"#utility.yul\":32343:32352   */\n      dup2\n        /* \"#utility.yul\":32337:32341   */\n      dup2\n        /* \"#utility.yul\":32333:32353   */\n      sub\n        /* \"#utility.yul\":32329:32330   */\n      0x00\n        /* \"#utility.yul\":32318:32327   */\n      dup4\n        /* \"#utility.yul\":32314:32331   */\n      add\n        /* \"#utility.yul\":32307:32354   */\n      mstore\n        /* \"#utility.yul\":32371:32502   */\n      tag_663\n        /* \"#utility.yul\":32497:32501   */\n      dup2\n        /* \"#utility.yul\":32371:32502   */\n      tag_339\n      jump\t// in\n    tag_663:\n        /* \"#utility.yul\":32363:32502   */\n      swap1\n      pop\n        /* \"#utility.yul\":32090:32509   */\n      swap2\n      swap1\n      pop\n      jump\t// out\n        /* \"#utility.yul\":32515:32739   */\n    tag_340:\n        /* \"#utility.yul\":32655:32689   */\n      0x436f6e7472616374206973206e6f7420696e2074686520435245415445442073\n        /* \"#utility.yul\":32651:32652   */\n      0x00\n        /* \"#utility.yul\":32643:32649   */\n      dup3\n        /* \"#utility.yul\":32639:32653   */\n      add\n        /* \"#utility.yul\":32632:32690   */\n      mstore\n        /* \"#utility.yul\":32724:32731   */\n      0x7461747573000000000000000000000000000000000000000000000000000000\n        /* \"#utility.yul\":32719:32721   */\n      0x20\n        /* \"#utility.yul\":32711:32717   */\n      dup3\n        /* \"#utility.yul\":32707:32722   */\n      add\n        /* \"#utility.yul\":32700:32732   */\n      mstore\n        /* \"#utility.yul\":32515:32739   */\n      pop\n      jump\t// out\n        /* \"#utility.yul\":32745:33111   */\n    tag_341:\n        /* \"#utility.yul\":32887:32890   */\n      0x00\n        /* \"#utility.yul\":32908:32975   */\n      tag_666\n        /* \"#utility.yul\":32972:32974   */\n      0x25\n        /* \"#utility.yul\":32967:32970   */\n      dup4\n        /* \"#utility.yul\":32908:32975   */\n      tag_305\n      jump\t// in\n    tag_666:\n        /* \"#utility.yul\":32901:32975   */\n      swap2\n      pop\n        /* \"#utility.yul\":32984:33077   */\n      tag_667\n        /* \"#utility.yul\":33073:33076   */\n      dup3\n        /* \"#utility.yul\":32984:33077   */\n      tag_340\n      jump\t// in\n    tag_667:\n        /* \"#utility.yul\":33102:33104   */\n      0x40\n        /* \"#utility.yul\":33097:33100   */\n      dup3\n        /* \"#utility.yul\":33093:33105   */\n      add\n        /* \"#utility.yul\":33086:33105   */\n      swap1\n      pop\n        /* \"#utility.yul\":32745:33111   */\n      swap2\n      swap1\n      pop\n      jump\t// out\n        /* \"#utility.yul\":33117:33536   */\n    tag_245:\n        /* \"#utility.yul\":33283:33287   */\n      0x00\n        /* \"#utility.yul\":33321:33323   */\n      0x20\n        /* \"#utility.yul\":33310:33319   */\n      dup3\n        /* \"#utility.yul\":33306:33324   */\n      add\n        /* \"#utility.yul\":33298:33324   */\n      swap1\n      pop\n        /* \"#utility.yul\":33370:33379   */\n      dup2\n        /* \"#utility.yul\":33364:33368   */\n      dup2\n        /* \"#utility.yul\":33360:33380   */\n      sub\n        /* \"#utility.yul\":33356:33357   */\n      0x00\n        /* \"#utility.yul\":33345:33354   */\n      dup4\n        /* \"#utility.yul\":33341:33358   */\n      add\n        /* \"#utility.yul\":33334:33381   */\n      mstore\n        /* \"#utility.yul\":33398:33529   */\n      tag_669\n        /* \"#utility.yul\":33524:33528   */\n      dup2\n        /* \"#utility.yul\":33398:33529   */\n      tag_341\n      jump\t// in\n    tag_669:\n        /* \"#utility.yul\":33390:33529   */\n      swap1\n      pop\n        /* \"#utility.yul\":33117:33536   */\n      swap2\n      swap1\n      pop\n      jump\t// out\n        /* \"#utility.yul\":33542:33722   */\n    tag_342:\n        /* \"#utility.yul\":33590:33667   */\n      0x4e487b7100000000000000000000000000000000000000000000000000000000\n        /* \"#utility.yul\":33587:33588   */\n      0x00\n        /* \"#utility.yul\":33580:33668   */\n      mstore\n        /* \"#utility.yul\":33687:33691   */\n      0x11\n        /* \"#utility.yul\":33684:33685   */\n      0x04\n        /* \"#utility.yul\":33677:33692   */\n      mstore\n        /* \"#utility.yul\":33711:33715   */\n      0x24\n        /* \"#utility.yul\":33708:33709   */\n      0x00\n        /* \"#utility.yul\":33701:33716   */\n      revert\n        /* \"#utility.yul\":33728:33919   */\n    tag_249:\n        /* \"#utility.yul\":33768:33771   */\n      0x00\n        /* \"#utility.yul\":33787:33807   */\n      tag_672\n        /* \"#utility.yul\":33805:33806   */\n      dup3\n        /* \"#utility.yul\":33787:33807   */\n      tag_261\n      jump\t// in\n    tag_672:\n        /* \"#utility.yul\":33782:33807   */\n      swap2\n      pop\n        /* \"#utility.yul\":33821:33841   */\n      tag_673\n        /* \"#utility.yul\":33839:33840   */\n      dup4\n        /* \"#utility.yul\":33821:33841   */\n      tag_261\n      jump\t// in\n    tag_673:\n        /* \"#utility.yul\":33816:33841   */\n      swap3\n      pop\n        /* \"#utility.yul\":33864:33865   */\n      dup3\n        /* \"#utility.yul\":33861:33862   */\n      dup3\n        /* \"#utility.yul\":33857:33866   */\n      add\n        /* \"#utility.yul\":33850:33866   */\n      swap1\n      pop\n        /* \"#utility.yul\":33885:33888   */\n      dup1\n        /* \"#utility.yul\":33882:33883   */\n      dup3\n        /* \"#utility.yul\":33879:33889   */\n      gt\n        /* \"#utility.yul\":33876:33912   */\n      iszero\n      tag_674\n      jumpi\n        /* \"#utility.yul\":33892:33910   */\n      tag_675\n      tag_342\n      jump\t// in\n    tag_675:\n        /* \"#utility.yul\":33876:33912   */\n    tag_674:\n        /* \"#utility.yul\":33728:33919   */\n      swap3\n      swap2\n      pop\n      pop\n      jump\t// out\n        /* \"#utility.yul\":33925:34092   */\n    tag_343:\n        /* \"#utility.yul\":34065:34084   */\n      0x434f4e54524143545f4143434550544544000000000000000000000000000000\n        /* \"#utility.yul\":34061:34062   */\n      0x00\n        /* \"#utility.yul\":34053:34059   */\n      dup3\n        /* \"#utility.yul\":34049:34063   */\n      add\n        /* \"#utility.yul\":34042:34085   */\n      mstore\n        /* \"#utility.yul\":33925:34092   */\n      pop\n      jump\t// out\n        /* \"#utility.yul\":34098:34464   */\n    tag_344:\n        /* \"#utility.yul\":34240:34243   */\n      0x00\n        /* \"#utility.yul\":34261:34328   */\n      tag_678\n        /* \"#utility.yul\":34325:34327   */\n      0x11\n        /* \"#utility.yul\":34320:34323   */\n      dup4\n        /* \"#utility.yul\":34261:34328   */\n      tag_305\n      jump\t// in\n    tag_678:\n        /* \"#utility.yul\":34254:34328   */\n      swap2\n      pop\n        /* \"#utility.yul\":34337:34430   */\n      tag_679\n        /* \"#utility.yul\":34426:34429   */\n      dup3\n        /* \"#utility.yul\":34337:34430   */\n      tag_343\n      jump\t// in\n    tag_679:\n        /* \"#utility.yul\":34455:34457   */\n      0x20\n        /* \"#utility.yul\":34450:34453   */\n      dup3\n        /* \"#utility.yul\":34446:34458   */\n      add\n        /* \"#utility.yul\":34439:34458   */\n      swap1\n      pop\n        /* \"#utility.yul\":34098:34464   */\n      swap2\n      swap1\n      pop\n      jump\t// out\n        /* \"#utility.yul\":34470:35125   */\n    tag_251:\n        /* \"#utility.yul\":34700:34704   */\n      0x00\n        /* \"#utility.yul\":34738:34740   */\n      0x60\n        /* \"#utility.yul\":34727:34736   */\n      dup3\n        /* \"#utility.yul\":34723:34741   */\n      add\n        /* \"#utility.yul\":34715:34741   */\n      swap1\n      pop\n        /* \"#utility.yul\":34751:34822   */\n      tag_681\n        /* \"#utility.yul\":34819:34820   */\n      0x00\n        /* \"#utility.yul\":34808:34817   */\n      dup4\n        /* \"#utility.yul\":34804:34821   */\n      add\n        /* \"#utility.yul\":34795:34801   */\n      dup6\n        /* \"#utility.yul\":34751:34822   */\n      tag_330\n      jump\t// in\n    tag_681:\n        /* \"#utility.yul\":34869:34878   */\n      dup2\n        /* \"#utility.yul\":34863:34867   */\n      dup2\n        /* \"#utility.yul\":34859:34879   */\n      sub\n        /* \"#utility.yul\":34854:34856   */\n      0x20\n        /* \"#utility.yul\":34843:34852   */\n      dup4\n        /* \"#utility.yul\":34839:34857   */\n      add\n        /* \"#utility.yul\":34832:34880   */\n      mstore\n        /* \"#utility.yul\":34897:35028   */\n      tag_682\n        /* \"#utility.yul\":35023:35027   */\n      dup2\n        /* \"#utility.yul\":34897:35028   */\n      tag_344\n      jump\t// in\n    tag_682:\n        /* \"#utility.yul\":34889:35028   */\n      swap1\n      pop\n        /* \"#utility.yul\":35038:35118   */\n      tag_683\n        /* \"#utility.yul\":35114:35116   */\n      0x40\n        /* \"#utility.yul\":35103:35112   */\n      dup4\n        /* \"#utility.yul\":35099:35117   */\n      add\n        /* \"#utility.yul\":35090:35096   */\n      dup5\n        /* \"#utility.yul\":35038:35118   */\n      tag_333\n      jump\t// in\n    tag_683:\n        /* \"#utility.yul\":34470:35125   */\n      swap4\n      swap3\n      pop\n      pop\n      pop\n      jump\t// out\n\n    auxdata: 0xa26469706673582212208f797855800595f375bdc5afed7a2dd91fa3cdafa20d8a22319c7e051bc9809a64736f6c63430008180033\n}\n",
				"bytecode": {
					"linkReferences": {},
					"object": "60806040525f6007555f6008555f60095534801561001b575f80fd5b5060015f819055503360015f6101000a81548173ffffffffffffffffffffffffffffffffffffffff021916908373ffffffffffffffffffffffffffffffffffffffff1602179055505f6004819055505f600681905550612a808061007e5f395ff3fe608060405260043610610108575f3560e01c80637150d8ae11610094578063c81bde1511610063578063c81bde1514610360578063c86d9da21461038a578063d811fcf0146103b4578063e96a155c146103de578063f3cdc81e1461040657610108565b80637150d8ae146102a65780637dd56411146102d0578063a09037a91461030c578063b86b1fbe1461033657610108565b80633a178d99116100db5780633a178d99146101c257806342c6e7fd146101fe5780634e47368b1461022857806350f18cb714610252578063618f0ea71461027c57610108565b8063039858e41461010c57806309bfcd731461014857806318d3ce96146101705780632107e9e11461019a575b5f80fd5b348015610117575f80fd5b50610132600480360381019061012d9190611982565b610422565b60405161013f91906119da565b60405180910390f35b348015610153575f80fd5b5061016e60048036038101906101699190611b2f565b61044c565b005b34801561017b575f80fd5b5061018461094d565b6040516101919190611f16565b60405180910390f35b3480156101a5575f80fd5b506101c060048036038101906101bb9190611f36565b610d8c565b005b3480156101cd575f80fd5b506101e860048036038101906101e3919061201d565b610f84565b6040516101f5919061208e565b60405180910390f35b348015610209575f80fd5b50610212610fa1565b60405161021f91906120b6565b60405180910390f35b348015610233575f80fd5b5061023c610fa7565b60405161024991906120b6565b60405180910390f35b34801561025d575f80fd5b50610266610fad565b60405161027391906120b6565b60405180910390f35b348015610287575f80fd5b50610290610fb3565b60405161029d91906120ef565b60405180910390f35b3480156102b1575f80fd5b506102ba610fd8565b6040516102c791906120ef565b60405180910390f35b3480156102db575f80fd5b506102f660048036038101906102f19190612132565b610ffd565b604051610303919061216c565b60405180910390f35b348015610317575f80fd5b5061032061102d565b60405161032d91906120b6565b60405180910390f35b348015610341575f80fd5b5061034a611033565b60405161035791906120b6565b60405180910390f35b34801561036b575f80fd5b50610374611039565b6040516103819190611f16565b60405180910390f35b348015610395575f80fd5b5061039e61142e565b6040516103ab91906120b6565b60405180910390f35b3480156103bf575f80fd5b506103c8611434565b6040516103d591906120ef565b60405180910390f35b3480156103e9575f80fd5b5061040460048036038101906103ff9190612185565b611459565b005b610420600480360381019061041b9190612132565b61165e565b005b600e602052815f5260405f20602052805f5260405f205f915091509054906101000a900460ff1681565b5f865111801561045b57505f85115b801561046757505f8451115b801561047357505f8351115b801561047e57505f82115b801561048a57505f8151115b6104c9576040517f08c379a00000000000000000000000000000000000000000000000000000000081526004016104c0906122e2565b60405180910390fd5b5f33426040516020016104dd929190612365565b6040516020818303038152906040528051906020012090505f6040518061016001604052808381526020018981526020018881526020018781526020018681526020018581526020018481526020013373ffffffffffffffffffffffffffffffffffffffff1681526020015f73ffffffffffffffffffffffffffffffffffffffff1681526020015f600781111561057757610576611d01565b5b81526020015f1515815250905080600c5f8481526020019081526020015f205f820151815f015560208201518160010190816105b3919061258a565b506040820151816002015560608201518160030190816105d3919061258a565b5060808201518160040190816105e9919061258a565b5060a0820151816005015560c0820151816006019081610609919061258a565b5060e0820151816007015f6101000a81548173ffffffffffffffffffffffffffffffffffffffff021916908373ffffffffffffffffffffffffffffffffffffffff160217905550610100820151816008015f6101000a81548173ffffffffffffffffffffffffffffffffffffffff021916908373ffffffffffffffffffffffffffffffffffffffff1602179055506101208201518160080160146101000a81548160ff021916908360078111156106c3576106c2611d01565b5b02179055506101408201518160080160156101000a81548160ff021916908315150217905550905050600d5f3373ffffffffffffffffffffffffffffffffffffffff1673ffffffffffffffffffffffffffffffffffffffff1681526020019081526020015f2081908060018154018082558091505060019003905f5260205f2090600902015f909190919091505f820151815f0155602082015181600101908161076d919061258a565b5060408201518160020155606082015181600301908161078d919061258a565b5060808201518160040190816107a3919061258a565b5060a0820151816005015560c08201518160060190816107c3919061258a565b5060e0820151816007015f6101000a81548173ffffffffffffffffffffffffffffffffffffffff021916908373ffffffffffffffffffffffffffffffffffffffff160217905550610100820151816008015f6101000a81548173ffffffffffffffffffffffffffffffffffffffff021916908373ffffffffffffffffffffffffffffffffffffffff1602179055506101208201518160080160146101000a81548160ff0219169083600781111561087d5761087c611d01565b5b02179055506101408201518160080160156101000a81548160ff021916908315150217905550505033600f5f8481526020019081526020015f205f6101000a81548173ffffffffffffffffffffffffffffffffffffffff021916908373ffffffffffffffffffffffffffffffffffffffff1602179055503373ffffffffffffffffffffffffffffffffffffffff167ed28c9cc43c9abfc1a8676edaee9931daa84190c43f35d1fb6e3a48afa4bca3835f60405161093b9291906126c1565b60405180910390a25050505050505050565b60605f60075467ffffffffffffffff81111561096c5761096b611a0b565b5b6040519080825280602002602001820160405280156109a557816020015b61099261184e565b81526020019060019003908161098a5790505b5090505f5b600754811015610d84575f816040516020016109c691906126fb565b604051602081830303815290604052805190602001209050600c5f8281526020019081526020015f20604051806101600160405290815f8201548152602001600182018054610a14906123bd565b80601f0160208091040260200160405190810160405280929190818152602001828054610a40906123bd565b8015610a8b5780601f10610a6257610100808354040283529160200191610a8b565b820191905f5260205f20905b815481529060010190602001808311610a6e57829003601f168201915b5050505050815260200160028201548152602001600382018054610aae906123bd565b80601f0160208091040260200160405190810160405280929190818152602001828054610ada906123bd565b8015610b255780601f10610afc57610100808354040283529160200191610b25565b820191905f5260205f20905b815481529060010190602001808311610b0857829003601f168201915b50505050508152602001600482018054610b3e906123bd565b80601f0160208091040260200160405190810160405280929190818152602001828054610b6a906123bd565b8015610bb55780601f10610b8c57610100808354040283529160200191610bb5565b820191905f5260205f20905b815481529060010190602001808311610b9857829003601f168201915b5050505050815260200160058201548152602001600682018054610bd8906123bd565b80601f0160208091040260200160405190810160405280929190818152602001828054610c04906123bd565b8015610c4f5780601f10610c2657610100808354040283529160200191610c4f565b820191905f5260205f20905b815481529060010190602001808311610c3257829003601f168201915b50505050508152602001600782015f9054906101000a900473ffffffffffffffffffffffffffffffffffffffff1673ffffffffffffffffffffffffffffffffffffffff1673ffffffffffffffffffffffffffffffffffffffff168152602001600882015f9054906101000a900473ffffffffffffffffffffffffffffffffffffffff1673ffffffffffffffffffffffffffffffffffffffff1673ffffffffffffffffffffffffffffffffffffffff1681526020016008820160149054906101000a900460ff166007811115610d2757610d26611d01565b5b6007811115610d3957610d38611d01565b5b81526020016008820160159054906101000a900460ff161515151581525050838381518110610d6b57610d6a612715565b5b60200260200101819052505080806001019150506109aa565b508091505090565b5f8551118015610d9b57505f84115b8015610da757505f8251115b8015610db357505f8151115b610df2576040517f08c379a0000000000000000000000000000000000000000000000000000000008152600401610de9906122e2565b60405180910390fd5b5f3342604051602001610e06929190612365565b6040516020818303038152906040528051906020012090505f6040518060e0016040528083815260200188815260200187815260200186815260200185815260200184815260200142815250905080600a5f8481526020019081526020015f205f820151815f01556020820151816001019081610e83919061258a565b50604082015181600201556060820151816003019081610ea3919061258a565b506080820151816004019081610eb9919061258a565b5060a0820151816005019081610ecf919061258a565b5060c0820151816006015590505033600f5f8481526020019081526020015f205f6101000a81548173ffffffffffffffffffffffffffffffffffffffff021916908373ffffffffffffffffffffffffffffffffffffffff1602179055503373ffffffffffffffffffffffffffffffffffffffff167ed28c9cc43c9abfc1a8676edaee9931daa84190c43f35d1fb6e3a48afa4bca3835f604051610f7392919061278c565b60405180910390a250505050505050565b6010602052805f5260405f205f915054906101000a900460ff1681565b60085481565b60055481565b60065481565b60015f9054906101000a900473ffffffffffffffffffffffffffffffffffffffff1681565b60025f9054906101000a900473ffffffffffffffffffffffffffffffffffffffff1681565b600f602052805f5260405f205f915054906101000a900473ffffffffffffffffffffffffffffffffffffffff1681565b60075481565b60095481565b6060600d5f3373ffffffffffffffffffffffffffffffffffffffff1673ffffffffffffffffffffffffffffffffffffffff1681526020019081526020015f20805480602002602001604051908101604052809291908181526020015f905b82821015611425578382905f5260205f209060090201604051806101600160405290815f82015481526020016001820180546110d2906123bd565b80601f01602080910402602001604051908101604052809291908181526020018280546110fe906123bd565b80156111495780601f1061112057610100808354040283529160200191611149565b820191905f5260205f20905b81548152906001019060200180831161112c57829003601f168201915b505050505081526020016002820154815260200160038201805461116c906123bd565b80601f0160208091040260200160405190810160405280929190818152602001828054611198906123bd565b80156111e35780601f106111ba576101008083540402835291602001916111e3565b820191905f5260205f20905b8154815290600101906020018083116111c657829003601f168201915b505050505081526020016004820180546111fc906123bd565b80601f0160208091040260200160405190810160405280929190818152602001828054611228906123bd565b80156112735780601f1061124a57610100808354040283529160200191611273565b820191905f5260205f20905b81548152906001019060200180831161125657829003601f168201915b5050505050815260200160058201548152602001600682018054611296906123bd565b80601f01602080910402602001604051908101604052809291908181526020018280546112c2906123bd565b801561130d5780601f106112e45761010080835404028352916020019161130d565b820191905f5260205f20905b8154815290600101906020018083116112f057829003601f168201915b50505050508152602001600782015f9054906101000a900473ffffffffffffffffffffffffffffffffffffffff1673ffffffffffffffffffffffffffffffffffffffff1673ffffffffffffffffffffffffffffffffffffffff168152602001600882015f9054906101000a900473ffffffffffffffffffffffffffffffffffffffff1673ffffffffffffffffffffffffffffffffffffffff1673ffffffffffffffffffffffffffffffffffffffff1681526020016008820160149054906101000a900460ff1660078111156113e5576113e4611d01565b5b60078111156113f7576113f6611d01565b5b81526020016008820160159054906101000a900460ff16151515158152505081526020019060010190611097565b50505050905090565b60045481565b60035f9054906101000a900473ffffffffffffffffffffffffffffffffffffffff1681565b5f855111801561146957505f8351115b801561147557505f8251115b801561148157505f8151115b6114c0576040517f08c379a00000000000000000000000000000000000000000000000000000000081526004016114b7906122e2565b60405180910390fd5b5f33426040516020016114d4929190612365565b6040516020818303038152906040528051906020012090505f6040518060e0016040528083815260200188815260200187815260200186815260200185815260200184815260200142815250905080600b5f8481526020019081526020015f205f820151815f01556020820151816001019081611551919061258a565b506040820151816002019081611567919061258a565b50606082015181600301908161157d919061258a565b506080820151816004019081611593919061258a565b5060a08201518160050190816115a9919061258a565b5060c0820151816006015590505033600f5f8481526020019081526020015f205f6101000a81548173ffffffffffffffffffffffffffffffffffffffff021916908373ffffffffffffffffffffffffffffffffffffffff1602179055503373ffffffffffffffffffffffffffffffffffffffff167ed28c9cc43c9abfc1a8676edaee9931daa84190c43f35d1fb6e3a48afa4bca3835f60405161164d929190612810565b60405180910390a250505050505050565b5f34116116a0576040517f08c379a0000000000000000000000000000000000000000000000000000000008152600401611697906128ba565b60405180910390fd5b5f60078111156116b3576116b2611d01565b5b600c5f8381526020019081526020015f2060080160149054906101000a900460ff1660078111156116e7576116e6611d01565b5b14611727576040517f08c379a000000000000000000000000000000000000000000000000000000000815260040161171e90612948565b60405180910390fd5b6001600c5f8381526020019081526020015f2060080160146101000a81548160ff0219169083600781111561175f5761175e611d01565b5b02179055506001600c5f8381526020019081526020015f2060080160156101000a81548160ff02191690831515021790555033600c5f8381526020019081526020015f206008015f6101000a81548173ffffffffffffffffffffffffffffffffffffffff021916908373ffffffffffffffffffffffffffffffffffffffff1602179055503460045f8282546117f49190612993565b925050819055503373ffffffffffffffffffffffffffffffffffffffff167ed28c9cc43c9abfc1a8676edaee9931daa84190c43f35d1fb6e3a48afa4bca3826001604051611843929190612a10565b60405180910390a250565b6040518061016001604052805f8019168152602001606081526020015f815260200160608152602001606081526020015f8152602001606081526020015f73ffffffffffffffffffffffffffffffffffffffff1681526020015f73ffffffffffffffffffffffffffffffffffffffff1681526020015f60078111156118d6576118d5611d01565b5b81526020015f151581525090565b5f604051905090565b5f80fd5b5f80fd5b5f73ffffffffffffffffffffffffffffffffffffffff82169050919050565b5f61191e826118f5565b9050919050565b61192e81611914565b8114611938575f80fd5b50565b5f8135905061194981611925565b92915050565b5f819050919050565b6119618161194f565b811461196b575f80fd5b50565b5f8135905061197c81611958565b92915050565b5f8060408385031215611998576119976118ed565b5b5f6119a58582860161193b565b92505060206119b68582860161196e565b9150509250929050565b5f8115159050919050565b6119d4816119c0565b82525050565b5f6020820190506119ed5f8301846119cb565b92915050565b5f80fd5b5f80fd5b5f601f19601f8301169050919050565b7f4e487b71000000000000000000000000000000000000000000000000000000005f52604160045260245ffd5b611a41826119fb565b810181811067ffffffffffffffff82111715611a6057611a5f611a0b565b5b80604052505050565b5f611a726118e4565b9050611a7e8282611a38565b919050565b5f67ffffffffffffffff821115611a9d57611a9c611a0b565b5b611aa6826119fb565b9050602081019050919050565b828183375f83830152505050565b5f611ad3611ace84611a83565b611a69565b905082815260208101848484011115611aef57611aee6119f7565b5b611afa848285611ab3565b509392505050565b5f82601f830112611b1657611b156119f3565b5b8135611b26848260208601611ac1565b91505092915050565b5f805f805f8060c08789031215611b4957611b486118ed565b5b5f87013567ffffffffffffffff811115611b6657611b656118f1565b5b611b7289828a01611b02565b9650506020611b8389828a0161196e565b955050604087013567ffffffffffffffff811115611ba457611ba36118f1565b5b611bb089828a01611b02565b945050606087013567ffffffffffffffff811115611bd157611bd06118f1565b5b611bdd89828a01611b02565b9350506080611bee89828a0161196e565b92505060a087013567ffffffffffffffff811115611c0f57611c0e6118f1565b5b611c1b89828a01611b02565b9150509295509295509295565b5f81519050919050565b5f82825260208201905092915050565b5f819050602082019050919050565b5f819050919050565b611c6381611c51565b82525050565b5f81519050919050565b5f82825260208201905092915050565b5f5b83811015611ca0578082015181840152602081019050611c85565b5f8484015250505050565b5f611cb582611c69565b611cbf8185611c73565b9350611ccf818560208601611c83565b611cd8816119fb565b840191505092915050565b611cec8161194f565b82525050565b611cfb81611914565b82525050565b7f4e487b71000000000000000000000000000000000000000000000000000000005f52602160045260245ffd5b60088110611d3f57611d3e611d01565b5b50565b5f819050611d4f82611d2e565b919050565b5f611d5e82611d42565b9050919050565b611d6e81611d54565b82525050565b611d7d816119c0565b82525050565b5f61016083015f830151611d995f860182611c5a565b5060208301518482036020860152611db18282611cab565b9150506040830151611dc66040860182611ce3565b5060608301518482036060860152611dde8282611cab565b91505060808301518482036080860152611df88282611cab565b91505060a0830151611e0d60a0860182611ce3565b5060c083015184820360c0860152611e258282611cab565b91505060e0830151611e3a60e0860182611cf2565b50610100830151611e4f610100860182611cf2565b50610120830151611e64610120860182611d65565b50610140830151611e79610140860182611d74565b508091505092915050565b5f611e8f8383611d83565b905092915050565b5f602082019050919050565b5f611ead82611c28565b611eb78185611c32565b935083602082028501611ec985611c42565b805f5b85811015611f045784840389528151611ee58582611e84565b9450611ef083611e97565b925060208a01995050600181019050611ecc565b50829750879550505050505092915050565b5f6020820190508181035f830152611f2e8184611ea3565b905092915050565b5f805f805f60a08688031215611f4f57611f4e6118ed565b5b5f86013567ffffffffffffffff811115611f6c57611f6b6118f1565b5b611f7888828901611b02565b9550506020611f898882890161196e565b945050604086013567ffffffffffffffff811115611faa57611fa96118f1565b5b611fb688828901611b02565b935050606086013567ffffffffffffffff811115611fd757611fd66118f1565b5b611fe388828901611b02565b925050608086013567ffffffffffffffff811115612004576120036118f1565b5b61201088828901611b02565b9150509295509295909350565b5f60208284031215612032576120316118ed565b5b5f61203f8482850161196e565b91505092915050565b6002811061205957612058611d01565b5b50565b5f81905061206982612048565b919050565b5f6120788261205c565b9050919050565b6120888161206e565b82525050565b5f6020820190506120a15f83018461207f565b92915050565b6120b08161194f565b82525050565b5f6020820190506120c95f8301846120a7565b92915050565b5f6120d9826118f5565b9050919050565b6120e9816120cf565b82525050565b5f6020820190506121025f8301846120e0565b92915050565b61211181611c51565b811461211b575f80fd5b50565b5f8135905061212c81612108565b92915050565b5f60208284031215612147576121466118ed565b5b5f6121548482850161211e565b91505092915050565b61216681611914565b82525050565b5f60208201905061217f5f83018461215d565b92915050565b5f805f805f60a0868803121561219e5761219d6118ed565b5b5f86013567ffffffffffffffff8111156121bb576121ba6118f1565b5b6121c788828901611b02565b955050602086013567ffffffffffffffff8111156121e8576121e76118f1565b5b6121f488828901611b02565b945050604086013567ffffffffffffffff811115612215576122146118f1565b5b61222188828901611b02565b935050606086013567ffffffffffffffff811115612242576122416118f1565b5b61224e88828901611b02565b925050608086013567ffffffffffffffff81111561226f5761226e6118f1565b5b61227b88828901611b02565b9150509295509295909350565b5f82825260208201905092915050565b7f496e76616c696420696e707574000000000000000000000000000000000000005f82015250565b5f6122cc600d83612288565b91506122d782612298565b602082019050919050565b5f6020820190508181035f8301526122f9816122c0565b9050919050565b5f8160601b9050919050565b5f61231682612300565b9050919050565b5f6123278261230c565b9050919050565b61233f61233a82611914565b61231d565b82525050565b5f819050919050565b61235f61235a8261194f565b612345565b82525050565b5f612370828561232e565b601482019150612380828461234e565b6020820191508190509392505050565b7f4e487b71000000000000000000000000000000000000000000000000000000005f52602260045260245ffd5b5f60028204905060018216806123d457607f821691505b6020821081036123e7576123e6612390565b5b50919050565b5f819050815f5260205f209050919050565b5f6020601f8301049050919050565b5f82821b905092915050565b5f600883026124497fffffffffffffffffffffffffffffffffffffffffffffffffffffffffffffffff8261240e565b612453868361240e565b95508019841693508086168417925050509392505050565b5f819050919050565b5f61248e6124896124848461194f565b61246b565b61194f565b9050919050565b5f819050919050565b6124a783612474565b6124bb6124b382612495565b84845461241a565b825550505050565b5f90565b6124cf6124c3565b6124da81848461249e565b505050565b5b818110156124fd576124f25f826124c7565b6001810190506124e0565b5050565b601f82111561254257612513816123ed565b61251c846123ff565b8101602085101561252b578190505b61253f612537856123ff565b8301826124df565b50505b505050565b5f82821c905092915050565b5f6125625f1984600802612547565b1980831691505092915050565b5f61257a8383612553565b9150826002028217905092915050565b61259382611c69565b67ffffffffffffffff8111156125ac576125ab611a0b565b5b6125b682546123bd565b6125c1828285612501565b5f60209050601f8311600181146125f2575f84156125e0578287015190505b6125ea858261256f565b865550612651565b601f198416612600866123ed565b5f5b8281101561262757848901518255600182019150602085019450602081019050612602565b868310156126445784890151612640601f891682612553565b8355505b6001600288020188555050505b505050505050565b61266281611c51565b82525050565b7f434f4e54524143545f43524541544544000000000000000000000000000000005f82015250565b5f61269c601083612288565b91506126a782612668565b602082019050919050565b6126bb81611d54565b82525050565b5f6060820190506126d45f830185612659565b81810360208301526126e581612690565b90506126f460408301846126b2565b9392505050565b5f612706828461234e565b60208201915081905092915050565b7f4e487b71000000000000000000000000000000000000000000000000000000005f52603260045260245ffd5b7f42555945525f43524541544544000000000000000000000000000000000000005f82015250565b5f612776600d83612288565b915061278182612742565b602082019050919050565b5f60608201905061279f5f830185612659565b81810360208301526127b08161276a565b90506127bf60408301846126b2565b9392505050565b7f4641524d45525f435245415445440000000000000000000000000000000000005f82015250565b5f6127fa600e83612288565b9150612805826127c6565b602082019050919050565b5f6060820190506128235f830185612659565b8181036020830152612834816127ee565b905061284360408301846126b2565b9392505050565b7f4465706f73697420616d6f756e74206d757374206265206772656174657220745f8201527f68616e2030000000000000000000000000000000000000000000000000000000602082015250565b5f6128a4602583612288565b91506128af8261284a565b604082019050919050565b5f6020820190508181035f8301526128d181612898565b9050919050565b7f436f6e7472616374206973206e6f7420696e20746865204352454154454420735f8201527f7461747573000000000000000000000000000000000000000000000000000000602082015250565b5f612932602583612288565b915061293d826128d8565b604082019050919050565b5f6020820190508181035f83015261295f81612926565b9050919050565b7f4e487b71000000000000000000000000000000000000000000000000000000005f52601160045260245ffd5b5f61299d8261194f565b91506129a88361194f565b92508282019050808211156129c0576129bf612966565b5b92915050565b7f434f4e54524143545f41434345505445440000000000000000000000000000005f82015250565b5f6129fa601183612288565b9150612a05826129c6565b602082019050919050565b5f606082019050612a235f830185612659565b8181036020830152612a34816129ee565b9050612a4360408301846126b2565b939250505056fea26469706673582212208f797855800595f375bdc5afed7a2dd91fa3cdafa20d8a22319c7e051bc9809a64736f6c63430008180033",
					"opcodes": "PUSH1 0x80 PUSH1 0x40 MSTORE PUSH0 PUSH1 0x7 SSTORE PUSH0 PUSH1 0x8 SSTORE PUSH0 PUSH1 0x9 SSTORE CALLVALUE DUP1 ISZERO PUSH2 0x1B JUMPI PUSH0 DUP1 REVERT JUMPDEST POP PUSH1 0x1 PUSH0 DUP2 SWAP1 SSTORE POP CALLER PUSH1 0x1 PUSH0 PUSH2 0x100 EXP DUP2 SLOAD DUP2 PUSH20 0xFFFFFFFFFFFFFFFFFFFFFFFFFFFFFFFFFFFFFFFF MUL NOT AND SWAP1 DUP4 PUSH20 0xFFFFFFFFFFFFFFFFFFFFFFFFFFFFFFFFFFFFFFFF AND MUL OR SWAP1 SSTORE POP PUSH0 PUSH1 0x4 DUP2 SWAP1 SSTORE POP PUSH0 PUSH1 0x6 DUP2 SWAP1 SSTORE POP PUSH2 0x2A80 DUP1 PUSH2 0x7E PUSH0 CODECOPY PUSH0 RETURN INVALID PUSH1 0x80 PUSH1 0x40 MSTORE PUSH1 0x4 CALLDATASIZE LT PUSH2 0x108 JUMPI PUSH0 CALLDATALOAD PUSH1 0xE0 SHR DUP1 PUSH4 0x7150D8AE GT PUSH2 0x94 JUMPI DUP1 PUSH4 0xC81BDE15 GT PUSH2 0x63 JUMPI DUP1 PUSH4 0xC81BDE15 EQ PUSH2 0x360 JUMPI DUP1 PUSH4 0xC86D9DA2 EQ PUSH2 0x38A JUMPI DUP1 PUSH4 0xD811FCF0 EQ PUSH2 0x3B4 JUMPI DUP1 PUSH4 0xE96A155C EQ PUSH2 0x3DE JUMPI DUP1 PUSH4 0xF3CDC81E EQ PUSH2 0x406 JUMPI PUSH2 0x108 JUMP JUMPDEST DUP1 PUSH4 0x7150D8AE EQ PUSH2 0x2A6 JUMPI DUP1 PUSH4 0x7DD56411 EQ PUSH2 0x2D0 JUMPI DUP1 PUSH4 0xA09037A9 EQ PUSH2 0x30C JUMPI DUP1 PUSH4 0xB86B1FBE EQ PUSH2 0x336 JUMPI PUSH2 0x108 JUMP JUMPDEST DUP1 PUSH4 0x3A178D99 GT PUSH2 0xDB JUMPI DUP1 PUSH4 0x3A178D99 EQ PUSH2 0x1C2 JUMPI DUP1 PUSH4 0x42C6E7FD EQ PUSH2 0x1FE JUMPI DUP1 PUSH4 0x4E47368B EQ PUSH2 0x228 JUMPI DUP1 PUSH4 0x50F18CB7 EQ PUSH2 0x252 JUMPI DUP1 PUSH4 0x618F0EA7 EQ PUSH2 0x27C JUMPI PUSH2 0x108 JUMP JUMPDEST DUP1 PUSH4 0x39858E4 EQ PUSH2 0x10C JUMPI DUP1 PUSH4 0x9BFCD73 EQ PUSH2 0x148 JUMPI DUP1 PUSH4 0x18D3CE96 EQ PUSH2 0x170 JUMPI DUP1 PUSH4 0x2107E9E1 EQ PUSH2 0x19A JUMPI JUMPDEST PUSH0 DUP1 REVERT JUMPDEST CALLVALUE DUP1 ISZERO PUSH2 0x117 JUMPI PUSH0 DUP1 REVERT JUMPDEST POP PUSH2 0x132 PUSH1 0x4 DUP1 CALLDATASIZE SUB DUP2 ADD SWAP1 PUSH2 0x12D SWAP2 SWAP1 PUSH2 0x1982 JUMP JUMPDEST PUSH2 0x422 JUMP JUMPDEST PUSH1 0x40 MLOAD PUSH2 0x13F SWAP2 SWAP1 PUSH2 0x19DA JUMP JUMPDEST PUSH1 0x40 MLOAD DUP1 SWAP2 SUB SWAP1 RETURN JUMPDEST CALLVALUE DUP1 ISZERO PUSH2 0x153 JUMPI PUSH0 DUP1 REVERT JUMPDEST POP PUSH2 0x16E PUSH1 0x4 DUP1 CALLDATASIZE SUB DUP2 ADD SWAP1 PUSH2 0x169 SWAP2 SWAP1 PUSH2 0x1B2F JUMP JUMPDEST PUSH2 0x44C JUMP JUMPDEST STOP JUMPDEST CALLVALUE DUP1 ISZERO PUSH2 0x17B JUMPI PUSH0 DUP1 REVERT JUMPDEST POP PUSH2 0x184 PUSH2 0x94D JUMP JUMPDEST PUSH1 0x40 MLOAD PUSH2 0x191 SWAP2 SWAP1 PUSH2 0x1F16 JUMP JUMPDEST PUSH1 0x40 MLOAD DUP1 SWAP2 SUB SWAP1 RETURN JUMPDEST CALLVALUE DUP1 ISZERO PUSH2 0x1A5 JUMPI PUSH0 DUP1 REVERT JUMPDEST POP PUSH2 0x1C0 PUSH1 0x4 DUP1 CALLDATASIZE SUB DUP2 ADD SWAP1 PUSH2 0x1BB SWAP2 SWAP1 PUSH2 0x1F36 JUMP JUMPDEST PUSH2 0xD8C JUMP JUMPDEST STOP JUMPDEST CALLVALUE DUP1 ISZERO PUSH2 0x1CD JUMPI PUSH0 DUP1 REVERT JUMPDEST POP PUSH2 0x1E8 PUSH1 0x4 DUP1 CALLDATASIZE SUB DUP2 ADD SWAP1 PUSH2 0x1E3 SWAP2 SWAP1 PUSH2 0x201D JUMP JUMPDEST PUSH2 0xF84 JUMP JUMPDEST PUSH1 0x40 MLOAD PUSH2 0x1F5 SWAP2 SWAP1 PUSH2 0x208E JUMP JUMPDEST PUSH1 0x40 MLOAD DUP1 SWAP2 SUB SWAP1 RETURN JUMPDEST CALLVALUE DUP1 ISZERO PUSH2 0x209 JUMPI PUSH0 DUP1 REVERT JUMPDEST POP PUSH2 0x212 PUSH2 0xFA1 JUMP JUMPDEST PUSH1 0x40 MLOAD PUSH2 0x21F SWAP2 SWAP1 PUSH2 0x20B6 JUMP JUMPDEST PUSH1 0x40 MLOAD DUP1 SWAP2 SUB SWAP1 RETURN JUMPDEST CALLVALUE DUP1 ISZERO PUSH2 0x233 JUMPI PUSH0 DUP1 REVERT JUMPDEST POP PUSH2 0x23C PUSH2 0xFA7 JUMP JUMPDEST PUSH1 0x40 MLOAD PUSH2 0x249 SWAP2 SWAP1 PUSH2 0x20B6 JUMP JUMPDEST PUSH1 0x40 MLOAD DUP1 SWAP2 SUB SWAP1 RETURN JUMPDEST CALLVALUE DUP1 ISZERO PUSH2 0x25D JUMPI PUSH0 DUP1 REVERT JUMPDEST POP PUSH2 0x266 PUSH2 0xFAD JUMP JUMPDEST PUSH1 0x40 MLOAD PUSH2 0x273 SWAP2 SWAP1 PUSH2 0x20B6 JUMP JUMPDEST PUSH1 0x40 MLOAD DUP1 SWAP2 SUB SWAP1 RETURN JUMPDEST CALLVALUE DUP1 ISZERO PUSH2 0x287 JUMPI PUSH0 DUP1 REVERT JUMPDEST POP PUSH2 0x290 PUSH2 0xFB3 JUMP JUMPDEST PUSH1 0x40 MLOAD PUSH2 0x29D SWAP2 SWAP1 PUSH2 0x20EF JUMP JUMPDEST PUSH1 0x40 MLOAD DUP1 SWAP2 SUB SWAP1 RETURN JUMPDEST CALLVALUE DUP1 ISZERO PUSH2 0x2B1 JUMPI PUSH0 DUP1 REVERT JUMPDEST POP PUSH2 0x2BA PUSH2 0xFD8 JUMP JUMPDEST PUSH1 0x40 MLOAD PUSH2 0x2C7 SWAP2 SWAP1 PUSH2 0x20EF JUMP JUMPDEST PUSH1 0x40 MLOAD DUP1 SWAP2 SUB SWAP1 RETURN JUMPDEST CALLVALUE DUP1 ISZERO PUSH2 0x2DB JUMPI PUSH0 DUP1 REVERT JUMPDEST POP PUSH2 0x2F6 PUSH1 0x4 DUP1 CALLDATASIZE SUB DUP2 ADD SWAP1 PUSH2 0x2F1 SWAP2 SWAP1 PUSH2 0x2132 JUMP JUMPDEST PUSH2 0xFFD JUMP JUMPDEST PUSH1 0x40 MLOAD PUSH2 0x303 SWAP2 SWAP1 PUSH2 0x216C JUMP JUMPDEST PUSH1 0x40 MLOAD DUP1 SWAP2 SUB SWAP1 RETURN JUMPDEST CALLVALUE DUP1 ISZERO PUSH2 0x317 JUMPI PUSH0 DUP1 REVERT JUMPDEST POP PUSH2 0x320 PUSH2 0x102D JUMP JUMPDEST PUSH1 0x40 MLOAD PUSH2 0x32D SWAP2 SWAP1 PUSH2 0x20B6 JUMP JUMPDEST PUSH1 0x40 MLOAD DUP1 SWAP2 SUB SWAP1 RETURN JUMPDEST CALLVALUE DUP1 ISZERO PUSH2 0x341 JUMPI PUSH0 DUP1 REVERT JUMPDEST POP PUSH2 0x34A PUSH2 0x1033 JUMP JUMPDEST PUSH1 0x40 MLOAD PUSH2 0x357 SWAP2 SWAP1 PUSH2 0x20B6 JUMP JUMPDEST PUSH1 0x40 MLOAD DUP1 SWAP2 SUB SWAP1 RETURN JUMPDEST CALLVALUE DUP1 ISZERO PUSH2 0x36B JUMPI PUSH0 DUP1 REVERT JUMPDEST POP PUSH2 0x374 PUSH2 0x1039 JUMP JUMPDEST PUSH1 0x40 MLOAD PUSH2 0x381 SWAP2 SWAP1 PUSH2 0x1F16 JUMP JUMPDEST PUSH1 0x40 MLOAD DUP1 SWAP2 SUB SWAP1 RETURN JUMPDEST CALLVALUE DUP1 ISZERO PUSH2 0x395 JUMPI PUSH0 DUP1 REVERT JUMPDEST POP PUSH2 0x39E PUSH2 0x142E JUMP JUMPDEST PUSH1 0x40 MLOAD PUSH2 0x3AB SWAP2 SWAP1 PUSH2 0x20B6 JUMP JUMPDEST PUSH1 0x40 MLOAD DUP1 SWAP2 SUB SWAP1 RETURN JUMPDEST CALLVALUE DUP1 ISZERO PUSH2 0x3BF JUMPI PUSH0 DUP1 REVERT JUMPDEST POP PUSH2 0x3C8 PUSH2 0x1434 JUMP JUMPDEST PUSH1 0x40 MLOAD PUSH2 0x3D5 SWAP2 SWAP1 PUSH2 0x20EF JUMP JUMPDEST PUSH1 0x40 MLOAD DUP1 SWAP2 SUB SWAP1 RETURN JUMPDEST CALLVALUE DUP1 ISZERO PUSH2 0x3E9 JUMPI PUSH0 DUP1 REVERT JUMPDEST POP PUSH2 0x404 PUSH1 0x4 DUP1 CALLDATASIZE SUB DUP2 ADD SWAP1 PUSH2 0x3FF SWAP2 SWAP1 PUSH2 0x2185 JUMP JUMPDEST PUSH2 0x1459 JUMP JUMPDEST STOP JUMPDEST PUSH2 0x420 PUSH1 0x4 DUP1 CALLDATASIZE SUB DUP2 ADD SWAP1 PUSH2 0x41B SWAP2 SWAP1 PUSH2 0x2132 JUMP JUMPDEST PUSH2 0x165E JUMP JUMPDEST STOP JUMPDEST PUSH1 0xE PUSH1 0x20 MSTORE DUP2 PUSH0 MSTORE PUSH1 0x40 PUSH0 KECCAK256 PUSH1 0x20 MSTORE DUP1 PUSH0 MSTORE PUSH1 0x40 PUSH0 KECCAK256 PUSH0 SWAP2 POP SWAP2 POP SWAP1 SLOAD SWAP1 PUSH2 0x100 EXP SWAP1 DIV PUSH1 0xFF AND DUP2 JUMP JUMPDEST PUSH0 DUP7 MLOAD GT DUP1 ISZERO PUSH2 0x45B JUMPI POP PUSH0 DUP6 GT JUMPDEST DUP1 ISZERO PUSH2 0x467 JUMPI POP PUSH0 DUP5 MLOAD GT JUMPDEST DUP1 ISZERO PUSH2 0x473 JUMPI POP PUSH0 DUP4 MLOAD GT JUMPDEST DUP1 ISZERO PUSH2 0x47E JUMPI POP PUSH0 DUP3 GT JUMPDEST DUP1 ISZERO PUSH2 0x48A JUMPI POP PUSH0 DUP2 MLOAD GT JUMPDEST PUSH2 0x4C9 JUMPI PUSH1 0x40 MLOAD PUSH32 0x8C379A000000000000000000000000000000000000000000000000000000000 DUP2 MSTORE PUSH1 0x4 ADD PUSH2 0x4C0 SWAP1 PUSH2 0x22E2 JUMP JUMPDEST PUSH1 0x40 MLOAD DUP1 SWAP2 SUB SWAP1 REVERT JUMPDEST PUSH0 CALLER TIMESTAMP PUSH1 0x40 MLOAD PUSH1 0x20 ADD PUSH2 0x4DD SWAP3 SWAP2 SWAP1 PUSH2 0x2365 JUMP JUMPDEST PUSH1 0x40 MLOAD PUSH1 0x20 DUP2 DUP4 SUB SUB DUP2 MSTORE SWAP1 PUSH1 0x40 MSTORE DUP1 MLOAD SWAP1 PUSH1 0x20 ADD KECCAK256 SWAP1 POP PUSH0 PUSH1 0x40 MLOAD DUP1 PUSH2 0x160 ADD PUSH1 0x40 MSTORE DUP1 DUP4 DUP2 MSTORE PUSH1 0x20 ADD DUP10 DUP2 MSTORE PUSH1 0x20 ADD DUP9 DUP2 MSTORE PUSH1 0x20 ADD DUP8 DUP2 MSTORE PUSH1 0x20 ADD DUP7 DUP2 MSTORE PUSH1 0x20 ADD DUP6 DUP2 MSTORE PUSH1 0x20 ADD DUP5 DUP2 MSTORE PUSH1 0x20 ADD CALLER PUSH20 0xFFFFFFFFFFFFFFFFFFFFFFFFFFFFFFFFFFFFFFFF AND DUP2 MSTORE PUSH1 0x20 ADD PUSH0 PUSH20 0xFFFFFFFFFFFFFFFFFFFFFFFFFFFFFFFFFFFFFFFF AND DUP2 MSTORE PUSH1 0x20 ADD PUSH0 PUSH1 0x7 DUP2 GT ISZERO PUSH2 0x577 JUMPI PUSH2 0x576 PUSH2 0x1D01 JUMP JUMPDEST JUMPDEST DUP2 MSTORE PUSH1 0x20 ADD PUSH0 ISZERO ISZERO DUP2 MSTORE POP SWAP1 POP DUP1 PUSH1 0xC PUSH0 DUP5 DUP2 MSTORE PUSH1 0x20 ADD SWAP1 DUP2 MSTORE PUSH1 0x20 ADD PUSH0 KECCAK256 PUSH0 DUP3 ADD MLOAD DUP2 PUSH0 ADD SSTORE PUSH1 0x20 DUP3 ADD MLOAD DUP2 PUSH1 0x1 ADD SWAP1 DUP2 PUSH2 0x5B3 SWAP2 SWAP1 PUSH2 0x258A JUMP JUMPDEST POP PUSH1 0x40 DUP3 ADD MLOAD DUP2 PUSH1 0x2 ADD SSTORE PUSH1 0x60 DUP3 ADD MLOAD DUP2 PUSH1 0x3 ADD SWAP1 DUP2 PUSH2 0x5D3 SWAP2 SWAP1 PUSH2 0x258A JUMP JUMPDEST POP PUSH1 0x80 DUP3 ADD MLOAD DUP2 PUSH1 0x4 ADD SWAP1 DUP2 PUSH2 0x5E9 SWAP2 SWAP1 PUSH2 0x258A JUMP JUMPDEST POP PUSH1 0xA0 DUP3 ADD MLOAD DUP2 PUSH1 0x5 ADD SSTORE PUSH1 0xC0 DUP3 ADD MLOAD DUP2 PUSH1 0x6 ADD SWAP1 DUP2 PUSH2 0x609 SWAP2 SWAP1 PUSH2 0x258A JUMP JUMPDEST POP PUSH1 0xE0 DUP3 ADD MLOAD DUP2 PUSH1 0x7 ADD PUSH0 PUSH2 0x100 EXP DUP2 SLOAD DUP2 PUSH20 0xFFFFFFFFFFFFFFFFFFFFFFFFFFFFFFFFFFFFFFFF MUL NOT AND SWAP1 DUP4 PUSH20 0xFFFFFFFFFFFFFFFFFFFFFFFFFFFFFFFFFFFFFFFF AND MUL OR SWAP1 SSTORE POP PUSH2 0x100 DUP3 ADD MLOAD DUP2 PUSH1 0x8 ADD PUSH0 PUSH2 0x100 EXP DUP2 SLOAD DUP2 PUSH20 0xFFFFFFFFFFFFFFFFFFFFFFFFFFFFFFFFFFFFFFFF MUL NOT AND SWAP1 DUP4 PUSH20 0xFFFFFFFFFFFFFFFFFFFFFFFFFFFFFFFFFFFFFFFF AND MUL OR SWAP1 SSTORE POP PUSH2 0x120 DUP3 ADD MLOAD DUP2 PUSH1 0x8 ADD PUSH1 0x14 PUSH2 0x100 EXP DUP2 SLOAD DUP2 PUSH1 0xFF MUL NOT AND SWAP1 DUP4 PUSH1 0x7 DUP2 GT ISZERO PUSH2 0x6C3 JUMPI PUSH2 0x6C2 PUSH2 0x1D01 JUMP JUMPDEST JUMPDEST MUL OR SWAP1 SSTORE POP PUSH2 0x140 DUP3 ADD MLOAD DUP2 PUSH1 0x8 ADD PUSH1 0x15 PUSH2 0x100 EXP DUP2 SLOAD DUP2 PUSH1 0xFF MUL NOT AND SWAP1 DUP4 ISZERO ISZERO MUL OR SWAP1 SSTORE POP SWAP1 POP POP PUSH1 0xD PUSH0 CALLER PUSH20 0xFFFFFFFFFFFFFFFFFFFFFFFFFFFFFFFFFFFFFFFF AND PUSH20 0xFFFFFFFFFFFFFFFFFFFFFFFFFFFFFFFFFFFFFFFF AND DUP2 MSTORE PUSH1 0x20 ADD SWAP1 DUP2 MSTORE PUSH1 0x20 ADD PUSH0 KECCAK256 DUP2 SWAP1 DUP1 PUSH1 0x1 DUP2 SLOAD ADD DUP1 DUP3 SSTORE DUP1 SWAP2 POP POP PUSH1 0x1 SWAP1 SUB SWAP1 PUSH0 MSTORE PUSH1 0x20 PUSH0 KECCAK256 SWAP1 PUSH1 0x9 MUL ADD PUSH0 SWAP1 SWAP2 SWAP1 SWAP2 SWAP1 SWAP2 POP PUSH0 DUP3 ADD MLOAD DUP2 PUSH0 ADD SSTORE PUSH1 0x20 DUP3 ADD MLOAD DUP2 PUSH1 0x1 ADD SWAP1 DUP2 PUSH2 0x76D SWAP2 SWAP1 PUSH2 0x258A JUMP JUMPDEST POP PUSH1 0x40 DUP3 ADD MLOAD DUP2 PUSH1 0x2 ADD SSTORE PUSH1 0x60 DUP3 ADD MLOAD DUP2 PUSH1 0x3 ADD SWAP1 DUP2 PUSH2 0x78D SWAP2 SWAP1 PUSH2 0x258A JUMP JUMPDEST POP PUSH1 0x80 DUP3 ADD MLOAD DUP2 PUSH1 0x4 ADD SWAP1 DUP2 PUSH2 0x7A3 SWAP2 SWAP1 PUSH2 0x258A JUMP JUMPDEST POP PUSH1 0xA0 DUP3 ADD MLOAD DUP2 PUSH1 0x5 ADD SSTORE PUSH1 0xC0 DUP3 ADD MLOAD DUP2 PUSH1 0x6 ADD SWAP1 DUP2 PUSH2 0x7C3 SWAP2 SWAP1 PUSH2 0x258A JUMP JUMPDEST POP PUSH1 0xE0 DUP3 ADD MLOAD DUP2 PUSH1 0x7 ADD PUSH0 PUSH2 0x100 EXP DUP2 SLOAD DUP2 PUSH20 0xFFFFFFFFFFFFFFFFFFFFFFFFFFFFFFFFFFFFFFFF MUL NOT AND SWAP1 DUP4 PUSH20 0xFFFFFFFFFFFFFFFFFFFFFFFFFFFFFFFFFFFFFFFF AND MUL OR SWAP1 SSTORE POP PUSH2 0x100 DUP3 ADD MLOAD DUP2 PUSH1 0x8 ADD PUSH0 PUSH2 0x100 EXP DUP2 SLOAD DUP2 PUSH20 0xFFFFFFFFFFFFFFFFFFFFFFFFFFFFFFFFFFFFFFFF MUL NOT AND SWAP1 DUP4 PUSH20 0xFFFFFFFFFFFFFFFFFFFFFFFFFFFFFFFFFFFFFFFF AND MUL OR SWAP1 SSTORE POP PUSH2 0x120 DUP3 ADD MLOAD DUP2 PUSH1 0x8 ADD PUSH1 0x14 PUSH2 0x100 EXP DUP2 SLOAD DUP2 PUSH1 0xFF MUL NOT AND SWAP1 DUP4 PUSH1 0x7 DUP2 GT ISZERO PUSH2 0x87D JUMPI PUSH2 0x87C PUSH2 0x1D01 JUMP JUMPDEST JUMPDEST MUL OR SWAP1 SSTORE POP PUSH2 0x140 DUP3 ADD MLOAD DUP2 PUSH1 0x8 ADD PUSH1 0x15 PUSH2 0x100 EXP DUP2 SLOAD DUP2 PUSH1 0xFF MUL NOT AND SWAP1 DUP4 ISZERO ISZERO MUL OR SWAP1 SSTORE POP POP POP CALLER PUSH1 0xF PUSH0 DUP5 DUP2 MSTORE PUSH1 0x20 ADD SWAP1 DUP2 MSTORE PUSH1 0x20 ADD PUSH0 KECCAK256 PUSH0 PUSH2 0x100 EXP DUP2 SLOAD DUP2 PUSH20 0xFFFFFFFFFFFFFFFFFFFFFFFFFFFFFFFFFFFFFFFF MUL NOT AND SWAP1 DUP4 PUSH20 0xFFFFFFFFFFFFFFFFFFFFFFFFFFFFFFFFFFFFFFFF AND MUL OR SWAP1 SSTORE POP CALLER PUSH20 0xFFFFFFFFFFFFFFFFFFFFFFFFFFFFFFFFFFFFFFFF AND PUSH31 0xD28C9CC43C9ABFC1A8676EDAEE9931DAA84190C43F35D1FB6E3A48AFA4BCA3 DUP4 PUSH0 PUSH1 0x40 MLOAD PUSH2 0x93B SWAP3 SWAP2 SWAP1 PUSH2 0x26C1 JUMP JUMPDEST PUSH1 0x40 MLOAD DUP1 SWAP2 SUB SWAP1 LOG2 POP POP POP POP POP POP POP POP JUMP JUMPDEST PUSH1 0x60 PUSH0 PUSH1 0x7 SLOAD PUSH8 0xFFFFFFFFFFFFFFFF DUP2 GT ISZERO PUSH2 0x96C JUMPI PUSH2 0x96B PUSH2 0x1A0B JUMP JUMPDEST JUMPDEST PUSH1 0x40 MLOAD SWAP1 DUP1 DUP3 MSTORE DUP1 PUSH1 0x20 MUL PUSH1 0x20 ADD DUP3 ADD PUSH1 0x40 MSTORE DUP1 ISZERO PUSH2 0x9A5 JUMPI DUP2 PUSH1 0x20 ADD JUMPDEST PUSH2 0x992 PUSH2 0x184E JUMP JUMPDEST DUP2 MSTORE PUSH1 0x20 ADD SWAP1 PUSH1 0x1 SWAP1 SUB SWAP1 DUP2 PUSH2 0x98A JUMPI SWAP1 POP JUMPDEST POP SWAP1 POP PUSH0 JUMPDEST PUSH1 0x7 SLOAD DUP2 LT ISZERO PUSH2 0xD84 JUMPI PUSH0 DUP2 PUSH1 0x40 MLOAD PUSH1 0x20 ADD PUSH2 0x9C6 SWAP2 SWAP1 PUSH2 0x26FB JUMP JUMPDEST PUSH1 0x40 MLOAD PUSH1 0x20 DUP2 DUP4 SUB SUB DUP2 MSTORE SWAP1 PUSH1 0x40 MSTORE DUP1 MLOAD SWAP1 PUSH1 0x20 ADD KECCAK256 SWAP1 POP PUSH1 0xC PUSH0 DUP3 DUP2 MSTORE PUSH1 0x20 ADD SWAP1 DUP2 MSTORE PUSH1 0x20 ADD PUSH0 KECCAK256 PUSH1 0x40 MLOAD DUP1 PUSH2 0x160 ADD PUSH1 0x40 MSTORE SWAP1 DUP2 PUSH0 DUP3 ADD SLOAD DUP2 MSTORE PUSH1 0x20 ADD PUSH1 0x1 DUP3 ADD DUP1 SLOAD PUSH2 0xA14 SWAP1 PUSH2 0x23BD JUMP JUMPDEST DUP1 PUSH1 0x1F ADD PUSH1 0x20 DUP1 SWAP2 DIV MUL PUSH1 0x20 ADD PUSH1 0x40 MLOAD SWAP1 DUP2 ADD PUSH1 0x40 MSTORE DUP1 SWAP3 SWAP2 SWAP1 DUP2 DUP2 MSTORE PUSH1 0x20 ADD DUP3 DUP1 SLOAD PUSH2 0xA40 SWAP1 PUSH2 0x23BD JUMP JUMPDEST DUP1 ISZERO PUSH2 0xA8B JUMPI DUP1 PUSH1 0x1F LT PUSH2 0xA62 JUMPI PUSH2 0x100 DUP1 DUP4 SLOAD DIV MUL DUP4 MSTORE SWAP2 PUSH1 0x20 ADD SWAP2 PUSH2 0xA8B JUMP JUMPDEST DUP3 ADD SWAP2 SWAP1 PUSH0 MSTORE PUSH1 0x20 PUSH0 KECCAK256 SWAP1 JUMPDEST DUP2 SLOAD DUP2 MSTORE SWAP1 PUSH1 0x1 ADD SWAP1 PUSH1 0x20 ADD DUP1 DUP4 GT PUSH2 0xA6E JUMPI DUP3 SWAP1 SUB PUSH1 0x1F AND DUP3 ADD SWAP2 JUMPDEST POP POP POP POP POP DUP2 MSTORE PUSH1 0x20 ADD PUSH1 0x2 DUP3 ADD SLOAD DUP2 MSTORE PUSH1 0x20 ADD PUSH1 0x3 DUP3 ADD DUP1 SLOAD PUSH2 0xAAE SWAP1 PUSH2 0x23BD JUMP JUMPDEST DUP1 PUSH1 0x1F ADD PUSH1 0x20 DUP1 SWAP2 DIV MUL PUSH1 0x20 ADD PUSH1 0x40 MLOAD SWAP1 DUP2 ADD PUSH1 0x40 MSTORE DUP1 SWAP3 SWAP2 SWAP1 DUP2 DUP2 MSTORE PUSH1 0x20 ADD DUP3 DUP1 SLOAD PUSH2 0xADA SWAP1 PUSH2 0x23BD JUMP JUMPDEST DUP1 ISZERO PUSH2 0xB25 JUMPI DUP1 PUSH1 0x1F LT PUSH2 0xAFC JUMPI PUSH2 0x100 DUP1 DUP4 SLOAD DIV MUL DUP4 MSTORE SWAP2 PUSH1 0x20 ADD SWAP2 PUSH2 0xB25 JUMP JUMPDEST DUP3 ADD SWAP2 SWAP1 PUSH0 MSTORE PUSH1 0x20 PUSH0 KECCAK256 SWAP1 JUMPDEST DUP2 SLOAD DUP2 MSTORE SWAP1 PUSH1 0x1 ADD SWAP1 PUSH1 0x20 ADD DUP1 DUP4 GT PUSH2 0xB08 JUMPI DUP3 SWAP1 SUB PUSH1 0x1F AND DUP3 ADD SWAP2 JUMPDEST POP POP POP POP POP DUP2 MSTORE PUSH1 0x20 ADD PUSH1 0x4 DUP3 ADD DUP1 SLOAD PUSH2 0xB3E SWAP1 PUSH2 0x23BD JUMP JUMPDEST DUP1 PUSH1 0x1F ADD PUSH1 0x20 DUP1 SWAP2 DIV MUL PUSH1 0x20 ADD PUSH1 0x40 MLOAD SWAP1 DUP2 ADD PUSH1 0x40 MSTORE DUP1 SWAP3 SWAP2 SWAP1 DUP2 DUP2 MSTORE PUSH1 0x20 ADD DUP3 DUP1 SLOAD PUSH2 0xB6A SWAP1 PUSH2 0x23BD JUMP JUMPDEST DUP1 ISZERO PUSH2 0xBB5 JUMPI DUP1 PUSH1 0x1F LT PUSH2 0xB8C JUMPI PUSH2 0x100 DUP1 DUP4 SLOAD DIV MUL DUP4 MSTORE SWAP2 PUSH1 0x20 ADD SWAP2 PUSH2 0xBB5 JUMP JUMPDEST DUP3 ADD SWAP2 SWAP1 PUSH0 MSTORE PUSH1 0x20 PUSH0 KECCAK256 SWAP1 JUMPDEST DUP2 SLOAD DUP2 MSTORE SWAP1 PUSH1 0x1 ADD SWAP1 PUSH1 0x20 ADD DUP1 DUP4 GT PUSH2 0xB98 JUMPI DUP3 SWAP1 SUB PUSH1 0x1F AND DUP3 ADD SWAP2 JUMPDEST POP POP POP POP POP DUP2 MSTORE PUSH1 0x20 ADD PUSH1 0x5 DUP3 ADD SLOAD DUP2 MSTORE PUSH1 0x20 ADD PUSH1 0x6 DUP3 ADD DUP1 SLOAD PUSH2 0xBD8 SWAP1 PUSH2 0x23BD JUMP JUMPDEST DUP1 PUSH1 0x1F ADD PUSH1 0x20 DUP1 SWAP2 DIV MUL PUSH1 0x20 ADD PUSH1 0x40 MLOAD SWAP1 DUP2 ADD PUSH1 0x40 MSTORE DUP1 SWAP3 SWAP2 SWAP1 DUP2 DUP2 MSTORE PUSH1 0x20 ADD DUP3 DUP1 SLOAD PUSH2 0xC04 SWAP1 PUSH2 0x23BD JUMP JUMPDEST DUP1 ISZERO PUSH2 0xC4F JUMPI DUP1 PUSH1 0x1F LT PUSH2 0xC26 JUMPI PUSH2 0x100 DUP1 DUP4 SLOAD DIV MUL DUP4 MSTORE SWAP2 PUSH1 0x20 ADD SWAP2 PUSH2 0xC4F JUMP JUMPDEST DUP3 ADD SWAP2 SWAP1 PUSH0 MSTORE PUSH1 0x20 PUSH0 KECCAK256 SWAP1 JUMPDEST DUP2 SLOAD DUP2 MSTORE SWAP1 PUSH1 0x1 ADD SWAP1 PUSH1 0x20 ADD DUP1 DUP4 GT PUSH2 0xC32 JUMPI DUP3 SWAP1 SUB PUSH1 0x1F AND DUP3 ADD SWAP2 JUMPDEST POP POP POP POP POP DUP2 MSTORE PUSH1 0x20 ADD PUSH1 0x7 DUP3 ADD PUSH0 SWAP1 SLOAD SWAP1 PUSH2 0x100 EXP SWAP1 DIV PUSH20 0xFFFFFFFFFFFFFFFFFFFFFFFFFFFFFFFFFFFFFFFF AND PUSH20 0xFFFFFFFFFFFFFFFFFFFFFFFFFFFFFFFFFFFFFFFF AND PUSH20 0xFFFFFFFFFFFFFFFFFFFFFFFFFFFFFFFFFFFFFFFF AND DUP2 MSTORE PUSH1 0x20 ADD PUSH1 0x8 DUP3 ADD PUSH0 SWAP1 SLOAD SWAP1 PUSH2 0x100 EXP SWAP1 DIV PUSH20 0xFFFFFFFFFFFFFFFFFFFFFFFFFFFFFFFFFFFFFFFF AND PUSH20 0xFFFFFFFFFFFFFFFFFFFFFFFFFFFFFFFFFFFFFFFF AND PUSH20 0xFFFFFFFFFFFFFFFFFFFFFFFFFFFFFFFFFFFFFFFF AND DUP2 MSTORE PUSH1 0x20 ADD PUSH1 0x8 DUP3 ADD PUSH1 0x14 SWAP1 SLOAD SWAP1 PUSH2 0x100 EXP SWAP1 DIV PUSH1 0xFF AND PUSH1 0x7 DUP2 GT ISZERO PUSH2 0xD27 JUMPI PUSH2 0xD26 PUSH2 0x1D01 JUMP JUMPDEST JUMPDEST PUSH1 0x7 DUP2 GT ISZERO PUSH2 0xD39 JUMPI PUSH2 0xD38 PUSH2 0x1D01 JUMP JUMPDEST JUMPDEST DUP2 MSTORE PUSH1 0x20 ADD PUSH1 0x8 DUP3 ADD PUSH1 0x15 SWAP1 SLOAD SWAP1 PUSH2 0x100 EXP SWAP1 DIV PUSH1 0xFF AND ISZERO ISZERO ISZERO ISZERO DUP2 MSTORE POP POP DUP4 DUP4 DUP2 MLOAD DUP2 LT PUSH2 0xD6B JUMPI PUSH2 0xD6A PUSH2 0x2715 JUMP JUMPDEST JUMPDEST PUSH1 0x20 MUL PUSH1 0x20 ADD ADD DUP2 SWAP1 MSTORE POP POP DUP1 DUP1 PUSH1 0x1 ADD SWAP2 POP POP PUSH2 0x9AA JUMP JUMPDEST POP DUP1 SWAP2 POP POP SWAP1 JUMP JUMPDEST PUSH0 DUP6 MLOAD GT DUP1 ISZERO PUSH2 0xD9B JUMPI POP PUSH0 DUP5 GT JUMPDEST DUP1 ISZERO PUSH2 0xDA7 JUMPI POP PUSH0 DUP3 MLOAD GT JUMPDEST DUP1 ISZERO PUSH2 0xDB3 JUMPI POP PUSH0 DUP2 MLOAD GT JUMPDEST PUSH2 0xDF2 JUMPI PUSH1 0x40 MLOAD PUSH32 0x8C379A000000000000000000000000000000000000000000000000000000000 DUP2 MSTORE PUSH1 0x4 ADD PUSH2 0xDE9 SWAP1 PUSH2 0x22E2 JUMP JUMPDEST PUSH1 0x40 MLOAD DUP1 SWAP2 SUB SWAP1 REVERT JUMPDEST PUSH0 CALLER TIMESTAMP PUSH1 0x40 MLOAD PUSH1 0x20 ADD PUSH2 0xE06 SWAP3 SWAP2 SWAP1 PUSH2 0x2365 JUMP JUMPDEST PUSH1 0x40 MLOAD PUSH1 0x20 DUP2 DUP4 SUB SUB DUP2 MSTORE SWAP1 PUSH1 0x40 MSTORE DUP1 MLOAD SWAP1 PUSH1 0x20 ADD KECCAK256 SWAP1 POP PUSH0 PUSH1 0x40 MLOAD DUP1 PUSH1 0xE0 ADD PUSH1 0x40 MSTORE DUP1 DUP4 DUP2 MSTORE PUSH1 0x20 ADD DUP9 DUP2 MSTORE PUSH1 0x20 ADD DUP8 DUP2 MSTORE PUSH1 0x20 ADD DUP7 DUP2 MSTORE PUSH1 0x20 ADD DUP6 DUP2 MSTORE PUSH1 0x20 ADD DUP5 DUP2 MSTORE PUSH1 0x20 ADD TIMESTAMP DUP2 MSTORE POP SWAP1 POP DUP1 PUSH1 0xA PUSH0 DUP5 DUP2 MSTORE PUSH1 0x20 ADD SWAP1 DUP2 MSTORE PUSH1 0x20 ADD PUSH0 KECCAK256 PUSH0 DUP3 ADD MLOAD DUP2 PUSH0 ADD SSTORE PUSH1 0x20 DUP3 ADD MLOAD DUP2 PUSH1 0x1 ADD SWAP1 DUP2 PUSH2 0xE83 SWAP2 SWAP1 PUSH2 0x258A JUMP JUMPDEST POP PUSH1 0x40 DUP3 ADD MLOAD DUP2 PUSH1 0x2 ADD SSTORE PUSH1 0x60 DUP3 ADD MLOAD DUP2 PUSH1 0x3 ADD SWAP1 DUP2 PUSH2 0xEA3 SWAP2 SWAP1 PUSH2 0x258A JUMP JUMPDEST POP PUSH1 0x80 DUP3 ADD MLOAD DUP2 PUSH1 0x4 ADD SWAP1 DUP2 PUSH2 0xEB9 SWAP2 SWAP1 PUSH2 0x258A JUMP JUMPDEST POP PUSH1 0xA0 DUP3 ADD MLOAD DUP2 PUSH1 0x5 ADD SWAP1 DUP2 PUSH2 0xECF SWAP2 SWAP1 PUSH2 0x258A JUMP JUMPDEST POP PUSH1 0xC0 DUP3 ADD MLOAD DUP2 PUSH1 0x6 ADD SSTORE SWAP1 POP POP CALLER PUSH1 0xF PUSH0 DUP5 DUP2 MSTORE PUSH1 0x20 ADD SWAP1 DUP2 MSTORE PUSH1 0x20 ADD PUSH0 KECCAK256 PUSH0 PUSH2 0x100 EXP DUP2 SLOAD DUP2 PUSH20 0xFFFFFFFFFFFFFFFFFFFFFFFFFFFFFFFFFFFFFFFF MUL NOT AND SWAP1 DUP4 PUSH20 0xFFFFFFFFFFFFFFFFFFFFFFFFFFFFFFFFFFFFFFFF AND MUL OR SWAP1 SSTORE POP CALLER PUSH20 0xFFFFFFFFFFFFFFFFFFFFFFFFFFFFFFFFFFFFFFFF AND PUSH31 0xD28C9CC43C9ABFC1A8676EDAEE9931DAA84190C43F35D1FB6E3A48AFA4BCA3 DUP4 PUSH0 PUSH1 0x40 MLOAD PUSH2 0xF73 SWAP3 SWAP2 SWAP1 PUSH2 0x278C JUMP JUMPDEST PUSH1 0x40 MLOAD DUP1 SWAP2 SUB SWAP1 LOG2 POP POP POP POP POP POP POP JUMP JUMPDEST PUSH1 0x10 PUSH1 0x20 MSTORE DUP1 PUSH0 MSTORE PUSH1 0x40 PUSH0 KECCAK256 PUSH0 SWAP2 POP SLOAD SWAP1 PUSH2 0x100 EXP SWAP1 DIV PUSH1 0xFF AND DUP2 JUMP JUMPDEST PUSH1 0x8 SLOAD DUP2 JUMP JUMPDEST PUSH1 0x5 SLOAD DUP2 JUMP JUMPDEST PUSH1 0x6 SLOAD DUP2 JUMP JUMPDEST PUSH1 0x1 PUSH0 SWAP1 SLOAD SWAP1 PUSH2 0x100 EXP SWAP1 DIV PUSH20 0xFFFFFFFFFFFFFFFFFFFFFFFFFFFFFFFFFFFFFFFF AND DUP2 JUMP JUMPDEST PUSH1 0x2 PUSH0 SWAP1 SLOAD SWAP1 PUSH2 0x100 EXP SWAP1 DIV PUSH20 0xFFFFFFFFFFFFFFFFFFFFFFFFFFFFFFFFFFFFFFFF AND DUP2 JUMP JUMPDEST PUSH1 0xF PUSH1 0x20 MSTORE DUP1 PUSH0 MSTORE PUSH1 0x40 PUSH0 KECCAK256 PUSH0 SWAP2 POP SLOAD SWAP1 PUSH2 0x100 EXP SWAP1 DIV PUSH20 0xFFFFFFFFFFFFFFFFFFFFFFFFFFFFFFFFFFFFFFFF AND DUP2 JUMP JUMPDEST PUSH1 0x7 SLOAD DUP2 JUMP JUMPDEST PUSH1 0x9 SLOAD DUP2 JUMP JUMPDEST PUSH1 0x60 PUSH1 0xD PUSH0 CALLER PUSH20 0xFFFFFFFFFFFFFFFFFFFFFFFFFFFFFFFFFFFFFFFF AND PUSH20 0xFFFFFFFFFFFFFFFFFFFFFFFFFFFFFFFFFFFFFFFF AND DUP2 MSTORE PUSH1 0x20 ADD SWAP1 DUP2 MSTORE PUSH1 0x20 ADD PUSH0 KECCAK256 DUP1 SLOAD DUP1 PUSH1 0x20 MUL PUSH1 0x20 ADD PUSH1 0x40 MLOAD SWAP1 DUP2 ADD PUSH1 0x40 MSTORE DUP1 SWAP3 SWAP2 SWAP1 DUP2 DUP2 MSTORE PUSH1 0x20 ADD PUSH0 SWAP1 JUMPDEST DUP3 DUP3 LT ISZERO PUSH2 0x1425 JUMPI DUP4 DUP3 SWAP1 PUSH0 MSTORE PUSH1 0x20 PUSH0 KECCAK256 SWAP1 PUSH1 0x9 MUL ADD PUSH1 0x40 MLOAD DUP1 PUSH2 0x160 ADD PUSH1 0x40 MSTORE SWAP1 DUP2 PUSH0 DUP3 ADD SLOAD DUP2 MSTORE PUSH1 0x20 ADD PUSH1 0x1 DUP3 ADD DUP1 SLOAD PUSH2 0x10D2 SWAP1 PUSH2 0x23BD JUMP JUMPDEST DUP1 PUSH1 0x1F ADD PUSH1 0x20 DUP1 SWAP2 DIV MUL PUSH1 0x20 ADD PUSH1 0x40 MLOAD SWAP1 DUP2 ADD PUSH1 0x40 MSTORE DUP1 SWAP3 SWAP2 SWAP1 DUP2 DUP2 MSTORE PUSH1 0x20 ADD DUP3 DUP1 SLOAD PUSH2 0x10FE SWAP1 PUSH2 0x23BD JUMP JUMPDEST DUP1 ISZERO PUSH2 0x1149 JUMPI DUP1 PUSH1 0x1F LT PUSH2 0x1120 JUMPI PUSH2 0x100 DUP1 DUP4 SLOAD DIV MUL DUP4 MSTORE SWAP2 PUSH1 0x20 ADD SWAP2 PUSH2 0x1149 JUMP JUMPDEST DUP3 ADD SWAP2 SWAP1 PUSH0 MSTORE PUSH1 0x20 PUSH0 KECCAK256 SWAP1 JUMPDEST DUP2 SLOAD DUP2 MSTORE SWAP1 PUSH1 0x1 ADD SWAP1 PUSH1 0x20 ADD DUP1 DUP4 GT PUSH2 0x112C JUMPI DUP3 SWAP1 SUB PUSH1 0x1F AND DUP3 ADD SWAP2 JUMPDEST POP POP POP POP POP DUP2 MSTORE PUSH1 0x20 ADD PUSH1 0x2 DUP3 ADD SLOAD DUP2 MSTORE PUSH1 0x20 ADD PUSH1 0x3 DUP3 ADD DUP1 SLOAD PUSH2 0x116C SWAP1 PUSH2 0x23BD JUMP JUMPDEST DUP1 PUSH1 0x1F ADD PUSH1 0x20 DUP1 SWAP2 DIV MUL PUSH1 0x20 ADD PUSH1 0x40 MLOAD SWAP1 DUP2 ADD PUSH1 0x40 MSTORE DUP1 SWAP3 SWAP2 SWAP1 DUP2 DUP2 MSTORE PUSH1 0x20 ADD DUP3 DUP1 SLOAD PUSH2 0x1198 SWAP1 PUSH2 0x23BD JUMP JUMPDEST DUP1 ISZERO PUSH2 0x11E3 JUMPI DUP1 PUSH1 0x1F LT PUSH2 0x11BA JUMPI PUSH2 0x100 DUP1 DUP4 SLOAD DIV MUL DUP4 MSTORE SWAP2 PUSH1 0x20 ADD SWAP2 PUSH2 0x11E3 JUMP JUMPDEST DUP3 ADD SWAP2 SWAP1 PUSH0 MSTORE PUSH1 0x20 PUSH0 KECCAK256 SWAP1 JUMPDEST DUP2 SLOAD DUP2 MSTORE SWAP1 PUSH1 0x1 ADD SWAP1 PUSH1 0x20 ADD DUP1 DUP4 GT PUSH2 0x11C6 JUMPI DUP3 SWAP1 SUB PUSH1 0x1F AND DUP3 ADD SWAP2 JUMPDEST POP POP POP POP POP DUP2 MSTORE PUSH1 0x20 ADD PUSH1 0x4 DUP3 ADD DUP1 SLOAD PUSH2 0x11FC SWAP1 PUSH2 0x23BD JUMP JUMPDEST DUP1 PUSH1 0x1F ADD PUSH1 0x20 DUP1 SWAP2 DIV MUL PUSH1 0x20 ADD PUSH1 0x40 MLOAD SWAP1 DUP2 ADD PUSH1 0x40 MSTORE DUP1 SWAP3 SWAP2 SWAP1 DUP2 DUP2 MSTORE PUSH1 0x20 ADD DUP3 DUP1 SLOAD PUSH2 0x1228 SWAP1 PUSH2 0x23BD JUMP JUMPDEST DUP1 ISZERO PUSH2 0x1273 JUMPI DUP1 PUSH1 0x1F LT PUSH2 0x124A JUMPI PUSH2 0x100 DUP1 DUP4 SLOAD DIV MUL DUP4 MSTORE SWAP2 PUSH1 0x20 ADD SWAP2 PUSH2 0x1273 JUMP JUMPDEST DUP3 ADD SWAP2 SWAP1 PUSH0 MSTORE PUSH1 0x20 PUSH0 KECCAK256 SWAP1 JUMPDEST DUP2 SLOAD DUP2 MSTORE SWAP1 PUSH1 0x1 ADD SWAP1 PUSH1 0x20 ADD DUP1 DUP4 GT PUSH2 0x1256 JUMPI DUP3 SWAP1 SUB PUSH1 0x1F AND DUP3 ADD SWAP2 JUMPDEST POP POP POP POP POP DUP2 MSTORE PUSH1 0x20 ADD PUSH1 0x5 DUP3 ADD SLOAD DUP2 MSTORE PUSH1 0x20 ADD PUSH1 0x6 DUP3 ADD DUP1 SLOAD PUSH2 0x1296 SWAP1 PUSH2 0x23BD JUMP JUMPDEST DUP1 PUSH1 0x1F ADD PUSH1 0x20 DUP1 SWAP2 DIV MUL PUSH1 0x20 ADD PUSH1 0x40 MLOAD SWAP1 DUP2 ADD PUSH1 0x40 MSTORE DUP1 SWAP3 SWAP2 SWAP1 DUP2 DUP2 MSTORE PUSH1 0x20 ADD DUP3 DUP1 SLOAD PUSH2 0x12C2 SWAP1 PUSH2 0x23BD JUMP JUMPDEST DUP1 ISZERO PUSH2 0x130D JUMPI DUP1 PUSH1 0x1F LT PUSH2 0x12E4 JUMPI PUSH2 0x100 DUP1 DUP4 SLOAD DIV MUL DUP4 MSTORE SWAP2 PUSH1 0x20 ADD SWAP2 PUSH2 0x130D JUMP JUMPDEST DUP3 ADD SWAP2 SWAP1 PUSH0 MSTORE PUSH1 0x20 PUSH0 KECCAK256 SWAP1 JUMPDEST DUP2 SLOAD DUP2 MSTORE SWAP1 PUSH1 0x1 ADD SWAP1 PUSH1 0x20 ADD DUP1 DUP4 GT PUSH2 0x12F0 JUMPI DUP3 SWAP1 SUB PUSH1 0x1F AND DUP3 ADD SWAP2 JUMPDEST POP POP POP POP POP DUP2 MSTORE PUSH1 0x20 ADD PUSH1 0x7 DUP3 ADD PUSH0 SWAP1 SLOAD SWAP1 PUSH2 0x100 EXP SWAP1 DIV PUSH20 0xFFFFFFFFFFFFFFFFFFFFFFFFFFFFFFFFFFFFFFFF AND PUSH20 0xFFFFFFFFFFFFFFFFFFFFFFFFFFFFFFFFFFFFFFFF AND PUSH20 0xFFFFFFFFFFFFFFFFFFFFFFFFFFFFFFFFFFFFFFFF AND DUP2 MSTORE PUSH1 0x20 ADD PUSH1 0x8 DUP3 ADD PUSH0 SWAP1 SLOAD SWAP1 PUSH2 0x100 EXP SWAP1 DIV PUSH20 0xFFFFFFFFFFFFFFFFFFFFFFFFFFFFFFFFFFFFFFFF AND PUSH20 0xFFFFFFFFFFFFFFFFFFFFFFFFFFFFFFFFFFFFFFFF AND PUSH20 0xFFFFFFFFFFFFFFFFFFFFFFFFFFFFFFFFFFFFFFFF AND DUP2 MSTORE PUSH1 0x20 ADD PUSH1 0x8 DUP3 ADD PUSH1 0x14 SWAP1 SLOAD SWAP1 PUSH2 0x100 EXP SWAP1 DIV PUSH1 0xFF AND PUSH1 0x7 DUP2 GT ISZERO PUSH2 0x13E5 JUMPI PUSH2 0x13E4 PUSH2 0x1D01 JUMP JUMPDEST JUMPDEST PUSH1 0x7 DUP2 GT ISZERO PUSH2 0x13F7 JUMPI PUSH2 0x13F6 PUSH2 0x1D01 JUMP JUMPDEST JUMPDEST DUP2 MSTORE PUSH1 0x20 ADD PUSH1 0x8 DUP3 ADD PUSH1 0x15 SWAP1 SLOAD SWAP1 PUSH2 0x100 EXP SWAP1 DIV PUSH1 0xFF AND ISZERO ISZERO ISZERO ISZERO DUP2 MSTORE POP POP DUP2 MSTORE PUSH1 0x20 ADD SWAP1 PUSH1 0x1 ADD SWAP1 PUSH2 0x1097 JUMP JUMPDEST POP POP POP POP SWAP1 POP SWAP1 JUMP JUMPDEST PUSH1 0x4 SLOAD DUP2 JUMP JUMPDEST PUSH1 0x3 PUSH0 SWAP1 SLOAD SWAP1 PUSH2 0x100 EXP SWAP1 DIV PUSH20 0xFFFFFFFFFFFFFFFFFFFFFFFFFFFFFFFFFFFFFFFF AND DUP2 JUMP JUMPDEST PUSH0 DUP6 MLOAD GT DUP1 ISZERO PUSH2 0x1469 JUMPI POP PUSH0 DUP4 MLOAD GT JUMPDEST DUP1 ISZERO PUSH2 0x1475 JUMPI POP PUSH0 DUP3 MLOAD GT JUMPDEST DUP1 ISZERO PUSH2 0x1481 JUMPI POP PUSH0 DUP2 MLOAD GT JUMPDEST PUSH2 0x14C0 JUMPI PUSH1 0x40 MLOAD PUSH32 0x8C379A000000000000000000000000000000000000000000000000000000000 DUP2 MSTORE PUSH1 0x4 ADD PUSH2 0x14B7 SWAP1 PUSH2 0x22E2 JUMP JUMPDEST PUSH1 0x40 MLOAD DUP1 SWAP2 SUB SWAP1 REVERT JUMPDEST PUSH0 CALLER TIMESTAMP PUSH1 0x40 MLOAD PUSH1 0x20 ADD PUSH2 0x14D4 SWAP3 SWAP2 SWAP1 PUSH2 0x2365 JUMP JUMPDEST PUSH1 0x40 MLOAD PUSH1 0x20 DUP2 DUP4 SUB SUB DUP2 MSTORE SWAP1 PUSH1 0x40 MSTORE DUP1 MLOAD SWAP1 PUSH1 0x20 ADD KECCAK256 SWAP1 POP PUSH0 PUSH1 0x40 MLOAD DUP1 PUSH1 0xE0 ADD PUSH1 0x40 MSTORE DUP1 DUP4 DUP2 MSTORE PUSH1 0x20 ADD DUP9 DUP2 MSTORE PUSH1 0x20 ADD DUP8 DUP2 MSTORE PUSH1 0x20 ADD DUP7 DUP2 MSTORE PUSH1 0x20 ADD DUP6 DUP2 MSTORE PUSH1 0x20 ADD DUP5 DUP2 MSTORE PUSH1 0x20 ADD TIMESTAMP DUP2 MSTORE POP SWAP1 POP DUP1 PUSH1 0xB PUSH0 DUP5 DUP2 MSTORE PUSH1 0x20 ADD SWAP1 DUP2 MSTORE PUSH1 0x20 ADD PUSH0 KECCAK256 PUSH0 DUP3 ADD MLOAD DUP2 PUSH0 ADD SSTORE PUSH1 0x20 DUP3 ADD MLOAD DUP2 PUSH1 0x1 ADD SWAP1 DUP2 PUSH2 0x1551 SWAP2 SWAP1 PUSH2 0x258A JUMP JUMPDEST POP PUSH1 0x40 DUP3 ADD MLOAD DUP2 PUSH1 0x2 ADD SWAP1 DUP2 PUSH2 0x1567 SWAP2 SWAP1 PUSH2 0x258A JUMP JUMPDEST POP PUSH1 0x60 DUP3 ADD MLOAD DUP2 PUSH1 0x3 ADD SWAP1 DUP2 PUSH2 0x157D SWAP2 SWAP1 PUSH2 0x258A JUMP JUMPDEST POP PUSH1 0x80 DUP3 ADD MLOAD DUP2 PUSH1 0x4 ADD SWAP1 DUP2 PUSH2 0x1593 SWAP2 SWAP1 PUSH2 0x258A JUMP JUMPDEST POP PUSH1 0xA0 DUP3 ADD MLOAD DUP2 PUSH1 0x5 ADD SWAP1 DUP2 PUSH2 0x15A9 SWAP2 SWAP1 PUSH2 0x258A JUMP JUMPDEST POP PUSH1 0xC0 DUP3 ADD MLOAD DUP2 PUSH1 0x6 ADD SSTORE SWAP1 POP POP CALLER PUSH1 0xF PUSH0 DUP5 DUP2 MSTORE PUSH1 0x20 ADD SWAP1 DUP2 MSTORE PUSH1 0x20 ADD PUSH0 KECCAK256 PUSH0 PUSH2 0x100 EXP DUP2 SLOAD DUP2 PUSH20 0xFFFFFFFFFFFFFFFFFFFFFFFFFFFFFFFFFFFFFFFF MUL NOT AND SWAP1 DUP4 PUSH20 0xFFFFFFFFFFFFFFFFFFFFFFFFFFFFFFFFFFFFFFFF AND MUL OR SWAP1 SSTORE POP CALLER PUSH20 0xFFFFFFFFFFFFFFFFFFFFFFFFFFFFFFFFFFFFFFFF AND PUSH31 0xD28C9CC43C9ABFC1A8676EDAEE9931DAA84190C43F35D1FB6E3A48AFA4BCA3 DUP4 PUSH0 PUSH1 0x40 MLOAD PUSH2 0x164D SWAP3 SWAP2 SWAP1 PUSH2 0x2810 JUMP JUMPDEST PUSH1 0x40 MLOAD DUP1 SWAP2 SUB SWAP1 LOG2 POP POP POP POP POP POP POP JUMP JUMPDEST PUSH0 CALLVALUE GT PUSH2 0x16A0 JUMPI PUSH1 0x40 MLOAD PUSH32 0x8C379A000000000000000000000000000000000000000000000000000000000 DUP2 MSTORE PUSH1 0x4 ADD PUSH2 0x1697 SWAP1 PUSH2 0x28BA JUMP JUMPDEST PUSH1 0x40 MLOAD DUP1 SWAP2 SUB SWAP1 REVERT JUMPDEST PUSH0 PUSH1 0x7 DUP2 GT ISZERO PUSH2 0x16B3 JUMPI PUSH2 0x16B2 PUSH2 0x1D01 JUMP JUMPDEST JUMPDEST PUSH1 0xC PUSH0 DUP4 DUP2 MSTORE PUSH1 0x20 ADD SWAP1 DUP2 MSTORE PUSH1 0x20 ADD PUSH0 KECCAK256 PUSH1 0x8 ADD PUSH1 0x14 SWAP1 SLOAD SWAP1 PUSH2 0x100 EXP SWAP1 DIV PUSH1 0xFF AND PUSH1 0x7 DUP2 GT ISZERO PUSH2 0x16E7 JUMPI PUSH2 0x16E6 PUSH2 0x1D01 JUMP JUMPDEST JUMPDEST EQ PUSH2 0x1727 JUMPI PUSH1 0x40 MLOAD PUSH32 0x8C379A000000000000000000000000000000000000000000000000000000000 DUP2 MSTORE PUSH1 0x4 ADD PUSH2 0x171E SWAP1 PUSH2 0x2948 JUMP JUMPDEST PUSH1 0x40 MLOAD DUP1 SWAP2 SUB SWAP1 REVERT JUMPDEST PUSH1 0x1 PUSH1 0xC PUSH0 DUP4 DUP2 MSTORE PUSH1 0x20 ADD SWAP1 DUP2 MSTORE PUSH1 0x20 ADD PUSH0 KECCAK256 PUSH1 0x8 ADD PUSH1 0x14 PUSH2 0x100 EXP DUP2 SLOAD DUP2 PUSH1 0xFF MUL NOT AND SWAP1 DUP4 PUSH1 0x7 DUP2 GT ISZERO PUSH2 0x175F JUMPI PUSH2 0x175E PUSH2 0x1D01 JUMP JUMPDEST JUMPDEST MUL OR SWAP1 SSTORE POP PUSH1 0x1 PUSH1 0xC PUSH0 DUP4 DUP2 MSTORE PUSH1 0x20 ADD SWAP1 DUP2 MSTORE PUSH1 0x20 ADD PUSH0 KECCAK256 PUSH1 0x8 ADD PUSH1 0x15 PUSH2 0x100 EXP DUP2 SLOAD DUP2 PUSH1 0xFF MUL NOT AND SWAP1 DUP4 ISZERO ISZERO MUL OR SWAP1 SSTORE POP CALLER PUSH1 0xC PUSH0 DUP4 DUP2 MSTORE PUSH1 0x20 ADD SWAP1 DUP2 MSTORE PUSH1 0x20 ADD PUSH0 KECCAK256 PUSH1 0x8 ADD PUSH0 PUSH2 0x100 EXP DUP2 SLOAD DUP2 PUSH20 0xFFFFFFFFFFFFFFFFFFFFFFFFFFFFFFFFFFFFFFFF MUL NOT AND SWAP1 DUP4 PUSH20 0xFFFFFFFFFFFFFFFFFFFFFFFFFFFFFFFFFFFFFFFF AND MUL OR SWAP1 SSTORE POP CALLVALUE PUSH1 0x4 PUSH0 DUP3 DUP3 SLOAD PUSH2 0x17F4 SWAP2 SWAP1 PUSH2 0x2993 JUMP JUMPDEST SWAP3 POP POP DUP2 SWAP1 SSTORE POP CALLER PUSH20 0xFFFFFFFFFFFFFFFFFFFFFFFFFFFFFFFFFFFFFFFF AND PUSH31 0xD28C9CC43C9ABFC1A8676EDAEE9931DAA84190C43F35D1FB6E3A48AFA4BCA3 DUP3 PUSH1 0x1 PUSH1 0x40 MLOAD PUSH2 0x1843 SWAP3 SWAP2 SWAP1 PUSH2 0x2A10 JUMP JUMPDEST PUSH1 0x40 MLOAD DUP1 SWAP2 SUB SWAP1 LOG2 POP JUMP JUMPDEST PUSH1 0x40 MLOAD DUP1 PUSH2 0x160 ADD PUSH1 0x40 MSTORE DUP1 PUSH0 DUP1 NOT AND DUP2 MSTORE PUSH1 0x20 ADD PUSH1 0x60 DUP2 MSTORE PUSH1 0x20 ADD PUSH0 DUP2 MSTORE PUSH1 0x20 ADD PUSH1 0x60 DUP2 MSTORE PUSH1 0x20 ADD PUSH1 0x60 DUP2 MSTORE PUSH1 0x20 ADD PUSH0 DUP2 MSTORE PUSH1 0x20 ADD PUSH1 0x60 DUP2 MSTORE PUSH1 0x20 ADD PUSH0 PUSH20 0xFFFFFFFFFFFFFFFFFFFFFFFFFFFFFFFFFFFFFFFF AND DUP2 MSTORE PUSH1 0x20 ADD PUSH0 PUSH20 0xFFFFFFFFFFFFFFFFFFFFFFFFFFFFFFFFFFFFFFFF AND DUP2 MSTORE PUSH1 0x20 ADD PUSH0 PUSH1 0x7 DUP2 GT ISZERO PUSH2 0x18D6 JUMPI PUSH2 0x18D5 PUSH2 0x1D01 JUMP JUMPDEST JUMPDEST DUP2 MSTORE PUSH1 0x20 ADD PUSH0 ISZERO ISZERO DUP2 MSTORE POP SWAP1 JUMP JUMPDEST PUSH0 PUSH1 0x40 MLOAD SWAP1 POP SWAP1 JUMP JUMPDEST PUSH0 DUP1 REVERT JUMPDEST PUSH0 DUP1 REVERT JUMPDEST PUSH0 PUSH20 0xFFFFFFFFFFFFFFFFFFFFFFFFFFFFFFFFFFFFFFFF DUP3 AND SWAP1 POP SWAP2 SWAP1 POP JUMP JUMPDEST PUSH0 PUSH2 0x191E DUP3 PUSH2 0x18F5 JUMP JUMPDEST SWAP1 POP SWAP2 SWAP1 POP JUMP JUMPDEST PUSH2 0x192E DUP2 PUSH2 0x1914 JUMP JUMPDEST DUP2 EQ PUSH2 0x1938 JUMPI PUSH0 DUP1 REVERT JUMPDEST POP JUMP JUMPDEST PUSH0 DUP2 CALLDATALOAD SWAP1 POP PUSH2 0x1949 DUP2 PUSH2 0x1925 JUMP JUMPDEST SWAP3 SWAP2 POP POP JUMP JUMPDEST PUSH0 DUP2 SWAP1 POP SWAP2 SWAP1 POP JUMP JUMPDEST PUSH2 0x1961 DUP2 PUSH2 0x194F JUMP JUMPDEST DUP2 EQ PUSH2 0x196B JUMPI PUSH0 DUP1 REVERT JUMPDEST POP JUMP JUMPDEST PUSH0 DUP2 CALLDATALOAD SWAP1 POP PUSH2 0x197C DUP2 PUSH2 0x1958 JUMP JUMPDEST SWAP3 SWAP2 POP POP JUMP JUMPDEST PUSH0 DUP1 PUSH1 0x40 DUP4 DUP6 SUB SLT ISZERO PUSH2 0x1998 JUMPI PUSH2 0x1997 PUSH2 0x18ED JUMP JUMPDEST JUMPDEST PUSH0 PUSH2 0x19A5 DUP6 DUP3 DUP7 ADD PUSH2 0x193B JUMP JUMPDEST SWAP3 POP POP PUSH1 0x20 PUSH2 0x19B6 DUP6 DUP3 DUP7 ADD PUSH2 0x196E JUMP JUMPDEST SWAP2 POP POP SWAP3 POP SWAP3 SWAP1 POP JUMP JUMPDEST PUSH0 DUP2 ISZERO ISZERO SWAP1 POP SWAP2 SWAP1 POP JUMP JUMPDEST PUSH2 0x19D4 DUP2 PUSH2 0x19C0 JUMP JUMPDEST DUP3 MSTORE POP POP JUMP JUMPDEST PUSH0 PUSH1 0x20 DUP3 ADD SWAP1 POP PUSH2 0x19ED PUSH0 DUP4 ADD DUP5 PUSH2 0x19CB JUMP JUMPDEST SWAP3 SWAP2 POP POP JUMP JUMPDEST PUSH0 DUP1 REVERT JUMPDEST PUSH0 DUP1 REVERT JUMPDEST PUSH0 PUSH1 0x1F NOT PUSH1 0x1F DUP4 ADD AND SWAP1 POP SWAP2 SWAP1 POP JUMP JUMPDEST PUSH32 0x4E487B7100000000000000000000000000000000000000000000000000000000 PUSH0 MSTORE PUSH1 0x41 PUSH1 0x4 MSTORE PUSH1 0x24 PUSH0 REVERT JUMPDEST PUSH2 0x1A41 DUP3 PUSH2 0x19FB JUMP JUMPDEST DUP2 ADD DUP2 DUP2 LT PUSH8 0xFFFFFFFFFFFFFFFF DUP3 GT OR ISZERO PUSH2 0x1A60 JUMPI PUSH2 0x1A5F PUSH2 0x1A0B JUMP JUMPDEST JUMPDEST DUP1 PUSH1 0x40 MSTORE POP POP POP JUMP JUMPDEST PUSH0 PUSH2 0x1A72 PUSH2 0x18E4 JUMP JUMPDEST SWAP1 POP PUSH2 0x1A7E DUP3 DUP3 PUSH2 0x1A38 JUMP JUMPDEST SWAP2 SWAP1 POP JUMP JUMPDEST PUSH0 PUSH8 0xFFFFFFFFFFFFFFFF DUP3 GT ISZERO PUSH2 0x1A9D JUMPI PUSH2 0x1A9C PUSH2 0x1A0B JUMP JUMPDEST JUMPDEST PUSH2 0x1AA6 DUP3 PUSH2 0x19FB JUMP JUMPDEST SWAP1 POP PUSH1 0x20 DUP2 ADD SWAP1 POP SWAP2 SWAP1 POP JUMP JUMPDEST DUP3 DUP2 DUP4 CALLDATACOPY PUSH0 DUP4 DUP4 ADD MSTORE POP POP POP JUMP JUMPDEST PUSH0 PUSH2 0x1AD3 PUSH2 0x1ACE DUP5 PUSH2 0x1A83 JUMP JUMPDEST PUSH2 0x1A69 JUMP JUMPDEST SWAP1 POP DUP3 DUP2 MSTORE PUSH1 0x20 DUP2 ADD DUP5 DUP5 DUP5 ADD GT ISZERO PUSH2 0x1AEF JUMPI PUSH2 0x1AEE PUSH2 0x19F7 JUMP JUMPDEST JUMPDEST PUSH2 0x1AFA DUP5 DUP3 DUP6 PUSH2 0x1AB3 JUMP JUMPDEST POP SWAP4 SWAP3 POP POP POP JUMP JUMPDEST PUSH0 DUP3 PUSH1 0x1F DUP4 ADD SLT PUSH2 0x1B16 JUMPI PUSH2 0x1B15 PUSH2 0x19F3 JUMP JUMPDEST JUMPDEST DUP2 CALLDATALOAD PUSH2 0x1B26 DUP5 DUP3 PUSH1 0x20 DUP7 ADD PUSH2 0x1AC1 JUMP JUMPDEST SWAP2 POP POP SWAP3 SWAP2 POP POP JUMP JUMPDEST PUSH0 DUP1 PUSH0 DUP1 PUSH0 DUP1 PUSH1 0xC0 DUP8 DUP10 SUB SLT ISZERO PUSH2 0x1B49 JUMPI PUSH2 0x1B48 PUSH2 0x18ED JUMP JUMPDEST JUMPDEST PUSH0 DUP8 ADD CALLDATALOAD PUSH8 0xFFFFFFFFFFFFFFFF DUP2 GT ISZERO PUSH2 0x1B66 JUMPI PUSH2 0x1B65 PUSH2 0x18F1 JUMP JUMPDEST JUMPDEST PUSH2 0x1B72 DUP10 DUP3 DUP11 ADD PUSH2 0x1B02 JUMP JUMPDEST SWAP7 POP POP PUSH1 0x20 PUSH2 0x1B83 DUP10 DUP3 DUP11 ADD PUSH2 0x196E JUMP JUMPDEST SWAP6 POP POP PUSH1 0x40 DUP8 ADD CALLDATALOAD PUSH8 0xFFFFFFFFFFFFFFFF DUP2 GT ISZERO PUSH2 0x1BA4 JUMPI PUSH2 0x1BA3 PUSH2 0x18F1 JUMP JUMPDEST JUMPDEST PUSH2 0x1BB0 DUP10 DUP3 DUP11 ADD PUSH2 0x1B02 JUMP JUMPDEST SWAP5 POP POP PUSH1 0x60 DUP8 ADD CALLDATALOAD PUSH8 0xFFFFFFFFFFFFFFFF DUP2 GT ISZERO PUSH2 0x1BD1 JUMPI PUSH2 0x1BD0 PUSH2 0x18F1 JUMP JUMPDEST JUMPDEST PUSH2 0x1BDD DUP10 DUP3 DUP11 ADD PUSH2 0x1B02 JUMP JUMPDEST SWAP4 POP POP PUSH1 0x80 PUSH2 0x1BEE DUP10 DUP3 DUP11 ADD PUSH2 0x196E JUMP JUMPDEST SWAP3 POP POP PUSH1 0xA0 DUP8 ADD CALLDATALOAD PUSH8 0xFFFFFFFFFFFFFFFF DUP2 GT ISZERO PUSH2 0x1C0F JUMPI PUSH2 0x1C0E PUSH2 0x18F1 JUMP JUMPDEST JUMPDEST PUSH2 0x1C1B DUP10 DUP3 DUP11 ADD PUSH2 0x1B02 JUMP JUMPDEST SWAP2 POP POP SWAP3 SWAP6 POP SWAP3 SWAP6 POP SWAP3 SWAP6 JUMP JUMPDEST PUSH0 DUP2 MLOAD SWAP1 POP SWAP2 SWAP1 POP JUMP JUMPDEST PUSH0 DUP3 DUP3 MSTORE PUSH1 0x20 DUP3 ADD SWAP1 POP SWAP3 SWAP2 POP POP JUMP JUMPDEST PUSH0 DUP2 SWAP1 POP PUSH1 0x20 DUP3 ADD SWAP1 POP SWAP2 SWAP1 POP JUMP JUMPDEST PUSH0 DUP2 SWAP1 POP SWAP2 SWAP1 POP JUMP JUMPDEST PUSH2 0x1C63 DUP2 PUSH2 0x1C51 JUMP JUMPDEST DUP3 MSTORE POP POP JUMP JUMPDEST PUSH0 DUP2 MLOAD SWAP1 POP SWAP2 SWAP1 POP JUMP JUMPDEST PUSH0 DUP3 DUP3 MSTORE PUSH1 0x20 DUP3 ADD SWAP1 POP SWAP3 SWAP2 POP POP JUMP JUMPDEST PUSH0 JUMPDEST DUP4 DUP2 LT ISZERO PUSH2 0x1CA0 JUMPI DUP1 DUP3 ADD MLOAD DUP2 DUP5 ADD MSTORE PUSH1 0x20 DUP2 ADD SWAP1 POP PUSH2 0x1C85 JUMP JUMPDEST PUSH0 DUP5 DUP5 ADD MSTORE POP POP POP POP JUMP JUMPDEST PUSH0 PUSH2 0x1CB5 DUP3 PUSH2 0x1C69 JUMP JUMPDEST PUSH2 0x1CBF DUP2 DUP6 PUSH2 0x1C73 JUMP JUMPDEST SWAP4 POP PUSH2 0x1CCF DUP2 DUP6 PUSH1 0x20 DUP7 ADD PUSH2 0x1C83 JUMP JUMPDEST PUSH2 0x1CD8 DUP2 PUSH2 0x19FB JUMP JUMPDEST DUP5 ADD SWAP2 POP POP SWAP3 SWAP2 POP POP JUMP JUMPDEST PUSH2 0x1CEC DUP2 PUSH2 0x194F JUMP JUMPDEST DUP3 MSTORE POP POP JUMP JUMPDEST PUSH2 0x1CFB DUP2 PUSH2 0x1914 JUMP JUMPDEST DUP3 MSTORE POP POP JUMP JUMPDEST PUSH32 0x4E487B7100000000000000000000000000000000000000000000000000000000 PUSH0 MSTORE PUSH1 0x21 PUSH1 0x4 MSTORE PUSH1 0x24 PUSH0 REVERT JUMPDEST PUSH1 0x8 DUP2 LT PUSH2 0x1D3F JUMPI PUSH2 0x1D3E PUSH2 0x1D01 JUMP JUMPDEST JUMPDEST POP JUMP JUMPDEST PUSH0 DUP2 SWAP1 POP PUSH2 0x1D4F DUP3 PUSH2 0x1D2E JUMP JUMPDEST SWAP2 SWAP1 POP JUMP JUMPDEST PUSH0 PUSH2 0x1D5E DUP3 PUSH2 0x1D42 JUMP JUMPDEST SWAP1 POP SWAP2 SWAP1 POP JUMP JUMPDEST PUSH2 0x1D6E DUP2 PUSH2 0x1D54 JUMP JUMPDEST DUP3 MSTORE POP POP JUMP JUMPDEST PUSH2 0x1D7D DUP2 PUSH2 0x19C0 JUMP JUMPDEST DUP3 MSTORE POP POP JUMP JUMPDEST PUSH0 PUSH2 0x160 DUP4 ADD PUSH0 DUP4 ADD MLOAD PUSH2 0x1D99 PUSH0 DUP7 ADD DUP3 PUSH2 0x1C5A JUMP JUMPDEST POP PUSH1 0x20 DUP4 ADD MLOAD DUP5 DUP3 SUB PUSH1 0x20 DUP7 ADD MSTORE PUSH2 0x1DB1 DUP3 DUP3 PUSH2 0x1CAB JUMP JUMPDEST SWAP2 POP POP PUSH1 0x40 DUP4 ADD MLOAD PUSH2 0x1DC6 PUSH1 0x40 DUP7 ADD DUP3 PUSH2 0x1CE3 JUMP JUMPDEST POP PUSH1 0x60 DUP4 ADD MLOAD DUP5 DUP3 SUB PUSH1 0x60 DUP7 ADD MSTORE PUSH2 0x1DDE DUP3 DUP3 PUSH2 0x1CAB JUMP JUMPDEST SWAP2 POP POP PUSH1 0x80 DUP4 ADD MLOAD DUP5 DUP3 SUB PUSH1 0x80 DUP7 ADD MSTORE PUSH2 0x1DF8 DUP3 DUP3 PUSH2 0x1CAB JUMP JUMPDEST SWAP2 POP POP PUSH1 0xA0 DUP4 ADD MLOAD PUSH2 0x1E0D PUSH1 0xA0 DUP7 ADD DUP3 PUSH2 0x1CE3 JUMP JUMPDEST POP PUSH1 0xC0 DUP4 ADD MLOAD DUP5 DUP3 SUB PUSH1 0xC0 DUP7 ADD MSTORE PUSH2 0x1E25 DUP3 DUP3 PUSH2 0x1CAB JUMP JUMPDEST SWAP2 POP POP PUSH1 0xE0 DUP4 ADD MLOAD PUSH2 0x1E3A PUSH1 0xE0 DUP7 ADD DUP3 PUSH2 0x1CF2 JUMP JUMPDEST POP PUSH2 0x100 DUP4 ADD MLOAD PUSH2 0x1E4F PUSH2 0x100 DUP7 ADD DUP3 PUSH2 0x1CF2 JUMP JUMPDEST POP PUSH2 0x120 DUP4 ADD MLOAD PUSH2 0x1E64 PUSH2 0x120 DUP7 ADD DUP3 PUSH2 0x1D65 JUMP JUMPDEST POP PUSH2 0x140 DUP4 ADD MLOAD PUSH2 0x1E79 PUSH2 0x140 DUP7 ADD DUP3 PUSH2 0x1D74 JUMP JUMPDEST POP DUP1 SWAP2 POP POP SWAP3 SWAP2 POP POP JUMP JUMPDEST PUSH0 PUSH2 0x1E8F DUP4 DUP4 PUSH2 0x1D83 JUMP JUMPDEST SWAP1 POP SWAP3 SWAP2 POP POP JUMP JUMPDEST PUSH0 PUSH1 0x20 DUP3 ADD SWAP1 POP SWAP2 SWAP1 POP JUMP JUMPDEST PUSH0 PUSH2 0x1EAD DUP3 PUSH2 0x1C28 JUMP JUMPDEST PUSH2 0x1EB7 DUP2 DUP6 PUSH2 0x1C32 JUMP JUMPDEST SWAP4 POP DUP4 PUSH1 0x20 DUP3 MUL DUP6 ADD PUSH2 0x1EC9 DUP6 PUSH2 0x1C42 JUMP JUMPDEST DUP1 PUSH0 JUMPDEST DUP6 DUP2 LT ISZERO PUSH2 0x1F04 JUMPI DUP5 DUP5 SUB DUP10 MSTORE DUP2 MLOAD PUSH2 0x1EE5 DUP6 DUP3 PUSH2 0x1E84 JUMP JUMPDEST SWAP5 POP PUSH2 0x1EF0 DUP4 PUSH2 0x1E97 JUMP JUMPDEST SWAP3 POP PUSH1 0x20 DUP11 ADD SWAP10 POP POP PUSH1 0x1 DUP2 ADD SWAP1 POP PUSH2 0x1ECC JUMP JUMPDEST POP DUP3 SWAP8 POP DUP8 SWAP6 POP POP POP POP POP POP SWAP3 SWAP2 POP POP JUMP JUMPDEST PUSH0 PUSH1 0x20 DUP3 ADD SWAP1 POP DUP2 DUP2 SUB PUSH0 DUP4 ADD MSTORE PUSH2 0x1F2E DUP2 DUP5 PUSH2 0x1EA3 JUMP JUMPDEST SWAP1 POP SWAP3 SWAP2 POP POP JUMP JUMPDEST PUSH0 DUP1 PUSH0 DUP1 PUSH0 PUSH1 0xA0 DUP7 DUP9 SUB SLT ISZERO PUSH2 0x1F4F JUMPI PUSH2 0x1F4E PUSH2 0x18ED JUMP JUMPDEST JUMPDEST PUSH0 DUP7 ADD CALLDATALOAD PUSH8 0xFFFFFFFFFFFFFFFF DUP2 GT ISZERO PUSH2 0x1F6C JUMPI PUSH2 0x1F6B PUSH2 0x18F1 JUMP JUMPDEST JUMPDEST PUSH2 0x1F78 DUP9 DUP3 DUP10 ADD PUSH2 0x1B02 JUMP JUMPDEST SWAP6 POP POP PUSH1 0x20 PUSH2 0x1F89 DUP9 DUP3 DUP10 ADD PUSH2 0x196E JUMP JUMPDEST SWAP5 POP POP PUSH1 0x40 DUP7 ADD CALLDATALOAD PUSH8 0xFFFFFFFFFFFFFFFF DUP2 GT ISZERO PUSH2 0x1FAA JUMPI PUSH2 0x1FA9 PUSH2 0x18F1 JUMP JUMPDEST JUMPDEST PUSH2 0x1FB6 DUP9 DUP3 DUP10 ADD PUSH2 0x1B02 JUMP JUMPDEST SWAP4 POP POP PUSH1 0x60 DUP7 ADD CALLDATALOAD PUSH8 0xFFFFFFFFFFFFFFFF DUP2 GT ISZERO PUSH2 0x1FD7 JUMPI PUSH2 0x1FD6 PUSH2 0x18F1 JUMP JUMPDEST JUMPDEST PUSH2 0x1FE3 DUP9 DUP3 DUP10 ADD PUSH2 0x1B02 JUMP JUMPDEST SWAP3 POP POP PUSH1 0x80 DUP7 ADD CALLDATALOAD PUSH8 0xFFFFFFFFFFFFFFFF DUP2 GT ISZERO PUSH2 0x2004 JUMPI PUSH2 0x2003 PUSH2 0x18F1 JUMP JUMPDEST JUMPDEST PUSH2 0x2010 DUP9 DUP3 DUP10 ADD PUSH2 0x1B02 JUMP JUMPDEST SWAP2 POP POP SWAP3 SWAP6 POP SWAP3 SWAP6 SWAP1 SWAP4 POP JUMP JUMPDEST PUSH0 PUSH1 0x20 DUP3 DUP5 SUB SLT ISZERO PUSH2 0x2032 JUMPI PUSH2 0x2031 PUSH2 0x18ED JUMP JUMPDEST JUMPDEST PUSH0 PUSH2 0x203F DUP5 DUP3 DUP6 ADD PUSH2 0x196E JUMP JUMPDEST SWAP2 POP POP SWAP3 SWAP2 POP POP JUMP JUMPDEST PUSH1 0x2 DUP2 LT PUSH2 0x2059 JUMPI PUSH2 0x2058 PUSH2 0x1D01 JUMP JUMPDEST JUMPDEST POP JUMP JUMPDEST PUSH0 DUP2 SWAP1 POP PUSH2 0x2069 DUP3 PUSH2 0x2048 JUMP JUMPDEST SWAP2 SWAP1 POP JUMP JUMPDEST PUSH0 PUSH2 0x2078 DUP3 PUSH2 0x205C JUMP JUMPDEST SWAP1 POP SWAP2 SWAP1 POP JUMP JUMPDEST PUSH2 0x2088 DUP2 PUSH2 0x206E JUMP JUMPDEST DUP3 MSTORE POP POP JUMP JUMPDEST PUSH0 PUSH1 0x20 DUP3 ADD SWAP1 POP PUSH2 0x20A1 PUSH0 DUP4 ADD DUP5 PUSH2 0x207F JUMP JUMPDEST SWAP3 SWAP2 POP POP JUMP JUMPDEST PUSH2 0x20B0 DUP2 PUSH2 0x194F JUMP JUMPDEST DUP3 MSTORE POP POP JUMP JUMPDEST PUSH0 PUSH1 0x20 DUP3 ADD SWAP1 POP PUSH2 0x20C9 PUSH0 DUP4 ADD DUP5 PUSH2 0x20A7 JUMP JUMPDEST SWAP3 SWAP2 POP POP JUMP JUMPDEST PUSH0 PUSH2 0x20D9 DUP3 PUSH2 0x18F5 JUMP JUMPDEST SWAP1 POP SWAP2 SWAP1 POP JUMP JUMPDEST PUSH2 0x20E9 DUP2 PUSH2 0x20CF JUMP JUMPDEST DUP3 MSTORE POP POP JUMP JUMPDEST PUSH0 PUSH1 0x20 DUP3 ADD SWAP1 POP PUSH2 0x2102 PUSH0 DUP4 ADD DUP5 PUSH2 0x20E0 JUMP JUMPDEST SWAP3 SWAP2 POP POP JUMP JUMPDEST PUSH2 0x2111 DUP2 PUSH2 0x1C51 JUMP JUMPDEST DUP2 EQ PUSH2 0x211B JUMPI PUSH0 DUP1 REVERT JUMPDEST POP JUMP JUMPDEST PUSH0 DUP2 CALLDATALOAD SWAP1 POP PUSH2 0x212C DUP2 PUSH2 0x2108 JUMP JUMPDEST SWAP3 SWAP2 POP POP JUMP JUMPDEST PUSH0 PUSH1 0x20 DUP3 DUP5 SUB SLT ISZERO PUSH2 0x2147 JUMPI PUSH2 0x2146 PUSH2 0x18ED JUMP JUMPDEST JUMPDEST PUSH0 PUSH2 0x2154 DUP5 DUP3 DUP6 ADD PUSH2 0x211E JUMP JUMPDEST SWAP2 POP POP SWAP3 SWAP2 POP POP JUMP JUMPDEST PUSH2 0x2166 DUP2 PUSH2 0x1914 JUMP JUMPDEST DUP3 MSTORE POP POP JUMP JUMPDEST PUSH0 PUSH1 0x20 DUP3 ADD SWAP1 POP PUSH2 0x217F PUSH0 DUP4 ADD DUP5 PUSH2 0x215D JUMP JUMPDEST SWAP3 SWAP2 POP POP JUMP JUMPDEST PUSH0 DUP1 PUSH0 DUP1 PUSH0 PUSH1 0xA0 DUP7 DUP9 SUB SLT ISZERO PUSH2 0x219E JUMPI PUSH2 0x219D PUSH2 0x18ED JUMP JUMPDEST JUMPDEST PUSH0 DUP7 ADD CALLDATALOAD PUSH8 0xFFFFFFFFFFFFFFFF DUP2 GT ISZERO PUSH2 0x21BB JUMPI PUSH2 0x21BA PUSH2 0x18F1 JUMP JUMPDEST JUMPDEST PUSH2 0x21C7 DUP9 DUP3 DUP10 ADD PUSH2 0x1B02 JUMP JUMPDEST SWAP6 POP POP PUSH1 0x20 DUP7 ADD CALLDATALOAD PUSH8 0xFFFFFFFFFFFFFFFF DUP2 GT ISZERO PUSH2 0x21E8 JUMPI PUSH2 0x21E7 PUSH2 0x18F1 JUMP JUMPDEST JUMPDEST PUSH2 0x21F4 DUP9 DUP3 DUP10 ADD PUSH2 0x1B02 JUMP JUMPDEST SWAP5 POP POP PUSH1 0x40 DUP7 ADD CALLDATALOAD PUSH8 0xFFFFFFFFFFFFFFFF DUP2 GT ISZERO PUSH2 0x2215 JUMPI PUSH2 0x2214 PUSH2 0x18F1 JUMP JUMPDEST JUMPDEST PUSH2 0x2221 DUP9 DUP3 DUP10 ADD PUSH2 0x1B02 JUMP JUMPDEST SWAP4 POP POP PUSH1 0x60 DUP7 ADD CALLDATALOAD PUSH8 0xFFFFFFFFFFFFFFFF DUP2 GT ISZERO PUSH2 0x2242 JUMPI PUSH2 0x2241 PUSH2 0x18F1 JUMP JUMPDEST JUMPDEST PUSH2 0x224E DUP9 DUP3 DUP10 ADD PUSH2 0x1B02 JUMP JUMPDEST SWAP3 POP POP PUSH1 0x80 DUP7 ADD CALLDATALOAD PUSH8 0xFFFFFFFFFFFFFFFF DUP2 GT ISZERO PUSH2 0x226F JUMPI PUSH2 0x226E PUSH2 0x18F1 JUMP JUMPDEST JUMPDEST PUSH2 0x227B DUP9 DUP3 DUP10 ADD PUSH2 0x1B02 JUMP JUMPDEST SWAP2 POP POP SWAP3 SWAP6 POP SWAP3 SWAP6 SWAP1 SWAP4 POP JUMP JUMPDEST PUSH0 DUP3 DUP3 MSTORE PUSH1 0x20 DUP3 ADD SWAP1 POP SWAP3 SWAP2 POP POP JUMP JUMPDEST PUSH32 0x496E76616C696420696E70757400000000000000000000000000000000000000 PUSH0 DUP3 ADD MSTORE POP JUMP JUMPDEST PUSH0 PUSH2 0x22CC PUSH1 0xD DUP4 PUSH2 0x2288 JUMP JUMPDEST SWAP2 POP PUSH2 0x22D7 DUP3 PUSH2 0x2298 JUMP JUMPDEST PUSH1 0x20 DUP3 ADD SWAP1 POP SWAP2 SWAP1 POP JUMP JUMPDEST PUSH0 PUSH1 0x20 DUP3 ADD SWAP1 POP DUP2 DUP2 SUB PUSH0 DUP4 ADD MSTORE PUSH2 0x22F9 DUP2 PUSH2 0x22C0 JUMP JUMPDEST SWAP1 POP SWAP2 SWAP1 POP JUMP JUMPDEST PUSH0 DUP2 PUSH1 0x60 SHL SWAP1 POP SWAP2 SWAP1 POP JUMP JUMPDEST PUSH0 PUSH2 0x2316 DUP3 PUSH2 0x2300 JUMP JUMPDEST SWAP1 POP SWAP2 SWAP1 POP JUMP JUMPDEST PUSH0 PUSH2 0x2327 DUP3 PUSH2 0x230C JUMP JUMPDEST SWAP1 POP SWAP2 SWAP1 POP JUMP JUMPDEST PUSH2 0x233F PUSH2 0x233A DUP3 PUSH2 0x1914 JUMP JUMPDEST PUSH2 0x231D JUMP JUMPDEST DUP3 MSTORE POP POP JUMP JUMPDEST PUSH0 DUP2 SWAP1 POP SWAP2 SWAP1 POP JUMP JUMPDEST PUSH2 0x235F PUSH2 0x235A DUP3 PUSH2 0x194F JUMP JUMPDEST PUSH2 0x2345 JUMP JUMPDEST DUP3 MSTORE POP POP JUMP JUMPDEST PUSH0 PUSH2 0x2370 DUP3 DUP6 PUSH2 0x232E JUMP JUMPDEST PUSH1 0x14 DUP3 ADD SWAP2 POP PUSH2 0x2380 DUP3 DUP5 PUSH2 0x234E JUMP JUMPDEST PUSH1 0x20 DUP3 ADD SWAP2 POP DUP2 SWAP1 POP SWAP4 SWAP3 POP POP POP JUMP JUMPDEST PUSH32 0x4E487B7100000000000000000000000000000000000000000000000000000000 PUSH0 MSTORE PUSH1 0x22 PUSH1 0x4 MSTORE PUSH1 0x24 PUSH0 REVERT JUMPDEST PUSH0 PUSH1 0x2 DUP3 DIV SWAP1 POP PUSH1 0x1 DUP3 AND DUP1 PUSH2 0x23D4 JUMPI PUSH1 0x7F DUP3 AND SWAP2 POP JUMPDEST PUSH1 0x20 DUP3 LT DUP2 SUB PUSH2 0x23E7 JUMPI PUSH2 0x23E6 PUSH2 0x2390 JUMP JUMPDEST JUMPDEST POP SWAP2 SWAP1 POP JUMP JUMPDEST PUSH0 DUP2 SWAP1 POP DUP2 PUSH0 MSTORE PUSH1 0x20 PUSH0 KECCAK256 SWAP1 POP SWAP2 SWAP1 POP JUMP JUMPDEST PUSH0 PUSH1 0x20 PUSH1 0x1F DUP4 ADD DIV SWAP1 POP SWAP2 SWAP1 POP JUMP JUMPDEST PUSH0 DUP3 DUP3 SHL SWAP1 POP SWAP3 SWAP2 POP POP JUMP JUMPDEST PUSH0 PUSH1 0x8 DUP4 MUL PUSH2 0x2449 PUSH32 0xFFFFFFFFFFFFFFFFFFFFFFFFFFFFFFFFFFFFFFFFFFFFFFFFFFFFFFFFFFFFFFFF DUP3 PUSH2 0x240E JUMP JUMPDEST PUSH2 0x2453 DUP7 DUP4 PUSH2 0x240E JUMP JUMPDEST SWAP6 POP DUP1 NOT DUP5 AND SWAP4 POP DUP1 DUP7 AND DUP5 OR SWAP3 POP POP POP SWAP4 SWAP3 POP POP POP JUMP JUMPDEST PUSH0 DUP2 SWAP1 POP SWAP2 SWAP1 POP JUMP JUMPDEST PUSH0 PUSH2 0x248E PUSH2 0x2489 PUSH2 0x2484 DUP5 PUSH2 0x194F JUMP JUMPDEST PUSH2 0x246B JUMP JUMPDEST PUSH2 0x194F JUMP JUMPDEST SWAP1 POP SWAP2 SWAP1 POP JUMP JUMPDEST PUSH0 DUP2 SWAP1 POP SWAP2 SWAP1 POP JUMP JUMPDEST PUSH2 0x24A7 DUP4 PUSH2 0x2474 JUMP JUMPDEST PUSH2 0x24BB PUSH2 0x24B3 DUP3 PUSH2 0x2495 JUMP JUMPDEST DUP5 DUP5 SLOAD PUSH2 0x241A JUMP JUMPDEST DUP3 SSTORE POP POP POP POP JUMP JUMPDEST PUSH0 SWAP1 JUMP JUMPDEST PUSH2 0x24CF PUSH2 0x24C3 JUMP JUMPDEST PUSH2 0x24DA DUP2 DUP5 DUP5 PUSH2 0x249E JUMP JUMPDEST POP POP POP JUMP JUMPDEST JUMPDEST DUP2 DUP2 LT ISZERO PUSH2 0x24FD JUMPI PUSH2 0x24F2 PUSH0 DUP3 PUSH2 0x24C7 JUMP JUMPDEST PUSH1 0x1 DUP2 ADD SWAP1 POP PUSH2 0x24E0 JUMP JUMPDEST POP POP JUMP JUMPDEST PUSH1 0x1F DUP3 GT ISZERO PUSH2 0x2542 JUMPI PUSH2 0x2513 DUP2 PUSH2 0x23ED JUMP JUMPDEST PUSH2 0x251C DUP5 PUSH2 0x23FF JUMP JUMPDEST DUP2 ADD PUSH1 0x20 DUP6 LT ISZERO PUSH2 0x252B JUMPI DUP2 SWAP1 POP JUMPDEST PUSH2 0x253F PUSH2 0x2537 DUP6 PUSH2 0x23FF JUMP JUMPDEST DUP4 ADD DUP3 PUSH2 0x24DF JUMP JUMPDEST POP POP JUMPDEST POP POP POP JUMP JUMPDEST PUSH0 DUP3 DUP3 SHR SWAP1 POP SWAP3 SWAP2 POP POP JUMP JUMPDEST PUSH0 PUSH2 0x2562 PUSH0 NOT DUP5 PUSH1 0x8 MUL PUSH2 0x2547 JUMP JUMPDEST NOT DUP1 DUP4 AND SWAP2 POP POP SWAP3 SWAP2 POP POP JUMP JUMPDEST PUSH0 PUSH2 0x257A DUP4 DUP4 PUSH2 0x2553 JUMP JUMPDEST SWAP2 POP DUP3 PUSH1 0x2 MUL DUP3 OR SWAP1 POP SWAP3 SWAP2 POP POP JUMP JUMPDEST PUSH2 0x2593 DUP3 PUSH2 0x1C69 JUMP JUMPDEST PUSH8 0xFFFFFFFFFFFFFFFF DUP2 GT ISZERO PUSH2 0x25AC JUMPI PUSH2 0x25AB PUSH2 0x1A0B JUMP JUMPDEST JUMPDEST PUSH2 0x25B6 DUP3 SLOAD PUSH2 0x23BD JUMP JUMPDEST PUSH2 0x25C1 DUP3 DUP3 DUP6 PUSH2 0x2501 JUMP JUMPDEST PUSH0 PUSH1 0x20 SWAP1 POP PUSH1 0x1F DUP4 GT PUSH1 0x1 DUP2 EQ PUSH2 0x25F2 JUMPI PUSH0 DUP5 ISZERO PUSH2 0x25E0 JUMPI DUP3 DUP8 ADD MLOAD SWAP1 POP JUMPDEST PUSH2 0x25EA DUP6 DUP3 PUSH2 0x256F JUMP JUMPDEST DUP7 SSTORE POP PUSH2 0x2651 JUMP JUMPDEST PUSH1 0x1F NOT DUP5 AND PUSH2 0x2600 DUP7 PUSH2 0x23ED JUMP JUMPDEST PUSH0 JUMPDEST DUP3 DUP2 LT ISZERO PUSH2 0x2627 JUMPI DUP5 DUP10 ADD MLOAD DUP3 SSTORE PUSH1 0x1 DUP3 ADD SWAP2 POP PUSH1 0x20 DUP6 ADD SWAP5 POP PUSH1 0x20 DUP2 ADD SWAP1 POP PUSH2 0x2602 JUMP JUMPDEST DUP7 DUP4 LT ISZERO PUSH2 0x2644 JUMPI DUP5 DUP10 ADD MLOAD PUSH2 0x2640 PUSH1 0x1F DUP10 AND DUP3 PUSH2 0x2553 JUMP JUMPDEST DUP4 SSTORE POP JUMPDEST PUSH1 0x1 PUSH1 0x2 DUP9 MUL ADD DUP9 SSTORE POP POP POP JUMPDEST POP POP POP POP POP POP JUMP JUMPDEST PUSH2 0x2662 DUP2 PUSH2 0x1C51 JUMP JUMPDEST DUP3 MSTORE POP POP JUMP JUMPDEST PUSH32 0x434F4E54524143545F4352454154454400000000000000000000000000000000 PUSH0 DUP3 ADD MSTORE POP JUMP JUMPDEST PUSH0 PUSH2 0x269C PUSH1 0x10 DUP4 PUSH2 0x2288 JUMP JUMPDEST SWAP2 POP PUSH2 0x26A7 DUP3 PUSH2 0x2668 JUMP JUMPDEST PUSH1 0x20 DUP3 ADD SWAP1 POP SWAP2 SWAP1 POP JUMP JUMPDEST PUSH2 0x26BB DUP2 PUSH2 0x1D54 JUMP JUMPDEST DUP3 MSTORE POP POP JUMP JUMPDEST PUSH0 PUSH1 0x60 DUP3 ADD SWAP1 POP PUSH2 0x26D4 PUSH0 DUP4 ADD DUP6 PUSH2 0x2659 JUMP JUMPDEST DUP2 DUP2 SUB PUSH1 0x20 DUP4 ADD MSTORE PUSH2 0x26E5 DUP2 PUSH2 0x2690 JUMP JUMPDEST SWAP1 POP PUSH2 0x26F4 PUSH1 0x40 DUP4 ADD DUP5 PUSH2 0x26B2 JUMP JUMPDEST SWAP4 SWAP3 POP POP POP JUMP JUMPDEST PUSH0 PUSH2 0x2706 DUP3 DUP5 PUSH2 0x234E JUMP JUMPDEST PUSH1 0x20 DUP3 ADD SWAP2 POP DUP2 SWAP1 POP SWAP3 SWAP2 POP POP JUMP JUMPDEST PUSH32 0x4E487B7100000000000000000000000000000000000000000000000000000000 PUSH0 MSTORE PUSH1 0x32 PUSH1 0x4 MSTORE PUSH1 0x24 PUSH0 REVERT JUMPDEST PUSH32 0x42555945525F4352454154454400000000000000000000000000000000000000 PUSH0 DUP3 ADD MSTORE POP JUMP JUMPDEST PUSH0 PUSH2 0x2776 PUSH1 0xD DUP4 PUSH2 0x2288 JUMP JUMPDEST SWAP2 POP PUSH2 0x2781 DUP3 PUSH2 0x2742 JUMP JUMPDEST PUSH1 0x20 DUP3 ADD SWAP1 POP SWAP2 SWAP1 POP JUMP JUMPDEST PUSH0 PUSH1 0x60 DUP3 ADD SWAP1 POP PUSH2 0x279F PUSH0 DUP4 ADD DUP6 PUSH2 0x2659 JUMP JUMPDEST DUP2 DUP2 SUB PUSH1 0x20 DUP4 ADD MSTORE PUSH2 0x27B0 DUP2 PUSH2 0x276A JUMP JUMPDEST SWAP1 POP PUSH2 0x27BF PUSH1 0x40 DUP4 ADD DUP5 PUSH2 0x26B2 JUMP JUMPDEST SWAP4 SWAP3 POP POP POP JUMP JUMPDEST PUSH32 0x4641524D45525F43524541544544000000000000000000000000000000000000 PUSH0 DUP3 ADD MSTORE POP JUMP JUMPDEST PUSH0 PUSH2 0x27FA PUSH1 0xE DUP4 PUSH2 0x2288 JUMP JUMPDEST SWAP2 POP PUSH2 0x2805 DUP3 PUSH2 0x27C6 JUMP JUMPDEST PUSH1 0x20 DUP3 ADD SWAP1 POP SWAP2 SWAP1 POP JUMP JUMPDEST PUSH0 PUSH1 0x60 DUP3 ADD SWAP1 POP PUSH2 0x2823 PUSH0 DUP4 ADD DUP6 PUSH2 0x2659 JUMP JUMPDEST DUP2 DUP2 SUB PUSH1 0x20 DUP4 ADD MSTORE PUSH2 0x2834 DUP2 PUSH2 0x27EE JUMP JUMPDEST SWAP1 POP PUSH2 0x2843 PUSH1 0x40 DUP4 ADD DUP5 PUSH2 0x26B2 JUMP JUMPDEST SWAP4 SWAP3 POP POP POP JUMP JUMPDEST PUSH32 0x4465706F73697420616D6F756E74206D75737420626520677265617465722074 PUSH0 DUP3 ADD MSTORE PUSH32 0x68616E2030000000000000000000000000000000000000000000000000000000 PUSH1 0x20 DUP3 ADD MSTORE POP JUMP JUMPDEST PUSH0 PUSH2 0x28A4 PUSH1 0x25 DUP4 PUSH2 0x2288 JUMP JUMPDEST SWAP2 POP PUSH2 0x28AF DUP3 PUSH2 0x284A JUMP JUMPDEST PUSH1 0x40 DUP3 ADD SWAP1 POP SWAP2 SWAP1 POP JUMP JUMPDEST PUSH0 PUSH1 0x20 DUP3 ADD SWAP1 POP DUP2 DUP2 SUB PUSH0 DUP4 ADD MSTORE PUSH2 0x28D1 DUP2 PUSH2 0x2898 JUMP JUMPDEST SWAP1 POP SWAP2 SWAP1 POP JUMP JUMPDEST PUSH32 0x436F6E7472616374206973206E6F7420696E2074686520435245415445442073 PUSH0 DUP3 ADD MSTORE PUSH32 0x7461747573000000000000000000000000000000000000000000000000000000 PUSH1 0x20 DUP3 ADD MSTORE POP JUMP JUMPDEST PUSH0 PUSH2 0x2932 PUSH1 0x25 DUP4 PUSH2 0x2288 JUMP JUMPDEST SWAP2 POP PUSH2 0x293D DUP3 PUSH2 0x28D8 JUMP JUMPDEST PUSH1 0x40 DUP3 ADD SWAP1 POP SWAP2 SWAP1 POP JUMP JUMPDEST PUSH0 PUSH1 0x20 DUP3 ADD SWAP1 POP DUP2 DUP2 SUB PUSH0 DUP4 ADD MSTORE PUSH2 0x295F DUP2 PUSH2 0x2926 JUMP JUMPDEST SWAP1 POP SWAP2 SWAP1 POP JUMP JUMPDEST PUSH32 0x4E487B7100000000000000000000000000000000000000000000000000000000 PUSH0 MSTORE PUSH1 0x11 PUSH1 0x4 MSTORE PUSH1 0x24 PUSH0 REVERT JUMPDEST PUSH0 PUSH2 0x299D DUP3 PUSH2 0x194F JUMP JUMPDEST SWAP2 POP PUSH2 0x29A8 DUP4 PUSH2 0x194F JUMP JUMPDEST SWAP3 POP DUP3 DUP3 ADD SWAP1 POP DUP1 DUP3 GT ISZERO PUSH2 0x29C0 JUMPI PUSH2 0x29BF PUSH2 0x2966 JUMP JUMPDEST JUMPDEST SWAP3 SWAP2 POP POP JUMP JUMPDEST PUSH32 0x434F4E54524143545F4143434550544544000000000000000000000000000000 PUSH0 DUP3 ADD MSTORE POP JUMP JUMPDEST PUSH0 PUSH2 0x29FA PUSH1 0x11 DUP4 PUSH2 0x2288 JUMP JUMPDEST SWAP2 POP PUSH2 0x2A05 DUP3 PUSH2 0x29C6 JUMP JUMPDEST PUSH1 0x20 DUP3 ADD SWAP1 POP SWAP2 SWAP1 POP JUMP JUMPDEST PUSH0 PUSH1 0x60 DUP3 ADD SWAP1 POP PUSH2 0x2A23 PUSH0 DUP4 ADD DUP6 PUSH2 0x2659 JUMP JUMPDEST DUP2 DUP2 SUB PUSH1 0x20 DUP4 ADD MSTORE PUSH2 0x2A34 DUP2 PUSH2 0x29EE JUMP JUMPDEST SWAP1 POP PUSH2 0x2A43 PUSH1 0x40 DUP4 ADD DUP5 PUSH2 0x26B2 JUMP JUMPDEST SWAP4 SWAP3 POP POP POP JUMP INVALID LOG2 PUSH5 0x6970667358 0x22 SLT KECCAK256 DUP16 PUSH26 0x7855800595F375BDC5AFED7A2DD91FA3CDAFA20D8A22319C7E05 SHL 0xC9 DUP1 SWAP11 PUSH5 0x736F6C6343 STOP ADDMOD XOR STOP CALLER "
				},
				"gasEstimates": {
					"creation": {
						"codeDepositCost": "2176000",
						"executionCost": "73733",
						"totalCost": "2249733"
					},
					"external": {
						"acceptContract(bytes32)": "infinite",
						"accepted(address,uint256)": "3095",
						"buyer()": "2531",
						"createBuyer(string,uint256,string,string,string)": "infinite",
						"createCropContract(string,uint256,string,string,uint256,string)": "infinite",
						"createFarmer(string,string,string,string,string)": "infinite",
						"escAcc()": "2619",
						"escAvailBal()": "2514",
						"escBal()": "2469",
						"escFee()": "2492",
						"farmer()": "2574",
						"getAllContracts()": "infinite",
						"getMyContracts()": "infinite",
						"isAvailable(uint256)": "2896",
						"ownerOf(bytes32)": "2872",
						"totalComplete()": "2470",
						"totalContracts()": "2492",
						"totalTerminated()": "2514"
					}
				},
				"methodIdentifiers": {
					"acceptContract(bytes32)": "f3cdc81e",
					"accepted(address,uint256)": "039858e4",
					"buyer()": "7150d8ae",
					"createBuyer(string,uint256,string,string,string)": "2107e9e1",
					"createCropContract(string,uint256,string,string,uint256,string)": "09bfcd73",
					"createFarmer(string,string,string,string,string)": "e96a155c",
					"escAcc()": "618f0ea7",
					"escAvailBal()": "50f18cb7",
					"escBal()": "c86d9da2",
					"escFee()": "4e47368b",
					"farmer()": "d811fcf0",
					"getAllContracts()": "18d3ce96",
					"getMyContracts()": "c81bde15",
					"isAvailable(uint256)": "3a178d99",
					"ownerOf(bytes32)": "7dd56411",
					"totalComplete()": "42c6e7fd",
					"totalContracts()": "a09037a9",
					"totalTerminated()": "b86b1fbe"
				}
			},
			"storageLayout": {
				"storage": [
					{
						"astId": 10,
						"contract": "contracts/cropcontract.sol:Futures",
						"label": "_status",
						"offset": 0,
						"slot": "0",
						"type": "t_uint256"
					},
					{
						"astId": 71,
						"contract": "contracts/cropcontract.sol:Futures",
						"label": "escAcc",
						"offset": 0,
						"slot": "1",
						"type": "t_address_payable"
					},
					{
						"astId": 73,
						"contract": "contracts/cropcontract.sol:Futures",
						"label": "buyer",
						"offset": 0,
						"slot": "2",
						"type": "t_address_payable"
					},
					{
						"astId": 75,
						"contract": "contracts/cropcontract.sol:Futures",
						"label": "farmer",
						"offset": 0,
						"slot": "3",
						"type": "t_address_payable"
					},
					{
						"astId": 77,
						"contract": "contracts/cropcontract.sol:Futures",
						"label": "escBal",
						"offset": 0,
						"slot": "4",
						"type": "t_uint256"
					},
					{
						"astId": 79,
						"contract": "contracts/cropcontract.sol:Futures",
						"label": "escFee",
						"offset": 0,
						"slot": "5",
						"type": "t_uint256"
					},
					{
						"astId": 81,
						"contract": "contracts/cropcontract.sol:Futures",
						"label": "escAvailBal",
						"offset": 0,
						"slot": "6",
						"type": "t_uint256"
					},
					{
						"astId": 84,
						"contract": "contracts/cropcontract.sol:Futures",
						"label": "totalContracts",
						"offset": 0,
						"slot": "7",
						"type": "t_uint256"
					},
					{
						"astId": 87,
						"contract": "contracts/cropcontract.sol:Futures",
						"label": "totalComplete",
						"offset": 0,
						"slot": "8",
						"type": "t_uint256"
					},
					{
						"astId": 90,
						"contract": "contracts/cropcontract.sol:Futures",
						"label": "totalTerminated",
						"offset": 0,
						"slot": "9",
						"type": "t_uint256"
					},
					{
						"astId": 95,
						"contract": "contracts/cropcontract.sol:Futures",
						"label": "buyers",
						"offset": 0,
						"slot": "10",
						"type": "t_mapping(t_bytes32,t_struct(BuyerStruct)168_storage)"
					},
					{
						"astId": 100,
						"contract": "contracts/cropcontract.sol:Futures",
						"label": "farmers",
						"offset": 0,
						"slot": "11",
						"type": "t_mapping(t_bytes32,t_struct(FarmerStruct)153_storage)"
					},
					{
						"astId": 105,
						"contract": "contracts/cropcontract.sol:Futures",
						"label": "cropContracts",
						"offset": 0,
						"slot": "12",
						"type": "t_mapping(t_bytes32,t_struct(CropContractStruct)192_storage)"
					},
					{
						"astId": 111,
						"contract": "contracts/cropcontract.sol:Futures",
						"label": "cropContractsOf",
						"offset": 0,
						"slot": "13",
						"type": "t_mapping(t_address,t_array(t_struct(CropContractStruct)192_storage)dyn_storage)"
					},
					{
						"astId": 117,
						"contract": "contracts/cropcontract.sol:Futures",
						"label": "accepted",
						"offset": 0,
						"slot": "14",
						"type": "t_mapping(t_address,t_mapping(t_uint256,t_bool))"
					},
					{
						"astId": 121,
						"contract": "contracts/cropcontract.sol:Futures",
						"label": "ownerOf",
						"offset": 0,
						"slot": "15",
						"type": "t_mapping(t_bytes32,t_address)"
					},
					{
						"astId": 126,
						"contract": "contracts/cropcontract.sol:Futures",
						"label": "isAvailable",
						"offset": 0,
						"slot": "16",
						"type": "t_mapping(t_uint256,t_enum(Available)138)"
					}
				],
				"types": {
					"t_address": {
						"encoding": "inplace",
						"label": "address",
						"numberOfBytes": "20"
					},
					"t_address_payable": {
						"encoding": "inplace",
						"label": "address payable",
						"numberOfBytes": "20"
					},
					"t_array(t_struct(CropContractStruct)192_storage)dyn_storage": {
						"base": "t_struct(CropContractStruct)192_storage",
						"encoding": "dynamic_array",
						"label": "struct Futures.CropContractStruct[]",
						"numberOfBytes": "32"
					},
					"t_bool": {
						"encoding": "inplace",
						"label": "bool",
						"numberOfBytes": "1"
					},
					"t_bytes32": {
						"encoding": "inplace",
						"label": "bytes32",
						"numberOfBytes": "32"
					},
					"t_enum(Available)138": {
						"encoding": "inplace",
						"label": "enum Futures.Available",
						"numberOfBytes": "1"
					},
					"t_enum(Status)135": {
						"encoding": "inplace",
						"label": "enum Futures.Status",
						"numberOfBytes": "1"
					},
					"t_mapping(t_address,t_array(t_struct(CropContractStruct)192_storage)dyn_storage)": {
						"encoding": "mapping",
						"key": "t_address",
						"label": "mapping(address => struct Futures.CropContractStruct[])",
						"numberOfBytes": "32",
						"value": "t_array(t_struct(CropContractStruct)192_storage)dyn_storage"
					},
					"t_mapping(t_address,t_mapping(t_uint256,t_bool))": {
						"encoding": "mapping",
						"key": "t_address",
						"label": "mapping(address => mapping(uint256 => bool))",
						"numberOfBytes": "32",
						"value": "t_mapping(t_uint256,t_bool)"
					},
					"t_mapping(t_bytes32,t_address)": {
						"encoding": "mapping",
						"key": "t_bytes32",
						"label": "mapping(bytes32 => address)",
						"numberOfBytes": "32",
						"value": "t_address"
					},
					"t_mapping(t_bytes32,t_struct(BuyerStruct)168_storage)": {
						"encoding": "mapping",
						"key": "t_bytes32",
						"label": "mapping(bytes32 => struct Futures.BuyerStruct)",
						"numberOfBytes": "32",
						"value": "t_struct(BuyerStruct)168_storage"
					},
					"t_mapping(t_bytes32,t_struct(CropContractStruct)192_storage)": {
						"encoding": "mapping",
						"key": "t_bytes32",
						"label": "mapping(bytes32 => struct Futures.CropContractStruct)",
						"numberOfBytes": "32",
						"value": "t_struct(CropContractStruct)192_storage"
					},
					"t_mapping(t_bytes32,t_struct(FarmerStruct)153_storage)": {
						"encoding": "mapping",
						"key": "t_bytes32",
						"label": "mapping(bytes32 => struct Futures.FarmerStruct)",
						"numberOfBytes": "32",
						"value": "t_struct(FarmerStruct)153_storage"
					},
					"t_mapping(t_uint256,t_bool)": {
						"encoding": "mapping",
						"key": "t_uint256",
						"label": "mapping(uint256 => bool)",
						"numberOfBytes": "32",
						"value": "t_bool"
					},
					"t_mapping(t_uint256,t_enum(Available)138)": {
						"encoding": "mapping",
						"key": "t_uint256",
						"label": "mapping(uint256 => enum Futures.Available)",
						"numberOfBytes": "32",
						"value": "t_enum(Available)138"
					},
					"t_string_storage": {
						"encoding": "bytes",
						"label": "string",
						"numberOfBytes": "32"
					},
					"t_struct(BuyerStruct)168_storage": {
						"encoding": "inplace",
						"label": "struct Futures.BuyerStruct",
						"members": [
							{
								"astId": 155,
								"contract": "contracts/cropcontract.sol:Futures",
								"label": "id",
								"offset": 0,
								"slot": "0",
								"type": "t_bytes32"
							},
							{
								"astId": 157,
								"contract": "contracts/cropcontract.sol:Futures",
								"label": "name",
								"offset": 0,
								"slot": "1",
								"type": "t_string_storage"
							},
							{
								"astId": 159,
								"contract": "contracts/cropcontract.sol:Futures",
								"label": "phoneNo",
								"offset": 0,
								"slot": "2",
								"type": "t_uint256"
							},
							{
								"astId": 161,
								"contract": "contracts/cropcontract.sol:Futures",
								"label": "email",
								"offset": 0,
								"slot": "3",
								"type": "t_string_storage"
							},
							{
								"astId": 163,
								"contract": "contracts/cropcontract.sol:Futures",
								"label": "businessName",
								"offset": 0,
								"slot": "4",
								"type": "t_string_storage"
							},
							{
								"astId": 165,
								"contract": "contracts/cropcontract.sol:Futures",
								"label": "location",
								"offset": 0,
								"slot": "5",
								"type": "t_string_storage"
							},
							{
								"astId": 167,
								"contract": "contracts/cropcontract.sol:Futures",
								"label": "timestamp",
								"offset": 0,
								"slot": "6",
								"type": "t_uint256"
							}
						],
						"numberOfBytes": "224"
					},
					"t_struct(CropContractStruct)192_storage": {
						"encoding": "inplace",
						"label": "struct Futures.CropContractStruct",
						"members": [
							{
								"astId": 170,
								"contract": "contracts/cropcontract.sol:Futures",
								"label": "id",
								"offset": 0,
								"slot": "0",
								"type": "t_bytes32"
							},
							{
								"astId": 172,
								"contract": "contracts/cropcontract.sol:Futures",
								"label": "product",
								"offset": 0,
								"slot": "1",
								"type": "t_string_storage"
							},
							{
								"astId": 174,
								"contract": "contracts/cropcontract.sol:Futures",
								"label": "quantity",
								"offset": 0,
								"slot": "2",
								"type": "t_uint256"
							},
							{
								"astId": 176,
								"contract": "contracts/cropcontract.sol:Futures",
								"label": "unit",
								"offset": 0,
								"slot": "3",
								"type": "t_string_storage"
							},
							{
								"astId": 178,
								"contract": "contracts/cropcontract.sol:Futures",
								"label": "expectedMonthOfDelivery",
								"offset": 0,
								"slot": "4",
								"type": "t_string_storage"
							},
							{
								"astId": 180,
								"contract": "contracts/cropcontract.sol:Futures",
								"label": "pricePerUnit",
								"offset": 0,
								"slot": "5",
								"type": "t_uint256"
							},
							{
								"astId": 182,
								"contract": "contracts/cropcontract.sol:Futures",
								"label": "termsAndConditions",
								"offset": 0,
								"slot": "6",
								"type": "t_string_storage"
							},
							{
								"astId": 184,
								"contract": "contracts/cropcontract.sol:Futures",
								"label": "owner",
								"offset": 0,
								"slot": "7",
								"type": "t_address"
							},
							{
								"astId": 186,
								"contract": "contracts/cropcontract.sol:Futures",
								"label": "buyer",
								"offset": 0,
								"slot": "8",
								"type": "t_address"
							},
							{
								"astId": 189,
								"contract": "contracts/cropcontract.sol:Futures",
								"label": "status",
								"offset": 20,
								"slot": "8",
								"type": "t_enum(Status)135"
							},
							{
								"astId": 191,
								"contract": "contracts/cropcontract.sol:Futures",
								"label": "accepted",
								"offset": 21,
								"slot": "8",
								"type": "t_bool"
							}
						],
						"numberOfBytes": "288"
					},
					"t_struct(FarmerStruct)153_storage": {
						"encoding": "inplace",
						"label": "struct Futures.FarmerStruct",
						"members": [
							{
								"astId": 140,
								"contract": "contracts/cropcontract.sol:Futures",
								"label": "id",
								"offset": 0,
								"slot": "0",
								"type": "t_bytes32"
							},
							{
								"astId": 142,
								"contract": "contracts/cropcontract.sol:Futures",
								"label": "name",
								"offset": 0,
								"slot": "1",
								"type": "t_string_storage"
							},
							{
								"astId": 144,
								"contract": "contracts/cropcontract.sol:Futures",
								"label": "email",
								"offset": 0,
								"slot": "2",
								"type": "t_string_storage"
							},
							{
								"astId": 146,
								"contract": "contracts/cropcontract.sol:Futures",
								"label": "phoneNumber",
								"offset": 0,
								"slot": "3",
								"type": "t_string_storage"
							},
							{
								"astId": 148,
								"contract": "contracts/cropcontract.sol:Futures",
								"label": "cropTypes",
								"offset": 0,
								"slot": "4",
								"type": "t_string_storage"
							},
							{
								"astId": 150,
								"contract": "contracts/cropcontract.sol:Futures",
								"label": "location",
								"offset": 0,
								"slot": "5",
								"type": "t_string_storage"
							},
							{
								"astId": 152,
								"contract": "contracts/cropcontract.sol:Futures",
								"label": "timestamp",
								"offset": 0,
								"slot": "6",
								"type": "t_uint256"
							}
						],
						"numberOfBytes": "224"
					},
					"t_uint256": {
						"encoding": "inplace",
						"label": "uint256",
						"numberOfBytes": "32"
					}
				}
			},
			"userdoc": {
				"kind": "user",
				"methods": {},
				"version": 1
			}
		}
	}
}